:020000040800F2
:1000000000800120814F0008ED2A0008EF2A000837
:10001000F12A0008F32A0008F52A00080000000071
:10002000000000000000000000000000F72A0008A7
:10003000F92A000800000000FB2A0008FD2A000839
:10004000D14F0008D14F0008D14F0008D14F000810
:10005000D14F0008D14F0008D14F0008052B0008F0
:100060001B2B0008D14F0008D14F0008D14F0008CA
:10007000D14F0008D14F0008D14F0008D14F0008E0
:10008000D14F0008D14F0008D14F0008D14F0008D0
:10009000D14F0008D14F0008D14F0008D14F0008C0
:1000A000D14F0008D14F0008D14F0008D14F0008B0
:1000B000D14F0008D14F0008D14F0008D14F0008A0
:1000C000D14F0008D14F0008D14F0008D14F000890
:1000D000D14F0008D14F0008D1240008D14F0008AB
:1000E0000F2B0008D14F0008D14F0008D14F000856
:1000F000D14F0008D14F0008D14F0008D14F000860
:10010000D14F0008D14F0008D14F0008D14F00084F
:10011000D14F0008D14F0008D14F0008D14F00083F
:10012000D14F0008D14F0008D14F0008D14F00082F
:10013000D14F0008D14F0008D14F0008D14F00081F
:10014000D14F0008D14F0008D14F0008D14F00080F
:10015000D14F0008D14F0008D14F0008D14F0008FF
:10016000D14F0008D14F0008D14F0008D14F0008EF
:10017000D14F0008D14F0008D14F00080000000007
:08018000D14F0008D14F000827
:1001900010B5054C237833B9044B13B10448AFF3C1
:1001A00000800123237010BD180200200000000011
:1001B0002C8E000808B5034B1BB103490348AFF36D
:1001C000008008BD000000001C0200202C8E0008EA
:1001D00081F0004102E000BF83F0004330B54FEAF8
:1001E00041044FEA430594EA050F08BF90EA020F65
:1001F0001FBF54EA000C55EA020C7FEA645C7FEAF8
:10020000655C00F0E2804FEA5454D4EB5555B8BF1A
:100210006D420CDD2C4480EA020281EA030382EA8B
:10022000000083EA010180EA020281EA0303362D1D
:1002300088BF30BD11F0004F4FEA01314FF4801CF0
:100240004CEA113102D0404261EB410113F0004F02
:100250004FEA03334CEA133302D0524263EB4303B9
:1002600094EA050F00F0A780A4F10104D5F1200E57
:100270000DDB02FA0EFC22FA05F2801841F10001B2
:1002800003FA0EF2801843FA05F359410EE0A5F186
:1002900020050EF1200E012A03FA0EFC28BF4CF0B7
:1002A000020C43FA05F3C01851EBE37101F000456D
:1002B00007D54FF0000EDCF1000C7EEB00006EEB7A
:1002C0000101B1F5801F1BD3B1F5001F0CD3490804
:1002D0005FEA30004FEA3C0C04F101044FEA44525B
:1002E00012F5800F80F09A80BCF1004F08BF5FEAE2
:1002F000500C50F1000041EB045141EA050130BDC2
:100300005FEA4C0C404141EB010111F4801FA4F164
:100310000104E9D191F0000F04BF01460020B1FAB9
:1003200081F308BF2033A3F10B03B3F120020CDAF1
:100330000C3208DD02F1140CC2F10C0201FA0CF0CF
:1003400021FA02F10CE002F11402D8BFC2F1200C34
:1003500001FA02F120FA0CFCDCBF41EA0C019040EA
:10036000E41AA2BF01EB0451294330BD6FEA040433
:100370001F3C1CDA0C340EDC04F11404C4F120021E
:1003800020FA04F001FA02F340EA030021FA04F330
:1003900045EA030130BDC4F10C04C4F1200220FA87
:1003A00002F001FA04F340EA0300294630BD21FAC5
:1003B00004F0294630BD94F0000F83F4801306BF8B
:1003C00081F480110134013D4EE77FEA645C18BF7F
:1003D0007FEA655C29D094EA050F08BF90EA020F16
:1003E00005D054EA000C04BF1946104630BD91EA0E
:1003F000030F1EBF0021002030BD5FEA545C05D111
:100400004000494128BF41F0004130BD14F580044F
:100410003CBF01F5801130BD01F0004545F0FE41C3
:1004200041F470014FF0000030BD7FEA645C1ABFF8
:10043000194610467FEA655C1CBF0B46024650EA2F
:10044000013406BF52EA033591EA030F41F400215B
:1004500030BD00BF90F0000F04BF0021704730B5E1
:100460004FF4806404F132044FF000054FF00001B6
:1004700050E700BF90F0000F04BF0021704730B577
:100480004FF4806404F1320410F0004548BF40424C
:100490004FF000013EE700BF42004FEAE2014FEAA1
:1004A00031014FEA02701FBF12F07F4393F07F4F7C
:1004B00081F06051704732F07F4208BF704793F07F
:1004C0007F4F04BF41F40021704730B54FF4607492
:1004D00001F0004521F000411CE700BF50EA010295
:1004E00008BF704730B54FF000050AE050EA01023E
:1004F00008BF704730B511F0004502D5404261EBAE
:1005000041014FF4806404F132045FEA915C3FF4EE
:10051000D8AE4FF003025FEADC0C18BF03325FEA8B
:10052000DC0C18BF033202EBDC02C2F1200300FA3C
:1005300003FC20FA02F001FA03FE40EA0E0021FA61
:1005400002F11444BDE600BF70B54FF0FF0C4CF44F
:10055000E06C1CEA11541DBF1CEA135594EA0C0F01
:1005600095EA0C0F00F0DEF82C4481EA030621EA3C
:100570004C5123EA4C5350EA013518BF52EA033577
:1005800041F4801143F4801338D0A0FB02CE4FF029
:100590000005E1FB02E506F00042E0FB03E54FF059
:1005A0000006E1FB03569CF0000F18BF4EF0010E51
:1005B000A4F1FF04B6F5007F64F5407404D25FEA4D
:1005C0004E0E6D4146EB060642EAC62141EA555100
:1005D0004FEAC52040EA5E504FEACE2EB4F1FD0C42
:1005E00088BFBCF5E06F1ED8BEF1004F08BF5FEAC0
:1005F000500E50F1000041EB045170BD06F0004672
:1006000046EA010140EA020081EA0301B4EB5C041E
:10061000C2BFD4EB0C0541EA045170BD41F4801116
:100620004FF0000E013C00F3AB8014F1360FDEBF3B
:10063000002001F0004170BDC4F10004203C35DA17
:100640000C341BDC04F11404C4F1200500FA05F39A
:1006500020FA04F001FA05F240EA020001F000423B
:1006600021F0004110EBD37021FA04F642EB0601B1
:100670005EEA430E08BF20EAD37070BDC4F10C04DB
:10068000C4F1200500FA04F320FA05F001FA04F29F
:1006900040EA020001F0004110EBD37041F100018B
:1006A0005EEA430E08BF20EAD37070BDC4F1200596
:1006B00000FA05F24EEA020E20FA04F301FA05F2FE
:1006C00043EA020321FA04F001F0004121FA04F2A6
:1006D00020EA020000EBD3705EEA430E08BF20EA76
:1006E000D37070BD94F0000F0FD101F000464000B0
:1006F00041EB010111F4801F08BF013CF7D041EA32
:10070000060195F0000F18BF704703F00046520035
:1007100043EB030313F4801F08BF013DF7D043EA06
:100720000603704794EA0C0F0CEA135518BF95EABC
:100730000C0F0CD050EA410618BF52EA4306D1D143
:1007400081EA030101F000414FF0000070BD50EA62
:10075000410606BF1046194652EA430619D094EAEC
:100760000C0F02D150EA013613D195EA0C0F05D1D6
:1007700052EA03361CBF104619460AD181EA03012A
:1007800001F0004141F0FE4141F470014FF00000E2
:1007900070BD41F0FE4141F4780170BD70B54FF07D
:1007A000FF0C4CF4E06C1CEA11541DBF1CEA1355FD
:1007B00094EA0C0F95EA0C0F00F0A7F8A4EB0504DF
:1007C00081EA030E52EA03354FEA013100F08880D6
:1007D0004FEA03334FF0805545EA131343EA12639F
:1007E0004FEA022245EA111545EA10654FEA002654
:1007F0000EF000419D4208BF964244F1FD0404F50D
:10080000407402D25B084FEA3202B61A65EB030568
:100810005B084FEA32024FF480104FF4002CB6EB25
:10082000020E75EB030E22BFB61A754640EA0C00A5
:100830005B084FEA3202B6EB020E75EB030E22BFE5
:10084000B61A754640EA5C005B084FEA3202B6EB26
:10085000020E75EB030E22BFB61A754640EA9C00E5
:100860005B084FEA3202B6EB020E75EB030E22BFB5
:10087000B61A754640EADC0055EA060E18D04FEA73
:10088000051545EA16754FEA06164FEAC30343EA13
:1008900052734FEAC2025FEA1C1CC0D111F4801FE0
:1008A0000BD141EA00014FF000004FF0004CB6E7D9
:1008B00011F4801F04BF01430020B4F1FD0C88BF78
:1008C000BCF5E06F3FF6AFAEB5EB030C04BFB6EB83
:1008D000020C5FEA500C50F1000041EB045170BD76
:1008E0000EF0004E4EEA113114EB5C04C2BFD4EBA3
:1008F0000C0541EA045170BD41F480114FF0000E27
:10090000013C90E645EA060E8DE60CEA135594EAA2
:100910000C0F08BF95EA0C0F3FF43BAF94EA0C0FA5
:100920000AD150EA01347FF434AF95EA0C0F7FF41A
:1009300025AF104619462CE795EA0C0F06D152EA6E
:1009400003353FF4FDAE1046194622E750EA410652
:1009500018BF52EA43067FF4C5AE50EA41047FF463
:100960000DAF52EA43057FF4EBAE12E74FF0FF3CC8
:1009700006E000BF4FF0010C02E000BF4FF0010C99
:100980004DF804CD4FEA410C7FEA6C5C4FEA430C12
:1009900018BF7FEA6C5C1BD001B050EA410C0CBF61
:1009A00052EA430C91EA030F02BF90EA020F0020C3
:1009B000704710F1000F91EA030F58BF994208BF2A
:1009C00090422CBFD8176FEAE37040F001007047E7
:1009D0004FEA410C7FEA6C5C02D150EA013C07D13E
:1009E0004FEA430C7FEA6C5CD6D152EA033CD3D089
:1009F0005DF8040B704700BF8446104662468C4683
:100A00001946634600E000BF01B5FFF7B7FF0028B5
:100A100048BF10F1000F01BD4DF808EDFFF7F4FFDE
:100A20000CBF012000205DF808FB00BF4DF808ED69
:100A3000FFF7EAFF34BF012000205DF808FB00BF8C
:100A40004DF808EDFFF7E0FF94BF012000205DF8AE
:100A500008FB00BF4DF808EDFFF7CEFF94BF012063
:100A600000205DF808FB00BF4DF808EDFFF7C4FF5C
:100A700034BF012000205DF808FB00BF4FEA410CA5
:100A80007FEA6C5C02D150EA013C0AD14FEA430C88
:100A90007FEA6C5C02D152EA033C02D14FF00000C5
:100AA00070474FF0010070474FEA410212F5001203
:100AB00015D211D56FF47873B3EB625212D94FEAA5
:100AC000C12343F0004343EA505311F0004F23FA8F
:100AD00002F018BF404270474FF00000704750EAE4
:100AE000013005D111F0004008BF6FF000407047A1
:100AF0004FF00000704700BF4A0011D212F50012FB
:100B000011D20DD56FF47873B3EB62520ED44FEA65
:100B1000C12343F0004343EA505323FA02F07047E5
:100B20004FF00000704750EA013002D14FF0FF3023
:100B300070474FF0000070474FEA4102B2F1E043C6
:100B400024BFB3F5001CDCF1FE5C0DD901F0004CB4
:100B50004FEAC0024CEA5070B2F1004F40EB830004
:100B600008BF20F00100704711F0804F21D113F130
:100B70003872BCBF01F00040704741F480114FEA69
:100B80005252C2F11802C2F1200C10FA0CF320FAF2
:100B900002F018BF40F001004FEAC1234FEAD3230F
:100BA00003FA0CFC40EA0C0023FA02F34FEA430379
:100BB000CCE77FEA625307D150EA01331EBF4FF002
:100BC000FE4040F44000704701F0004040F0FE401D
:100BD00040F40000704700BF53B94AB9002908BF6C
:100BE00000281CBF4FF0FF314FF0FF3000F072B90A
:100BF000ADF1080C6DE904CE00F006F8DDF804E074
:100C0000DDE9022304B070472DE9F047089E044651
:100C10008846002B4BD18A42154667D9B2FA82F238
:100C20004AB1C2F1200701FA02F320FA07F7954012
:100C300047EA030894404FEA154E230CB8FBFEF731
:100C40001FFA85FC0EFB178843EA084307FB0CF1EB
:100C5000994209D9EB1807F1FF3080F01B819942C6
:100C600040F21881023F2B445B1AA4B2B3FBFEF0A2
:100C70000EFB103344EA034400FB0CFCA44509D9E5
:100C80002C1900F1FF3380F00781A44540F2048164
:100C900002382C4440EA0740A4EB0C0400271EB1A4
:100CA000D4400023C6E900433946BDE8F0878B42B3
:100CB00009D9002E00F0EB800027C6E90001384674
:100CC0003946BDE8F087B3FA83F7002F47D18B424E
:100CD00002D3824200F2FA80841A61EB03030120FE
:100CE0009846002EE0D0C6E90048DDE702B9FFDEF5
:100CF000B2FA82F2002A40F08F80491B4FEA154E6B
:100D00001FFA85F80127B1FBFEFC230C0EFB1C111A
:100D100043EA014308FB0CF1994207D9EB180CF1A7
:100D2000FF3002D2994200F2CD808446591AA3B214
:100D3000B1FBFEF00EFB101443EA044408FB00F87C
:100D4000A04507D92C1900F1FF3302D2A04500F2CB
:100D5000B6801846A4EB080440EA0C409FE7C7F1B0
:100D6000200CBB4022FA0CFE4EEA030E01FA07F4F7
:100D700020FA0CF521FA0CF34FEA1E482543B3FB89
:100D8000F8F92C0C08FB19331FFA8EFA44EA0343D6
:100D900009FB0AF49C4202FA07F200FA07F10BD9A8
:100DA0001EEB030309F1FF3080F087809C4240F284
:100DB0008480A9F1020973441B1BADB2B3FBF8F0A8
:100DC00008FB103345EA034400FB0AFAA24508D9A0
:100DD0001EEB040400F1FF336BD2A24569D902383F
:100DE000744440EA0940A0FB0289A4EB0A044C4584
:100DF000C2464B4654D351D0002E69D0B1EB0A0500
:100E000064EB030404FA0CFCFD40FC404CEA0505CD
:100E1000C6E90054002747E7C2F1200320FA03F790
:100E2000954001FA02F021FA03F34FEA154E3843D8
:100E3000010CB3FBFEF71FFA85F80EFB173341EAEE
:100E4000034107FB08F38B4204FA02F407D969183F
:100E500007F1FF3C2FD28B422DD9023F2944CB1AF8
:100E600081B2B3FBFEF00EFB103341EA034100FBFD
:100E700008F38B4207D9691800F1FF3C17D28B4267
:100E800015D902382944C91A40EA07473BE73746D3
:100E9000304609E70746E7E61846FBE64145ABD290
:100EA000B8EB020A69EB0E0201381346A4E760466C
:100EB000E9E7184695E76746D1E781467CE70238BF
:100EC0002C4447E7ACF1020C2B442FE7384608E7E7
:100ED0003746E9E6704700BF034613F8012B002AA6
:100EE000FBD1181A01387047000000000000000014
:100EF00001F0FF01102A2BDB10F0070F08D010F8CB
:100F0000013B013A8B422DD010F0070F42B3F6D1CE
:100F1000F0B441EA012141EA014122F007047FF0E7
:100F200000070023F0E80256083C85EA010586EA3E
:100F3000010685FA47F5A3FA87F586FA47F6A5FA7A
:100F400087F68EB9EED1F0BC01F0FF0102F0070286
:100F500032B110F8013B013A83EA010313B1F8D131
:100F60000020704701387047002D06BF3546033812
:100F7000073815F0010F07D1013015F4807F02BF4B
:100F8000013015F4C03F0130F0BC0138704700BF9C
:100F900000B587B006AA02F8010D4FF0FF330293A7
:100FA00001230193009200227821034802F0D0FA35
:100FB00007B05DF804FB00BFC00C002000B585B091
:100FC0004FF0FF33029389B2019100900123402238
:100FD0007821034802F0BCFA05B05DF804FB00BFBD
:100FE000C00C0020002303E0FF21054AD154013347
:100FF000B3F5806F03D20028F6D10021F5E77047E2
:101000003402002010B5002412E0A4F15000C0B258
:10101000FFF7BEFF0020FFF7BBFF1020FFF7B8FF70
:101020008021054800EBC410FFF7C8FF0134E4B28B
:10103000072CEAD910BD00BF3402002010F0800F49
:1010400016D13F2914D8114B93F8043413B1B2FAD6
:1010500082F25209012A0CD0CB0800EBC31001F038
:10106000070101238B40094A115C21EA0301115455
:101070007047CB0800EBC31001F0070101238B4040
:10108000024A115C19431154704700BF340200201A
:101090002DE9F04F83B002AC04E90600A0F1200274
:1010A000D2B25E2A4BD82A4AB2F800249DF80060DA
:1010B0003244802A47DC264AB2F802249DF801A077
:1010C000D3465244402A40DC1F468146002523E097
:1010D0001F4BB3F80004B3F8021429442044B7FAB4
:1010E00087F25209C9B2C0B2FFF7A8FF0134A64285
:1010F00011D908FA04F313F4004FE9D0144BB3F8F4
:101100000004B3F80214294420443A46C9B2C0B2DC
:10111000FFF794FFEAE70135AA4508D9A9F12003B2
:1011200003FB0B53019A32F813800024DFE7084BCE
:10113000B3F800241644A3F80064484600E00020F9
:1011400003B0BDE8F08F0020FAE70020F8E700BF09
:101150003402002070B582B0054602A800E90600FE
:101160001E462C785CB1334602AA12E906002046DE
:10117000FFF78EFF2C78A04201D10135F1E7204620
:1011800002B070BD024BA3F80004A3F8021470472C
:101190003402002010F0800F53D12DE9F04F83B0BE
:1011A0005742C2F1010254003F2947D800938B46B1
:1011B00001904FF0000A08E02346A7423CDA0137CD
:1011C0007C0001341C44002F38DCFEB2019BA3EBF1
:1011D00006085FFA88F85FFA8AF505EB0B095FFAF3
:1011E00089F9009A49464046FFF728FF019B1E44B3
:1011F000F6B2009A49463046FFF720FFABEB0505F3
:10120000EDB2DDF800904A4629463046FFF716FF5A
:101210004A4629464046FFF711FFA245CCDB0AF1BA
:10122000010A4FEA4A03013323441AEB070FC4D1E2
:10123000A742C2DB0024C0E71C46C4E703B0BDE8F8
:10124000F08F704710B504468120FFF7A1FE2046BD
:10125000FFF79EFE10BD000008B538B9064B00220E
:1012600083F80624AE20FFF793FE08BD024B01224F
:1012700083F80624AF20F6E73402002008B5642086
:1012800001F06EFD0020FFF7E7FF2020FFF780FE52
:101290000020FFF77DFEB020FFF77AFEC020FFF7A9
:1012A00077FE0020FFF774FE1020FFF771FE40204C
:1012B000FFF76EFEFF20FFF7C5FFA120FFF768FED6
:1012C000A620FFF765FEA820FFF762FE3F20FFF78C
:1012D0005FFEA420FFF75CFED320FFF759FE00203D
:1012E000FFF756FED520FFF753FEF020FFF750FE24
:1012F000D920FFF74DFE2220FFF74AFEDA20FFF744
:1013000047FE1220FFF744FEDB20FFF741FE2020BE
:10131000FFF73EFE8D20FFF73BFE1420FFF738FE5F
:101320000120FFF799FF0020FFF75CFEFFF76AFE40
:10133000044B0022A3F80024A3F80224012283F81E
:10134000052408BD3402002010B586B00C464FF0CD
:10135000FF3302930223019305AB0093012302465E
:10136000AA21204602F0C6F938B99DF815309DF83B
:10137000140040EA032006B010BD6520FBE7000022
:1013800008B501460220FFF7DFFF134BA3FB003037
:10139000C0F3CF00FFF76EF80DA3D3E90023FEF7EB
:1013A0001BFF00220D4BFFF7CFF800220C4BFFF77D
:1013B000F5F900220B4BFEF711FF00220A4BFFF755
:1013C000C3F8FFF799FB80B208BD00BFAFF3008000
:1013D0006666666666127140CDCCCCCC00002240B9
:1013E00000001440000040400000244008B519B13E
:1013F000012906D0002003E001461C20FFF7A4FFCE
:1014000008BD01463020FFF79FFFF9E7000000000C
:10141000F8B52DED028BB0EE408A10EE100AFFF702
:101420003BF89FED131B41EC100B03F0D3FD57EC81
:10143000106B9FED117AC8EE077AFDEEE77AF8EEB1
:10144000E77A17EE900AFFF727F804460D460022C8
:101450000A4B30463946FFF7A1F902460B462046B3
:101460002946FEF7BBFE41EC100BBDEC028BF8BD2C
:1014700000000000000059400000C84200004E403B
:1014800038B5C24BDB78562B01D007234DE0BF4B5C
:101490001B79542B0BD0072347E00B46052A09DCA8
:1014A000591CBA481B5C2C2BF7D10132F5E70022FE
:1014B0000723F3E7B54A0021C2F8241213E0B34929
:1014C000D1ED897AB2EE047A27EE877A013307EEFE
:1014D000902AF8EEE77A77EE877A9FEDAD7A77EE8D
:1014E000C77AC1ED897AA94A9A5C2E2AE7D10121EF
:1014F000002208E002EB8202500001330219303A68
:1015000001EB81004100A1481C5C2C2CF2D190ED34
:10151000897A92FBF1F207EE902AF8EEE77A77EEFD
:10152000877AC0ED897A30E101339A4A9A5C2C2A95
:10153000FAD1964A0020C2F80802C2F80C02C2F89A
:101540001402C2F81802C2F820025C1C985C9D1CB0
:10155000A15C303800EB800044002144C9B2353929
:1015600082F80312D91CA85C1D1D895C303800EB81
:10157000800044002144C9B2303982F80412591D58
:10158000A85C895C303800EB800044002144C9B27B
:101590003039C9B282F805127F480468651C0560BD
:1015A00000EB84004160D81D03F10801805C03F169
:1015B00009058C5C303800EB800000EB8000810076
:1015C000A4F1300000EB800044002144C9B2A85CC3
:1015D0000144C9B2303982F8061203F10B0413E05A
:1015E0006A4AD2ED827AB2EE047A27EE877A013423
:1015F00007EE903AF8EEE77A77EE877A9FED647A15
:1016000077EEC77AC2ED827A604BE35C2E2BE7D18E
:101610000134012216E05D49D1ED837AB2EE047AFD
:1016200027EE877A013407EE903AF8EEE77A77EE04
:10163000877A9FED577A77EEC77AC1ED837A02EB0E
:1016400082035A00514BE35C2C2BE4D14F4B93EDBA
:10165000820AD3ED836A07EE902AF8EEE77A86EEE7
:10166000A77A30EE070A83ED820A621CD25C83F807
:101670001022033413E0454AD2ED857AB2EE047AA3
:1016800027EE877A013407EE903AF8EEE77A77EEA4
:10169000877A9FED3F7A77EEC77AC2ED857A3B4B2A
:1016A000E35C2E2BE7D1013413E0384AD2ED867A81
:1016B000B2EE047A27EE877A013407EE903AF8EE1C
:1016C000E77A77EE877A9FED327A77EEC77AC2EDC6
:1016D000867A2E4BE35C2C2BE7D1631C02342B4D16
:1016E0005B5D85F81C32FFF793FE51EC100BFFF7A2
:1016F00023FAC5F80C0295ED850AFFF789FE51EC37
:10170000100BFFF719FAC5F81802002300E0144681
:10171000032B1ADC621C1D49615C2C29F7D10133B3
:10172000F5E71A4AD2ED887AB2EE047A27EE877A84
:10173000013407EE903AF8EEE77A77EE877A9FED7C
:10174000147A77EEC77AC2ED887A104BE35C2E2BC1
:10175000E7D10023012208E003EB830359000134A1
:101760000B18303B02EB82014A000849605C2C28D0
:10177000F2D191ED887A93FBF2F307EE903AF8EE0E
:10178000E77A77EE877AC1ED887A38BD400A002083
:10179000000040423F0A00203C06002000B585B012
:1017A0001848D0ED837AFDEEE76AB8EEE67A37EEB8
:1017B000C77ADFED155A27EE257A90F81032D0ED72
:1017C000867ABDEEE76AB8EEC65A77EEC57A67EE5E
:1017D000A57A90F81C220392FDEEE77ACDED027A0D
:1017E0008DED016A0093FDEEC77A17EE903A16EE82
:1017F000902A064900F50A7005F014F905B05DF865
:1018000004FB00BF400A00200000C842C0D300080B
:1018100010B5044601E0174BDB68164B9B6813F0CC
:10182000010FF8D100224FF48051134801F001FC60
:10183000104B9B6813F0800FFAD10E4BDC600D4B00
:101840009B6813F0020FFAD00A4B9B6813F0010F4C
:10185000FAD0084BDC68A4B2064B9B6813F0800FEB
:10186000FAD101224FF48051034801F0E2FB200A33
:1018700010BD00BF003001400010004838B50D46D3
:1018800040F0800400224FF480510C4801F0D1FB5D
:101890000B4B9B6813F0800FFAD144EA0524084BE8
:1018A000DC60074B9B6813F0800FFAD101224FF4E4
:1018B0008051024801F0BDFB38BD00BF0010004858
:1018C0000030014008B50120FFF7A2FF00F003003F
:1018D000012804D001210846FFF7D0FF08BD0121EF
:1018E0000846FFF7CBFFF9E710B5344C00224FF460
:1018F0008061204601F09DFB0A2001F031FA0122AF
:101900004FF48061204601F094FB0A2001F028FA90
:1019100000210846FFF7B2FF80210120FFF7AEFF4C
:1019200001210D20FFF7AAFF00210E20FFF7A6FFDF
:1019300000210F20FFF7A2FF72211D20FFF79EFF5D
:1019400070211E20FFF79AFF04212620FFF796FF43
:1019500000212020FFF792FF08212120FFF78EFFB2
:1019600084214D20FFF78AFF8F210920FFF786FF92
:10197000E4210620FFF782FFC0210720FFF77EFF4A
:1019800000210820FFF77AFF07214D20FFF776FF9F
:101990008F210920FFF772FF05210120FFF76EFF5D
:1019A00040210846FFF76AFF4220FFF731FF122867
:1019B00001D0002010BD0120FCE700BF001000484E
:1019C00070B506460D4601210846FFF757FF0E2069
:1019D000FFF71EFF01460D20FFF750FF002404E033
:1019E000315D0020FFF74AFF0134A542F8DC2946AB
:1019F0002220FFF743FF03210120FFF73FFF1220C2
:101A0000FFF706FF0828FAD101210846FFF736FF45
:101A1000FF211220FFF732FF70BD70B506460D465C
:101A2000002404E00020FFF7F3FE30550134A54206
:101A3000F8DC70BD10B5044601210846FFF71EFF13
:101A4000FF211220FFF71AFF1020FFF7E1FE0146E9
:101A50000D20FFF713FF1320FFF7DAFE81B22046B7
:101A6000FFF7DBFF00210D20FFF708FF0521012014
:101A7000FFF704FF00214020FFF700FF10BD08B56D
:101A8000FFF720FF85210120FFF7F8FE002140200D
:101A9000FFF7F4FE08BD00002DE9F0438DB00546C8
:101AA0004FF03D098DF82C904FF000088DF82D80F7
:101AB0000A24009402230BAA502101F08BFC20463B
:101AC00001F04EF94A4B1B880CAA22F8083D0094FD
:101AD00002235021284601F07DFC204601F040F908
:101AE00008238DF82430434F3A78434E33789B00D7
:101AF00043EA42135BB2727813438DF825300094A9
:101B0000022309AA5021284601F064FC204601F076
:101B100027F98DF82040B2787B7843EAC2038DF82C
:101B200021300094022308AA5021284601F052FCDB
:101B3000204601F015F90B238DF81C30BB788DF889
:101B40001D300094022307AA5021284601F042FCD0
:101B5000204601F005F98DF8188009238DF8193019
:101B600001238DF81A30FA78F378DB0043EA421348
:101B70005BB2327913438DF81B300094042306AA1C
:101B80005021284601F026FC204601F0E9F8072301
:101B90008DF814308DF815800094022305AA502189
:101BA000284601F017FC204601F0DAF83E238DF8B4
:101BB00010303B798DF811300094022304AA502193
:101BC000284601F007FC204601F0CAF88DF80C9079
:101BD00073798DF80D300094022303AA5021284612
:101BE00001F0F8FB322001F0BBF80DB0BDE8F08346
:101BF0004CBC0008D00700202000002000B585B0B4
:101C0000642302931223019300910123082250219F
:101C100001F070FD05B05DF804FB000000B587B071
:101C200001A93348FFF7EAFF9DF805209DF804302D
:101C300043EA02231BB207EE103A9DF807209DF8F5
:101C4000063043EA02231BB206EE103A9DF8092043
:101C50009DF8083043EA02231BB2B8EEC77ADFEDE5
:101C6000255AC7EE256AB8EEC66A86EE257A07EED3
:101C7000903AB8EEE76AC6EE257ABDEEE66A1E48EF
:101C800080ED026AB8EEC66A76EEC66A66EEA56AAE
:101C9000FDEEE66A16EE903A002BB8BF5B42C360D9
:101CA000FDEEC76AC0ED046AF8EEE66A37EE667AC2
:101CB00027EE257ABDEEC77A17EE103A002BB8BF93
:101CC0005B424361BDEEE77A80ED067AB8EEC77AF3
:101CD00077EEC77A67EEA57AFDEEE77A17EE903ACF
:101CE000002BB8BF5B42C361083007B05DF804FB4E
:101CF000C00C00200000C842D007002000000000F7
:101D0000F8B52DED028BFFF789FF0446006828B96E
:101D1000A3681BB92369012B40F08F8030B9A368F9
:101D2000012B03D02369002B00F00881012805D086
:101D3000A3681BB92369002B00F08A819FEDC08B3B
:101D4000FEF798FBB0EE481AF0EE681A41EC100B63
:101D500003F0AAF957EC106BA068FEF78BFBB0EE0E
:101D6000481AF0EE681A41EC100B03F09DF953ECA1
:101D7000102B30463946FEF731FA06460F462069E9
:101D8000FEF778FBB0EE481AF0EE681A41EC100B43
:101D900003F08AF953EC102B30463946FEF71EFA51
:101DA00041EC100B03F01CFB51EC100BFEF77CFE1A
:101DB000A54D28626068FEF75DFBB0EE481AF0EEB4
:101DC000681A41EC100B03F06FF957EC106BE068E8
:101DD000FEF750FBB0EE481AF0EE681A41EC100B1B
:101DE00003F062F953EC102B30463946FEF7F6F952
:101DF00006460F466069FEF73DFBB0EE481AF0EE6E
:101E0000681A41EC100B03F04FF953EC102B3046DD
:101E10003946FEF7E3F941EC100B03F0E1FA51EC1F
:101E2000100BFEF741FE6862874B1B6A002B00F027
:101E300090818648BDEC028BF8BD9FED818BFEF74B
:101E400019FBB0EE481AF0EE681A41EC100B03F0E3
:101E50002BF957EC106BA068FEF70CFBB0EE481A9C
:101E6000F0EE681A41EC100B03F01EF953EC102B46
:101E700030463946FEF7B2F906460F462069093862
:101E8000FEF7F8FAB0EE481AF0EE681A41EC100BC3
:101E900003F00AF953EC102B30463946FEF79EF951
:101EA00041EC100B03F09CFA51EC100BFEF7FCFD1B
:101EB000654D28626068FEF7DDFAB0EE481AF0EE74
:101EC000681A41EC100B03F0EFF857EC106BE06868
:101ED000FEF7D0FAB0EE481AF0EE681A41EC100B9B
:101EE00003F0E2F853EC102B30463946FEF776F952
:101EF00006460F4660690838FEF7BCFAB0EE481A8D
:101F0000F0EE681A41EC100B03F0CEF853EC102BF6
:101F100030463946FEF762F941EC100B03F060FAE7
:101F200051EC100BFEF7C0FD68622369002B3FF7F0
:101F30007BAF2B6A1B685B422B6275E79FED408B82
:101F4000FEF798FAB0EE481AF0EE681A41EC100B62
:101F500003F0AAF857EC106BA0680938FEF78AFA6C
:101F6000B0EE481AF0EE681A41EC100B03F09CF842
:101F700053EC102B30463946FEF730F906460F4633
:101F80002069FEF777FAB0EE481AF0EE681A41ECD5
:101F9000100B03F089F853EC102B30463946FEF74E
:101FA0001DF941EC100B03F01BFA51EC100BFEF77E
:101FB0007BFD254D28626068FEF75CFAB0EE481A9A
:101FC000F0EE681A41EC100B03F06EF857EC106B52
:101FD000E0680838FEF74EFAB0EE481AF0EE681ADC
:101FE00041EC100B03F060F853EC102B30463946EF
:101FF000FEF7F4F806460F466069FEF73BFAB0EECE
:10200000481AF0EE681A41EC100B03F04DF853EC4F
:10201000102B30463946FEF7E1F841EC100B03F087
:10202000DFF951EC100BFEF73FFD6862A368002B4F
:102030003FF7FAAE2B6A1B685B422B62F4E600BFE7
:102040000000000000000040D0070020F007002042
:102050009FED438B0938FEF70DFAB0EE481AF0EE0B
:10206000681A41EC100B03F01FF857EC106BA068D6
:10207000FEF700FAB0EE481AF0EE681A41EC100BC9
:1020800003F012F853EC102B30463946FEF7A6F851
:1020900006460F462069FEF7EDF9B0EE481AF0EE5D
:1020A000681A41EC100B02F0FFFF53EC102B304686
:1020B0003946FEF793F841EC100B03F091F951EC1F
:1020C000100BFEF7F1FC284D286260680838FEF717
:1020D000D1F9B0EE481AF0EE681A41EC100B02F09C
:1020E000E3FF57EC106BE068FEF7C4F9B0EE481A56
:1020F000F0EE681A41EC100B02F0D6FF53EC102BF7
:1021000030463946FEF76AF806460F466069FEF724
:10211000B1F9B0EE481AF0EE681A41EC100B02F07B
:10212000C3FF53EC102B30463946FEF757F841EC0D
:10213000100B03F055F951EC100BFEF7B5FC68627B
:102140002368002B3FF770AE2B6A1B685B422B6243
:102150006AE6054B00225A626BE600BFAFF30080CF
:102160000000000000000040D0070020F8B5FFF795
:10217000C7FD054600240AE0642000F0F1FD2B684D
:102180001F446B681E44FFF7BBFD05460134082C55
:10219000F2DD084B83FB0712FF17C7EB62170648F7
:1021A000876283FB0623F617C6EB6316C6622830E8
:1021B000F8BD00BF1F85EB51D00700200F4B1A6CF4
:1021C00042F480521A641A6C22F480521A641A6E15
:1021D00042F480521A66A3F5604344F22C221A603E
:1021E00040F204725A601A6842F040021A60044BCE
:1021F000202283F8232308225A60704700100240EF
:1022000000E100E02DE9F0478CB000240794089429
:1022100009940A940B94754BDA6C42F08002DA64EC
:10222000DA6C02F080020192019ADA6C42F0040248
:10223000DA64DA6C02F004020292029ADA6C42F07A
:102240000102DA64DA6C02F001020392039ADA6C9A
:1022500042F00202DA64DA6C02F002020492049A9A
:10226000DA6C42F01002DA64DA6C02F010020592C5
:10227000059ADA6C42F00802DA64DB6C03F00803BA
:102280000693069B5A4E01224FF48051304600F0CF
:10229000D0FE01224FF48061304600F0CAFE224693
:1022A00004214FF0904000F0C4FE22464FF400613C
:1022B000304600F0BEFE4FF4A05307930125089569
:1022C00009940A9407A9304600F0C8FD4FF4604312
:1022D000079302270897099405230B9307A9304613
:1022E00000F0BCFD4FF400630793089509940A942D
:1022F00007A9304600F0B2FD4FF00408CDF81C806D
:102300003C4B0893099407A94FF0904000F0A6FDBC
:1023100022462946282000F049FD282000F07AFDB9
:1023200022463946072000F041FD072000F072FDEB
:10233000DFF8C8A022460321504600F07AFE22466C
:1023400029464FF0904000F074FEDFF8B49022462A
:102350004146484600F06DFEA6F5006622464FF461
:102360008071304600F065FE0323079308950994B9
:102370000A9407A9504600F071FD07950895099445
:102380000A9407A94FF0904000F068FD07971A4B98
:102390000893099407A94FF0904000F05FFD07975C
:1023A0000894099407A94FF0904000F057FDCDF82C
:1023B0001C80089509940A9407A9484600F04EFD30
:1023C000802307930894099407A9304600F046FD3E
:1023D0004FF480730793089509940A9407A930462F
:1023E00000F03CFD0CB0BDE8F08700BF00100240DB
:1023F000001000480000111000003110001C0048BF
:102400000004004838B50D4C0D4B23600D4B636044
:102410000025A5600123E36025616561A561E56193
:102420002562204600F078FF2946204601F038FA60
:102430002946204601F062FA38BD00BFC00C0020DA
:1024400000540040D38D801038B50D4C0D4B2360E7
:102450000D4B63600025A5600123E3602561656184
:10246000A561E5612562204600F056FF2946204619
:1024700001F016FA2946204601F040FA38BD00BFA7
:102480000C0D002000580040D38D801038B50D4C45
:102490000D4B23600D4B63600025A5600123E360B5
:1024A00025616561A561E5612562204600F034FF84
:1024B0002946204601F0F4F92946204601F01EFA8B
:1024C00038BD00BF740C0020005C0040D38D80102C
:1024D00008B51B4BDB6913F0200F0AD0184B998C01
:1024E000C9B2184B1868421C1A60034419710A29B2
:1024F00000D008BD134BD3F804120131C3F8041205
:10250000DB79472B05D0562B0ED00E4B00221A60DC
:10251000EFE70C49097A4729F5D10B490B4804F03C
:102520006DF8FEF7ADFFF0E7064B1B7A542BECD1AC
:102530000549064804F062F8FEF7A2FFE5E700BF90
:1025400000440040080800200C080020400A002039
:1025500010B5ADF5B85D86B041F2187216496846FF
:1025600004F04CF80020FEF73DFD00240AE00DEBDE
:10257000C4035868283001221DF83410C0B2FEF799
:102580005DFD013440F2E2239C42F0DDFEF73AFDAE
:102590002D210420FEF7F6FD084A012306CA08484B
:1025A000FEF7D8FDFEF72EFD064B4FF0FF321A6006
:1025B0000DF5B85D06B010BD60BC0008100000202D
:1025C000D4D30008580D00202DE9F0412DED028BE9
:1025D000A2B00020FEF706FD0023209321931E9356
:1025E0001F934FF0FF373E46B2E036216420FEF7DE
:1025F000C9FD22466D4916A804F014FA6C4A01235D
:1026000006CA16A8FEF7A6FD2646ADE0694AA2FB5B
:102610000032D20802EB82014B00C31A9BB292B285
:10262000654916A804F0FEF90A215920FEF7AAFD13
:102630005F4A012306CA16A8FEF78CFD01231A463D
:102640000B217320FEF7A6FD274694E05B490EA8F8
:1026500004F0E8F914210420FEF794FD544C012302
:1026600094E806000EA8FEF775FD1F9B1E9A5449BC
:1026700016A804F0D7F91E210420FEF783FD0123DC
:1026800094E8060016A8FEF765FD4E4DD5ED837A59
:10269000BDEEE77AF8EEC76A77EEE67A9FED4A8AF2
:1026A00067EE887A95F81032DFF830810093FDEEFE
:1026B000E77A17EE903A17EE102A414606A804F082
:1026C000B1F928211E20FEF75DFD012394E80600E4
:1026D00006A8FEF73FFD28214820FEF753FDD5ED63
:1026E000867ABDEEE77AF8EEC76A77EEE67A67EEAD
:1026F000887A95F81C320093FDEEE77A17EE903A4F
:1027000017EE102A41460AA804F08CF9012394E838
:1027100006000AA8FEF71EFD28210420FEF732FD60
:102720002A4B93E8030003908DF81010012394E8DE
:10273000060003A8FEF70EFD36210420FEF722FD59
:10274000012394E806002248FEF704FDFEF75AFC38
:10275000204B1B68012B23D000211F48FEF746FEAB
:102760000446B0427FF441AF1B48FEF709FE044621
:10277000B8427FF44BAFFFF7F9FC0368209A1A4484
:102780004168219B0B44209221931E998A427FF736
:102790005DAF1F998B427FF759AF1E921F9355E78C
:1027A00022B0BDEC028BBDE8F08100BFE8D3000889
:1027B00018000020CDCCCCCCF0D30008FCD300080E
:1027C0000CD40008400A00200000C8422CD40008A5
:1027D000240A0020580D0020C00C002020D400083E
:1027E00030B585B00446022805D0042C1DD0022C3B
:1027F00046D005B030BD02214FF0904000F012FCF1
:10280000234B93F80832002BEFD1224B1B68022B8D
:1028100007D0204B02221A601D4B012283F80822A8
:10282000E3E71C4B03221A60F6E71B4D01224FF42D
:102830000061284600F0FDFB00224FF400612846AD
:1028400000F0F7FB1220FEF7E3FF1320FEF7E0FF96
:102850004220FEF7DDFF40211220FFF70FF8684607
:10286000FFF7E8F8002306E004AA1A4412F8101C47
:102870000A4AD15401330E2BF6DDFFF700F9B6E713
:10288000FEF78CFF0B210648FFF79AF8B1E700BF6F
:1028900008080020580D002000100048240A0020DD
:1028A000680C002030B5B9B028252A46002128A898
:1028B00003F0C8FE002422942394249425942694A3
:1028C00088222146684603F0BDFE1023279301238A
:1028D0002D9360222F9232933393349507233593AF
:1028E00002233693379327A801F026F90F2322936A
:1028F00003232393249425942694042122A801F0F1
:1029000037FC40F2C31300930E940F941494159463
:102910001694684601F060FE4FF4007001F022F852
:1029200039B030BD00B585B000F0F8F9FFF7BAFF57
:10293000FFF768FCFFF766FDFFF786FDFFF7A6FDD2
:1029400000F032F900F05AF90124154B1C60FEF733
:1029500095FCFFF733FCFEF7C7FF124A01AB07CA2D
:1029600003C31A80092101A8FFF72AF80022214693
:10297000082000F01BFA082000F04CFAFFF77FF85F
:102980000948FFF789F801E0FFF7E2FD044B1B68F7
:10299000012BF9D0023B012BF8D8FFF715FEF5E724
:1029A000580D002078D40008C00C002070470000AB
:1029B00082B00A4B1A6E42F001021A661A6E02F0D9
:1029C00001020092009A9A6D42F080529A659B6DC6
:1029D00003F080530193019B02B070470010024046
:1029E00010B58CB000230793089309930A930B93B7
:1029F0000368384A934207D0374A934226D0374A71
:102A0000934246D00CB010BD354CE36C43F002034A
:102A1000E364E36C03F002030193019BC02307937B
:102A2000122308930123099303230A9304230B938E
:102A300007A92C4800F012FAA36D43F40013A36514
:102A4000A36D03F400130293029BDBE7244CE36CB9
:102A500043F00203E364E36C03F002030393039B7C
:102A60004FF4406307931223089301230993032330
:102A70000A9304230B9307A91A4800F0EFF9A36DFA
:102A800043F48003A365A36D03F480030493049BC4
:102A9000B8E7134CE36C43F00403E364E36C03F026
:102AA00004030593059B0323079312220892012236
:102AB00009920A9304230B9307A90B4800F0CEF95F
:102AC000A36D43F40003A365A36D03F40003069311
:102AD000069B97E70054004000580040005C00400F
:102AE0000010024000040048000800487047FEE75C
:102AF000FEE7FEE7FEE770477047704708B500F055
:102B00001DF908BD08B5022000F098FA08BD08B507
:102B10004FF4004000F092FA08BD08B5042000F020
:102B20008DFA08BD08B503460B4A126842B10A4A3D
:102B3000106803446A46934206D8074A136008BDEA
:102B4000054A06491160F2E703F02EFD0C230360ED
:102B50004FF0FF30F3E700BF140A0020E80D00201B
:102B60000F49D1F8883043F47003C1F888300D4B19
:102B70001A6842F001021A60002098601A6822F078
:102B8000A85222F410221A604FF48052DA601A68B8
:102B900022F480221A6098614FF000638B607047C6
:102BA00000ED00E00010024000B589B0124BDA6C75
:102BB00042F00102DA64DA6C02F001020192019A39
:102BC000DA6C42F00202DA64DB6C03F00203029377
:102BD000029B002307930C230393022304930123F6
:102BE00005930323069303A94FF0904000F036F9B4
:102BF00009B05DF804FB00BF0010024008B50F48A3
:102C00000F4B03604FF41653436000238360C3608F
:102C10000361042242618361C3610362436202F083
:102C20007EF940B900221146262000F0BFF8262088
:102C300000F0F0F808BDFFF7B9FEF3E75C0D0020E7
:102C40000044004000B589B000230393049305932A
:102C50000693079302681C4B9A4202D009B05DF8B4
:102C600004FB03F5E6339A6D42F400329A659A6DDF
:102C700002F400320092009ADA6C42F00102DA6447
:102C8000DA6C02F001020192019ADA6C42F002025F
:102C9000DA64DB6C03F002030293029B0C230393C0
:102CA0000223049301230593032306930723079329
:102CB00003A94FF0904000F0D1F8044B1A68136854
:102CC00043F020031360C9E7004400405C0D00207E
:102CD000104B1B780BB90120704710B504464FF418
:102CE0007A70B0FBF3F30C4A1068B0FBF3F000F01D
:102CF0009FF868B90F2C01D901200AE00022214673
:102D00004FF0FF3000F052F8024B5C60002000E012
:102D1000012010BD3C0000203800002010B5032029
:102D200000F032F80020FFF7D3FF10B10124204655
:102D300010BD0446FFF73CFEF9E70000034B1B788B
:102D4000034A11680B441360704700BF3C00002029
:102D5000DC0D0020014B1868704700BFDC0D00201F
:102D600038B50446FFF7F6FF0546B4F1FF3F02D041
:102D7000044B1B781C44FFF7EDFF401BA042FAD325
:102D800038BD00BF3C000020074AD36823F4E0634D
:102D90001B041B0C000200F4E060184340F0BF600D
:102DA00040F40030D060704700ED00E030B4174BC5
:102DB000DB68C3F30223C3F10704042C28BF0424F7
:102DC0001D1D062D18D9033B4FF0FF3505FA04F4FD
:102DD00021EA0401994005FA03F322EA03031943A7
:102DE00000280BDB0901C9B200F1604000F5614029
:102DF00080F8001330BC70470023E5E700F00F00B7
:102E00000901C9B2024B1954F4E700BF00ED00E01C
:102E100014ED00E0002807DB00F01F024009012349
:102E20009340024A42F82030704700BF00E100E0C2
:102E30000138B0F1807F0AD2064B5860064AF02173
:102E400082F823100020986007221A607047012042
:102E5000704700BF10E000E000ED00E0F0B583B087
:102E600000233FE0C66A26EA0406C5F3C0049C407E
:102E70003443C4625FE0062400E00024B4403C43D5
:102E80000235644E46F82540634C2568D44304EA75
:102E900005064F6817F4803F01D042EA05065E4DF3
:102EA0002E606D6804EA05064F6817F4003F01D0F4
:102EB00042EA0506584D6E60AD6804EA05064F68A3
:102EC00017F4801F01D042EA0506534DAE60ED684D
:102ED0002C404E6816F4001F01D042EA05044E4A09
:102EE000D46001330A6832FA03F400F091800124BF
:102EF0009C402240F5D04D686E1E012E03D9112D45
:102F000001D0122D12D186685F000325BD4026EA4C
:102F10000506CD68BD4035438560466826EA04064F
:102F20004D68C5F300159D40354345604D6805F07B
:102F30000306032E96D0C5685F000324BC40E4431B
:102F400025408E68BE402E43C6604D68022D01D0DC
:102F5000122D13D1DE08083650F826E003F00705DD
:102F60004FEA850C0F2505FA0CF52EEA050E0D69C2
:102F700005FA0CF545EA0E0540F8265005682C4088
:102F80004D6805F00305BD402C4304604C6814F007
:102F9000805FA6D0214C256E45F001052566246E84
:102FA00004F001040194019C9D08AE1C194C54F8D6
:102FB000267003F00304A6000F24B44027EA040798
:102FC000B0F1904F3FF459AF154CA04216D004F524
:102FD0008064A04214D004F58064A04212D004F5AD
:102FE0008064A04210D004F58064A0420ED004F5A5
:102FF0008064A0423FF43FAF07243FE701243DE750
:1030000002243BE7032439E7042437E7052435E7A6
:1030100003B0F0BD00000140000401400010024078
:10302000000400480369194201D1002070470120C3
:1030300070470AB9816270478161704708B5054BD6
:103040005B69034200D108BD024B5861FFF7C8FB22
:10305000F9E700BF0004014003689A6912F0020F0B
:1030600001D000229A6203689A6912F0010F03D11D
:103070009A6942F001029A61704770B4039E056834
:103080006868740D04F4806444F07F7444F4583428
:1030900044F47F7444F0030420EA0400C1F30901FE
:1030A00041EA0241194331430143696070BC7047F2
:1030B00070B504460D46164603689B6913F0100F61
:1030C0001CD023689A6912F0200F19D1B5F1FF3F87
:1030D000F7D0FFF73FFE801BA84201D8002DF0D1AA
:1030E000636C43F020036364202384F841300023A1
:1030F00084F8423084F84030012020E000201EE0B7
:103100001022DA6123682025DD612046FFF7A4FF45
:103110002268536823F0FF7323F48B3323F4FF7387
:1031200023F001035360636C43F00403636484F889
:103130004150002384F8423084F84030012070BDB3
:1031400070B504460D46164623689B6913F0020FBE
:103150001DD1324629462046FFF7AAFFC8B9B5F16E
:10316000FF3FF1D0FFF7F6FD801BA84201D8002DEC
:10317000EAD1636C43F020036364202384F8413078
:10318000002384F8423084F84030012000E0002021
:1031900070BD0120FCE7F8B505460F4616461C46F3
:1031A0002B689B6937EA03030CBF01230023B3425A
:1031B00018D1B4F1FF3FF3D0FFF7CCFD069BC01A46
:1031C000A04201D8002CEBD16B6C43F020036B6460
:1031D000202385F84130002385F8423085F84030BF
:1031E000012000E00020F8BD70B582B0044616460C
:1031F0001D46184B00934FF08073EAB2FFF73DFF76
:10320000079A06992046FFF79BFFE8B9012D0ED1DA
:103210002368F6B29E62079B0093069B00228021E2
:103220002046FFF7B8FF034678B101230DE023687D
:10323000320A9A62079A06992046FFF781FF38B949
:103240002368F6B29E62E6E70123184602B070BD1D
:103250000123FAE70020008070B582B004461646CC
:103260001D46184B00930023EAB2FFF706FF079AAA
:1032700006992046FFF764FFE8B9012D0ED12368B7
:10328000F6B29E62079B0093069B002240212046D7
:10329000FFF781FF034678B101230DE02368320A6E
:1032A0009A62079A06992046FFF74AFF38B92368C1
:1032B000F6B29E62E6E70123184602B070BD012314
:1032C000FAE700BF0020008070B505460C461646A0
:1032D0002B689B6913F0200F1AD1324621462846ED
:1032E000FFF7E6FEB0B9FFF735FD801BA04201D81D
:1032F000002CEDD16B6C43F020036B64202385F828
:103300004130002385F8423085F84030012070BDFF
:103310000020FCE70120FAE7002859D010B5044648
:1033200090F84130002B43D0242384F841302268A8
:10333000136823F0010313606368226823F070634D
:1033400013612268936823F400439360E368012BC0
:1033500033D0A368226843F404439360E368022BEC
:1033600031D02268536843F0007343F40043536044
:103370002268D36823F40043D3602369626913434E
:10338000A169226843EA0123D360E369216A2268C4
:103390000B4313602268136843F00103136000209D
:1033A0006064202384F84130206384F8420010BD1B
:1033B00080F84030FFF714FBB6E7A368226843F4B7
:1033C00000439360CAE723684FF400625A60C8E77D
:1033D000012070472DE9F04383B090F84150EDB2E1
:1033E000202D40F0A48090F84040012C00F0A480F3
:1033F000984617460E4604464FF0010980F8409063
:10340000FFF7A8FC0546009019234A464FF40041F7
:103410002046FFF7C0FE002840F09080212384F86A
:103420004130102384F84230002363646762A4F8BB
:103430002A806363638D9BB2FF2B0AD9FF2222850A
:10344000424B00934FF0807331462046FFF715FE44
:1034500018E0628D92B222853C4B00934FF00073CE
:10346000D2B231462046FFF708FE0BE0628D92B2E1
:103470002285002300934FF00073D2B231462046DC
:10348000FFF7FBFD638D9BB2002B33D02A460A99D0
:103490002046FFF755FE002852D1626A2368127851
:1034A0009A62636A01336362638D013B9BB26385F9
:1034B000238D013B9BB22385628D92B2002AE1D01D
:1034C000002BDFD100950A9B002280212046FFF7C8
:1034D00062FE002836D1638D9BB2FF2BC6D9FF2236
:1034E0002285002300934FF0807331462046FFF77A
:1034F000C4FDC7E72A460A992046FFF7E5FE0346C2
:1035000010BB22682021D1612068426822F0FF723E
:1035100022F48B3222F4FF7222F00102426084F81E
:103520004110002284F8422084F8402000E0022369
:10353000184603B0BDE8F0830223F9E70123F7E75B
:103540000123F5E70123F3E70123F1E700200080E1
:103550002DE9F04782B0BDF82C7090F84150EDB2E3
:10356000202D40F0BA800A9CDCB1D7B190F84040E1
:10357000012C00F0B780984691460D4604464FF066
:10358000010A80F840A0FFF7E5FB064600901923EA
:1035900052464FF400412046FFF7FDFD30B10123B4
:1035A0009CE04FF400734364012397E0212384F8E7
:1035B0004130402384F84230002363640A9A6262F7
:1035C0006785636301960C9B009343464A462946F0
:1035D0002046FFF709FE70B9638D9BB2FF2B0FD910
:1035E000FF222285002300934FF080732946204656
:1035F000FFF743FD21E0002384F8403053466DE09F
:10360000628D92B22285002300934FF00073D2B2F4
:1036100029462046FFF731FD0FE0628D92B22285E8
:10362000002300934FF00073D2B229462046FFF7E3
:1036300024FD638D9BB2002B32D032460C9920467C
:10364000FFF77EFD00284FD1626A236812789A62E4
:10365000636A01336362638D013B9BB26385238D93
:10366000013B9BB22385628D92B2002AE1D0002BF0
:10367000DFD100960C9B002280212046FFF78BFDB6
:10368000A0BB638D9BB2FF2BC7D9FF2222850023ED
:1036900000934FF0807329462046FFF7EEFCC8E701
:1036A00032460C992046FFF70FFE034600BB226806
:1036B0002021D1612068426822F0FF7222F48B320F
:1036C00022F4FF7222F00102426084F841100022CD
:1036D00084F8422084F8402000E00223184602B01B
:1036E000BDE8F0870223F9E70123F7E70123F5E7B7
:1036F0000123F3E72DE9F04782B0BDF82C7090F874
:103700004150EDB2202D40F0BC800A9CDCB1D7B115
:1037100090F84040012C00F0B980984691460D4643
:1037200004464FF0010A80F840A0FFF713FB06465D
:103730000090192352464FF400412046FFF72BFD1D
:1037400030B101239EE04FF400734364012399E0FC
:10375000222384F84130402384F8423000236364FC
:103760000A9A62626785636301960C9B00934346E5
:103770004A4629462046FFF76FFD70B9638D9BB21C
:10378000FF2B0FD9FF222285444B00934FF080730B
:1037900029462046FFF771FC21E0002384F84030E1
:1037A00053466FE0628D92B222853C4B00934FF0FE
:1037B0000073D2B229462046FFF75FFC0FE0628D0E
:1037C00092B22285002300934FF00073D2B22946B3
:1037D0002046FFF752FC638D9BB2002B34D000963D
:1037E0000C9B002204212046FFF7D5FC00284FD176
:1037F00023685A6A636A1A70636A01336362238DAD
:10380000013B9BB22385628D013A92B26285628D43
:1038100092B2002ADFD0002BDDD100960C9B002253
:1038200080212046FFF7B7FCA0BB638D9BB2FF2B26
:10383000C5D9FF222285002300934FF080732946CB
:103840002046FFF71AFCC6E732460C992046FFF7E0
:103850003BFD034600BB22682021D16120684268FD
:1038600022F0FF7222F48B3222F4FF7222F0010266
:10387000426084F84110002284F8422084F84020FD
:1038800000E00223184602B0BDE8F0870223F9E702
:103890000123F7E70123F5E70123F3E70024008084
:1038A00090F84130DBB2202B24D190F84030012B2E
:1038B00022D0012380F84030242380F84130026870
:1038C000136823F0010313600268136823F4805324
:1038D000136002681368194311600268136843F0AB
:1038E00001031360202380F84130002380F840302A
:1038F00018467047022070470220704790F8413008
:10390000DBB2202B22D190F84030012B20D00123B4
:1039100080F84030242380F841300268136823F097
:10392000010313600268136823F4706343EA012102
:1039300011600268136843F001031360202380F8CC
:103940004130002380F8403018467047022070470D
:1039500002207047024B186800F4C060704700BF37
:1039600000700040B0F5007F0FD01F4B1B6803F4C0
:10397000C063B3F5806F34D01B4A136823F4C0636F
:1039800043F48063136000207047174B1B6803F4F7
:10399000C063B3F5007F22D0134A136823F4C063D9
:1039A00043F400731360114B1A68322303FB02F3D4
:1039B0000F4AA2FB03239B0C013300E0013B0A4AA0
:1039C000526912F4806F01D0002BF7D1064B5B696E
:1039D00013F4806F01D1002070470320704700204E
:1039E00070470020704700BF007000403800002082
:1039F00083DE1B4330B583B00546204B9B6D13F02F
:103A0000805F0BD0FFF7A6FFB0F5007F17D0802DA9
:103A10001FD82DD0702D2DD000211BE0174CA36D89
:103A200043F08053A365A36D03F080530193019B82
:103A3000FFF790FFA36D23F08053A365E4E7802D8B
:103A400003D9A02D03D9022104E0002102E00121C5
:103A500000E003210A4A136823F007030B431360B5
:103A6000136803F007038B4206D0012003B030BD7A
:103A70000221EFE70121EDE70020F7E70010024007
:103A800000200240284A9368D26802F0030213F033
:103A90000C030AD00C2B06D0042B1FD0082B20D0EF
:103AA0000020024610E0012AF6D11F4A126812F0E7
:103AB000080F0CD11C4AD2F89420C2F303221B49F0
:103AC00051F8222043B100200C2B0DD07047164A2C
:103AD0001268C2F30312F2E71046F5E71448002219
:103AE000F2E714480022EFE70F4BDB6803F0030313
:103AF000022B15D0032B15D00B4BD868C0F3021046
:103B00000130D968C1F3062102FB01F2B2FBF0F2E9
:103B1000D868C0F3416001304000B2FBF0F0D5E757
:103B2000034AE9E7034AE7E70010024078D30008B8
:103B30000024F40000127A00002800F00083F0B5A1
:103B400083B00446AF4B9D6805F00C05DE6806F0B7
:103B50000306036813F0100F5BD0E5B10C2D18D0ED
:103B6000A369002B00F0BC80A64A136843F0010350
:103B70001360FFF7EFF80746A24B1B6813F0020F24
:103B800040F09B80FFF7E6F8C01B0228F4D903231E
:103B9000E1E2012EE4D19B4B1B6813F0020F03D02E
:103BA000A369002B00F0CE82206A964B1B6813F0AD
:103BB000080F5CD0934B1B6803F0F00398425DD86C
:103BC000904B1A6842F008021A601A6822F0F0025C
:103BD000216A0A431A605A6822F47F42E16942EA84
:103BE00001225A60002D61D0FFF74CFF854B9B6886
:103BF000C3F30313844AD35C03F01F03D840834B01
:103C00001860834B1868FFF763F80346002840F0FC
:103C1000A282236813F0010F00F08180082D75D077
:103C20000C2D71D06368B3F5803F00F09780B3F539
:103C3000A02F00F09980734B1A6822F480321A602A
:103C40001A6822F480221A606368002B00F09980C1
:103C5000FFF780F807466B4B1B6813F4003F5ED1FB
:103C6000FFF778F8C01B6428F5D9032373E2654B8E
:103C7000D3F894301B0903F0F0039FE7FFF7BAFE77
:103C8000002840F061825F4B1A6842F008021A6017
:103C90001A6822F0F002216A0A431A605A6822F474
:103CA0007F42E16942EA01225A609DE7206AFFF7FC
:103CB000A1FE002898D001234DE2524B1A6842F031
:103CC00008021A601A6822F0F002216A0A431A6098
:103CD0005A6822F47F42E16942EA01225A6098E779
:103CE000484A136823F001031360FFF733F80746CF
:103CF000444B1B6813F0020F8BD0FFF72BF8C01B4F
:103D00000228F5D9032326E2032E8BD13D4B1B68F5
:103D100013F4003F03D06368002B00F01782236880
:103D200013F0020F4FD0042D3CD00C2D38D0E36897
:103D3000002B78D0334A136843F480731360FFF785
:103D400009F806462F4B1B6813F4806F62D1FFF70A
:103D500001F8801B0228F5D90323FCE1294A1368E6
:103D600043F4803313606FE703F18043A3F53C33E2
:103D70001A6842F480221A601A6842F480321A608B
:103D800062E7FEF7E7FF07461E4B1B6813F4003F90
:103D9000C5D0FEF7DFFFC01B6428F5D90323DAE1A5
:103DA000022EC4D1174B1B6813F4806F03D0E36855
:103DB000002B00F0CD81134A536823F0F85321699A
:103DC00043EA01635360236813F0080F56D0636918
:103DD000002B3CD00B4AD2F8943043F00103C2F8D8
:103DE0009430FEF7B7FF0646064BD3F8943013F035
:103DF000020F43D1FEF7AEFF801B0228F4D9032344
:103E0000A9E100BF00100240A8D30008380000203C
:103E100040000020B84A536823F0F853216943EA70
:103E200001635360CFE7B44A136823F480731360CF
:103E3000FEF790FF0646B04B1B6813F4806FC2D0AC
:103E4000FEF788FF801B0228F5D9032383E1AA4AE5
:103E5000D2F8943023F00103C2F89430FEF77AFFD1
:103E60000646A54BD3F8943013F0020F06D0FEF7A8
:103E700071FF801B0228F4D903236CE1236813F03F
:103E8000040F7AD09C4B9B6D13F0805F0BD19A4B43
:103E90009A6D42F080529A659B6D03F080530193B6
:103EA000019B012600E00026944B1B6813F4807FE1
:103EB00026D0A368012B37D0052B3DD08E4BD3F8ED
:103EC000902022F00102C3F89020D3F8902022F035
:103ED0000402C3F89020A368002B3BD0FEF73AFF02
:103EE0000746854BD3F8903013F0020F44D1FEF70C
:103EF00031FFC01B41F288339842F2D903232AE1F3
:103F00007E4A136843F480731360FEF723FF07466D
:103F10007A4B1B6813F4807FCBD1FEF71BFFC01BCD
:103F20000228F5D9032316E1734AD2F8903043F002
:103F30000103C2F89030CEE76F4BD3F8902042F0E7
:103F40000402C3F89020D3F8902042F00102C3F895
:103F50009020C0E7FEF7FEFE0746674BD3F890308F
:103F600013F0020F08D0FEF7F5FEC01B41F28833B4
:103F70009842F2D90323EEE06EBBA36A002B00F057
:103F8000E980022B2DD00C2D00F0EE805A4B1A68E0
:103F900022F080721A601B6813F0205F04D1564A29
:103FA000D36823F00303D360534AD36823F08873A4
:103FB00023F48033D360FEF7CDFE04464E4B1B68DE
:103FC00013F0007F00F0B980FEF7C4FE001B02284A
:103FD000F4D90323BFE0484A936D23F080539365DF
:103FE000CBE7454BDB6803F00301E26A91420FD057
:103FF0000C2D00F0B380404B1B6813F0806F40F035
:10400000AF803D4B1B6813F0805F2DD00123A2E0F1
:1040100003F07002216B0139B2EB011FE8D103F408
:10402000FE42616BB2EB012FE2D103F40031A26BCF
:10403000073A18BF01229142DAD103F4C001E26BC2
:104040005208013AB1EB425FD2D103F0C063226C57
:104050005208013AB3EB426FCAD1274B1B6813F0E9
:10406000007F51D0002376E0234A136823F0807349
:104070001360FEF76FFE05461F4B1B6813F0007FB1
:1040800006D0FEF767FE401B0228F5D9032362E045
:10409000194AD3681A491940E36A206B013843EA88
:1040A0000013606B43EA0023E06B4008013843EAE9
:1040B0004053206C4008013843EA4063A06B00097C
:1040C00043EA40430B43D360136843F080731360AB
:1040D000D36843F08073D360FEF73CFE0446064B82
:1040E0001B6813F0007F0DD1FEF734FE001B022881
:1040F000F5D903232FE000BF0010024000700040FC
:104100008C809DF9002326E0184B1A6842F08072DB
:104110001A60DA6842F08072DA60FEF71BFE04462D
:1041200004E0FEF717FE001B02281BD80F4B1B688C
:1041300013F0007FF5D000230DE000230BE00123F6
:1041400018467047012306E0012304E0012302E042
:10415000012300E00023184603B0F0BD0123FAE775
:104160000123F8E70323F6E70123F4E700100240F8
:10417000002800F09B8070B504464E4B1B6803F08E
:1041800007038B420CD24B4A136823F007030B43FF
:104190001360136803F007038B4201D0012070BD48
:1041A0000D46236813F0010F39D06368032B09D043
:1041B000022B26D063BB404A126812F0020F06D1D0
:1041C0000120ECE73C4A126812F0007F70D03A49B7
:1041D0008A6822F0030213438B60FEF7BBFD06469C
:1041E000354B9B6803F00C036268B3EB820F16D06B
:1041F000FEF7B0FD801B41F288339842F0D90320CE
:10420000CDE72D4A126812F4003FE0D10120C6E745
:10421000294A126812F4806FD9D10120BFE72368C0
:1042200013F0020F06D0244A936823F0F003A1682C
:104230000B4393601F4B1B6803F00703AB420CD981
:104240001C4A136823F007032B431360136803F021
:104250000703AB4201D00120A1E7236813F0040F4C
:1042600006D0154A936823F4E063E1680B4393603A
:10427000236813F0080F07D00F4A936823F46053A4
:10428000216943EAC1039360FFF7FCFB0A4B9B687B
:10429000C3F30313094AD35C03F01F03D840084B50
:1042A0001860084B1868FEF713FD78E70120704787
:1042B000012074E70020024000100240A8D300084B
:1042C0003800002040000020014B1868704700BFF4
:1042D0003800002008B5FFF7F7FF054B9B68C3F3D4
:1042E0000223044AD35C03F01F03D84008BD00BF7B
:1042F00000100240B8D3000808B5FFF7E5FF054BF2
:104300009B68C3F3C223044AD35C03F01F03D84065
:1043100008BD00BF00100240B8D30008F8B55A4BE2
:10432000DB6813F0030F18D0574BDB6803F003036F
:104330000268934202D001252846F8BD002A00F009
:10434000A080514BDB68C3F30213013342689342F0
:1043500001D00125F0E700251AE00368022B59D0AF
:10436000032B5ED0012B01D001250FE0464A1268D5
:1043700012F0020F61D0444DEA6822F073024468E3
:10438000013C43EA04131343EB600025002DD3D115
:104390000F4604463C4A136823F080631360FEF71F
:1043A000D9FC0646384B1B6813F0006F05D0FEF7AA
:1043B000D1FC801B0228F5D90325002DBCD1002F8C
:1043C0003DD131490B6923F41F3323F44073A068B6
:1043D000E2681209520442EA002213430B612A4A9E
:1043E000136843F080631360FEF7B4FC0646264B67
:1043F0001B6813F0006F05D1FEF7ACFC801B022890
:10440000F5D90325002D97D11F4A1369A1690B43E4
:10441000136191E71C4A126812F4806FABD1012539
:10442000B4E7194A126812F4003FA4D1164A126880
:1044300012F4802F9FD10125A8E70125A6E7012FBF
:104440000FD01148026922F0C06222F4FE42A16836
:1044500063695B08013B5B0643EA01231343036185
:10446000BDE70948026922F4C00222F4FE42A168B5
:1044700023695B08013B5B0543EA012313430361A6
:10448000ADE7012558E700BF00100240F8B5514BD9
:10449000DB6813F0030F18D04E4BDB6803F0030307
:1044A0000268934202D001252846F8BD002A00F098
:1044B0008E80484BDB68C3F302130133426893429A
:1044C00001D00125F0E700251AE00368022B59D03E
:1044D000032B5ED0012B01D001250FE03D4A12686D
:1044E00012F0020F61D03B4DEA6822F0730244687B
:1044F000013C43EA04131343EB600025002DD3D1A4
:104500000F460446334A136823F080531360FEF7C6
:1045100021FC06462F4B1B6813F0005F05D0FEF709
:1045200019FC801B0228F5D90325002DBCD1002FD2
:104530003DD128494B6923F41F3323F44073A0680D
:10454000E2681209520442EA002213434B61214AF5
:10455000136843F080531360FEF7FCFB06461D4BC7
:104560001B6813F0005F05D1FEF7F4FB801B0228E7
:10457000F5D90325002D97D1164A536961690B437C
:10458000536191E7134A126812F4806FABD1012591
:10459000B4E7104A126812F4003FA4D10D4A126821
:1045A00012F4802F9FD10125A8E70125A6E709482D
:1045B000426922F0C06222F4FE42A16823695B08CE
:1045C000013B5B0643EA012313434361BFE7012537
:1045D0006AE700BF001002402DE9F04182B00446B6
:1045E000036813F4006F2FD0436EB3F5800F25D00E
:1045F00008D9B3F5000F10D0B3F5400F40F0998003
:10460000002610E0002B40F0948000210430FFF7DA
:1046100085FE06463EB1374618E05E4AD36843F44D
:104620008033D36000265B4AD2F8883023F44003FD
:10463000616E0B43C2F88830002707E0002120306C
:10464000FFF724FF0646E5E700273E46236813F4FC
:10465000805F15D0A36EB3F1807F7AD06CD9B3F1AF
:10466000007F70D0B3F1407F7AD1002E7BD1494AD0
:10467000D2F8883023F04073A16E0B43C2F8883023
:10468000236813F4003F00F08E80424B9B6D13F0C3
:10469000805F6AD13F4B9A6D42F080529A659B6D64
:1046A00003F080530193019B4FF001083A4A1368CD
:1046B00043F480731360FEF74DFB0546364B1B68D1
:1046C00013F4807F05D1FEF745FB401B0228F5D986
:1046D0000326002E62D12F4BD3F8903013F4407391
:1046E00016D0D4F884209A4212D02A4AD2F89030B8
:1046F00023F44073D2F8901041F48031C2F8901046
:10470000D2F8901021F48031C2F89010C2F89030A5
:1047100013F0010F2CD1002E40F043811D4AD2F836
:10472000903023F44073D4F884100B43C2F89030D7
:1047300035E001273E4689E793B90021201DFFF7A8
:10474000EDFD064691E7134AD36843F48033D36006
:104750008BE7002104F12000FFF798FE064684E76E
:1047600001273E468CE737468AE74FF000089DE771
:10477000FEF7F0FA0546074BD3F8903013F0020F1E
:10478000C9D1FEF7E7FA401B41F288339842F2D9CB
:104790000326C0E700100240007000403746B8F121
:1047A000000F40F00081236813F0010F08D09D4AEC
:1047B000D2F8883023F00303A16B0B43C2F8883092
:1047C000236813F0020F08D0964AD2F8883023F0FD
:1047D0000C03E16B0B43C2F88830236813F0040F1D
:1047E00008D0904AD2F8883023F03003216C0B4374
:1047F000C2F88830236813F0080F08D0894AD2F82D
:10480000883023F0C003616C0B43C2F88830236802
:1048100013F0100F08D0834AD2F8883023F4407385
:10482000A16C0B43C2F88830236813F0200F08D026
:104830007C4AD2F8883023F44063E16C0B43C2F821
:104840008830236813F4007F08D0764AD2F8883085
:1048500023F44023E16D0B43C2F88830236813F43E
:10486000806F08D06F4AD2F8883023F44013216E4D
:104870000B43C2F88830236813F0400F08D0694A10
:10488000D2F8883023F44053216D0B43C2F88830AE
:10489000236813F0800F08D0624AD2F8883023F4DE
:1048A0004043616D0B43C2F88830236813F4807F66
:1048B00008D05C4AD2F8883023F44033A16D0B4312
:1048C000C2F88830236813F4005F0FD0554AD2F83D
:1048D000883023F04063E16E0B43C2F88830E36E0A
:1048E000B3F1006F65D0B3F1806F67D0236813F424
:1048F000002F0FD04B4AD2F8883023F04063216F4D
:104900000B43C2F88830236FB3F1006F5ED0B3F170
:10491000806F60D0236813F4802F0FD0414AD2F803
:10492000883023F04063616F0B43C2F88830636FB7
:10493000B3F1006F57D0B3F1806F59D0236813F4EF
:10494000804F0FD0374AD2F8883023F04053A16F00
:104950000B43C2F88830A36FB3F1805F50D0B3F13E
:10496000005F55D0236813F4004F08D02D4AD2F8C9
:10497000883023F08043E16F0B43C2F8883023680E
:1049800013F4803F09D0274AD2F8883023F000433F
:10499000D4F880100B43C2F88830384602B0BDE826
:1049A000F0813746FBE61F4A936D23F080539365F1
:1049B000F9E6D36843F48013D36097E70121201D03
:1049C000FFF7ACFC002891D007468FE7D36843F48B
:1049D0008013D3609EE70121201DFFF79FFC002874
:1049E00098D0074696E7D36843F48013D360A5E7D1
:1049F0000121201DFFF792FC00289FD007469DE76C
:104A00000221201DFFF78AFC0028ABD00746A9E74A
:104A1000022104F12000FFF739FD0028A2D007464B
:104A2000A0E700BF001002402DE9D8480446016805
:104A300083680269134342691343C26913430868D8
:104A40009B4A024013430B602268536823F440538F
:104A5000E1680B435360A1692268964B9A4201D0EA
:104A6000236A1943936823F430630B4393602368EC
:104A7000914A934227D0914A934238D0904A934228
:104A80004ED0904A934261D08F4A934274D0894A63
:104A9000934200F08A80102286498B4200F0AA805F
:104AA000E369B3F5004F00F0D880082A00F2458191
:104AB000DFE812F015012C01130143012F0143011E
:104AC00043014301320102F55842D2F8882002F036
:104AD0000302032A09D8DFE802F00204810601225A
:104AE000DAE70422D8E70822D6E71022D4E702F555
:104AF000E632D2F8882002F00C020C2A0ED8DFE849
:104B000002F0070D0D0D090D0D0D6F0D0D0D0B00B4
:104B10000022C1E70422BFE70822BDE71022BBE75D
:104B200002F5E432D2F8882002F03002102A09D0CF
:104B300005D9202A56D0302A06D10822ACE71AB966
:104B40000022A9E70422A7E71022A5E702F5E23236
:104B5000D2F8882002F0C002402A09D005D9802A64
:104B600042D0C02A06D1082296E71AB9002293E75C
:104B7000042291E710228FE702F5E032D2F8882074
:104B800002F44072B2F5807F0BD007D9B2F5007FF6
:104B90002CD0B2F5407F06D108227DE71AB9002259
:104BA0007AE7042278E7102276E702F5C832D2F8D5
:104BB000882002F44062B2F5806F0BD007D9B2F5BD
:104BC000006F15D0B2F5406F06D1082264E71AB91C
:104BD000002261E704225FE710225DE702225BE723
:104BE000022259E7022257E7022255E7022253E741
:104BF000022251E7082A00F29280DFE802F00890D2
:104C000010900D90909005004FF4004008E0FFF7E1
:104C100061FB28B9002074E0FEF734FFF9E72B4868
:104C2000626802EB420383427BD8B0EB023F7AD842
:104C30000023070E0602500816EB000B47F1000C8C
:104C400058466146FBF7C8FFA0F54072204B9A42D8
:104C50006BD82368D860002053E0082A67D8DFE8C3
:104C600002F007210566246666663900174803E0EE
:104C7000FFF730FB00285CD06268530803EB400369
:104C8000B3FBF2F39BB2A3F110014FF6EF72914226
:104C900051D823F00F02C3F3420313432268D360B9
:104CA00000202EE0FFF728FBE4E7FEF7EBFEE1E74C
:104CB000F369FFEF008000400038014000440040ED
:104CC00000480040004C0040005000400024F40028
:104CD000FFFC0F004FF40040CEE71B4802E0FFF757
:104CE000F9FA60B3636800EB5300B0FBF3F080B2F5
:104CF000A0F110024FF6EF739A4222D82368D860D1
:104D00000020002323666366BDE8D888FFF7F4FA25
:104D1000E7E7FEF7B7FEE4E74FF40040E2E70120E3
:104D2000EFE70120EDE70120EBE70120E9E70120B3
:104D3000E7E70020E5E70120E3E70120E1E70020C5
:104D4000DFE70120DDE700BF0024F400436A13F031
:104D5000010F06D00268536823F40033816A0B43C5
:104D60005360436A13F0020F06D00268536823F4BD
:104D70008033C16A0B435360436A13F0040F06D0BB
:104D80000268536823F48023016B0B435360436A2A
:104D900013F0080F06D00268536823F40043416BF8
:104DA0000B435360436A13F0100F06D002689368F8
:104DB00023F48053816B0B439360436A13F0200FFD
:104DC00006D00268936823F40053C16B0B439360D1
:104DD000436A13F0400F0AD00268536823F480132B
:104DE000016C0B435360036CB3F5801F0BD0436A17
:104DF00013F0800F06D00268536823F40023816CFF
:104E00000B43536070470268536823F4C003416C3E
:104E10000B435360EBE72DE9F04104460F4616467D
:104E20009846069D2368DB6937EA03030CBF01231C
:104E30000023B3423AD1B5F1FF3FF3D0FDF78AFF2B
:104E4000A0EB0800A8421FD8F5B123681A6812F039
:104E5000040FE7D0DA6912F4006FE3D04FF4006278
:104E60001A622268136823F4D0731360226893686F
:104E700023F00103936020236367A367E3670023A4
:104E800084F87030032012E02268136823F4D07392
:104E900013602268936823F0010393602023636703
:104EA000A367002384F87030032000E00020BDE8F1
:104EB000F08130B583B004460023C367FDF74AFF95
:104EC000054623681B6813F0080F0CD123681B6884
:104ED00013F0040F15D120236367A367002084F823
:104EE000700003B030BD6FF07E4300930346002294
:104EF0004FF400112046FFF78EFF0028E6D0032074
:104F0000EFE76FF07E4300932B4600224FF48001C1
:104F10002046FFF780FF0028DDD00320E1E768B3DB
:104F200010B50446436F03B32423636722681368F4
:104F300023F0010313602046FFF776FD012813D00C
:104F4000636ABBB92268536823F4904353602268B4
:104F5000936823F02A0393602268136843F00103E7
:104F600013602046FFF7A5FF10BD80F87030FDF7F5
:104F700069FED9E72046FFF7E9FEE3E70120704725
:104F8000DFF834D0FDF7ECFD002103E00B4B5B585C
:104F9000435004310A480B4B42189A42F6D30A4A4E
:104FA00002E0002342F8043B084B9A42F9D301F097
:104FB00001FBFDF7B7FCFEE70080012078D7000871
:104FC000000000201802002018020020E40D00203C
:104FD000FEE700002DE9F0432DED028B8BB057EC7E
:104FE000106B55EC114B00F057FA2C4BB0EE408A89
:104FF000F0EE608A93F90080B8F1FF3F35D0224689
:105000002B4620462946FBF739FD70BB32463B460E
:1050100030463946FBF732FD814630BB0022002383
:1050200020462946FBF7F8FCF8B11D4BCDF820903F
:105030000122CDE90267CDE90445CDE90023B8F1AD
:10504000000F1BD00022002310461946FBF7A6FBD9
:10505000B8F1020FCDE9060112D101F0A5FA212322
:105060000360089BA3B99DED068BB0EE480AF0EEF5
:10507000680A0BB0BDEC028BBDE8F083CDE9066792
:10508000684601F065F90028E7D0089B002BEAD0BC
:1050900001F08AFA089B0360E5E700BF44000020A6
:1050A00084D40008000000002DE9F04F2DED028BA4
:1050B000DFF824A38BB057EC106B55EC114B00F0CC
:1050C0000FFB9AF90080B0EE408AF0EE608AB8F1EA
:1050D000FF3F33D022462B4620462946FBF7CEFC25
:1050E000834658BB32463B4630463946FBF7C6FC42
:1050F0008146002866D13046394600220023FBF75E
:105100008BFC20B30022002320462946FBF784FCB9
:10511000834600287DD09FEDA67B0122AA4BCDF8C7
:1051200020900092CDE90267CDE904458DED067B24
:105130000193B8F1000F5ED09FED9F8BB0EE480A4F
:10514000F0EE680A0BB0BDEC028BBDE8F08FB0EE5C
:10515000480AF0EE680A01F0F3F88046002800F0F3
:1051600082804FF000084FF0000951EC180B4246C6
:105170004B46FBF751FC0028E0D047EC106B01F0E8
:10518000DFF80028DAD045EC104B01F0D9F8002800
:10519000D4D09AF900308C4A019204210022022BCB
:1051A000CDE90267CDE90445CDE906890091089271
:1051B00003D0684601F0CCF810BB01F0F5F92223CA
:1051C00003601DE00022002320462946FBF724FC53
:1051D0000028B3D09FED788B01227B4BCDF820B017
:1051E000B8F1020F0092CDE90267CDE904458DEDDB
:1051F000068B0193A2D0684601F0AAF8002878D067
:10520000089B1BB101F0D0F9089B03609DED068B54
:1052100094E745EC104B01F093F800288ED0002263
:10522000002320462946FBF701FC002886D0664A69
:105230009AF90030CDF820B00121CDE90267CDE91F
:105240000445CDE90012002B58D060490020022B04
:10525000CDE9060156D101F0A7F921230360089B8F
:10526000002BD3D0CEE747EC106B01F069F8002893
:105270003FF477AF45EC104B01F062F800283FF4A3
:1052800070AF53EC182B18EE100A1946FBF7F6FB1B
:105290009AF9009000286FD10323DFF82CC1089001
:1052A0002946204600930022494BCDF804C0CDE9A1
:1052B0000445CDE90267FBF747F904460D46B9F10D
:1052C000000F25D1DFF814914FF060480022002331
:1052D00030463946CDE90689FBF7A8FB38BB68465E
:1052E00001F036F80028BAD101F05EF922230360FC
:1052F000B5E701F059F92123036081E79FED2C7B8D
:105300008DED067B684601F023F80028A7D1A2E7BF
:105310009FED2B7B00220023304639468DED067B26
:10532000FBF784FBB0B9B9F1020FDDD0D7E745EC4C
:10533000104B01F019F822462B4651EC100BFBF7ED
:105340006BFBB0B9234B9AF900904FF06042CDE966
:105350000623E8E745EC104B01F006F822462B4601
:1053600051EC100BFBF758FB18B9184B0022CDE994
:1053700006239AF90090D6E70122134BCDF820803E
:105380000092CDE90267CDE904450193B9F1000F20
:10539000B4D00022002310461946FBF7FFF9B9F1FB
:1053A000020FCDE906013FF456AFABE7AFF3008043
:1053B0000000000000000000000000000000F03FBE
:1053C000000000000000F07F8CD400080000F0FF17
:1053D0000000E03FFFFFEFC744000020FFFFEF4762
:1053E0002DE9F0432DED028B8BB055EC104B00F006
:1053F000D3FE274BB0EE408AF0EE608A93F900604E
:10540000731C12D022462B4620462946FBF736FB5A
:10541000074650B94FF000084FF0000920462946D2
:1054200042464B46FBF702FB40B9B0EE480AF0EEAD
:10543000680A0BB0BDEC028BBDE8F0830122154B6E
:1054400008970092CDE90445CDE90245019396B154
:1054500042464B4640464946FBF7A0F9022ECDE9AD
:1054600006010AD101F0A0F821230360089B53B97B
:105470009DED068BD9E7CDE90689684600F068FF07
:105480000028F3D1EEE701F08FF8089B0360EFE707
:105490004400002090D4000853EC112B2DE9F04774
:1054A00023F0004E5EEA020651EC100B24D0854E2C
:1054B00021F00048B04589461EDC56421643824F13
:1054C0004EEAD676BE4211EE104A15D8F0451D467A
:1054D00011EE10CA10EE10AA10EE107A01F000467C
:1054E00017DC13DB904211D313D1784BF60F03EB8B
:1054F000C60393ED000B07E0FBF726F802460B46C8
:10550000FBF74CF941EC100BBDE8F08741EC100BB8
:10551000FAE7B8F5801F3BDB4FEA2852A2F2FF32D0
:10552000BEF5801F80F29080BEF1000F40F0A08099
:10553000002C2346664904DD5B00002B01F1FF319E
:10554000FADC644B9A4271DBC9F3130343F4801312
:10555000604881425CDBC5F3130444F48014501AA4
:1055600007E052EA050321D0EB0F03EB42036F0083
:1055700001381A1BA7EB0C05F8B1674538BF02F1DB
:10558000FF32002AEDDAFA0F02EB43037F00EFE768
:10559000B8F1000F5DD1BAF1000F53464C4ABFDDA0
:1055A0005B00002B02F1FF32FADCB9E7474BF60F44
:1055B00003EBC60696ED000BA6E7674538BF02F180
:1055C000FF32002ABCBF3D461A4652EA0503EDD021
:1055D0004148824208DCEB0F03EB4202824201F1B8
:1055E000FF314FEA4505F6DD3A4B99424FDA5B1A37
:1055F000142B57DC01F21E41DD4002FA01F142FAA0
:1056000003F329431E4333460A4643EC102B7BE742
:10561000401A1F2826DC01F21E450EFA00FE24FA6D
:1056200005F504FA00FC45EA0E0498E79F1A1F2FBF
:1056300027DC02F21E4308FA07F82AFA03F30AFAF3
:1056400007F743EA080383E74FEA2E51A1F2FF313F
:1056500077E7204A4FEAC8235B00002B02F1FF32B4
:10566000FADC5DE71D4D6D1AAC404FF0000C76E79B
:1056700018494FEACE235B00002B01F1FF31FADC21
:105680005FE7164B9B1A0AFA03F3002760E7A2F5BF
:105690008012164301F2FF3146EA01532A4643ECD9
:1056A000102B31E71F2B07DC01F21E4102FA01F13A
:1056B00025FA03F21143A6E7084B591A42FA01F101
:1056C000A1E700BFFFFFEF7F0000F07F98D4000844
:1056D000EDFBFFFF02FCFFFFFFFF0F00E2FBFFFF00
:1056E0002DE9F04F51EC110B21F0004555EA000374
:1056F00093B010D059EC108B6D4B29F000449C42B4
:105700004E4610EE10AA0DDD04F1404404F580145D
:1057100054EA0A0356D16749002041EC100B13B03C
:10572000BDE8F08F0F4611EE10CA48D09D42EBDC69
:105730005F4B9D425FD0002ECDE900015FDB4FF053
:10574000000BBCF1000F0ED1594B9D4243D0594B79
:105750009D4200F08C80B7F1804F00F09E80564B48
:105760009F4200F0B88349EC108B00F0DFFD51EC54
:10577000100BBAF1000F06D1002C5AD04D4B26F079
:1057800040429A4255D0F60F06F1FF3A5BEA0A030F
:1057900073D04A4B9D4240F3998003F104739D42BC
:1057A00040F33884464B9C4272DD002F72DD3EA3ED
:1057B000D3E9002310461946FAF7C6FEADE7B8F163
:1057C000000F05D03F4813B0BDE8F04F00F0C4BD56
:1057D000A542F7DCACE704F1404303F5801353EA3C
:1057E0000A0398D0364B9C4240F37F83002F51DB55
:1057F000DDE9000191E7BCF1000F9CD084E7324B5A
:105800009D4231DCA3F154739D4298DD2B15A3F228
:10581000FF33142B40F3A183C3F134032CFA03F2BA
:1058200002FA03F363458AD102F00102C2F1020BCE
:1058300087E7002F05DA02460B4600201D49FAF7DC
:10584000ADFF002EBFF669AF04F1404404F58014AB
:1058500054EA0B0300F03A84BBF1010F7FF45DAF13
:1058600001F10043194658E74FF0020B69E7002F9A
:10587000C0F24483404649464FE742464B461046F5
:105880001946FAF7A9FC02460B46FAF787FF44E7E8
:10589000002F8CDB002000213FE742464B4640466C
:1058A0004946FAF751FE38E79C7500883CE4377E9C
:1058B0000000F07F0000F03F0000E03F0000E0410A
:1058C000FFFFEF3F50D40008FFFF3F43B4F5801FB8
:1058D00080F260830022D04BFAF736FE6FF0340678
:1058E0000C462315CD4AC4F31304A3F2FF3344F04E
:1058F0007F559E1994420D9645F4401540F33D8323
:10590000C74B9C4240F301849FEDAD7B8DED087B3E
:105910008DED107B9FEDAC7B8DED067B01360D96FA
:10592000A5F580154FF00008DDE906232946064657
:10593000FAF752FCDDE90623CDE90A013046294693
:10594000FAF74CFC02460B460020B649FAF726FF50
:1059500003460C46CDE90E3402460B46DDE90A014A
:10596000FAF7F2FD6B1043F0005303F500230A46EB
:105970002F46014603EB08050023CDE902120293EE
:10598000DDE902890024CDE904122B462246404677
:105990004946FAF7D9FD02460B46DDE90A01FAF756
:1059A0001BFCDDE90623CDE90A0120462946FAF76A
:1059B00013FC02460B4630463946FAF70DFC4246C8
:1059C0004B46FAF7C1FD02460B46DDE90A01FAF73C
:1059D00003FCDDE90E23FAF7B7FDDDE90445CDE967
:1059E000060122462B4620462946FAF7ADFD78A34C
:1059F000D3E9002304460D46FAF7A6FD76A3D3E9C2
:105A00000023FAF7EBFB22462B46FAF79DFD74A321
:105A1000D3E90023FAF7E2FB22462B46FAF794FD7E
:105A200071A3D3E90023FAF7D9FB22462B46FAF7F4
:105A30008BFD6FA3D3E90023FAF7D0FB22462B4658
:105A4000FAF782FD6CA3D3E90023FAF7C7FB2246DD
:105A500006460F462B4620462946FAF775FD0246B4
:105A60000B4630463946FAF76FFD424604460D466E
:105A70004B46DDE90401FAF7B1FBDDE90623FAF74D
:105A800063FD22462B46FAF7A9FB424606460F461F
:105A90004B4640464946FAF757FD0022624BCDE996
:105AA0000A01FAF79BFB32463B46FAF797FB02984E
:105AB0000D46044622462B4640464946FAF744FD29
:105AC000002280468946584B20462946FAF784FB37
:105AD000DDE90A23FAF780FB02460B4630463946D9
