:020000040800F2
:10000000008001202D2F000853140008551400080B
:1000100057140008591400085B1400080000000081
:100020000000000000000000000000005D14000857
:100030005F14000800000000611400086314000849
:100040007D2F00087D2F00087D2F00087D2F0008E0
:100050007D2F00087D2F00087D2F00087D2F0008D0
:100060007D2F00087D2F00087D2F00087D2F0008C0
:100070007D2F00087D2F00087D2F00087D2F0008B0
:100080007D2F00087D2F00087D2F00087D2F0008A0
:100090007D2F00087D2F00087D2F00087D2F000890
:1000A0007D2F00087D2F00087D2F00087D2F000880
:1000B0007D2F00087D2F00087D2F00087D2F000870
:1000C0007D2F00087D2F00087D2F00087D2F000860
:1000D0007D2F00087D2F00081D1300087D2F0008CC
:1000E0007D2F00087D2F00087D2F00087D2F000840
:1000F0007D2F00087D2F00087D2F00087D2F000830
:100100007D2F00087D2F00087D2F00087D2F00081F
:100110007D2F00087D2F00087D2F00087D2F00080F
:100120007D2F00087D2F00087D2F00087D2F0008FF
:100130007D2F00087D2F00087D2F00087D2F0008EF
:100140007D2F00087D2F00087D2F00087D2F0008DF
:100150007D2F00087D2F00087D2F00087D2F0008CF
:100160007D2F00087D2F00087D2F00087D2F0008BF
:100170007D2F00087D2F00087D2F00080000000063
:080180007D2F00087D2F00080F
:1001900010B5054C237833B9044B13B10448AFF3C1
:1001A00000800123237010BDE0010020000000004A
:1001B0001C5B000808B5034B1BB103490348AFF3B0
:1001C000008008BD00000000E40100201C5B000866
:1001D00081F0004102E000BF83F0004330B54FEAF8
:1001E00041044FEA430594EA050F08BF90EA020F65
:1001F0001FBF54EA000C55EA020C7FEA645C7FEAF8
:10020000655C00F0E2804FEA5454D4EB5555B8BF1A
:100210006D420CDD2C4480EA020281EA030382EA8B
:10022000000083EA010180EA020281EA0303362D1D
:1002300088BF30BD11F0004F4FEA01314FF4801CF0
:100240004CEA113102D0404261EB410113F0004F02
:100250004FEA03334CEA133302D0524263EB4303B9
:1002600094EA050F00F0A780A4F10104D5F1200E57
:100270000DDB02FA0EFC22FA05F2801841F10001B2
:1002800003FA0EF2801843FA05F359410EE0A5F186
:1002900020050EF1200E012A03FA0EFC28BF4CF0B7
:1002A000020C43FA05F3C01851EBE37101F000456D
:1002B00007D54FF0000EDCF1000C7EEB00006EEB7A
:1002C0000101B1F5801F1BD3B1F5001F0CD3490804
:1002D0005FEA30004FEA3C0C04F101044FEA44525B
:1002E00012F5800F80F09A80BCF1004F08BF5FEAE2
:1002F000500C50F1000041EB045141EA050130BDC2
:100300005FEA4C0C404141EB010111F4801FA4F164
:100310000104E9D191F0000F04BF01460020B1FAB9
:1003200081F308BF2033A3F10B03B3F120020CDAF1
:100330000C3208DD02F1140CC2F10C0201FA0CF0CF
:1003400021FA02F10CE002F11402D8BFC2F1200C34
:1003500001FA02F120FA0CFCDCBF41EA0C019040EA
:10036000E41AA2BF01EB0451294330BD6FEA040433
:100370001F3C1CDA0C340EDC04F11404C4F120021E
:1003800020FA04F001FA02F340EA030021FA04F330
:1003900045EA030130BDC4F10C04C4F1200220FA87
:1003A00002F001FA04F340EA0300294630BD21FAC5
:1003B00004F0294630BD94F0000F83F4801306BF8B
:1003C00081F480110134013D4EE77FEA645C18BF7F
:1003D0007FEA655C29D094EA050F08BF90EA020F16
:1003E00005D054EA000C04BF1946104630BD91EA0E
:1003F000030F1EBF0021002030BD5FEA545C05D111
:100400004000494128BF41F0004130BD14F580044F
:100410003CBF01F5801130BD01F0004545F0FE41C3
:1004200041F470014FF0000030BD7FEA645C1ABFF8
:10043000194610467FEA655C1CBF0B46024650EA2F
:10044000013406BF52EA033591EA030F41F400215B
:1004500030BD00BF90F0000F04BF0021704730B5E1
:100460004FF4806404F132044FF000054FF00001B6
:1004700050E700BF90F0000F04BF0021704730B577
:100480004FF4806404F1320410F0004548BF40424C
:100490004FF000013EE700BF42004FEAE2014FEAA1
:1004A00031014FEA02701FBF12F07F4393F07F4F7C
:1004B00081F06051704732F07F4208BF704793F07F
:1004C0007F4F04BF41F40021704730B54FF4607492
:1004D00001F0004521F000411CE700BF50EA010295
:1004E00008BF704730B54FF000050AE050EA01023E
:1004F00008BF704730B511F0004502D5404261EBAE
:1005000041014FF4806404F132045FEA915C3FF4EE
:10051000D8AE4FF003025FEADC0C18BF03325FEA8B
:10052000DC0C18BF033202EBDC02C2F1200300FA3C
:1005300003FC20FA02F001FA03FE40EA0E0021FA61
:1005400002F11444BDE600BF70B54FF0FF0C4CF44F
:10055000E06C1CEA11541DBF1CEA135594EA0C0F01
:1005600095EA0C0F00F0DEF82C4481EA030621EA3C
:100570004C5123EA4C5350EA013518BF52EA033577
:1005800041F4801143F4801338D0A0FB02CE4FF029
:100590000005E1FB02E506F00042E0FB03E54FF059
:1005A0000006E1FB03569CF0000F18BF4EF0010E51
:1005B000A4F1FF04B6F5007F64F5407404D25FEA4D
:1005C0004E0E6D4146EB060642EAC62141EA555100
:1005D0004FEAC52040EA5E504FEACE2EB4F1FD0C42
:1005E00088BFBCF5E06F1ED8BEF1004F08BF5FEAC0
:1005F000500E50F1000041EB045170BD06F0004672
:1006000046EA010140EA020081EA0301B4EB5C041E
:10061000C2BFD4EB0C0541EA045170BD41F4801116
:100620004FF0000E013C00F3AB8014F1360FDEBF3B
:10063000002001F0004170BDC4F10004203C35DA17
:100640000C341BDC04F11404C4F1200500FA05F39A
:1006500020FA04F001FA05F240EA020001F000423B
:1006600021F0004110EBD37021FA04F642EB0601B1
:100670005EEA430E08BF20EAD37070BDC4F10C04DB
:10068000C4F1200500FA04F320FA05F001FA04F29F
:1006900040EA020001F0004110EBD37041F100018B
:1006A0005EEA430E08BF20EAD37070BDC4F1200596
:1006B00000FA05F24EEA020E20FA04F301FA05F2FE
:1006C00043EA020321FA04F001F0004121FA04F2A6
:1006D00020EA020000EBD3705EEA430E08BF20EA76
:1006E000D37070BD94F0000F0FD101F000464000B0
:1006F00041EB010111F4801F08BF013CF7D041EA32
:10070000060195F0000F18BF704703F00046520035
:1007100043EB030313F4801F08BF013DF7D043EA06
:100720000603704794EA0C0F0CEA135518BF95EABC
:100730000C0F0CD050EA410618BF52EA4306D1D143
:1007400081EA030101F000414FF0000070BD50EA62
:10075000410606BF1046194652EA430619D094EAEC
:100760000C0F02D150EA013613D195EA0C0F05D1D6
:1007700052EA03361CBF104619460AD181EA03012A
:1007800001F0004141F0FE4141F470014FF00000E2
:1007900070BD41F0FE4141F4780170BD70B54FF07D
:1007A000FF0C4CF4E06C1CEA11541DBF1CEA1355FD
:1007B00094EA0C0F95EA0C0F00F0A7F8A4EB0504DF
:1007C00081EA030E52EA03354FEA013100F08880D6
:1007D0004FEA03334FF0805545EA131343EA12639F
:1007E0004FEA022245EA111545EA10654FEA002654
:1007F0000EF000419D4208BF964244F1FD0404F50D
:10080000407402D25B084FEA3202B61A65EB030568
:100810005B084FEA32024FF480104FF4002CB6EB25
:10082000020E75EB030E22BFB61A754640EA0C00A5
:100830005B084FEA3202B6EB020E75EB030E22BFE5
:10084000B61A754640EA5C005B084FEA3202B6EB26
:10085000020E75EB030E22BFB61A754640EA9C00E5
:100860005B084FEA3202B6EB020E75EB030E22BFB5
:10087000B61A754640EADC0055EA060E18D04FEA73
:10088000051545EA16754FEA06164FEAC30343EA13
:1008900052734FEAC2025FEA1C1CC0D111F4801FE0
:1008A0000BD141EA00014FF000004FF0004CB6E7D9
:1008B00011F4801F04BF01430020B4F1FD0C88BF78
:1008C000BCF5E06F3FF6AFAEB5EB030C04BFB6EB83
:1008D000020C5FEA500C50F1000041EB045170BD76
:1008E0000EF0004E4EEA113114EB5C04C2BFD4EBA3
:1008F0000C0541EA045170BD41F480114FF0000E27
:10090000013C90E645EA060E8DE60CEA135594EAA2
:100910000C0F08BF95EA0C0F3FF43BAF94EA0C0FA5
:100920000AD150EA01347FF434AF95EA0C0F7FF41A
:1009300025AF104619462CE795EA0C0F06D152EA6E
:1009400003353FF4FDAE1046194622E750EA410652
:1009500018BF52EA43067FF4C5AE50EA41047FF463
:100960000DAF52EA43057FF4EBAE12E74FF0FF3CC8
:1009700006E000BF4FF0010C02E000BF4FF0010C99
:100980004DF804CD4FEA410C7FEA6C5C4FEA430C12
:1009900018BF7FEA6C5C1BD001B050EA410C0CBF61
:1009A00052EA430C91EA030F02BF90EA020F0020C3
:1009B000704710F1000F91EA030F58BF994208BF2A
:1009C00090422CBFD8176FEAE37040F001007047E7
:1009D0004FEA410C7FEA6C5C02D150EA013C07D13E
:1009E0004FEA430C7FEA6C5CD6D152EA033CD3D089
:1009F0005DF8040B704700BF8446104662468C4683
:100A00001946634600E000BF01B5FFF7B7FF0028B5
:100A100048BF10F1000F01BD4DF808EDFFF7F4FFDE
:100A20000CBF012000205DF808FB00BF4DF808ED69
:100A3000FFF7EAFF34BF012000205DF808FB00BF8C
:100A40004DF808EDFFF7E0FF94BF012000205DF8AE
:100A500008FB00BF4DF808EDFFF7CEFF94BF012063
:100A600000205DF808FB00BF4DF808EDFFF7C4FF5C
:100A700034BF012000205DF808FB00BF4FEA410CA5
:100A80007FEA6C5C02D150EA013C0AD14FEA430C88
:100A90007FEA6C5C02D152EA033C02D14FF00000C5
:100AA00070474FF0010070474FEA410212F5001203
:100AB00015D211D56FF47873B3EB625212D94FEAA5
:100AC000C12343F0004343EA505311F0004F23FA8F
:100AD00002F018BF404270474FF00000704750EAE4
:100AE000013005D111F0004008BF6FF000407047A1
:100AF0004FF00000704700BF4A0011D212F50012FB
:100B000011D20DD56FF47873B3EB62520ED44FEA65
:100B1000C12343F0004343EA505323FA02F07047E5
:100B20004FF00000704750EA013002D14FF0FF3023
:100B300070474FF0000070474FEA4102B2F1E043C6
:100B400024BFB3F5001CDCF1FE5C0DD901F0004CB4
:100B50004FEAC0024CEA5070B2F1004F40EB830004
:100B600008BF20F00100704711F0804F21D113F130
:100B70003872BCBF01F00040704741F480114FEA69
:100B80005252C2F11802C2F1200C10FA0CF320FAF2
:100B900002F018BF40F001004FEAC1234FEAD3230F
:100BA00003FA0CFC40EA0C0023FA02F34FEA430379
:100BB000CCE77FEA625307D150EA01331EBF4FF002
:100BC000FE4040F44000704701F0004040F0FE401D
:100BD00040F40000704700BF53B94AB9002908BF6C
:100BE00000281CBF4FF0FF314FF0FF3000F072B90A
:100BF000ADF1080C6DE904CE00F006F8DDF804E074
:100C0000DDE9022304B070472DE9F047089E044651
:100C10008846002B4BD18A42154667D9B2FA82F238
:100C20004AB1C2F1200701FA02F320FA07F7954012
:100C300047EA030894404FEA154E230CB8FBFEF731
:100C40001FFA85FC0EFB178843EA084307FB0CF1EB
:100C5000994209D9EB1807F1FF3080F01B819942C6
:100C600040F21881023F2B445B1AA4B2B3FBFEF0A2
:100C70000EFB103344EA034400FB0CFCA44509D9E5
:100C80002C1900F1FF3380F00781A44540F2048164
:100C900002382C4440EA0740A4EB0C0400271EB1A4
:100CA000D4400023C6E900433946BDE8F0878B42B3
:100CB00009D9002E00F0EB800027C6E90001384674
:100CC0003946BDE8F087B3FA83F7002F47D18B424E
:100CD00002D3824200F2FA80841A61EB03030120FE
:100CE0009846002EE0D0C6E90048DDE702B9FFDEF5
:100CF000B2FA82F2002A40F08F80491B4FEA154E6B
:100D00001FFA85F80127B1FBFEFC230C0EFB1C111A
:100D100043EA014308FB0CF1994207D9EB180CF1A7
:100D2000FF3002D2994200F2CD808446591AA3B214
:100D3000B1FBFEF00EFB101443EA044408FB00F87C
:100D4000A04507D92C1900F1FF3302D2A04500F2CB
:100D5000B6801846A4EB080440EA0C409FE7C7F1B0
:100D6000200CBB4022FA0CFE4EEA030E01FA07F4F7
:100D700020FA0CF521FA0CF34FEA1E482543B3FB89
:100D8000F8F92C0C08FB19331FFA8EFA44EA0343D6
:100D900009FB0AF49C4202FA07F200FA07F10BD9A8
:100DA0001EEB030309F1FF3080F087809C4240F284
:100DB0008480A9F1020973441B1BADB2B3FBF8F0A8
:100DC00008FB103345EA034400FB0AFAA24508D9A0
:100DD0001EEB040400F1FF336BD2A24569D902383F
:100DE000744440EA0940A0FB0289A4EB0A044C4584
:100DF000C2464B4654D351D0002E69D0B1EB0A0500
:100E000064EB030404FA0CFCFD40FC404CEA0505CD
:100E1000C6E90054002747E7C2F1200320FA03F790
:100E2000954001FA02F021FA03F34FEA154E3843D8
:100E3000010CB3FBFEF71FFA85F80EFB173341EAEE
:100E4000034107FB08F38B4204FA02F407D969183F
:100E500007F1FF3C2FD28B422DD9023F2944CB1AF8
:100E600081B2B3FBFEF00EFB103341EA034100FBFD
:100E700008F38B4207D9691800F1FF3C17D28B4267
:100E800015D902382944C91A40EA07473BE73746D3
:100E9000304609E70746E7E61846FBE64145ABD290
:100EA000B8EB020A69EB0E0201381346A4E760466C
:100EB000E9E7184695E76746D1E781467CE70238BF
:100EC0002C4447E7ACF1020C2B442FE7384608E7E7
:100ED0003746E9E6704700BF034613F8012B002AA6
:100EE000FBD1181A01387047000000000000000014
:100EF00001F0FF01102A2BDB10F0070F08D010F8CB
:100F0000013B013A8B422DD010F0070F42B3F6D1CE
:100F1000F0B441EA012141EA014122F007047FF0E7
:100F200000070023F0E80256083C85EA010586EA3E
:100F3000010685FA47F5A3FA87F586FA47F6A5FA7A
:100F400087F68EB9EED1F0BC01F0FF0102F0070286
:100F500032B110F8013B013A83EA010313B1F8D131
:100F60000020704701387047002D06BF3546033812
:100F7000073815F0010F07D1013015F4807F02BF4B
:100F8000013015F4C03F0130F0BC0138704700BF9C
:100F9000F8B52DED028BB0EE408A10EE100AFFF787
:100FA0007BFA9FED131B41EC100B01F0E9FF57ECAE
:100FB000106B9FED117AC8EE077AFDEEE77AF8EE36
:100FC000E77A17EE900AFFF767FA04460D4600220B
:100FD0000A4B30463946FFF7E1FB02460B462046F6
:100FE0002946FFF7FBF841EC100BBDEC028BF8BD76
:100FF00000000000000059400000C84200004E40C0
:1010000038B5C24BDB78562B01D007234DE0BF4BE0
:101010001B79542B0BD0072347E00B46052A09DC2C
:10102000591CBA481B5C2C2BF7D10132F5E7002282
:101030000723F3E7B54A0021C2F8241213E0B349AD
:10104000D1ED897AB2EE047A27EE877A013307EE82
:10105000902AF8EEE77A77EE877A9FEDAD7A77EE11
:10106000C77AC1ED897AA94A9A5C2E2AE7D1012173
:10107000002208E002EB8202500001330219303AEC
:1010800001EB81004100A1481C5C2C2CF2D190EDB9
:10109000897A92FBF1F207EE902AF8EEE77A77EE82
:1010A000877AC0ED897A30E101339A4A9A5C2C2A1A
:1010B000FAD1964A0020C2F80802C2F80C02C2F81F
:1010C0001402C2F81802C2F820025C1C985C9D1C35
:1010D000A15C303800EB800044002144C9B23539AE
:1010E00082F80312D91CA85C1D1D895C303800EB06
:1010F000800044002144C9B2303982F80412591DDD
:10110000A85C895C303800EB800044002144C9B2FF
:101110003039C9B282F805127F480468651C056041
:1011200000EB84004160D81D03F10801805C03F1ED
:1011300009058C5C303800EB800000EB80008100FA
:10114000A4F1300000EB800044002144C9B2A85C47
:101150000144C9B2303982F8061203F10B0413E0DE
:101160006A4AD2ED827AB2EE047A27EE877A0134A7
:1011700007EE903AF8EEE77A77EE877A9FED647A99
:1011800077EEC77AC2ED827A604BE35C2E2BE7D113
:101190000134012216E05D49D1ED837AB2EE047A82
:1011A00027EE877A013407EE903AF8EEE77A77EE89
:1011B000877A9FED577A77EEC77AC1ED837A02EB93
:1011C00082035A00514BE35C2C2BE4D14F4B93ED3F
:1011D000820AD3ED836A07EE902AF8EEE77A86EE6C
:1011E000A77A30EE070A83ED820A621CD25C83F88C
:1011F0001022033413E0454AD2ED857AB2EE047A28
:1012000027EE877A013407EE903AF8EEE77A77EE28
:10121000877A9FED3F7A77EEC77AC2ED857A3B4BAE
:10122000E35C2E2BE7D1013413E0384AD2ED867A05
:10123000B2EE047A27EE877A013407EE903AF8EEA0
:10124000E77A77EE877A9FED327A77EEC77AC2ED4A
:10125000867A2E4BE35C2C2BE7D1631C02342B4D9A
:101260005B5D85F81C32FFF793FE51EC100BFFF726
:1012700063FCC5F80C0295ED850AFFF789FE51EC79
:10128000100BFFF759FCC5F81802002300E01446C4
:10129000032B1ADC621C1D49615C2C29F7D1013338
:1012A000F5E71A4AD2ED887AB2EE047A27EE877A09
:1012B000013407EE903AF8EEE77A77EE877A9FED01
:1012C000147A77EEC77AC2ED887A104BE35C2E2B46
:1012D000E7D10023012208E003EB83035900013426
:1012E0000B18303B02EB82014A000849605C2C2855
:1012F000F2D191ED887A93FBF2F307EE903AF8EE93
:10130000E77A77EE877AC1ED887A38BD94070020B6
:101310000000404293070020FC01002008B51D4B4F
:10132000DB6913F0200F0AD01A4B998CC9B21A4B03
:101330001868421C1A60034419710A2900D008BDBC
:10134000154BD3F8EC130131C3F8EC13DB79472BC1
:1013500005D0562B10D0104B00221A60EFE70E4933
:10136000097A4729F5D10C490123C1F8F03304313A
:101370000A4801F0BDFFEEE7074B1B7A542BEAD178
:1013800005490123C1F8F0330431044801F0B0FFEE
:10139000E1E700BF004400409003002094070020D4
:1013A00010B5B8B02422002128A801F0C5FF002400
:1013B00022942394249425942694882221466846D6
:1013C00001F0BAFF1023279301222D9260232F935F
:1013D000022331933292339228223492072235929B
:1013E0003693379327A800F07DFB0F232293032326
:1013F0002393249425942694042122A800F08EFEA1
:1014000040F2C31300930E940F9414941594169401
:10141000684601F0B7F84FF4007000F079FA38B080
:1014200010BD000008B5FFF7BBFF00F061F800F049
:1014300089F8064BD3F8F033012BFAD1FFF7E0FD22
:10144000024B0022C3F8F023F3E700BF9003002013
:1014500070477047FEE7FEE7FEE7FEE7704770471C
:10146000704708B500F0FEF808BD000008B5034657
:101470000B4A126842B10A4A106803446A46934212
:1014800006D8074A136008BD054A06491160F2E70D
:1014900001F004FF0C2303604FF0FF30F3E700BFBF
:1014A00084070020480A00200F49D1F8883043F40F
:1014B0007003C1F888300D4B1A6842F001021A60BF
:1014C000002098601A6822F0A85222F410221A60B4
:1014D0004FF48052DA601A6822F480221A60986110
:1014E0004FF000638B60704700ED00E00010024099
:1014F00000B589B0124BDA6C42F00102DA64DA6CA2
:1015000002F001020192019ADA6C42F00202DA64FE
:10151000DB6C03F002030293029B002307930C236E
:10152000039302230493012305930323069303A942
:101530004FF0904000F000F909B05DF804FB00BFE7
:101540000010024008B50F480F4B03604FF41653CC
:10155000436000238360C3600361042242618361AE
:10156000C3610362436201F0B0FC40B9002211463E
:10157000262000F089F8262000F0BAF808BDFFF711
:1015800067FFF3E7BC0900200044004000B589B0C4
:1015900000230393049305930693079302681C4B5F
:1015A0009A4202D009B05DF804FB03F5E6339A6D68
:1015B00042F400329A659A6D02F400320092009A69
:1015C000DA6C42F00102DA64DA6C02F00102019294
:1015D000019ADA6C42F00202DA64DB6C03F0020377
:1015E0000293029B0C23039302230493012305938C
:1015F000032306930723079303A94FF0904000F0BD
:101600009BF8044B1A68136843F020031360C9E782
:1016100000440040BC090020104B1B780BB901208E
:10162000704710B504464FF47A70B0FBF3F30C4AE0
:101630001068B0FBF3F000F069F868B90F2C01D91D
:1016400001200AE0002221464FF0FF3000F01CF894
:10165000024B5C60002000E0012010BD040000206F
:1016600000000020034B1B78034A11680B441360F1
:10167000704700BF040000203C0A0020014B18689E
:10168000704700BF3C0A002030B4174BDB68C3F33F
:101690000223C3F10704042C28BF04241D1D062DBA
:1016A00018D9033B4FF0FF3505FA04F421EA040191
:1016B000994005FA03F322EA0303194300280BDBE0
:1016C0000901C9B200F1604000F5614080F80013E3
:1016D00030BC70470023E5E700F00F000901C9B2F4
:1016E000024B1954F4E700BF00ED00E014ED00E0F8
:1016F000002807DB00F01F02400901239340024A43
:1017000042F82030704700BF00E100E00138B0F13E
:10171000807F0AD2064B5860064AF02182F82310D7
:101720000020986007221A6070470120704700BFB0
:1017300010E000E000ED00E0F0B583B000233FE0F2
:10174000C66A26EA0406C5F3C0049C403443C4625A
:101750005FE0062400E00024B4403C430235644EC0
:1017600046F82540634C2568D44304EA05064F68D3
:1017700017F4803F01D042EA05065E4D2E606D6889
:1017800004EA05064F6817F4003F01D042EA050657
:10179000584D6E60AD6804EA05064F6817F4801F67
:1017A00001D042EA0506534DAE60ED682C404E680C
:1017B00016F4001F01D042EA05044E4AD4600133FA
:1017C0000A6832FA03F400F0918001249C40224020
:1017D000F5D04D686E1E012E03D9112D01D0122DAA
:1017E00012D186685F000325BD4026EA0506CD6854
:1017F000BD4035438560466826EA04064D68C5F35A
:1018000000159D40354345604D6805F00306032EE5
:1018100096D0C5685F000324BC40E44325408E6831
:10182000BE402E43C6604D68022D01D0122D13D14B
:10183000DE08083650F826E003F007054FEA850C6D
:101840000F2505FA0CF52EEA050E0D6905FA0CF5C3
:1018500045EA0E0540F8265005682C404D6805F015
:101860000305BD402C4304604C6814F0805FA6D093
:10187000214C256E45F001052566246E04F0010417
:101880000194019C9D08AE1C194C54F8267003F07D
:101890000304A6000F24B44027EA0407B0F1904FD8
:1018A0003FF459AF154CA04216D004F58064A04215
:1018B00014D004F58064A04212D004F58064A042E4
:1018C00010D004F58064A0420ED004F58064A042DC
:1018D0003FF43FAF07243FE701243DE702243BE705
:1018E000032439E7042437E7052435E703B0F0BDC6
:1018F00000000140000401400010024000040048C4
:10190000024B186800F4C060704700BF00700040D0
:10191000B0F5007F0FD01F4B1B6803F4C063B3F515
:10192000806F34D01B4A136823F4C06343F4806390
:10193000136000207047174B1B6803F4C063B3F5B6
:10194000007F22D0134A136823F4C06343F400736A
:101950001360114B1A68322303FB02F30F4AA2FBF8
:1019600003239B0C013300E0013B0A4A526912F445
:10197000806F01D0002BF7D1064B5B6913F4806FA9
:1019800001D10020704703207047002070470020DD
:10199000704700BF007000400000002083DE1B4342
:1019A00030B583B00546204B9B6D13F0805F0BD0A4
:1019B000FFF7A6FFB0F5007F17D0802D1FD82DD0E0
:1019C000702D2DD000211BE0174CA36D43F08053E8
:1019D000A365A36D03F080530193019BFFF790FF74
:1019E000A36D23F08053A365E4E7802D03D9A02DD8
:1019F00003D9022104E0002102E0012100E00321DB
:101A00000A4A136823F007030B431360136803F0BB
:101A100007038B4206D0012003B030BD0221EFE75F
:101A20000121EDE70020F7E700100240002002400E
:101A3000284A9368D26802F0030213F00C030AD01C
:101A40000C2B06D0042B1FD0082B20D000200246E0
:101A500010E0012AF6D11F4A126812F0080F0CD1CB
:101A60001C4AD2F89420C2F303221B4951F82220C9
:101A700043B100200C2B0DD07047164A1268C2F3F8
:101A80000312F2E71046F5E714480022F2E7144883
:101A90000022EFE70F4BDB6803F00303022B15D0A6
:101AA000032B15D00B4BD868C0F302100130D96856
:101AB000C1F3062102FB01F2B2FBF0F2D868C0F3D9
:101AC000416001304000B2FBF0F0D5E7034AE9E79E
:101AD000034AE7E700100240385B00080024F400E6
:101AE00000127A00002800F00083F0B583B00446AD
:101AF000AF4B9D6805F00C05DE6806F00306036831
:101B000013F0100F5BD0E5B10C2D18D0A369002B9A
:101B100000F0BC80A64A136843F001031360FFF78E
:101B2000ADFD0746A24B1B6813F0020F40F09B80EF
:101B3000FFF7A4FDC01B0228F4D90323E1E2012E24
:101B4000E4D19B4B1B6813F0020F03D0A369002B59
:101B500000F0CE82206A964B1B6813F0080F5CD011
:101B6000934B1B6803F0F00398425DD8904B1A68C2
:101B700042F008021A601A6822F0F002216A0A4351
:101B80001A605A6822F47F42E16942EA01225A60EF
:101B9000002D61D0FFF74CFF854B9B68C3F3031307
:101BA000844AD35C03F01F03D840834B1860834BF7
:101BB0001868FFF731FD0346002840F0A282236831
:101BC00013F0010F00F08180082D75D00C2D71D01D
:101BD0006368B3F5803F00F09780B3F5A02F00F065
:101BE0009980734B1A6822F480321A601A6822F4C2
:101BF00080221A606368002B00F09980FFF73EFD99
:101C000007466B4B1B6813F4003F5ED1FFF736FDB0
:101C1000C01B6428F5D9032373E2654BD3F89430D5
:101C20001B0903F0F0039FE7FFF7BAFE002840F01E
:101C300061825F4B1A6842F008021A601A6822F04B
:101C4000F002216A0A431A605A6822F47F42E1696D
:101C500042EA01225A609DE7206AFFF7A1FE0028B0
:101C600098D001234DE2524B1A6842F008021A60E4
:101C70001A6822F0F002216A0A431A605A6822F4B4
:101C80007F42E16942EA01225A6098E7484A1368B4
:101C900023F001031360FFF7F1FC0746444B1B6878
:101CA00013F0020F8BD0FFF7E9FCC01B0228F5D917
:101CB000032326E2032E8BD13D4B1B6813F4003F18
:101CC00003D06368002B00F01782236813F0020F23
:101CD0004FD0042D3CD00C2D38D0E368002B78D0A9
:101CE000334A136843F480731360FFF7C7FC06465A
:101CF0002F4B1B6813F4806F62D1FFF7BFFC801B72
:101D00000228F5D90323FCE1294A136843F4803300
:101D100013606FE703F18043A3F53C331A6842F484
:101D200080221A601A6842F480321A6062E7FFF774
:101D3000A5FC07461E4B1B6813F4003FC5D0FFF7F8
:101D40009DFCC01B6428F5D90323DAE1022EC4D11F
:101D5000174B1B6813F4806F03D0E368002B00F06F
:101D6000CD81134A536823F0F853216943EA016394
:101D70005360236813F0080F56D06369002B3CD0E2
:101D80000B4AD2F8943043F00103C2F89430FFF7C5
:101D900075FC0646064BD3F8943013F0020F43D17E
:101DA000FFF76CFC801B0228F4D90323A9E100BFD4
:101DB00000100240685B00080000002008000020BE
:101DC000B84A536823F0F853216943EA016353602A
:101DD000CFE7B44A136823F480731360FFF74EFC17
:101DE0000646B04B1B6813F4806FC2D0FFF746FC69
:101DF000801B0228F5D9032383E1AA4AD2F8943044
:101E000023F00103C2F89430FFF738FC0646A54BD7
:101E1000D3F8943013F0020F06D0FFF72FFC801B8D
:101E20000228F4D903236CE1236813F0040F7AD05D
:101E30009C4B9B6D13F0805F0BD19A4B9A6D42F0D7
:101E400080529A659B6D03F080530193019B01269C
:101E500000E00026944B1B6813F4807F26D0A36813
:101E6000012B37D0052B3DD08E4BD3F8902022F09C
:101E70000102C3F89020D3F8902022F00402C3F8A6
:101E80009020A368002B3BD0FFF7F8FB0746854B5B
:101E9000D3F8903013F0020F44D1FFF7EFFBC01BD3
:101EA00041F288339842F2D903232AE17E4A13682B
:101EB00043F480731360FFF7E1FB07467A4B1B681E
:101EC00013F4807FCBD1FFF7D9FBC01B0228F5D9D3
:101ED000032316E1734AD2F8903043F00103C2F8AD
:101EE0009030CEE76F4BD3F8902042F00402C3F855
:101EF0009020D3F8902042F00102C3F89020C0E770
:101F0000FFF7BCFB0746674BD3F8903013F0020F86
:101F100008D0FFF7B3FBC01B41F288339842F2D9D7
:101F20000323EEE06EBBA36A002B00F0E980022BD6
:101F30002DD00C2D00F0EE805A4B1A6822F08072E2
:101F40001A601B6813F0205F04D1564AD36823F04F
:101F50000303D360534AD36823F0887323F4803398
:101F6000D360FFF78BFB04464E4B1B6813F0007FDA
:101F700000F0B980FFF782FB001B0228F4D903238D
:101F8000BFE0484A936D23F080539365CBE7454B00
:101F9000DB6803F00301E26A91420FD00C2D00F0E0
:101FA000B380404B1B6813F0806F40F0AF803D4B17
:101FB0001B6813F0805F2DD00123A2E003F07002B4
:101FC000216B0139B2EB011FE8D103F4FE42616BD2
:101FD000B2EB012FE2D103F40031A26B073A18BF34
:101FE00001229142DAD103F4C001E26B5208013AB6
:101FF000B1EB425FD2D103F0C063226C5208013AC8
:10200000B3EB426FCAD1274B1B6813F0007F51D04E
:10201000002376E0234A136823F080731360FFF7F0
:102020002DFB05461F4B1B6813F0007F06D0FFF702
:1020300025FB401B0228F5D9032362E0194AD36827
:102040001A491940E36A206B013843EA0013606BB8
:1020500043EA0023E06B4008013843EA4053206C18
:102060004008013843EA4063A06B000943EA40435B
:102070000B43D360136843F080731360D36843F05D
:102080008073D360FFF7FAFA0446064B1B6813F01F
:10209000007F0DD1FFF7F2FA001B0228F5D90323C8
:1020A0002FE000BF00100240007000408C809DF9BE
:1020B000002326E0184B1A6842F080721A60DA6832
:1020C00042F08072DA60FFF7D9FA044604E0FFF7C5
:1020D000D5FA001B02281BD80F4B1B6813F0007F9A
:1020E000F5D000230DE000230BE0012318467047D4
:1020F000012306E0012304E0012302E0012300E0C4
:102100000023184603B0F0BD0123FAE70123F8E7E6
:102110000323F6E70123F4E700100240002800F053
:102120009B8070B504464E4B1B6803F007038B423F
:102130000CD24B4A136823F007030B431360136858
:1021400003F007038B4201D0012070BD0D462368C8
:1021500013F0010F39D06368032B09D0022B26D06E
:1021600063BB404A126812F0020F06D10120ECE76F
:102170003C4A126812F0007F70D03A498A6822F017
:10218000030213438B60FFF779FA0646354B9B68D1
:1021900003F00C036268B3EB820F16D0FFF76EFA00
:1021A000801B41F288339842F0D90320CDE72D4AB5
:1021B000126812F4003FE0D10120C6E7294A1268F4
:1021C00012F4806FD9D10120BFE7236813F0020F0A
:1021D00006D0244A936823F0F003A1680B43936070
:1021E0001F4B1B6803F00703AB420CD91C4A136852
:1021F00023F007032B431360136803F00703AB427C
:1022000001D00120A1E7236813F0040F06D0154A7E
:10221000936823F4E063E1680B439360236813F051
:10222000080F07D00F4A936823F46053216943EAEB
:10223000C1039360FFF7FCFB0A4B9B68C3F30313D6
:10224000094AD35C03F01F03D840084B1860084BC1
:102250001868FFF7E1F978E701207047012074E77B
:102260000020024000100240685B000800000020CF
:1022700008000020014B1868704700BF00000020D4
:1022800008B5FFF7F7FF054B9B68C3F30223044A29
:10229000D35C03F01F03D84008BD00BF001002400C
:1022A000785B000808B5FFF7E5FF054B9B68C3F3B3
:1022B000C223044AD35C03F01F03D84008BD00BF0B
:1022C00000100240785B0008F8B55A4BDB6813F049
:1022D000030F18D0574BDB6803F0030302689342E7
:1022E00002D001252846F8BD002A00F0A080514BFD
:1022F000DB68C3F3021301334268934201D0012526
:10230000F0E700251AE00368022B59D0032B5ED0BA
:10231000012B01D001250FE0464A126812F0020F8E
:1023200061D0444DEA6822F073024468013C43EAFC
:1023300004131343EB600025002DD3D10F46044650
:102340003C4A136823F080631360FFF797F9064651
:10235000384B1B6813F0006F05D0FFF78FF9801B17
:102360000228F5D90325002DBCD1002F3DD13149DC
:102370000B6923F41F3323F44073A068E268120949
:10238000520442EA002213430B612A4A136843F0C5
:1023900080631360FFF772F90646264B1B6813F043
:1023A000006F05D1FFF76AF9801B0228F5D90325D4
:1023B000002D97D11F4A1369A1690B43136191E75F
:1023C0001C4A126812F4806FABD10125B4E7194A98
:1023D000126812F4003FA4D1164A126812F4802F3A
:1023E0009FD10125A8E70125A6E7012F0FD01148AD
:1023F000026922F0C06222F4FE42A16863695B08B0
:10240000013B5B0643EA012313430361BDE709482F
:10241000026922F4C00222F4FE42A16823695B082B
:10242000013B5B0543EA012313430361ADE701254B
:1024300058E700BF00100240F8B5514BDB6813F0BD
:10244000030F18D04E4BDB6803F00303026893427E
:1024500002D001252846F8BD002A00F08E80484BA6
:10246000DB68C3F3021301334268934201D00125B4
:10247000F0E700251AE00368022B59D0032B5ED049
:10248000012B01D001250FE03D4A126812F0020F26
:1024900061D03B4DEA6822F073024468013C43EA94
:1024A00004131343EB600025002DD3D10F460446DF
:1024B000334A136823F080531360FFF7DFF80646B2
:1024C0002F4B1B6813F0005F05D0FFF7D7F8801B78
:1024D0000228F5D90325002DBCD1002F3DD1284974
:1024E0004B6923F41F3323F44073A068E268120998
:1024F000520442EA002213434B61214A136843F01D
:1025000080531360FFF7BAF806461D4B1B6813F0A3
:10251000005F05D1FFF7B2F8801B0228F5D903252B
:10252000002D97D1164A536961690B43536191E7B6
:10253000134A126812F4806FABD10125B4E7104A38
:10254000126812F4003FA4D10D4A126812F4802FD1
:102550009FD10125A8E70125A6E70948426922F095
:10256000C06222F4FE42A16823695B08013B5B065E
:1025700043EA012313434361BFE701256AE700BF34
:10258000001002402DE9F04182B00446036813F4C4
:10259000006F2FD0436EB3F5800F25D008D9B3F567
:1025A000000F10D0B3F5400F40F09980002610E0E6
:1025B000002B40F0948000210430FFF785FE064692
:1025C0003EB1374618E05E4AD36843F48033D360A7
:1025D00000265B4AD2F8883023F44003616E0B4337
:1025E000C2F88830002707E000212030FFF724FFE1
:1025F0000646E5E700273E46236813F4805F15D0C2
:10260000A36EB3F1807F7AD06CD9B3F1007F70D024
:10261000B3F1407F7AD1002E7BD1494AD2F888307D
:1026200023F04073A16E0B43C2F88830236813F483
:10263000003F00F08E80424B9B6D13F0805F6AD1AB
:102640003F4B9A6D42F080529A659B6D03F0805328
:102650000193019B4FF001083A4A136843F48073D9
:102660001360FFF70BF80546364B1B6813F4807FA9
:1026700005D1FFF703F8401B0228F5D90326002EE9
:1026800062D12F4BD3F8903013F4407316D0D4F8A6
:1026900084209A4212D02A4AD2F8903023F4407310
:1026A000D2F8901041F48031C2F89010D2F8901016
:1026B00021F48031C2F89010C2F8903013F0010F6D
:1026C0002CD1002E40F043811D4AD2F8903023F4E3
:1026D0004073D4F884100B43C2F8903035E00127E2
:1026E0003E4689E793B90021201DFFF7EDFD064620
:1026F00091E7134AD36843F48033D3608BE700211A
:1027000004F12000FFF798FE064684E701273E46C5
:102710008CE737468AE74FF000089DE7FEF7AEFFEB
:102720000546074BD3F8903013F0020FC9D1FEF7DE
:10273000A5FF401B41F288339842F2D90326C0E737
:1027400000100240007000403746B8F1000F40F022
:102750000081236813F0010F08D09D4AD2F8883019
:1027600023F00303A16B0B43C2F88830236813F0F6
:10277000020F08D0964AD2F8883023F00C03E16BA0
:102780000B43C2F88830236813F0040F08D0904A36
:10279000D2F8883023F03003216C0B43C2F8883024
:1027A000236813F0080F08D0894AD2F8883023F044
:1027B000C003616C0B43C2F88830236813F0100F1C
:1027C00008D0834AD2F8883023F44073A16C0B43BD
:1027D000C2F88830236813F0200F08D07C4AD2F862
:1027E000883023F44063E16C0B43C2F888302368DF
:1027F00013F4007F08D0764AD2F8883023F44023BF
:10280000E16D0B43C2F88830236813F4806F08D061
:102810006F4AD2F8883023F44013216E0B43C2F87C
:102820008830236813F0400F08D0694AD2F8883006
:1028300023F44053216D0B43C2F88830236813F012
:10284000800F08D0624AD2F8883023F44043616D8B
:102850000B43C2F88830236813F4807F08D05C4AA9
:10286000D2F8883023F44033A16D0B43C2F888308E
:10287000236813F4005F0FD0554AD2F8883023F054
:102880004063E16E0B43C2F88830E36EB3F1006F32
:1028900065D0B3F1806F67D0236813F4002F0FD099
:1028A0004B4AD2F8883023F04063216F0B43C2F8C3
:1028B0008830236FB3F1006F5ED0B3F1806F60D0CA
:1028C000236813F4802F0FD0414AD2F8883023F0C8
:1028D0004063616F0B43C2F88830636FB3F1006FE0
:1028E00057D0B3F1806F59D0236813F4804F0FD0C5
:1028F000374AD2F8883023F04053A16F0B43C2F817
:102900008830A36FB3F1805F50D0B3F1005F55D032
:10291000236813F4004F08D02D4AD2F8883023F0F2
:102920008043E16F0B43C2F88830236813F4803F83
:1029300009D0274AD2F8883023F00043D4F8801019
:102940000B43C2F88830384602B0BDE8F081374604
:10295000FBE61F4A936D23F080539365F9E6D36835
:1029600043F48013D36097E70121201DFFF7ACFCEF
:10297000002891D007468FE7D36843F48013D360D3
:102980009EE70121201DFFF79FFC002898D00746F5
:1029900096E7D36843F48013D360A5E70121201D97
:1029A000FFF792FC00289FD007469DE70221201DDB
:1029B000FFF78AFC0028ABD00746A9E7022104F103
:1029C0002000FFF739FD0028A2D00746A0E700BF8E
:1029D000001002402DE9D848044601688368026966
:1029E000134342691343C269134308689B4A024078
:1029F00013430B602268536823F44053E1680B4390
:102A00005360A1692268964B9A4201D0236A194308
:102A1000936823F430630B4393602368914A934295
:102A200027D0914A934238D0904A93424ED0904A50
:102A3000934261D08F4A934274D0894A934200F006
:102A40008A80102286498B4200F0AA80E369B3F5A0
:102A5000004F00F0D880082A00F24581DFE812F02C
:102A600015012C01130143012F01430143014301CF
:102A7000320102F55842D2F8882002F00302032AFC
:102A800009D8DFE802F0020481060122DAE7042215
:102A9000D8E70822D6E71022D4E702F5E632D2F8CA
:102AA000882002F00C020C2A0ED8DFE802F0070D95
:102AB0000D0D090D0D0D6F0D0D0D0B000022C1E761
:102AC0000422BFE70822BDE71022BBE702F5E4328B
:102AD000D2F8882002F03002102A09D005D9202A25
:102AE00056D0302A06D10822ACE71AB90022A9E74D
:102AF0000422A7E71022A5E702F5E232D2F88820E7
:102B000002F0C002402A09D005D9802A42D0C02A4A
:102B100006D1082296E71AB9002293E7042291E72A
:102B200010228FE702F5E032D2F8882002F44072DA
:102B3000B2F5807F0BD007D9B2F5007F2CD0B2F56B
:102B4000407F06D108227DE71AB900227AE70422E5
:102B500078E7102276E702F5C832D2F8882002F42E
:102B60004062B2F5806F0BD007D9B2F5006F15D077
:102B7000B2F5406F06D1082264E71AB9002261E776
:102B800004225FE710225DE702225BE7022259E799
:102B9000022257E7022255E7022253E7022251E7B9
:102BA000082A00F29280DFE802F0089010900D9061
:102BB000909005004FF4004008E0FFF761FB28B952
:102BC000002074E0FEF734FFF9E72B48626802EB5F
:102BD000420383427BD8B0EB023F7AD80023070E32
:102BE0000602500816EB000B47F1000C58466146F0
:102BF000FDF7F2FFA0F54072204B9A426BD8236894
:102C0000D860002053E0082A67D8DFE802F00721E7
:102C10000566246666663900174803E0FFF730FB57
:102C200000285CD06268530803EB4003B3FBF2F367
:102C30009BB2A3F110014FF6EF72914251D823F0ED
:102C40000F02C3F3420313432268D36000202EE037
:102C5000FFF728FBE4E7FEF7EBFEE1E7F369FFEFA0
:102C6000008000400038014000440040004800401F
:102C7000004C0040005000400024F400FFFC0F0016
:102C80004FF40040CEE71B4802E0FFF7F9FA60B3CB
:102C9000636800EB5300B0FBF3F080B2A0F11002C8
:102CA0004FF6EF739A4222D82368D86000200023A1
:102CB00023666366BDE8D888FFF7F4FAE7E7FEF716
:102CC000B7FEE4E74FF40040E2E70120EFE7012020
:102CD000EDE70120EBE70120E9E70120E7E700202D
:102CE000E5E70120E3E70120E1E70020DFE701203D
:102CF000DDE700BF0024F400436A13F0010F06D0A3
:102D00000268536823F40033816A0B435360436ABB
:102D100013F0020F06D00268536823F48033C16AAF
:102D20000B435360436A13F0040F06D002685368E4
:102D300023F48023016B0B435360436A13F0080FA5
:102D400006D00268536823F40043416B0B43536081
:102D5000436A13F0100F06D00268936823F480537F
:102D6000816B0B439360436A13F0200F06D0026817
:102D7000936823F40053C16B0B439360436A13F0D1
:102D8000400F0AD00268536823F48013016C0B4390
:102D90005360036CB3F5801F0BD0436A13F0800FB0
:102DA00006D00268536823F40023816C0B43536000
:102DB00070470268536823F4C003416C0B435360AF
:102DC000EBE72DE9F04104460F4616469846069D6E
:102DD0002368DB6937EA03030CBF01230023B342F6
:102DE0003AD1B5F1FF3FF3D0FEF748FCA0EB080065
:102DF000A8421FD8F5B123681A6812F0040FE7D073
:102E0000DA6912F4006FE3D04FF400621A622268AC
:102E1000136823F4D07313602268936823F00103CE
:102E2000936020236367A367E367002384F870300F
:102E3000032012E02268136823F4D0731360226821
:102E4000936823F00103936020236367A367002343
:102E500084F87030032000E00020BDE8F08130B538
:102E600083B004460023C367FEF708FC05462368C9
:102E70001B6813F0080F0CD123681B6813F0040FB4
:102E800015D120236367A367002084F8700003B086
:102E900030BD6FF07E430093034600224FF40011D3
:102EA0002046FFF78EFF0028E6D00320EFE76FF003
:102EB0007E4300932B4600224FF480012046FFF70B
:102EC00080FF0028DDD00320E1E768B310B5044699
:102ED000436F03B3242363672268136823F001035D
:102EE00013602046FFF776FD012813D0636ABBB953
:102EF0002268536823F4904353602268936823F058
:102F00002A0393602268136843F00103136020468C
:102F1000FFF7A5FF10BD80F87030FEF737FBD9E74B
:102F20002046FFF7E9FEE3E701207047DFF834D0E1
:102F3000FEF7BAFA002103E00B4B5B584350043113
:102F40000A480B4B42189A42F6D30A4A02E0002381
:102F500042F8043B084B9A42F9D300F0A5F9FEF77A
:102F600061FAFEE700800120585E000800000020A2
:102F7000E0010020E0010020440A0020FEE70000FC
:102F80002DE9F0432DED028B8BB057EC106B55EC17
:102F9000114B00F05DF82C4BB0EE408AF0EE608AE9
:102FA00093F90080B8F1FF3F35D022462B462046EA
:102FB0002946FDF763FD70BB32463B463046394635
:102FC000FDF75CFD814630BB0022002320462946E8
:102FD000FDF722FDF8B11D4BCDF820900122CDE97F
:102FE0000267CDE90445CDE90023B8F1000F1BD0FD
:102FF0000022002310461946FDF7D0FBB8F1020F5E
:10300000CDE9060112D100F049F921230360089BA4
:10301000A3B99DED068BB0EE480AF0EE680A0BB03E
:10302000BDEC028BBDE8F083CDE90667684600F091
:1030300033F90028E7D0089B002BEAD000F02EF9E6
:10304000089B0360E5E700BF0C000020805B0008E0
:1030500053EC112B2DE9F04723F0004E5EEA0206F7
:1030600051EC100B24D0854E21F00048B045894624
:103070001EDC56421643824F4EEAD676BE4211EE11
:10308000104A15D8F0451D4611EE10CA10EE10AAD0
:1030900010EE107A01F0004617DC13DB904211D3DA
:1030A00013D1784BF60F03EBC60393ED000B07E04B
:1030B000FDF74AFA02460B46FDF770FB41EC100B98
:1030C000BDE8F08741EC100BFAE7B8F5801F3BDB59
:1030D0004FEA2852A2F2FF32BEF5801F80F29080A4
:1030E000BEF1000F40F0A080002C2346664904DDAD
:1030F0005B00002B01F1FF31FADC644B9A4271DB7B
:10310000C9F3130343F48013604881425CDBC5F3C9
:10311000130444F48014501A07E052EA050321D046
:10312000EB0F03EB42036F0001381A1BA7EB0C05F2
:10313000F8B1674538BF02F1FF32002AEDDAFA0F25
:1031400002EB43037F00EFE7B8F1000F5DD1BAF166
:10315000000F53464C4ABFDD5B00002B02F1FF32EB
:10316000FADCB9E7474BF60F03EBC60696ED000B0A
:10317000A6E7674538BF02F1FF32002ABCBF3D46D3
:103180001A4652EA0503EDD04148824208DCEB0FB3
:1031900003EB4202824201F1FF314FEA4505F6DDC1
:1031A0003A4B99424FDA5B1A142B57DC01F21E415D
:1031B000DD4002FA01F142FA03F329431E4333468C
:1031C0000A4643EC102B7BE7401A1F2826DC01F24D
:1031D0001E450EFA00FE24FA05F504FA00FC45EA45
:1031E0000E0498E79F1A1F2F27DC02F21E4308FAED
:1031F00007F82AFA03F30AFA07F743EA080383E712
:103200004FEA2E51A1F2FF3177E7204A4FEAC82357
:103210005B00002B02F1FF32FADC5DE71D4D6D1AF9
:10322000AC404FF0000C76E718494FEACE235B0024
:10323000002B01F1FF31FADC5FE7164B9B1A0AFA0B
:1032400003F3002760E7A2F58012164301F2FF3175
:1032500046EA01532A4643EC102B31E71F2B07DCCB
:1032600001F21E4102FA01F125FA03F21143A6E729
:10327000084B591A42FA01F1A1E700BFFFFFEF7FA7
:103280000000F07F885B0008EDFBFFFF02FCFFFF02
:10329000FFFF0F00E2FBFFFF00207047014B1868A3
:1032A000704700BF1000002070B50D4E0D4CA41BE0
:1032B000A4100025A54209D10B4E0C4C02F02EFCA7
:1032C000A41BA4100025A54205D170BD56F82530D9
:1032D00098470135EEE756F8253098470135F2E773
:1032E000485E0008485E0008485E00084C5E000822
:1032F00010B5431E0A44914200D110BD11F8014B94
:1033000003F8014FF7E7884210B501EB020307D835
:10331000421E99420AD011F8014B02F8014FF8E71A
:103320008342F5D98118D21AD34200D110BD13F8C7
:10333000014D01F8014DF7E702440346934200D1E5
:10334000704703F8011BF9E72DE9F04F9A468B68A7
:1033500016465A1EB2F5AE7F87B083BF6FF4AE72C9
:103360009B180193002386BF40F25D138B6001938D
:103370000B6888464FF0000B43F4F06348F81C3BA1
:10338000CDE903BB07460C4645465A46D946CDF81B
:1033900008B0A16881B133681B78492B71D04DD832
:1033A000392B40D8312B80F088802D2B00F0908075
:1033B00015D82B2B00F08C80B9F1000F03D02368B7
:1033C00023F480732360013A012A00F2EA80454524
:1033D00000F2DC800126304607B0BDE8F08F2E2BCE
:1033E00000F09F80302BE7D1206810F4807F64D0FC
:1033F000019B20F08000206009F101091BB1013B15
:1034000001310193A160A368013BA36023690133EB
:1034100023617368013B002B736040F3AC80336819
:1034200001333360B5E7452B00F08580462B6AD029
:10343000412BC1D1012ABFD1022246E0652B7AD0AF
:1034400018D8542B66D011D84E2BB5D1002A46D1AE
:10345000B9F1000F45D1216801F4E060B0F5E06FEB
:103460003FD121F4F061216001222EE0592B1ED0C2
:10347000612BDEE76E2BE9D015D8662B43D0692B84
:103480009AD1BBF1000F38D1B9F1000F97D1216863
:1034900001F4E060B0F5E06F95D121F4F0612160B6
:1034A0004FF0010B11E0742B34D0792B84D1BBF198
:1034B000070F81D14FF0080B07E012EB0B0F7FF4E1
:1034C0007BAF216821F4C07121602B7001359AE730
:1034D000216808067FF570AF21F08001F4E7022A29
:1034E00047D0BBF1010F03D0BBF1040F7FF464AFF1
:1034F0000BF1010B5FFA8BFBE7E7BBF1030FF7D092
:10350000BBF1050FF2E7BBF1020F7FF455AF4FF0AF
:10351000030BDAE7BBF1060F7FF44EAF4FF0070B5A
:10352000D3E7216888057FF547AF21F4207121603A
:10353000CDF80890C9E7216801F4A060B0F5806F6C
:1035400006D048057FF538AFB9F1000F3FF43BAF27
:10355000880558BF029821F4F06158BFA9EB00001C
:1035600041F4C07158BFCDE9030521604FF0000957
:10357000ABE70322A9E7D4F88031059231463846FB
:103580009847059A00283FF404AF15E7D4F87C313A
:1035900015F8011D3246384698472369013B2361DF
:1035A00015E70BF1FF33062B0AD8BBF1020F68D9E0
:1035B000ABF1030B5FFA8BFBA5EB0B0B5D454BD11E
:1035C0002368DA051FD55B0568D415F8011C23694B
:1035D000652903F1FF3305F1FF3B23610DD0452938
:1035E0000BD0D4F87C31324638469847236915F819
:1035F000021C013BA5F1020B2361D4F87C31324659
:10360000384698475D46266816F010067AD12E7027
:10361000236803F4C063B3F5806F42D1029BA9EB2A
:1036200003035A42002B49D100224146384600F09C
:10363000A3FE2568DAF8003015F0020F03F104024A
:1036400059EC108BCAF8002043D01B68C3E90089ED
:10365000E3680133E360BEE6D4F87C3115F8011D60
:103660003246384698472369013B2361A6E7D4F8E0
:103670007C3115F8011D3246384698472369013BD5
:1036800023614545F3D8A5E6D4F87C3115F8011D32
:103690003246384698472369013B23614545F3D8B4
:1036A00098E6039B002BBFD004990A2332460131D0
:1036B000384600F0EDFE039B049DC21A04F26F131E
:1036C0009D4228BF04F5B7750F49284600F024F83D
:1036D000AAE715F00405B8D11F6810EE102A4B4672
:1036E00010EE100A4946FDF7C9F928B1284600F046
:1036F0000DF887ED000AABE740464946FDF71CFA96
:103700003860A5E7002666E6985B00089FED010A91
:10371000704700BF0000C07F0EB400B59CB01DAB69
:10372000029006906FF00041094807910491094901
:1037300053F8042B05910068019302A901F0B8FE2B
:10374000029B00221A701CB05DF804EB03B07047B6
:10375000100000200802FFFF70B504460D4645EC3E
:10376000104B164601F0AEFC51EC100B7EB1C5F3C8
:103770000A53C3F16B03002B09DD1B0503F17F55D1
:10378000002405F5401522462B46FCF7DDFE70BDF2
:103790002DE9F04F1F46A1B00023814638460E4662
:1037A00017921C9301F0AFF980460068FDF794FB77
:1037B0004FF0000A04464FF0000B1B961B9B1A7833
:1037C0000D2A32D8092A36D2002A3ED000230D9382
:1037D0001B9D2B78302B40F0AC806B78582B01D0A0
:1037E000782B67D10D9B01931CAB009302971DAB07
:1037F000884A1BA9484600F0ACFE10F007040646B4
:1038000005D0062C2BD1013500231B950D93179B5A
:10381000002B40F09A850D9BE3B152460BF100431B
:1038200043EC102B21B0BDE8F08F2B2A15D02D2AA8
:1038300004D0202ACAD101331B93BFE701220D9285
:103840005A1C1B925B78002BC2D1179B1B96002B36
:1038500040F0798552465B46E2E70022EFE71C9A8A
:103860003AB135211EA801F025FD1C99484601F00A
:1038700092F9013C042C06D8DFE804F00A0314177F
:103880000A00DDE91EAB3007C1D54BF0004BBEE7A7
:10389000DDE91EA31D9A23F4801302F2334243EAAA
:1038A000025BF0E7DFF870B1EDE76FF0004B4FF02F
:1038B000FF3AE8E71B9B5A1C1B925B78302BF9D030
:1038C000002BA4D00123002506931B9B089307958A
:1038D00005950A221B980778A7F13003D9B2092968
:1038E00029D92246D8F8001002F072F8002831D009
:1038F0000020059C04903B460246652B01D0452BD9
:1039000014D124B910B9069B002B9ED000241B9E15
:10391000731C1B9373782B2B78D02D2B70D04FF00A
:10392000000CA3F13007092F7CD91B964FF0000E35
:103930009AE00023C7E705990829DDBF079902FB34
:103940000133079302FB0535059B013001330593D5
:103950001B90BFE71B9B1A191B92059A1B5D002A3F
:1039600037D0059C0246A3F13001092913D9012162
:103970000491C2E71B9B5A1C1B925B780130302BD1
:10398000F8D0A3F13102082A00F2E4841B9A0892CD
:10399000024600200446B3F1300E00F1010112D0BE
:1039A0000A4400EB040C21460A278C4513D1211848
:1039B000082904F10104044419DC079B0A2101FBD6
:1039C00003E3079300211B9B581C1B905B78084660
:1039D000C9E70598D3E7082901F1010103DC079B3A
:1039E0007B430793E1E71029D8BF7D43DDE7102C27
:1039F000DCBF0A2101FB05E5E4E70123049381E72D
:103A00004FF0010CB31C1B93B3788AE74FF0000C06
:103A1000F8E700BFAC5B00080000F07F1B9B5F1C59
:103A20001B975B78302BF9D0A3F13107082F3FF6B5
:103A30007DAFA3F1300E1B9B0A931B9B5F1C1B9752
:103A40005B78A3F13008B8F1090F37D90A997F1ACA
:103A5000082F44F61F6737DCBE45A8BFBE46BCF141
:103A6000000F01D0CEF1000E002C51D100287FF4C0
:103A7000CEAE069A002A7FF4CAAE049A002A7FF4DA
:103A8000E4AE4E2B27D021DC492B7FF4DEAEA049DB
:103A90001BA800F091FF00283FF4D7AE1B9B9D4967
:103AA000013B1BA81B9300F087FF10B91B9B013340
:103AB0001B93DFF874B24FF0000AA8E60A2101FB5D
:103AC0000E3EAEF1300EB8E7BE46C8E7692BDED039
:103AD0006E2B7FF4BAAE90491BA800F06DFF002852
:103AE0003FF4B3AE1B9B1B78282B0ED11EAA8B492B
:103AF0001BA800F075FF052807D11F9BDDF878A0F3
:103B000043F0FF4B4BF4E00B81E6DFF824B2D2E741
:103B1000AEEB02030693059B0798002B08BF2346D4
:103B2000102C0593A046A8BF4FF01008FCF792FC9C
:103B3000092C82468B4613DC069B002B3FF467AEB4
:103B4000069B7ADD162B61DC754A02EBC30EDEE9BB
:103B5000000152465B46FCF7F7FC82468B4656E670
:103B60006F4B03EBC80353E91223FCF7EDFC064649
:103B700028460F46FCF76EFC02460B463046394697
:103B8000FCF72CFB0F2C82468B46D5DD069BA4EB65
:103B900008089844B8F1000F40F3968018F00F031E
:103BA0000AD05F4901EBC30152465B46D1E90001EF
:103BB000FCF7CAFC82468B4638F00F0873D0B8F584
:103BC0009A7F47DD0024A046079405942223DFF85E
:103BD00058B1C9F800304FF0000A079B002B3FF4A2
:103BE00016AE1C99484600F0D6FF0599484600F0ED
:103BF000D2FF4146484600F0CEFF0799484600F004
:103C0000CAFF2146484600F0C6FF00E6069AC4F106
:103C100025039342BADB424DC4F10F0405EBC40106
:103C200052465B46D1E90001FCF78EFC069B1C1B4B
:103C300005EBC405D5E900238DE713F1160FA5DBCD
:103C4000374AA2EBC302D2E9002350465946FCF79B
:103C5000A5FD82E70023334E4FEA28185046594607
:103C60001D46B8F1010F21DC0BB182468B462D4B6E
:103C7000ABF1547B03EBC50552465B46D5E9000129
:103C8000FCF762FC284B0A460B4028498B428246CF
:103C900098D8A1F580118B4286BFDFF898B04FF01D
:103CA000FF3A02F1547B0023049377E018F0010FF0
:103CB00006D006EBC503D3E90023FCF745FC01233E
:103CC00001354FEA6808CCE7EDD0C8F1000818F0DC
:103CD0000F020AD0124B03EBC20350465946D3E9F8
:103CE0000023FCF75BFD82468B465FEA2818DAD09A
:103CF000B8F11F0F20DD0024A0460794059422236D
:103D00004FF0000A4FF0000BC9F8003065E700BF24
:103D10009D5B0008A05B0008A65B0008C05B000874
:103D2000385C0008105C00080000F07F0000A07CF8
:103D30000000F8FFFFFFEF7F18F0100318BF6A23A1
:103D4000A04D0493504659460023B8F1000F00F3EC
:103D50000A810BB182468B46049BBBB1CBF30A535D
:103D6000C3F16B03002B594610DD1F2B40F3078175
:103D7000342BDEBF203B4FF0FF3202FA03F34FF04B
:103D8000000ACCBF4FF05C7B03EA010B002200234A
:103D900050465946FCF740FE0028ACD1079B0093E3
:103DA000059A08992346484600F047FF07900028E7
:103DB0003FF408AF069A069B002AC3F10003A8BF90
:103DC00000230E93002422EAE2731693A046079B79
:103DD0004846596800F0ABFE059000283FF4F6AE67
:103DE000079B1A69023203F10C0192000C30FFF7B5
:103DF0007FFA1EAA1DA94BEC10AB4846CDE908ABD3
:103E000001F0D6F91C9000283FF4E0AE01214846AD
:103E100000F09FFF804600283FF4D8AE1D9E1E9AFA
:103E2000002EABBF0E9B169B169D0E9FACBFF718C6
:103E30009D1B049BF61A1644634B013E9E42C2F141
:103E4000360280F2AF809B1B1F2BA2EB03024FF0C8
:103E5000010100F39B8001FA03F30F9300230A93FF
:103E6000BE18049BB74215441D443B46A8BF3346C9
:103E7000AB42A8BF2B46002BC2BFF61AED1AFF1AA1
:103E80000E9BBBB141461A46484601F001F88046F8
:103E900000283FF49BAE01461C9A484600F062FFA2
:103EA0000C9000283FF492AE1C99484600F073FE37
:103EB0000C9B1C93002E7ADC069B002B08DD169AC7
:103EC0000599484600F0E4FF059000283FF47EAED7
:103ED000002D08DD2A460599484601F027F805908F
:103EE00000283FF473AE002F08DD41463A464846AD
:103EF00001F01CF8804600283FF468AE059A1C9932
:103F0000484601F081F8044600283FF45FAEC368DC
:103F10000C930023C360414601F05CF8002855DA99
:103F20000C9BE3B9BAF1000F19D1CBF31303B3B96A
:103F30002BF000431B0D1B05B3F1D66F0FD963693E
:103F400013B92369012B0ADD21460122484600F0FE
:103F5000EDFF4146044601F03DF8002867DC049B74
:103F6000002B71D13DE618F0010F04D0D5E90023F4
:103F7000FCF7EAFA01234FEA68080835E5E64FF056
:103F8000FF3202FA03F303EA0A0AFFE6C6F17F46AC
:103F900006F57F0606F57B46E23601FA06F30A933C
:103FA0000F915DE700230A9301230F9358E73246F0
:103FB0001C99484600F0BAFF1C9000287FF47CAFA3
:103FC00004E600BFD85B000802FCFFFF5D4640F03E
:103FD00086800C9ACBF313032AB3AF4A934253D192
:103FE000049B5046D3B1AD4A2A40B2F1D46F4FF092
:103FF000FF3116D8120DC2F16B0301FA03F3984298
:1040000042D1A74B9D4202D101303FF4DFADA34B1B
:104010002B4003F5801B4FF0000AA0E74FF0FF3361
:10402000EDE70B46EBE77BBBBAF1000F2CD104990F
:104030009A4A5B46F1B102EA0B01B1F1D66F19DC85
:10404000B1F15C7F7FF75BAE964A0023CDE9143275
:1040500050465946DDE91423FCF776FA82468B4632
:1040600000297FF4BEAD00287FF4BBAD2223C9F840
:104070000030B6E51340A3F580136FEA135B6FEAD7
:104080000B5B4FF0FF3A6AE70A9B93B12B423FF478
:1040900066AF0C9B049A5046594673B1FFF75CFB20
:1040A00002460B46DDE90801FCF798F882468B468C
:1040B00055E70F9B13EA0A0FE9E7FFF74DFB0246AE
:1040C0000B46DDE90801FCF787F800220023824651
:1040D0008B46FCF7A1FC00287FF411AE3FE7414678
:1040E000204601F0B4F857EC106B00224FF08043EB
:1040F00010EE100A3946FCF7A3FC002877D00C9B81
:10410000002B4AD0684B0022CDE90A23664F0026D7
:10411000624B2B400F930F9A644B9A4240F0CE8033
:10412000DDE90823DDE90A01A5F1547B4BEC10AB76
:10413000CDE91423CDE90A0100F0C4FFDDE90A014D
:1041400053EC102BFCF700FA52465B46FCF746F89E
:104150000B465249564A1940914282465BD9099B07
:1041600002F15472934203D1089B01333FF42EAD08
:10417000DFF82CB14FF0FF3A1C99484600F00BFDD8
:104180000599484600F007FD4146484600F003FD0A
:104190002146484600F0FFFC19E6BAF1000F1AD19B
:1041A000CBF31303EBB900223F4B30463946FCF703
:1041B0003DFCC8B93046394600223E4BFCF7C4F9F5
:1041C00006460F4607F1004318961993DDE91823B8
:1041D000CDE90A239CE7BAF1010F02D1002D3FF48B
:1041E0008EAD0022344B8FE70026324FEAE7314B89
:1041F000304639460022FCF7A7F90C9B06460F46CD
:1042000033B901F1004310901193DDE91023DFE78A
:10421000CDE91067F9E703F1547B049B002BABD188
:104220002BF000431B0D0F9A1B059A425D46A3D14C
:1042300039463046FCF738FCFCF71CF90B460246C1
:1042400039463046FBF7C8FF0C9B06460F4633B98C
:10425000BAF1000F03D1CBF31305002D6DD00AA3E3
:10426000D3E9002330463946FCF7E0FB00287FF411
:10427000B8AC07A3D3E9002330463946FCF7F4FB7A
:1042800000283FF479AFACE49535A094FFFFDF3F01
:1042900035E5AF350000E03FFFFF0F000000F07F85
:1042A000FFFFEF7F000050390000F03F0000E07F8B
:1042B000FFFF9F7C0000E03F0000F0BF049B33B392
:1042C0000F9BB3F1D46F22D827A3D3E90023304644
:1042D0003946FCF7B5FBA0B139463046FCF70CFC7B
:1042E000002808BF0120FCF7B5F80C9B06460F46D6
:1042F00003BB01F1004312901393DDE91223CDE9D2
:104300000A230B9B0F9A03F1D6639B1A0B939DED27
:10431000080BDDE90AAB00F0D5FE504653EC102B3C
:104320005946FCF711F9DDE90823FBF757FF8246F0
:104330008B4672E7CDE91267DFE70DA3D3E90023CF
:10434000FCF774FB9CE700230D93179A1B9B1360EB
:10435000FFF761BA652B4FF000023FF44EAB01212D
:1043600014460491FFF7CBBA0000C0FFFFFFDF4106
:104370009535A094FFFFCF3F054B1B6810B41B6A17
:10438000044C002B08BF23465DF8044BFFF700BA2E
:1043900010000020740000202DE9F0478046894677
:1043A00092461E460F463D46089815F8014B00F010
:1043B000A7FB2044437813F0080332D12D2C32D1CF
:1043C0007C78BD1C0122002E5DD0102E09D1302C2E
:1043D00007D12B7803F0DF03582B4FD16C781026D0
:1043E0000235002A14BF4FF000416FF00041002752
:1043F000B1FBF6FC384606FB1C1EA4F13003092B6A
:1044000017D81C46A64223DD7B1C07D084451CD34D
:1044100001D1A64519DB00FB0640012715F8014B29
:10442000EBE72F46BFE72B2C04BFBD1C7C781A4658
:10443000C9E7A4F14103192B01D8373CE2E7A4F105
:104440006103192B04D8573CDCE74FF0FF37E5E751
:104450007B1C08D12223C8F800300846BAF1000FAF
:1044600007D1BDE8F08702B14042BAF1000FF8D0A1
:104470000FB105F1FF39CAF80090F2E73024002EA1
:10448000AFD10826ADE7302CA3D00A26A9E700005B
:1044900037B5064C064D2468246A002C08BF2C460C
:1044A0000094FFF779FF03B030BD00BF100000207B
:1044B00074000020F0B506694B119E4200F114040F
:1044C00030DD11F01F0104EB860604EB830208D1F6
:1044D0002146B2420B4611D252F8043B41F8043B4C
:1044E000F7E754F82350C1F1200CCD4004322346A5
:1044F000B24217460CD31D6005B104331A1BA34208
:104500004FEAA20208BF0023026108BF4361F0BD69
:104510003F6807FA0CF73D4343F8045B52F8045B2D
:10452000CD40E5E72346E9E7A0F13003092B02D8A7
:104530002038C0B27047A0F16103052B01D847387D
:10454000F7E7A0F14103052B01D82738F1E7002058
:1045500070472DE9F04F8BB08A460290169806936B
:10456000904600F0D0FA036803931846FCF7B4FCB9
:10457000039B019003444FF0000B13F8013C079399
:10458000DAF8003002331F4613F8010B30286CD0E4
:10459000FFF7CAFF044600286AD1019A03993846FA
:1045A00001F016FA002866D1019BF85CFE18FFF7AF
:1045B000BBFF002862D03346187830281F4603F12D
:1045C0000103F9D0FFF7B0FFB0FA80F56D0934466A
:1045D0004FF0010B3A46164601323078FFF7A4FF40
:1045E0000028F8D1019A0399304601F0F1F950B949
:1045F00054B9019BF4182246164601323078FFF771
:1046000093FF0028F8D10CB1A41BA4003378502BE1
:1046100001D0702B40D173782B2B31D02D2B33D080
:10462000711C4FF000090878FFF77EFF431EDBB2D4
:10463000182B31D8A0F1100211F8010FFFF774FF09
:10464000431EDBB2182B22D9B9F1000F00D0524221
:104650001444CAF800100DB3BBF1000F0CBF0627BD
:10466000002738460BB0BDE8F08F0BF1010B8AE74D
:1046700000252C46AEE73E460125C7E70446FBE78A
:104680004FF00009B11CCEE74FF00109FAE70A2309
:1046900003FB0202103ACFE73146DAE7F31B013B96
:1046A0002946072B49DC029800F041FA019B00F1F2
:1046B00014094FF0000BC3F101030546CDF810902B
:1046C000DA460893B7423BD3049840F804ABA0EB1A
:1046D0000900801028614701504600F0ECFAD8F834
:1046E00000603F1AB74264DDBF1B3946284600F020
:1046F000FBFD824678B17B1E591103F01F024FF07B
:10470000010A59F821100AFA02F20A4203D053456D
:1047100046DC4FF0020A39462846FFF7CBFE3C4400
:10472000D8F80830A34252DA2946029800F033FA4A
:10473000149A00231360A32793E701315B10B0E7BD
:10474000731E0593079A16F8013C934218D0BBF1EB
:10475000200F07D1049BC3F800A004334FF0000AD8
:104760000493D34616F8010CFFF7DEFE00F00F00AD
:1047700000FA0BF04AEA000A0BF1040B059B0DE06E
:10478000059B089A1344BB42E1D31846019A03994A
:10479000099301F01DF9099B0028D8D11E4691E725
:1047A000B91E284600F0A0FD0028B2D04FF0030A41
:1047B000B1E709DAF71B29463A46029800F0B6FB42
:1047C000E41B054600F114094FF0000AA8E7D8F8E9
:1047D0000400A0426ADD041BA6422EDCD8F80C308F
:1047E000022B22D0032B24D0012B15D1A64213D1AA
:1047F000012E0BDC069AD8F80430136001232B61DC
:10480000C9F80030149B62271D602AE7711E2846F4
:1048100000F06AFD0028EDD12946029800F0BBF9AE
:10482000149A0023136050271BE7159B002BE1D03F
:10483000F2E7159B002BDDD1EEE7671EBAF1000F02
:1048400031D127B13946284600F04EFD82467A1113
:10485000012307F01F0703FA07F759F82230214612
:104860001F42284618BF4AF0020A361BFFF722FEF5
:10487000D8F804400227BAF1000F48D0D8F80C301D
:10488000022B15D0032B17D0012B09D11AF0020FE0
:1048900006D0D9F800304AEA030A1AF0010F0ED107
:1048A00047F0100733E04FF0010AD0E70127E2E7B5
:1048B000159BC3F101031593159B002BF0D0D5F880
:1048C000109005F114034FEA890A03EB0A014FF037
:1048D000000C184653F8042BB2F1FF3F1CD00132F4
:1048E0000260022F05F1140338D1D8F80020013AF4
:1048F000B2420AD17111012206F01F0653F821308D
:1049000002FA06F61E4218BF174647F02007149B0E
:104910001D60069B1C60A4E6994243F804CCD8D8DD
:10492000AB68994512DB69680298013100F0FFF825
:104930002A69023205F10C01834692000C30FEF721
:10494000D7FC2946029800F026F95D462B695A1CCF
:1049500005EB83032A6101225A61C2E72A694A45AD
:104960000BDD01212846FFF7A5FDD8F808300134FA
:10497000A342FFF6D9AE0127C7E716F01F06FAD00B
:104980009A44C6F120065AF8040C00F094F9B0429B
:10499000E7DBF0E7C2F10802920070B5C2F1200631
:1049A0004368046803FA06F52C43D340046040F8DA
:1049B000043F8842F4D370BD30B50368013311F869
:1049C000014B14B90360012030BD13F8012BA2F193
:1049D0004105192D98BF2032A242F0D00020F3E704
:1049E0002DE9F04F0B6801685F1102EB870713F0A8
:1049F0001F0387B018BF043700253E1F824690462C
:104A0000019347F8045CB14634460295AB464A78B8
:104A10004B1C039342B3104605910492FFF784FDAB
:104A2000002843D1049A0599202A18D8029B9B4557
:104A300013DD4C4506D2072D04DC2A4649462046A4
:104A4000FFF7A8FF444544D90023A4F1040944F822
:104A5000043CCDF808B04C461D460399D7E7292AF7
:104A60004AD10231CAF80010BBF1000F44D04C45C6
:104A700006D2072D04DC2A4649462046FFF78AFF66
:104A8000444528D9434654F8042B43F8042BA64246
:104A9000F9D2002243F8042B9E42FBD233681BB9A3
:104AA000464527D101233360052026E00135082D36
:104AB0000BF1010B06DD4445CFD9002344F8043C3B
:104AC0000125043C226800F00F0040EA021020603B
:104AD000C3E70825C1E7019B002BDFD04FF0FF3271
:104AE000C3F1200322FA03F357F8042C1A4047F8C5
:104AF000042CD3E7043ED1E7042007B0BDE8F08FD3
:104B0000D0F8EC007047F030704782B001B901A9CD
:104B100042B14BB113780B601278101C18BF012002
:104B200002B070471046FBE76FF00100F8E770B580
:104B3000456A04460E463DB9102000F069FF6062E8
:104B4000C0E901550560C560656AEB6883B1636AB9
:104B5000DB6853F82600B8B9012101FA06F56A1D91
:104B60009200204600F0E1FB60B1C0E901650EE073
:104B700021220421204600F0D8FB636AE860DB684C
:104B8000002BE4D1002070BD026843F826200023EA
:104B9000C0E90333F7E770B5446A06460D463CB9F1
:104BA000102000F035FF7062C0E901440460C46069
:104BB0003DB1736A6A68DB6853F82210296043F8D4
:104BC000225070BD2DE9F0410D691F4606460C4686
:104BD00001F1140C0023DCF8000081B202FB01712A
:104BE0000F0C000C02FB007089B2013301EB004195
:104BF0009D424FEA10474CF8041BECDCD7B1A36888
:104C0000AB4212DC616830460131FFF790FF226948
:104C1000023204F10C01804692000C30FEF768FB72
:104C200021463046FFF7B7FF444604EB85030135C4
:104C30005F6125612046BDE8F0812DE9F8430C460F
:104C400015461F4609220833064693FBF2F300215E
:104C500001229A4220DB3046FFF769FF089B43613F
:104C6000092D4FF00103036119DD04F10908C14664
:104C70002C4419F8013B0146303B0A223046FFF72D
:104C8000A1FFA145F5D108EB0504083C2D1B6319D4
:104C9000BB4207DBBDE8F88352000131D9E70A3493
:104CA0000925F3E714F8013B0146303B0A22304660
:104CB000FFF788FFEBE7020C12040346B2B90304C6
:104CC000102013F07F4F04BF1B02083013F0704F09
:104CD00004BF1B01043013F0404F04BF9B0002309F
:104CE000002B06DB5B0003D5013070470020E8E7AE
:104CF00020207047036813F0070201460BD0DA0743
:104D000023D4980749BF5B089B0801200B605CBF58
:104D10000B600220704798B2A8B91B0C102013F04A
:104D2000FF0F04BF1B0A08301A0704BF1B09043019
:104D30009A0704BF9B080230DA0702D45B0806D04A
:104D400001300B6070471046E9E7002070472020D3
:104D5000704710B50C460121FFF7E9FE01224461BE
:104D6000026110BD2DE9F74F14460A6923699A4282
:104D7000B8BF0B468846BCBFA0461C46D8F810708A
:104D8000D4F81090D8F80830D8F8041007EB0906CA
:104D9000B342B8BF0131FFF7CAFE00F1140505EBBD
:104DA000860E2B460022734516D304F1140208F137
:104DB000140102EB890301EB87070093009B01922A
:104DC00093420CD8002E03DD5EF8043D002B5DD02D
:104DD000066103B0BDE8F08F43F8042BE3E7B2F8B7
:104DE00000B0BBF1000F23D08946AC464FF000085D
:104DF00059F8044BDCF800A0A3B21FFA8AFA0BFBA7
:104E000003A34FEA144ADCF8004043444FEA144835
:104E10000BFB0A8404EB1344E2469BB243EA0443CF
:104E20004F454FEA14484AF8043B2BD8CCF804808D
:104E3000019BB3F802A00432BAF1000F20D02B6816
:104E40008946A8464FF0000BB9F800C0B8F80240F8
:104E50000AFB0C445C44C4469BB243EA04434CF84E
:104E6000043B59F8043BB8F804B01B0C0AFB03B32D
:104E700003EB14434F454FEA134B05D8C8F80430F1
:104E800004359BE7D446B3E7E046DDE7013E99E70A
:104E90002DE9F843154612F0030206460F4607D0E7
:104EA000013A214C002354F82220FFF78BFE0746DD
:104EB000AD1035D0746A3CB9102000F0A9FD7062C5
:104EC000C0E901440460C460D6F82480D8F80840E2
:104ED0004CB940F271213046FFF73BFF0023C8F880
:104EE0000800044603604FF00008EB070AD5394676
:104EF00022463046FFF736FF394681463046FFF7F7
:104F00004AFE4F466D100BD0206838B92246214624
:104F10003046FFF727FF2060C0F800800446E4E732
:104F20003846BDE8F88300BF005D00082DE9F04772
:104F30000C464FEA621A236949680AEB0309A36821
:104F40000746164609F10105AB4232DB3846FFF74A
:104F5000EEFD0023804600F114011A4653452BDB79
:104F600020692AEAEA7A04F1140316F01F0201EB21
:104F70008A0103EB800C25D0C2F1200E00201E68B0
:104F80008A46964030434AF8040B53F8040B9C457C
:104F900020FA0EF014D8486008B109F10205013D6D
:104FA0003846C8F810502146FFF7F5FD4046BDE8E9
:104FB000F08701315B00C7E741F823200133CDE7DB
:104FC0005146DCE7043953F8042B41F8042F9C4583
:104FD000F9D8E4E703690A699B1A30B50CD192004D
:104FE000143014318418114454F8045D51F8042D20
:104FF000954203D005D30123184630BDA042F3D318
:10500000FAE74FF0FF33F7E72DE9F0470D46074683
:10501000114628461446FFF7DDFF061E08D131462B
:105020003846FFF784FD0123C0E90436BDE8F08768
:10503000A4BF23462C4638466168A6BF1D460026FD
:105040000126FFF774FD2B69C660266905F1140976
:1050500004F1140202EB860709EB830800F1140542
:105060004FF0000E52F804AB59F8044B1EFA8AF1C7
:10507000A3B2C91A230CC3EB1A4303EB214389B231
:105080004FEA234EC84541EA0343944645F8043BA2
:10509000E8D8BC4504D355F8043D83B10661C5E7A3
:1050A0005CF8041B1EFA81F31A1402EB11429BB246
:1050B00043EA02434FEA224E45F8043BE9E7013E4A
:1050C000E9E70000124B10EE902A1A40A2F150734B
:1050D000002B04DD0020194641EC100B70475B42A9
:1050E0001B15132B4FF000004FF0000104DC4FF4B0
:1050F000002242FA03F1EFE7143B1E2B4FF00102AE
:10510000DABFC3F11F0302FA03F313461846E3E7BD
:105110000000F07FF8B5056900F1140707EB85057D
:105120002E1F55F8044C2046FFF7C5FDC0F12003A3
:105130000A280B60DFF874C014DCC0F10B0E24FAEF
:105140000EF1B74241EA0C0334BF55F8081C0021A8
:10515000153004FA00F021FA0EF140EA010243ECA6
:10516000102BF8BDB7423ABFA5F1080655F8081C48
:1051700000210B3815D08440C0F1200544F07F5445
:1051800044F44014BE4221FA05FC44EA0C038CBFEF
:1051900056F8044C002401FA00F0EC4040EA040206
:1051A000DDE744EA0C030A46D9E700BF0000F03F00
:1051B0002DE9F7430E46012159EC108B1546FFF7F8
:1051C000B6FCC9F30A540746C9F3130334BB019371
:1051D000B8F1000327D002A840F8083DFFF78AFD88
:1051E0000099F0B1019AC0F1200302FA03F30B43D6
:1051F000C2407B610192019BBB61002B14BF022165
:1052000001213961C4B1A4F2334404443460C0F1D3
:1052100035002860384603B0BDE8F08343F48013BE
:10522000D5E77961E7E701A8FFF764FD019B7B61A2
:10523000012139612030E5E707EB8103A0F232401C
:1052400030601869FFF737FDC0EB4110E1E72DE949
:10525000F74F884669468146FFF75CFF01A9404643
:1052600057EC106BFFF756FFD9F81030D8F8102024
:10527000A3EB020CDDE900329B1A03EB4C135BEC51
:1052800010AB002BCEBF3A46C3EB03335A46594608
:105290003D46D4BF02EB035102EB0355304610EEFE
:1052A000102A0B462946FBF779FA41EC100B03B0A4
:1052B000BDE8F08F013910B549111469013102F1CF
:1052C000140300EB810103EB8404A342024603D3E1
:1052D00000238A4205D310BD53F8042B40F8042B59
:1052E000F3E742F8043BF4E700F1140200694B11C4
:1052F000984210B511DB0ADD11F01F0107D052F8FA
:10530000234024FA01F000FA01F18C420BD102EBA8
:105310008303934203D8002010BD0346F7E753F8F8
:10532000041D0029F5D00120F6E738B502FB01F491
:10533000214600F009F8054618B122460021FDF784
:10534000FBFF284638BD000070B5CD1C25F00305D5
:1053500008350C2D38BF0C25002D064601DBA9426F
:1053600003D90C233360002070BD00F059FB214AA3
:105370001468214691B9204C23681BB9304600F0CF
:1053800017FB20602946304600F012FB431C24D155
:105390000C233360304600F044FBE4E70B685B1BF2
:1053A00018D40B2B0FD90B60CD50CC18304600F021
:1053B00038FB04F10B00231D20F00700C31AD3D0E3
:1053C0005A42E250D0E78C424B6816BF63601360CC
:1053D0000C46EBE70C464968CCE7C41C24F00304F8
:1053E000A04205D0211A304600F0E2FA0130CFD0B9
:1053F0002560DBE78C070020900700202DE9F047AF
:105400008E689E4282460C469046994637D88A89D5
:1054100012F4906F31D0256809696F1A656902230B
:1054200005EB450595FBF3F509F101033B449D426E
:1054300038BF1D46530530D52946FFF785FF064680
:1054400050B90C23CAF80030A38943F04003A3816C
:105450004FF0FF30BDE8F0873A462169FDF748FF7D
:10546000A38923F4906343F08003A38126616561DF
:105470003E44ED1B2660A5604E464E4500D94E4683
:10548000324641462068FDF73EFFA3689B1BA360A0
:1054900023681E4426600020DCE72A4600F010FB4B
:1054A00006460028E2D12169504600F0BBFAC8E761
:1054B0002DE9F04F1D468B891F069DB080460C4696
:1054C00016460FD50B696BB94021FFF73DFF2060F1
:1054D000206128B90C23C8F800304FF0FF30C8E035
:1054E000402363610023099320238DF82930302362
:1054F0008DF82A3003954FF0010B37463D4615F8DD
:10550000013B0BB1252B3ED1B7EB060A0BD053461E
:10551000324621464046FFF771FF013000F0A4807B
:10552000099B534409933B78002B00F09D80002396
:105530004FF0FF32CDE90523049307938DF85330E4
:105540001A932F46052217F8011B5048FBF7D0FC91
:10555000049BD0B9D90644BF20228DF853201A07E6
:1055600044BF2B228DF853202A782A2A15D0079A77
:105570002F4600200A25394611F8013B303B092B04
:105580004DD9B8B10FE02F46B8E7404A801A0BFA60
:1055900000F0184304903D46D3E7039A111D1268AA
:1055A0000391002A01DB079204E0524243F0020318
:1055B000079204933B782E2B0CD17B782A2B33D186
:1055C000039B1A1D1B680392002BB8BF4FF0FF33DB
:1055D000023705932E4D397803222846FBF788FCC5
:1055E00038B14023401B03FA00F0049B034301370A
:1055F0000493397827488DF8281006227E1CFBF783
:1056000077FC002838D0244B13BB039B073323F0CF
:10561000070308330393099B4B4409936DE705FB8C
:10562000023201200F46A6E70023013705931946F1
:105630000A25384610F8012B303A092A03D9002BE5
:10564000C8D00591C6E705FB012101230746F0E715
:1056500003AB00932246114B04A94046AFF30080F0
:10566000B0F1FF3F8146D6D1A3895B063FF535AF48
:1056700009981DB0BDE8F08F03AB00932246074B9D
:1056800004A9404600F082F8EAE700BF0C5D00087C
:10569000125D0008165D000800000000FD530008C0
:1056A0002DE9F04791461F468A680B69DDF8208096
:1056B0009342B8BF1346C9F8003091F8432006461C
:1056C0000C4612B10133C9F800302368990642BF75
:1056D000D9F800300233C9F80030256815F0060506
:1056E00007D104F1190AE368D9F800209B1AAB42EC
:1056F00028DC94F843302268003318BF0123920657
:105700002DD404F1430239463046C047013020D041
:105710002368E568D9F8002003F00603042B08BFCE
:10572000AD1AA36822690CBF25EAE57500259342EE
:10573000C4BF9B1AED184FF000091A344D451AD119
:10574000002008E00123524639463046C047013068
:1057500003D14FF0FF30BDE8F0870135C3E7E11812
:105760005A1C302081F84300224494F8451082F8F6
:1057700043100233C5E70123224639463046C0476D
:105780000130E6D009F10109D8E700002DE9F04326
:1057900001F1430C0C46097E85B06E29174606467A
:1057A00098460C9A00F0B38022D8632936D00AD8E4
:1057B000002900F0B980582900F0838004F14205E7
:1057C00084F8421032E0642901D06929F6D12068BA
:1057D0001368050603F104012AD51B681160002B2C
:1057E00003DA2D225B4284F843206F480A2239E015
:1057F000732900F09D8008D86F2920D07029DDD151
:10580000236843F02003236003E0752917D078292B
:10581000D4D1782384F84530644855E01368191DC5
:105820001B68116004F1420584F8423001238CE0CA
:105830001B68116010F0400F18BF1BB2CFE7136850
:105840002568181D1060280601D51B6802E068064F
:10585000FBD51B8854486F2914BF0A220822002157
:1058600084F843106568A560002DC0F2958021681A
:1058700021F004012160002B3DD1002D40F08E80ED
:105880006546082A0BD12368DB0708D523696268BF
:105890009A42DEBF302305F8013C05F1FF35ACEB41
:1058A00005032361CDF800803B4603AA214630461C
:1058B000FFF7F6FE01304DD14FF0FF3005B0BDE8E7
:1058C000F083394884F84510136821681D1D1B6852
:1058D00015600A060BD5CA0744BF41F020012160BC
:1058E0001BB9226822F0200222601022B7E74D0681
:1058F00048BF9BB2EFE76546B3FBF2F102FB113301
:10590000C35C05F8013D0B460029F5D1B9E71368E2
:1059100025686169181D106028061B6801D519608B
:1059200002E06A06FBD51980002323616546B9E7CA
:105930001368191D11601D68626800212846FBF775
:10594000D7FA08B1401B606063682361002384F8C4
:105950004330A7E723692A4639463046C04701301D
:10596000AAD023689B0713D4E068039B9842B8BF72
:105970001846A3E701234A4639463046C04701305E
:105980009AD00135E368039A9B1AAB42F2DCEBE74D
:10599000002504F11909F5E7002BACD1037884F850
:1059A000423004F142056CE71D5D00082E5D0008E1
:1059B00038B5064C0023054608462360FBF756FD24
:1059C000431C02D1236803B12B6038BD400A00207C
:1059D00010B56AB10139841810F8013B11F8012F94
:1059E000934203D1A04201D0002BF5D1981A10BDEB
:1059F0001046FCE749B1FF2A85BF8A2303600A707D
:105A00004FF0FF3098BF01207047084670470000F4
:105A1000024B01461868FFF797BC00BF100000203A
:105A20007047704738B50546002945D051F8043C09
:105A30000C1F002BB8BFE418FFF7F2FF1F4A1368D2
:105A4000104633B9636014602846BDE83840FFF75C
:105A5000E8BFA3420CD921686218934204BF1A68B8
:105A60005B68636004BF521822600460ECE7134671
:105A70005A680AB1A242FAD919685818A0420BD143
:105A800020680144581882421960DDD110685268BC
:105A90005A6001441960D7E702D90C232B60D3E781
:105AA000206821188A4204BF11685268626004BFEE
:105AB000091821605C60C7E738BD00BF8C07002073
:105AC000F8B5074614460E4621B91146BDE8F84020
:105AD000FFF73ABC22B9FFF7A5FF25462846F8BDD7
