:020000040800F2
:1000000000800120AD480008192400081B240008C6
:100010001D2400081F2400082124000800000000FF
:100020000000000000000000000000002324000881
:1000300025240008000000002724000829240008C7
:10004000FD480008FD480008FD480008FD4800087C
:10005000FD480008FD480008FD480008312400085C
:10006000FD48000847240008FD480008FD48000836
:10007000FD480008FD480008FD480008FD4800084C
:10008000FD480008FD480008FD480008FD4800083C
:10009000FD480008FD480008FD480008FD4800082C
:1000A000FD480008FD480008FD480008FD4800081C
:1000B000FD480008FD480008FD480008FD4800080C
:1000C000FD480008FD480008FD480008FD480008FC
:1000D000FD480008FD4800081D1F0008FD480008F5
:1000E0003B240008FD480008FD480008FD480008C2
:1000F000FD480008FD480008FD480008FD480008CC
:10010000FD480008FD480008FD480008FD480008BB
:10011000FD480008FD480008FD480008FD480008AB
:10012000FD480008FD480008FD480008FD4800089B
:10013000FD480008FD480008FD480008FD4800088B
:10014000FD480008FD480008FD480008FD4800087B
:10015000FD480008FD480008FD480008FD4800086B
:10016000FD480008FD480008FD480008FD4800085B
:10017000FD480008FD480008FD4800080000000098
:08018000FD480008FD480008DD
:1001900010B5054C237833B9044B13B10448AFF3C1
:1001A00000800123237010BD100200200000000019
:1001B0002C85000808B5034B1BB103490348AFF376
:1001C000008008BD00000000140200202C850008FB
:1001D000034613F8012B002AFBD1181A0138704787
:1001E00001F0FF01102A2BDB10F0070F08D010F8E8
:1001F000013B013A8B422DD010F0070F42B3F6D1EC
:10020000F0B441EA012141EA014122F007047FF004
:1002100000070023F0E80256083C85EA010586EA5B
:10022000010685FA47F5A3FA87F586FA47F6A5FA97
:1002300087F68EB9EED1F0BC01F0FF0102F00702A3
:1002400032B110F8013B013A83EA010313B1F8D14E
:100250000020704701387047002D06BF354603382F
:10026000073815F0010F07D1013015F4807F02BF68
:10027000013015F4C03F0130F0BC0138704700BFB9
:1002800081F0004102E000BF83F0004330B54FEA47
:1002900041044FEA430594EA050F08BF90EA020FB4
:1002A0001FBF54EA000C55EA020C7FEA645C7FEA47
:1002B000655C00F0E2804FEA5454D4EB5555B8BF6A
:1002C0006D420CDD2C4480EA020281EA030382EADB
:1002D000000083EA010180EA020281EA0303362D6D
:1002E00088BF30BD11F0004F4FEA01314FF4801C40
:1002F0004CEA113102D0404261EB410113F0004F52
:100300004FEA03334CEA133302D0524263EB430308
:1003100094EA050F00F0A780A4F10104D5F1200EA6
:100320000DDB02FA0EFC22FA05F2801841F1000101
:1003300003FA0EF2801843FA05F359410EE0A5F1D5
:1003400020050EF1200E012A03FA0EFC28BF4CF006
:10035000020C43FA05F3C01851EBE37101F00045BC
:1003600007D54FF0000EDCF1000C7EEB00006EEBC9
:100370000101B1F5801F1BD3B1F5001F0CD3490853
:100380005FEA30004FEA3C0C04F101044FEA4452AA
:1003900012F5800F80F09A80BCF1004F08BF5FEA31
:1003A000500C50F1000041EB045141EA050130BD11
:1003B0005FEA4C0C404141EB010111F4801FA4F1B4
:1003C0000104E9D191F0000F04BF01460020B1FA09
:1003D00081F308BF2033A3F10B03B3F120020CDA41
:1003E0000C3208DD02F1140CC2F10C0201FA0CF01F
:1003F00021FA02F10CE002F11402D8BFC2F1200C84
:1004000001FA02F120FA0CFCDCBF41EA0C01904039
:10041000E41AA2BF01EB0451294330BD6FEA040482
:100420001F3C1CDA0C340EDC04F11404C4F120026D
:1004300020FA04F001FA02F340EA030021FA04F37F
:1004400045EA030130BDC4F10C04C4F1200220FAD6
:1004500002F001FA04F340EA0300294630BD21FA14
:1004600004F0294630BD94F0000F83F4801306BFDA
:1004700081F480110134013D4EE77FEA645C18BFCE
:100480007FEA655C29D094EA050F08BF90EA020F65
:1004900005D054EA000C04BF1946104630BD91EA5D
:1004A000030F1EBF0021002030BD5FEA545C05D160
:1004B0004000494128BF41F0004130BD14F580049F
:1004C0003CBF01F5801130BD01F0004545F0FE4113
:1004D00041F470014FF0000030BD7FEA645C1ABF48
:1004E000194610467FEA655C1CBF0B46024650EA7F
:1004F000013406BF52EA033591EA030F41F40021AB
:1005000030BD00BF90F0000F04BF0021704730B530
:100510004FF4806404F132044FF000054FF0000105
:1005200050E700BF90F0000F04BF0021704730B5C6
:100530004FF4806404F1320410F0004548BF40429B
:100540004FF000013EE700BF42004FEAE2014FEAF0
:1005500031014FEA02701FBF12F07F4393F07F4FCB
:1005600081F06051704732F07F4208BF704793F0CE
:100570007F4F04BF41F40021704730B54FF46074E1
:1005800001F0004521F000411CE700BF50EA0102E4
:1005900008BF704730B54FF000050AE050EA01028D
:1005A00008BF704730B511F0004502D5404261EBFD
:1005B00041014FF4806404F132045FEA915C3FF43E
:1005C000D8AE4FF003025FEADC0C18BF03325FEADB
:1005D000DC0C18BF033202EBDC02C2F1200300FA8C
:1005E00003FC20FA02F001FA03FE40EA0E0021FAB1
:1005F00002F11444BDE600BF70B54FF0FF0C4CF49F
:10060000E06C1CEA11541DBF1CEA135594EA0C0F50
:1006100095EA0C0F00F0DEF82C4481EA030621EA8B
:100620004C5123EA4C5350EA013518BF52EA0335C6
:1006300041F4801143F4801338D0A0FB02CE4FF078
:100640000005E1FB02E506F00042E0FB03E54FF0A8
:100650000006E1FB03569CF0000F18BF4EF0010EA0
:10066000A4F1FF04B6F5007F64F5407404D25FEA9C
:100670004E0E6D4146EB060642EAC62141EA55514F
:100680004FEAC52040EA5E504FEACE2EB4F1FD0C91
:1006900088BFBCF5E06F1ED8BEF1004F08BF5FEA0F
:1006A000500E50F1000041EB045170BD06F00046C1
:1006B00046EA010140EA020081EA0301B4EB5C046E
:1006C000C2BFD4EB0C0541EA045170BD41F4801166
:1006D0004FF0000E013C00F3AB8014F1360FDEBF8B
:1006E000002001F0004170BDC4F10004203C35DA67
:1006F0000C341BDC04F11404C4F1200500FA05F3EA
:1007000020FA04F001FA05F240EA020001F000428A
:1007100021F0004110EBD37021FA04F642EB060100
:100720005EEA430E08BF20EAD37070BDC4F10C042A
:10073000C4F1200500FA04F320FA05F001FA04F2EE
:1007400040EA020001F0004110EBD37041F10001DA
:100750005EEA430E08BF20EAD37070BDC4F12005E5
:1007600000FA05F24EEA020E20FA04F301FA05F24D
:1007700043EA020321FA04F001F0004121FA04F2F5
:1007800020EA020000EBD3705EEA430E08BF20EAC5
:10079000D37070BD94F0000F0FD101F000464000FF
:1007A00041EB010111F4801F08BF013CF7D041EA81
:1007B000060195F0000F18BF704703F00046520085
:1007C00043EB030313F4801F08BF013DF7D043EA56
:1007D0000603704794EA0C0F0CEA135518BF95EA0C
:1007E0000C0F0CD050EA410618BF52EA4306D1D193
:1007F00081EA030101F000414FF0000070BD50EAB2
:10080000410606BF1046194652EA430619D094EA3B
:100810000C0F02D150EA013613D195EA0C0F05D125
:1008200052EA03361CBF104619460AD181EA030179
:1008300001F0004141F0FE4141F470014FF0000031
:1008400070BD41F0FE4141F4780170BD70B54FF0CC
:10085000FF0C4CF4E06C1CEA11541DBF1CEA13554C
:1008600094EA0C0F95EA0C0F00F0A7F8A4EB05042E
:1008700081EA030E52EA03354FEA013100F0888025
:100880004FEA03334FF0805545EA131343EA1263EE
:100890004FEA022245EA111545EA10654FEA0026A3
:1008A0000EF000419D4208BF964244F1FD0404F55C
:1008B000407402D25B084FEA3202B61A65EB0305B8
:1008C0005B084FEA32024FF480104FF4002CB6EB75
:1008D000020E75EB030E22BFB61A754640EA0C00F5
:1008E0005B084FEA3202B6EB020E75EB030E22BF35
:1008F000B61A754640EA5C005B084FEA3202B6EB76
:10090000020E75EB030E22BFB61A754640EA9C0034
:100910005B084FEA3202B6EB020E75EB030E22BF04
:10092000B61A754640EADC0055EA060E18D04FEAC2
:10093000051545EA16754FEA06164FEAC30343EA62
:1009400052734FEAC2025FEA1C1CC0D111F4801F2F
:100950000BD141EA00014FF000004FF0004CB6E728
:1009600011F4801F04BF01430020B4F1FD0C88BFC7
:10097000BCF5E06F3FF6AFAEB5EB030C04BFB6EBD2
:10098000020C5FEA500C50F1000041EB045170BDC5
:100990000EF0004E4EEA113114EB5C04C2BFD4EBF2
:1009A0000C0541EA045170BD41F480114FF0000E76
:1009B000013C90E645EA060E8DE60CEA135594EAF2
:1009C0000C0F08BF95EA0C0F3FF43BAF94EA0C0FF5
:1009D0000AD150EA01347FF434AF95EA0C0F7FF46A
:1009E00025AF104619462CE795EA0C0F06D152EABE
:1009F00003353FF4FDAE1046194622E750EA4106A2
:100A000018BF52EA43067FF4C5AE50EA41047FF4B2
:100A10000DAF52EA43057FF4EBAE12E74FF0FF3C17
:100A200006E000BF4FF0010C02E000BF4FF0010CE8
:100A30004DF804CD4FEA410C7FEA6C5C4FEA430C61
:100A400018BF7FEA6C5C1BD001B050EA410C0CBFB0
:100A500052EA430C91EA030F02BF90EA020F002012
:100A6000704710F1000F91EA030F58BF994208BF79
:100A700090422CBFD8176FEAE37040F00100704736
:100A80004FEA410C7FEA6C5C02D150EA013C07D18D
:100A90004FEA430C7FEA6C5CD6D152EA033CD3D0D8
:100AA0005DF8040B704700BF8446104662468C46D2
:100AB0001946634600E000BF01B5FFF7B7FF002805
:100AC00048BF10F1000F01BD4DF808EDFFF7F4FF2E
:100AD0000CBF012000205DF808FB00BF4DF808EDB9
:100AE000FFF7EAFF34BF012000205DF808FB00BFDC
:100AF0004DF808EDFFF7E0FF94BF012000205DF8FE
:100B000008FB00BF4DF808EDFFF7CEFF94BF0120B2
:100B100000205DF808FB00BF4DF808EDFFF7C4FFAB
:100B200034BF012000205DF808FB00BF4FEA410CF4
:100B30007FEA6C5C02D150EA013C0AD14FEA430CD7
:100B40007FEA6C5C02D152EA033C02D14FF0000014
:100B500070474FF0010070474FEA410212F5001252
:100B600015D211D56FF47873B3EB625212D94FEAF4
:100B7000C12343F0004343EA505311F0004F23FADE
:100B800002F018BF404270474FF00000704750EA33
:100B9000013005D111F0004008BF6FF000407047F0
:100BA0004FF00000704700BF4A0011D212F500124A
:100BB00011D20DD56FF47873B3EB62520ED44FEAB5
:100BC000C12343F0004343EA505323FA02F0704735
:100BD0004FF00000704750EA013002D14FF0FF3073
:100BE00070474FF0000070474FEA4102B2F1E04316
:100BF00024BFB3F5001CDCF1FE5C0DD901F0004C04
:100C00004FEAC0024CEA5070B2F1004F40EB830053
:100C100008BF20F00100704711F0804F21D113F17F
:100C20003872BCBF01F00040704741F480114FEAB8
:100C30005252C2F11802C2F1200C10FA0CF320FA41
:100C400002F018BF40F001004FEAC1234FEAD3235E
:100C500003FA0CFC40EA0C0023FA02F34FEA4303C8
:100C6000CCE77FEA625307D150EA01331EBF4FF051
:100C7000FE4040F44000704701F0004040F0FE406C
:100C800040F40000704700BF53B94AB9002908BFBB
:100C900000281CBF4FF0FF314FF0FF3000F072B959
:100CA000ADF1080C6DE904CE00F006F8DDF804E0C3
:100CB000DDE9022304B070472DE9F047089E0446A1
:100CC0008846002B4BD18A42154667D9B2FA82F288
:100CD0004AB1C2F1200701FA02F320FA07F7954062
:100CE00047EA030894404FEA154E230CB8FBFEF781
:100CF0001FFA85FC0EFB178843EA084307FB0CF13B
:100D0000994209D9EB1807F1FF3080F01B81994215
:100D100040F21881023F2B445B1AA4B2B3FBFEF0F1
:100D20000EFB103344EA034400FB0CFCA44509D934
:100D30002C1900F1FF3380F00781A44540F20481B3
:100D400002382C4440EA0740A4EB0C0400271EB1F3
:100D5000D4400023C6E900433946BDE8F0878B4202
:100D600009D9002E00F0EB800027C6E900013846C3
:100D70003946BDE8F087B3FA83F7002F47D18B429D
:100D800002D3824200F2FA80841A61EB030301204D
:100D90009846002EE0D0C6E90048DDE702B9FFDE44
:100DA000B2FA82F2002A40F08F80491B4FEA154EBA
:100DB0001FFA85F80127B1FBFEFC230C0EFB1C116A
:100DC00043EA014308FB0CF1994207D9EB180CF1F7
:100DD000FF3002D2994200F2CD808446591AA3B264
:100DE000B1FBFEF00EFB101443EA044408FB00F8CC
:100DF000A04507D92C1900F1FF3302D2A04500F21B
:100E0000B6801846A4EB080440EA0C409FE7C7F1FF
:100E1000200CBB4022FA0CFE4EEA030E01FA07F446
:100E200020FA0CF521FA0CF34FEA1E482543B3FBD8
:100E3000F8F92C0C08FB19331FFA8EFA44EA034325
:100E400009FB0AF49C4202FA07F200FA07F10BD9F7
:100E50001EEB030309F1FF3080F087809C4240F2D3
:100E60008480A9F1020973441B1BADB2B3FBF8F0F7
:100E700008FB103345EA034400FB0AFAA24508D9EF
:100E80001EEB040400F1FF336BD2A24569D902388E
:100E9000744440EA0940A0FB0289A4EB0A044C45D3
:100EA000C2464B4654D351D0002E69D0B1EB0A054F
:100EB00064EB030404FA0CFCFD40FC404CEA05051D
:100EC000C6E90054002747E7C2F1200320FA03F7E0
:100ED000954001FA02F021FA03F34FEA154E384328
:100EE000010CB3FBFEF71FFA85F80EFB173341EA3E
:100EF000034107FB08F38B4204FA02F407D969188F
:100F000007F1FF3C2FD28B422DD9023F2944CB1A47
:100F100081B2B3FBFEF00EFB103341EA034100FB4C
:100F200008F38B4207D9691800F1FF3C17D28B42B6
:100F300015D902382944C91A40EA07473BE7374622
:100F4000304609E70746E7E61846FBE64145ABD2DF
:100F5000B8EB020A69EB0E0201381346A4E76046BB
:100F6000E9E7184695E76746D1E781467CE702380E
:100F70002C4447E7ACF1020C2B442FE7384608E736
:100F80003746E9E6704700BF08B510EE100AFFF7D4
:100F9000DBFA08A3D3E90023FFF72EFB0022044B62
:100FA000FFF754FCFFF720FE00EE100A08BD00BF5B
:100FB000008066401F85EB51B81E0940B0F5B47F34
:100FC00000D900B170474FF4B470FBE700B587B0AB
:100FD00006AA02F8010D4FF0FF330293012301939B
:100FE000009200227821034801F048FF07B05DF825
:100FF00004FB00BF700C002000B585B04FF0FF333C
:10100000029389B201910090012340227821034884
:1010100001F034FF05B05DF804FB00BF700C002048
:10102000002303E0FF21054AD1540133B3F5806F5B
:1010300003D20028F6D10021F5E770472C020020EA
:1010400010B5002412E0A4F15000C0B2FFF7BEFFBB
:101050000020FFF7BBFF1020FFF7B8FF80210548F5
:1010600000EBC410FFF7C8FF0134E4B2072CEAD943
:1010700010BD00BF2C02002010F0800F16D13F29B8
:1010800014D8114B93F8043413B1B2FA82F2520916
:10109000012A0CD0CB0800EBC31001F0070101239B
:1010A0008B40094A115C21EA030111547047CB08B7
:1010B00000EBC31001F0070101238B40024A115CD1
:1010C00019431154704700BF2C0200202DE9F04F46
:1010D00083B002AC04E90600A0F12002D2B25E2A7D
:1010E0004BD82A4AB2F800249DF800603244802A86
:1010F00047DC264AB2F802249DF801A0D3465244A8
:10110000402A40DC1F468146002523E01F4BB3F8F0
:101110000004B3F8021429442044B7FA87F25209B4
:10112000C9B2C0B2FFF7A8FF0134A64211D908FA2C
:1011300004F313F4004FE9D0144BB3F80004B3F8F0
:101140000214294420443A46C9B2C0B2FFF794FFC2
:10115000EAE70135AA4508D9A9F1200303FB0B539F
:10116000019A32F813800024DFE7084BB3F800241B
:101170001644A3F80064484600E0002003B0BDE830
:10118000F08F0020FAE70020F8E700BF2C020020D3
:1011900070B582B0054602A800E906001E462C780C
:1011A0005CB1334602AA12E906002046FFF78EFF23
:1011B0002C78A04201D10135F1E7204602B070BD84
:1011C000024BA3F80004A3F8021470472C0200207D
:1011D0002DE9F04F83B004460D4691469A469DF89E
:1011E00030300093A2EB0008B8F1000FB8BFC8F18F
:1011F0000008AAEB0107002FB8BF7F4282420DD939
:1012000001230193AA450DD94FF0010BA8EB070666
:10121000009A51464846FFF72FFF18E04FF0FF3382
:101220000193EFE74FF0FF3BF0E7009A2946204695
:10123000FFF722FF73007A429A4203DAF61B019A03
:101240001444E4B2984502DD46445D44EDB24C4599
:10125000EBD15545E9D103B0BDE8F08F2DE9F04F52
:101260002DED048B87B083460F4605921C469DF8F2
:101270005460BDF85000FFF7A1FE05462046FFF779
:101280009DFE00EBC00083004C4C84FB03241C44F7
:10129000DB17C3EB242405EBC5034FEA830A4FEAAF
:1012A000DA0A474BA3FB0A3A4FEA9A0A07EE905A2A
:1012B000F8EE679A07EE90AAF8EE677A89EEA79A99
:1012C00030E0B0EE690AFFF75FFE10EE100AFFF79C
:1012D0003BF941EC180B41EC100B05F099FF53EC76
:1012E000102BDDE90201FFF787F9FFF735FC5BFA08
:1012F00080F05FFA80F9B0EE480AF0EE680A05F077
:1013000043FF53EC102BDDE90201FFF775F9FFF7FE
:1013100023FC57FA80F30096DBB24A464146284642
:10132000FFF756FF544543D207EE904AB8EE670ADE
:1013300020EE090AFFF728FE10EE100AFFF704F965
:1013400041EC180B41EC100B05F062FF59EC108BCF
:101350000598FFF7E7F8CDE9020102460B46404643
:101360004946FFF749F9FFF7F7FB5BFA80F0C5B292
:10137000B0EE480AF0EE680A05F006FF53EC102BB9
:10138000DDE90201FFF738F9FFF7E6FB57FA80F0D5
:101390005FFA80F80134A24593D007EE904AB8EE88
:1013A000670A20EE090AFFF7EFFD10EE100A8EE73C
:1013B00007B0BDEC048BBDE8F08F00BFB7600BB683
:1013C000176CC11610F0800F53D12DE9F04F83B088
:1013D0005742C2F1010254003F2947D800938B467F
:1013E00001904FF0000A08E02346A7423CDA01379B
:1013F0007C0001341C44002F38DCFEB2019BA3EBBF
:1014000006085FFA88F85FFA8AF505EB0B095FFAC0
:1014100089F9009A49464046FFF72EFE019B1E447B
:10142000F6B2009A49463046FFF726FEABEB0505BB
:10143000EDB2DDF800904A4629463046FFF71CFE23
:101440004A4629464046FFF717FEA245CCDB0AF183
:10145000010A4FEA4A03013323441AEB070FC4D1B0
:10146000A742C2DB0024C0E71C46C4E703B0BDE8C6
:10147000F08F7047024B00221A705A70704700BFFD
:101480003406002010B586B00C46030A8DF814000F
:101490008DF8153000228DF810208DF811204FF0B6
:1014A000FF3302930223019305AB00930123AA218A
:1014B000204601F0E3FCA0B94FF0FF330293022372
:1014C000019304AB009301230022AA21204601F0DE
:1014D000A7FD48B99DF811309DF8100040EA03209F
:1014E00000E0642006B010BD6420FBE708B50146AB
:1014F0000120FFF7C7FF08BD08B5FFF7F7FF40F26F
:101500002143984201D0002008BD0120FCE710B51E
:1015100086B00C464FF0FF3302930223019305ABD4
:10152000009301230246AA21204601F079FD38B933
:101530009DF815309DF8140040EA032006B010BD58
:101540006520FBE708B519B1012906D0002003E0AA
:1015500001461C20FFF7DBFF08BD01463020FFF7E6
:10156000D6FFF9E700000000F8B52DED028BB0EED4
:10157000408A10EE100AFEF7E7FF9FED131B41ECC7
:10158000100B05F08DFE57EC106B9FED117AC8EE35
:10159000077AFDEEE77AF8EEE77A17EE900AFEF7A3
:1015A000D3FF04460D4600220A4B30463946FFF76A
:1015B0004DF902460B4620462946FEF767FE41ECF0
:1015C000100BBDEC028BF8BD00000000000059407C
:1015D0000000C84200004E4038B5C24BDB78562BA5
:1015E00001D007234DE0BF4B1B79542B0BD00723B1
:1015F00047E00B46052A09DC591CBA481B5C2C2B1A
:10160000F7D10132F5E700220723F3E7B54A0021BD
:10161000C2F8241213E0B349D1ED897AB2EE047A0C
:1016200027EE877A013307EE902AF8EEE77A77EE15
:10163000877A9FEDAD7A77EEC77AC1ED897AA94AAC
:101640009A5C2E2AE7D10121002208E002EB8202F7
:10165000500001330219303A01EB81004100A148EA
:101660001C5C2C2CF2D190ED897A92FBF1F207EE02
:10167000902AF8EEE77A77EE877AC0ED897A30E142
:1016800001339A4A9A5C2C2AFAD1964A0020C2F871
:101690000802C2F80C02C2F81402C2F81802C2F81A
:1016A00020025C1C985C9D1CA15C303800EB800023
:1016B00044002144C9B2353982F80312D91CA85C10
:1016C0001D1D895C303800EB800044002144C9B204
:1016D000303982F80412591DA85C895C303800EB5F
:1016E000800044002144C9B23039C9B282F80512E1
:1016F0007F480468651C056000EB84004160D81DCC
:1017000003F10801805C03F109058C5C303800EBC3
:10171000800000EB80008100A4F1300000EB80002D
:1017200044002144C9B2A85C0144C9B2303982F8EE
:10173000061203F10B0413E06A4AD2ED827AB2EE8C
:10174000047A27EE877A013407EE903AF8EEE77ACA
:1017500077EE877A9FED647A77EEC77AC2ED827A68
:10176000604BE35C2E2BE7D10134012216E05D498A
:10177000D1ED837AB2EE047A27EE877A013407EE50
:10178000903AF8EEE77A77EE877A9FED577A77EE20
:10179000C77AC1ED837A02EB82035A00514BE35CB6
:1017A0002C2BE4D14F4B93ED820AD3ED836A07EEE5
:1017B000902AF8EEE77A86EEA77A30EE070A83EDF4
:1017C000820A621CD25C83F81022033413E0454A7B
:1017D000D2ED857AB2EE047A27EE877A013407EEED
:1017E000903AF8EEE77A77EE877A9FED3F7A77EED8
:1017F000C77AC2ED857A3B4BE35C2E2BE7D10134EF
:1018000013E0384AD2ED867AB2EE047A27EE877A70
:10181000013407EE903AF8EEE77A77EE877A9FED9B
:10182000327A77EEC77AC2ED867A2E4BE35C2C2BA8
:10183000E7D1631C02342B4D5B5D85F81C32FFF74A
:1018400093FE51EC100BFFF7CFF9C5F80C0295EDA4
:10185000850AFFF789FE51EC100BFFF7C5F9C5F8B3
:101860001802002300E01446032B1ADC621C1D49F9
:10187000615C2C29F7D10133F5E71A4AD2ED887A59
:10188000B2EE047A27EE877A013407EE903AF8EE4A
:10189000E77A77EE877A9FED147A77EEC77AC2ED12
:1018A000887A104BE35C2E2BE7D10023012208E05D
:1018B00003EB8303590001340B18303B02EB820128
:1018C0004A000849605C2C28F2D191ED887A93FB9C
:1018D000F2F307EE903AF8EEE77A77EE877AC1ED09
:1018E000887A38BDF009002000004042EF0900204E
:1018F0003806002010B5044600224FF480510D48F0
:1019000001F02DF80C4B9B6813F0020FFAD00A4B34
:10191000DC60094B9B6813F0800FFAD101224FF471
:101920008051044801F01BF8034BD86800F00F0009
:1019300010BD00BF001000480030014038B50D4612
:1019400040F0800400224FF480510C4801F007F869
:101950000B4B9B6813F0800FFAD144EA0524084B27
:10196000DC60074B9B6813F0800FFAD101224FF423
:101970008051024800F0F3FF38BD00BF001000485E
:101980000030014010B52E4C00224FF480612046FB
:1019900000F0E5FF0A2000F079FE01224FF480619B
:1019A000204600F0DCFF0A2000F070FE80210120BC
:1019B000FFF7C4FF01210D20FFF7C0FF00210E201B
:1019C000FFF7BCFF00210F20FFF7B8FF72211D2099
:1019D000FFF7B4FF70211E20FFF7B0FF042126207F
:1019E000FFF7ACFF00212020FFF7A8FF08212120EE
:1019F000FFF7A4FF84214D20FFF7A0FF8F210920CE
:101A0000FFF79CFFE4210620FFF798FFC021072085
:101A1000FFF794FF00210820FFF790FF07214D20DA
:101A2000FFF78CFF8F210920FFF788FF0521012098
:101A3000FFF784FF40210846FFF780FF10BD00BF7D
:101A40000010004808B50120FFF754FF00F0030024
:101A5000012803D001210846FFF770FF08BD70B5CB
:101A600006460D46FFF7EEFF00210D20FFF766FF4B
:101A7000002404E0315D0020FFF760FF0134A5423F
:101A8000F8DC29462220FFF759FF03210120FFF748
:101A900055FF1220FFF72EFF10F0080FF9D132206A
:101AA00000F0F4FD01210846FFF748FFFF21122056
:101AB000FFF744FF05210120FFF740FF00214020F0
:101AC000FFF73CFF70BD08B5FFF7BCFF8521012083
:101AD000FFF734FF00214020FFF730FF08BD000072
:101AE00038B50D460020FFF705FF074B9B6813F044
:101AF000800FFAD1002403E00020FFF7FBFE013441
:101B0000A542F9DC38BD00BF0030014010B50446E5
:101B100040211220FFF712FF1020FFF7EBFE0146D5
:101B20000D20FFF70BFF1320FFF7E4FE81B22046E4
:101B3000FFF7D6FF01210846FFF700FF00210D2027
:101B4000FFF7FCFEFFF7BFFF10BD00002DE9F047D7
:101B50008CB006464FF03D088DF82C804FF0000AFF
:101B60008DF82DA00A24009402230BAA502101F025
:101B7000C7F80546204600F089FD524B1B880CAA89
:101B800022F8083D009402235021304601F0B8F8B5
:101B90000544204600F07AFD08238DF82430DFF854
:101BA0002C9199F80020484F3B789B0043EA421360
:101BB0005BB27A7813438DF825300094022309AA8A
:101BC0005021304601F09CF80544204600F05EFDAF
:101BD0008DF82040BA7899F8013043EAC2038DF8B5
:101BE00021300094022308AA5021304601F088F8E1
:101BF0000544204600F04AFD0B238DF81C3099F86F
:101C000002308DF81D300094022307AA502130467F
:101C100001F076F80544204600F038FD8DF818A054
:101C200009238DF8193001238DF81A3099F8032013
:101C3000FB78DB0043EA42135BB23A7913438DF839
:101C40001B300094042306AA5021304601F058F8B6
:101C50000544204600F01AFD07238DF814308DF856
:101C600015A00094022305AA5021304601F048F83F
:101C70000544204600F00AFD3E238DF8103099F807
:101C800004308DF811300094022304AA502130460C
:101C900001F036F80544204600F0F8FC8DF80C8081
:101CA0007B798DF80D300094022303AA5021304631
:101CB00001F026F80544322000F0E8FC28460CB07C
:101CC000BDE8F0874CB3000820000020CC070020BE
:101CD0000F4B1A6C42F480521A641A6C22F4805230
:101CE0001A641A6E42F480521A66A3F5604344F2F5
:101CF0002C221A6040F204725A601A6842F04002C4
:101D00001A60044B102283F8232308225A6070477C
:101D10000010024000E100E070B58CB00024079490
:101D2000089409940A940B94464BDA6C42F08002B2
:101D3000DA64DA6C02F080020192019ADA6C42F005
:101D40000402DA64DA6C02F004020292029ADA6C9B
:101D500042F00102DA64DA6C02F001020392039AA3
:101D6000DA6C42F00202DA64DA6C02F002020492E7
:101D7000049ADA6C42F01002DA64DA6C02F01002B3
:101D80000592059ADA6C42F00802DA64DB6C03F023
:101D900008030693069B2C4D01224FF480512846E0
:101DA00000F0DDFD01224FF48061284600F0D7FDF0
:101DB000224608214FF0904000F0D1FD22464FF41A
:101DC0000061284600F0CBFD4FF4A0530793012695
:101DD000089609940A9407A9284600F0D5FC4FF408
:101DE0006043079302230893099405230B9307A9E3
:101DF000284600F0C9FC4FF4006307930896099445
:101E00000A9407A9284600F0BFFC082307930F4B4C
:101E10000893099407A94FF0904000F0B5FC2246C2
:101E20003146282000F058FC282000F089FC22468A
:101E30003146072000F050FC072000F081FC0CB078
:101E400070BD00BF001002400010004800001110DB
:101E500038B50D4C0D4B23600D4B63600025A5601C
:101E60000123E36025616561A561E5612562204686
:101E700000F0E8FE2946204601F0A8F92946204650
:101E800001F0D2F938BD00BF700C002000540040B2
:101E9000D38D801038B50D4C0D4B23600D4B636016
:101EA0000025A5600123E36025616561A561E56109
:101EB0002562204600F0C6FE2946204601F086F93C
:101EC0002946204601F0B0F938BD00BFBC0C002007
:101ED00000580040D38D801038B50D4C0D4B236059
:101EE0000D4B63600025A5600123E36025616561FA
:101EF000A561E5612562204600F0A4FE2946204642
:101F000001F064F92946204601F08EF938BD00BF82
:101F1000240C0020005C0040D38D801008B51B4BC2
:101F2000DB6913F0200F0AD0184B998CC9B2184BFB
:101F30001868421C1A60034419710A2900D008BDB0
:101F4000134BD3F804120131C3F80412DB79472B89
:101F500005D0562B0ED00E4B00221A60EFE70C492D
:101F6000097A4729F5D10B490B4802F0F3FCFFF73A
:101F700033FBF0E7064B1B7A542BECD1054906489E
:101F800002F0E8FCFFF728FBE5E700BF0044004053
:101F9000D8070020DC070020F009002038B5002019
:101FA000FFF73EF819210846FFF70AF9204A0123F6
:101FB00006CA2048FFF7ECF8FFF742F8282119205D
:101FC000FFF7FEF8FFF756FA1B48FFF795FAD8B16E
:101FD000174A012306CA1948FFF7DAF8FFF730F865
:101FE000002528210846FFF7EBF81348FFF7AEFD60
:101FF000044698B10E4A012306CA1148FFF7C8F8F3
:10200000FFF71EF8281938BD094A012306CA0C48F3
:10201000FFF7BEF8FFF714F80125E2E7044A0123B1
:1020200006CA0648FFF7B4F8FFF70AF8EAE700BF68
:1020300010000020A8B30008700C0020B8B30008FE
:10204000BCB3000870B594B00020FEF7E9FF0A2188
:102050000420FFF7B5F82E4A012306CA2D48FFF7E2
:1020600097F82D4C012394E806002C48FFF790F8D0
:102070000F215320FFF7A4F800231A46284910A87F
:1020800002F07CFE274A012306CA10A8FFF780F859
:1020900001231A460F217320FFF794F9012302222E
:1020A00036210520FFF78EF9012601964FF487733C
:1020B00000935A2304223C210520FFF7CFF8362154
:1020C0000E20FFF77DF8002500952B462A4616497D
:1020D0000BA802F053FE334694E806000BA8FFF766
:1020E00057F836216420FFF76BF829460F48FFF7B1
:1020F00029FA02460E4903A802F040FE334694E84E
:10210000060003A8FFF744F8FEF79AFF14B070BD6D
:1021100008000020E0B3000818000020E8B3000821
:10212000ECB3000810000020F8B30008700C002089
:10213000C0B3000810B586B00446022803D0082CAE
:1021400037D006B010BD02214FF0904000F000FCE7
:1021500030B3FFF723FF28B9FFF774FF214B0222AA
:102160001A60ECE714210420FFF72AF80020FEF79C
:1021700057FF1D4C012394E806001C48FFF708F8A0
:102180001E210420FFF71CF8012394E806001848DC
:10219000FEF7FEFFFEF754FF124B00221A60D0E755
:1021A0000020FEF73DFFFEF74BFF0E4B01221A60A9
:1021B000C5E708214FF0904000F0CAFB0028C0D0CE
:1021C0000C4C01224FF40061204600F0C8FB0022B5
:1021D0004FF40061204600F0C2FB01A8FFF796FC17
:1021E000AFE700BF080D0020100000200CB400086D
:1021F00020B400080010004830B5B9B028252A46A0
:10220000002128A802F0CAFB0024229423942494DD
:102210002594269488222146684602F0BFFB1023AD
:10222000279301232D9360222F9232933393349579
:102230000723359302233693379327A801F012F929
:102240000F2322930323239324942594269404217B
:1022500022A801F023FC40F2C31300930E940F94C4
:10226000149415941694684601F04CFE4FF40070D7
:1022700001F00EF839B030BD00B585B000F0E4F9DA
:10228000FFF7BAFFFFF748FDFFF7E2FDFFF702FE99
:10229000FFF722FE00F01EF900F046F9FFF718FDE7
:1022A000FFF770FB0A4A01AB07CA03C31A80092172
:1022B00001A8FFF7D4FB0121064B19600222092077
:1022C00000F00AFA092000F03BFAFFF7FCFBFEE7FA
:1022D00030B40008080D00207047000082B00A4B9F
:1022E0001A6E42F001021A661A6E02F001020092A2
:1022F000009A9A6D42F080529A659B6D03F080536C
:102300000193019B02B070470010024010B58CB0E1
:1023100000230793089309930A930B930368384AA1
:10232000934207D0374A934226D0374A934246D049
:102330000CB010BD354CE36C43F00203E364E36C76
:1023400003F002030193019BC02307931223089318
:102350000123099303230A9304230B9307A92C4811
:1023600000F012FAA36D43F40013A365A36D03F408
:1023700000130293029BDBE7244CE36C43F002035F
:10238000E364E36C03F002030393039B4FF44063A5
:102390000793122308930123099303230A93042329
:1023A0000B9307A91A4800F0EFF9A36D43F48003DB
:1023B000A365A36D03F480030493049BB8E7134C57
:1023C000E36C43F00403E364E36C03F0040305935C
:1023D000059B0323079312220892012209920A9374
:1023E00004230B9307A90B4800F0CEF9A36D43F427
:1023F0000003A365A36D03F400030693069B97E710
:102400000054004000580040005C004000100240B2
:1024100000040048000800487047FEE7FEE7FEE7BA
:10242000FEE770477047704708B500F01DF908BD1A
:1024300008B5022000F098FA08BD08B54FF4004036
:1024400000F092FA08BD08B5082000F08DFA08BD2A
:1024500008B503460B4A126842B10A4A10680344A1
:102460006A46934206D8074A136008BD054A0649E2
:102470001160F2E702F044FA0C2303604FF0FF30E2
:10248000F3E700BFE0090020980D00200F49D1F8C4
:10249000883043F47003C1F888300D4B1A6842F05D
:1024A00001021A60002098601A6822F0A85222F4F3
:1024B00010221A604FF48052DA601A6822F48022E7
:1024C0001A6098614FF000638B60704700ED00E088
:1024D0000010024000B589B0124BDA6C42F00102E4
:1024E000DA64DA6C02F001020192019ADA6C42F0CD
:1024F0000202DA64DB6C03F002030293029B002306
:1025000007930C23039302230493012305930323CE
:10251000069303A94FF0904000F036F909B05DF83A
:1025200004FB00BF0010024008B50F480F4B0360CA
:102530004FF41653436000238360C3600361042299
:1025400042618361C3610362436202F07EF940B974
:1025500000221146262000F0BFF8262000F0F0F8F7
:1025600008BDFFF7B9FEF3E70C0D00200044004062
:1025700000B589B000230393049305930693079352
:1025800002681C4B9A4202D009B05DF804FB03F5C7
:10259000E6339A6D42F400329A659A6D02F4003285
:1025A0000092009ADA6C42F00102DA64DA6C02F00E
:1025B00001020192019ADA6C42F00202DA64DB6CE9
:1025C00003F002030293029B0C2303930223049360
:1025D00001230593032306930723079303A94FF0D1
:1025E000904000F0D1F8044B1A68136843F02003C0
:1025F0001360C9E7004400400C0D0020104B1B780D
:102600000BB90120704710B504464FF47A70B0FB47
:10261000F3F30C4A1068B0FBF3F000F09FF868B9D0
:102620000F2C01D901200AE0002221464FF0FF3093
:1026300000F052F8024B5C60002000E0012010BD69
:10264000300000202C00002010B5032000F032F8EC
:102650000020FFF7D3FF10B10124204610BD04462F
:10266000FFF73CFEF9E70000034B1B78034A1168B3
:102670000B441360704700BF300000208C0D002019
:10268000014B1868704700BF8C0D002038B5044618
:10269000FFF7F6FF0546B4F1FF3F02D0044B1B786D
:1026A0001C44FFF7EDFF401BA042FAD338BD00BF2A
:1026B00030000020074AD36823F4E0631B041B0C9E
:1026C000000200F4E060184340F0BF6040F40030C6
:1026D000D060704700ED00E030B4174BDB68C3F307
:1026E0000223C3F10704042C28BF04241D1D062D5A
:1026F00018D9033B4FF0FF3505FA04F421EA040131
:10270000994005FA03F322EA0303194300280BDB7F
:102710000901C9B200F1604000F5614080F8001382
:1027200030BC70470023E5E700F00F000901C9B293
:10273000024B1954F4E700BF00ED00E014ED00E097
:10274000002807DB00F01F02400901239340024AE2
:1027500042F82030704700BF00E100E00138B0F1DE
:10276000807F0AD2064B5860064AF02182F8231077
:102770000020986007221A6070470120704700BF50
:1027800010E000E000ED00E0F0B583B000233FE092
:10279000C66A26EA0406C5F3C0049C403443C462FA
:1027A0005FE0062400E00024B4403C430235644E60
:1027B00046F82540634C2568D44304EA05064F6873
:1027C00017F4803F01D042EA05065E4D2E606D6829
:1027D00004EA05064F6817F4003F01D042EA0506F7
:1027E000584D6E60AD6804EA05064F6817F4801F07
:1027F00001D042EA0506534DAE60ED682C404E68AC
:1028000016F4001F01D042EA05044E4AD460013399
:102810000A6832FA03F400F0918001249C402240BF
:10282000F5D04D686E1E012E03D9112D01D0122D49
:1028300012D186685F000325BD4026EA0506CD68F3
:10284000BD4035438560466826EA04064D68C5F3F9
:1028500000159D40354345604D6805F00306032E85
:1028600096D0C5685F000324BC40E44325408E68D1
:10287000BE402E43C6604D68022D01D0122D13D1EB
:10288000DE08083650F826E003F007054FEA850C0D
:102890000F2505FA0CF52EEA050E0D6905FA0CF563
:1028A00045EA0E0540F8265005682C404D6805F0B5
:1028B0000305BD402C4304604C6814F0805FA6D033
:1028C000214C256E45F001052566246E04F00104B7
:1028D0000194019C9D08AE1C194C54F8267003F01D
:1028E0000304A6000F24B44027EA0407B0F1904F78
:1028F0003FF459AF154CA04216D004F58064A042B5
:1029000014D004F58064A04212D004F58064A04283
:1029100010D004F58064A0420ED004F58064A0427B
:102920003FF43FAF07243FE701243DE702243BE7A4
:10293000032439E7042437E7052435E703B0F0BD65
:102940000000014000040140001002400004004863
:102950000369194201D100207047012070470AB96C
:10296000816270478161704708B5054B5B6903421E
:1029700000D108BD024B5861FFF7DCFBF9E700BF4F
:102980000004014003689A6912F0020F01D000228E
:102990009A6203689A6912F0010F03D19A6942F0B2
:1029A00001029A61704770B4039E05686868740DEF
:1029B00004F4806444F07F7444F4583444F47F7425
:1029C00044F0030420EA0400C1F3090141EA024192
:1029D000194331430143696070BC704770B50446C8
:1029E0000D46164603689B6913F0100F1CD0236830
:1029F0009A6912F0200F19D1B5F1FF3FF7D0FFF718
:102A00003FFE801BA84201D8002DF0D1636C43F03B
:102A100020036364202384F84130002384F842308B
:102A200084F84030012020E000201EE01022DA610E
:102A300023682025DD612046FFF7A4FF2268536844
:102A400023F0FF7323F48B3323F4FF7323F001038C
:102A50005360636C43F00403636484F841500023C3
:102A600084F8423084F84030012070BD70B50446CF
:102A70000D46164623689B6913F0020F1DD132469E
:102A800029462046FFF7AAFFC8B9B5F1FF3FF1D0AC
:102A9000FFF7F6FD801BA84201D8002DEAD1636C38
:102AA00043F020036364202384F84130002384F83A
:102AB000423084F84030012000E0002070BD012049
:102AC000FCE7F8B505460F4616461C462B689B6981
:102AD00037EA03030CBF01230023B34218D1B4F13A
:102AE000FF3FF3D0FFF7CCFD069BC01AA04201D8F0
:102AF000002CEBD16B6C43F020036B64202385F832
:102B00004130002385F8423085F84030012000E054
:102B10000020F8BD70B582B0044616461D46184B1D
:102B200000934FF08073EAB2FFF73DFF079A0699D2
:102B30002046FFF79BFFE8B9012D0ED12368F6B2BE
:102B40009E62079B0093069B002280212046FFF790
:102B5000B8FF034678B101230DE02368320A9A6278
:102B6000079A06992046FFF781FF38B92368F6B225
:102B70009E62E6E70123184602B070BD0123FAE722
:102B80000020008070B582B0044616461D46184BE2
:102B900000930023EAB2FFF706FF079A0699204642
:102BA000FFF764FFE8B9012D0ED12368F6B29E62EB
:102BB000079B0093069B002240212046FFF781FFE0
:102BC000034678B101230DE02368320A9A62079A1E
:102BD00006992046FFF74AFF38B92368F6B29E628D
:102BE000E6E70123184602B070BD0123FAE700BFF3
:102BF0000020008070B505460C4616462B689B6980
:102C000013F0200F1AD1324621462846FFF7E6FE80
:102C1000B0B9FFF735FD801BA04201D8002CEDD1E3
:102C20006B6C43F020036B64202385F84130002354
:102C300085F8423085F84030012070BD0020FCE767
:102C40000120FAE7002859D010B5044690F8413029
:102C5000002B43D0242384F841302268136823F0EA
:102C6000010313606368226823F0706313612268B4
:102C7000936823F400439360E368012B33D0A36887
:102C8000226843F404439360E368022B31D0226846
:102C9000536843F0007343F4004353602268D368E1
:102CA00023F40043D360236962691343A169226856
:102CB00043EA0123D360E369216A22680B4313606E
:102CC0002268136843F0010313600020606420232E
:102CD00084F84130206384F8420010BD80F8403011
:102CE000FFF714FBB6E7A368226843F40043936040
:102CF000CAE723684FF400625A60C8E701207047B2
:102D00002DE9F04383B090F84150EDB2202D40F012
:102D1000A48090F84040012C00F0A480984617460B
:102D20000E4604464FF0010980F84090FFF7A8FCDA
:102D30000546009019234A464FF400412046FFF70C
:102D4000C0FE002840F09080212384F841301023F9
:102D500084F84230002363646762A4F82A806363C6
:102D6000638D9BB2FF2B0AD9FF222285424B009331
:102D70004FF0807331462046FFF715FE18E0628D54
:102D800092B222853C4B00934FF00073D2B2314691
:102D90002046FFF708FE0BE0628D92B222850023E9
:102DA00000934FF00073D2B231462046FFF7FBFD8F
:102DB000638D9BB2002B33D02A460A992046FFF739
:102DC00055FE002852D1626A236812789A62636ABB
:102DD00001336362638D013B9BB26385238D013BAD
:102DE0009BB22385628D92B2002AE1D0002BDFD105
:102DF00000950A9B002280212046FFF762FE0028F2
:102E000036D1638D9BB2FF2BC6D9FF2222850023CA
:102E100000934FF0807331462046FFF7C4FDC7E7AB
:102E20002A460A992046FFF7E5FE034610BB2268B2
:102E30002021D1612068426822F0FF7222F48B3297
:102E400022F4FF7222F00102426084F84110002255
:102E500084F8422084F8402000E00223184603B0A2
:102E6000BDE8F0830223F9E70123F7E70123F5E743
:102E70000123F3E70123F1E7002000802DE9F0476B
:102E800082B0BDF82C7090F84150EDB2202D40F08A
:102E9000BA800A9CDCB1D7B190F84040012C00F018
:102EA000B780984691460D4604464FF0010A80F8D7
:102EB00040A0FFF7E5FB06460090192352464FF469
:102EC00000412046FFF7FDFD30B101239CE04FF4A7
:102ED00000734364012397E0212384F841304023A9
:102EE00084F84230002363640A9A626267856363F0
:102EF00001960C9B009343464A4629462046FFF71D
:102F000009FE70B9638D9BB2FF2B0FD9FF2222857A
:102F1000002300934FF0807329462046FFF743FDBE
:102F200021E0002384F8403053466DE0628D92B278
:102F30002285002300934FF00073D2B22946204629
:102F4000FFF731FD0FE0628D92B2228500230093DE
:102F50004FF00073D2B229462046FFF724FD638D5F
:102F60009BB2002B32D032460C992046FFF77EFDF3
:102F700000284FD1626A236812789A62636A01332B
:102F80006362638D013B9BB26385238D013B9BB2E2
:102F90002385628D92B2002AE1D0002BDFD100960A
:102FA0000C9B002280212046FFF78BFDA0BB638D88
:102FB0009BB2FF2BC7D9FF222285002300934FF03D
:102FC000807329462046FFF7EEFCC8E732460C998D
:102FD0002046FFF70FFE034600BB22682021D16187
:102FE0002068426822F0FF7222F48B3222F4FF72D2
:102FF00022F00102426084F84110002284F842204D
:1030000084F8402000E00223184602B0BDE8F087B3
:103010000223F9E70123F7E70123F5E70123F3E7AB
:103020002DE9F04782B0BDF82C7090F84150EDB218
:10303000202D40F0BC800A9CDCB1D7B190F8404014
:10304000012C00F0B980984691460D4604464FF099
:10305000010A80F840A0FFF713FB064600901923F1
:1030600052464FF400412046FFF72BFD30B10123BB
:103070009EE04FF400734364012399E0222384F817
:103080004130402384F84230002363640A9A62622C
:103090006785636301960C9B009343464A46294625
:1030A0002046FFF76FFD70B9638D9BB2FF2B0FD9E0
:1030B000FF222285444B00934FF08073294620461F
:1030C000FFF771FC21E0002384F8403053466FE0A5
:1030D000628D92B222853C4B00934FF00073D2B2C6
:1030E00029462046FFF75FFC0FE0628D92B22285F1
:1030F000002300934FF00073D2B229462046FFF719
:1031000052FC638D9BB2002B34D000960C9B0022A6
:1031100004212046FFF7D5FC00284FD123685A6AC6
:10312000636A1A70636A01336362238D013B9BB249
:103130002385628D013A92B26285628D92B2002A35
:10314000DFD0002BDDD100960C9B00228021204691
:10315000FFF7B7FCA0BB638D9BB2FF2BC5D9FF2245
:103160002285002300934FF0807329462046FFF705
:103170001AFCC6E732460C992046FFF73BFD034692
:1031800000BB22682021D1612068426822F0FF72D2
:1031900022F48B3222F4FF7222F00102426084F8A2
:1031A0004110002284F8422084F8402000E00223ED
:1031B000184602B0BDE8F0870223F9E70123F7E7DC
:1031C0000123F5E70123F3E70024008090F8413064
:1031D000DBB2202B24D190F84030012B22D00123E8
:1031E00080F84030242380F841300268136823F0CF
:1031F000010313600268136823F4805313600268AC
:103200001368194311600268136843F001031360E7
:10321000202380F84130002380F840301846704762
:10322000022070470220704790F84130DBB2202B1B
:1032300022D190F84030012B20D0012380F840307B
:10324000242380F841300268136823F001031360DF
:103250000268136823F4706343EA01211160026875
:10326000136843F001031360202380F841300023EA
:1032700080F840301846704702207047022070479F
:10328000024B186800F4C060704700BF0070004037
:10329000B0F5007F0FD01F4B1B6803F4C063B3F57C
:1032A000806F34D01B4A136823F4C06343F48063F7
:1032B000136000207047174B1B6803F4C063B3F51D
:1032C000007F22D0134A136823F4C06343F40073D1
:1032D0001360114B1A68322303FB02F30F4AA2FB5F
:1032E00003239B0C013300E0013B0A4A526912F4AC
:1032F000806F01D0002BF7D1064B5B6913F4806F10
:1033000001D1002070470320704700207047002043
:10331000704700BF007000402C00002083DE1B437C
:1033200030B583B00546204B9B6D13F0805F0BD00A
:10333000FFF7A6FFB0F5007F17D0802D1FD82DD046
:10334000702D2DD000211BE0174CA36D43F080534E
:10335000A365A36D03F080530193019BFFF790FFDA
:10336000A36D23F08053A365E4E7802D03D9A02D3E
:1033700003D9022104E0002102E0012100E0032141
:103380000A4A136823F007030B431360136803F022
:1033900007038B4206D0012003B030BD0221EFE7C6
:1033A0000121EDE70020F7E7001002400020024075
:1033B000284A9368D26802F0030213F00C030AD083
:1033C0000C2B06D0042B1FD0082B20D00020024647
:1033D00010E0012AF6D11F4A126812F0080F0CD132
:1033E0001C4AD2F89420C2F303221B4951F8222030
:1033F00043B100200C2B0DD07047164A1268C2F35F
:103400000312F2E71046F5E714480022F2E71448E9
:103410000022EFE70F4BDB6803F00303022B15D00C
:10342000032B15D00B4BD868C0F302100130D968BC
:10343000C1F3062102FB01F2B2FBF0F2D868C0F33F
:10344000416001304000B2FBF0F0D5E7034AE9E704
:10345000034AE7E70010024060B300080024F400CC
:1034600000127A00002800F00083F0B583B0044613
:10347000AF4B9D6805F00C05DE6806F00306036897
:1034800013F0100F5BD0E5B10C2D18D0A369002B01
:1034900000F0BC80A64A136843F001031360FFF7F5
:1034A000EFF80746A24B1B6813F0020F40F09B8019
:1034B000FFF7E6F8C01B0228F4D90323E1E2012E4E
:1034C000E4D19B4B1B6813F0020F03D0A369002BC0
:1034D00000F0CE82206A964B1B6813F0080F5CD078
:1034E000934B1B6803F0F00398425DD8904B1A6829
:1034F00042F008021A601A6822F0F002216A0A43B8
:103500001A605A6822F47F42E16942EA01225A6055
:10351000002D61D0FFF74CFF854B9B68C3F303136D
:10352000844AD35C03F01F03D840834B1860834B5D
:103530001868FFF763F80346002840F0A28223686A
:1035400013F0010F00F08180082D75D00C2D71D083
:103550006368B3F5803F00F09780B3F5A02F00F0CB
:103560009980734B1A6822F480321A601A6822F428
:1035700080221A606368002B00F09980FFF780F8C2
:1035800007466B4B1B6813F4003F5ED1FFF778F8DA
:10359000C01B6428F5D9032373E2654BD3F894303C
:1035A0001B0903F0F0039FE7FFF7BAFE002840F085
:1035B00061825F4B1A6842F008021A601A6822F0B2
:1035C000F002216A0A431A605A6822F47F42E169D4
:1035D00042EA01225A609DE7206AFFF7A1FE002817
:1035E00098D001234DE2524B1A6842F008021A604B
:1035F0001A6822F0F002216A0A431A605A6822F41B
:103600007F42E16942EA01225A6098E7484A13681A
:1036100023F001031360FFF733F80746444B1B68A0
:1036200013F0020F8BD0FFF72BF8C01B0228F5D93F
:10363000032326E2032E8BD13D4B1B6813F4003F7E
:1036400003D06368002B00F01782236813F0020F89
:103650004FD0042D3CD00C2D38D0E368002B78D00F
:10366000334A136843F480731360FFF709F8064682
:103670002F4B1B6813F4806F62D1FFF701F8801B9A
:103680000228F5D90323FCE1294A136843F4803367
:1036900013606FE703F18043A3F53C331A6842F4EB
:1036A00080221A601A6842F480321A6062E7FEF7DC
:1036B000E7FF07461E4B1B6813F4003FC5D0FEF71B
:1036C000DFFFC01B6428F5D90323DAE1022EC4D141
:1036D000174B1B6813F4806F03D0E368002B00F0D6
:1036E000CD81134A536823F0F853216943EA0163FB
:1036F0005360236813F0080F56D06369002B3CD049
:103700000B4AD2F8943043F00103C2F89430FEF72C
:10371000B7FF0646064BD3F8943013F0020F43D19F
:10372000FEF7AEFF801B0228F4D90323A9E100BFF6
:103730000010024090B300082C000020340000204C
:10374000B84A536823F0F853216943EA0163536090
:10375000CFE7B44A136823F480731360FEF790FF39
:103760000646B04B1B6813F4806FC2D0FEF788FF8B
:10377000801B0228F5D9032383E1AA4AD2F89430AA
:1037800023F00103C2F89430FEF77AFF0646A54BFA
:10379000D3F8943013F0020F06D0FEF771FF801BB0
:1037A0000228F4D903236CE1236813F0040F7AD0C4
:1037B0009C4B9B6D13F0805F0BD19A4B9A6D42F03E
:1037C00080529A659B6D03F080530193019B012603
:1037D00000E00026944B1B6813F4807F26D0A3687A
:1037E000012B37D0052B3DD08E4BD3F8902022F003
:1037F0000102C3F89020D3F8902022F00402C3F80D
:103800009020A368002B3BD0FEF73AFF0746854B7C
:10381000D3F8903013F0020F44D1FEF731FFC01BF4
:1038200041F288339842F2D903232AE17E4A136891
:1038300043F480731360FEF723FF07467A4B1B683F
:1038400013F4807FCBD1FEF71BFFC01B0228F5D9F4
:10385000032316E1734AD2F8903043F00103C2F813
:103860009030CEE76F4BD3F8902042F00402C3F8BB
:103870009020D3F8902042F00102C3F89020C0E7D6
:10388000FEF7FEFE0746674BD3F8903013F0020FA9
:1038900008D0FEF7F5FEC01B41F288339842F2D9FA
:1038A0000323EEE06EBBA36A002B00F0E980022B3D
:1038B0002DD00C2D00F0EE805A4B1A6822F0807249
:1038C0001A601B6813F0205F04D1564AD36823F0B6
:1038D0000303D360534AD36823F0887323F48033FF
:1038E000D360FEF7CDFE04464E4B1B6813F0007FFD
:1038F00000F0B980FEF7C4FE001B0228F4D90323B0
:10390000BFE0484A936D23F080539365CBE7454B66
:10391000DB6803F00301E26A91420FD00C2D00F046
:10392000B380404B1B6813F0806F40F0AF803D4B7D
:103930001B6813F0805F2DD00123A2E003F070021A
:10394000216B0139B2EB011FE8D103F4FE42616B38
:10395000B2EB012FE2D103F40031A26B073A18BF9A
:1039600001229142DAD103F4C001E26B5208013A1C
:10397000B1EB425FD2D103F0C063226C5208013A2E
:10398000B3EB426FCAD1274B1B6813F0007F51D0B5
:10399000002376E0234A136823F080731360FEF758
:1039A0006FFE05461F4B1B6813F0007F06D0FEF725
:1039B00067FE401B0228F5D9032362E0194AD36849
:1039C0001A491940E36A206B013843EA0013606B1F
:1039D00043EA0023E06B4008013843EA4053206C7F
:1039E0004008013843EA4063A06B000943EA4043C2
:1039F0000B43D360136843F080731360D36843F0C4
:103A00008073D360FEF73CFE0446064B1B6813F040
:103A1000007F0DD1FEF734FE001B0228F5D90323E9
:103A20002FE000BF00100240007000408C809DF924
:103A3000002326E0184B1A6842F080721A60DA6898
:103A400042F08072DA60FEF71BFE044604E0FEF7E7
:103A500017FE001B02281BD80F4B1B6813F0007FBA
:103A6000F5D000230DE000230BE00123184670473A
:103A7000012306E0012304E0012302E0012300E02A
:103A80000023184603B0F0BD0123FAE70123F8E74D
:103A90000323F6E70123F4E700100240002800F0BA
:103AA0009B8070B504464E4B1B6803F007038B42A6
:103AB0000CD24B4A136823F007030B4313601368BF
:103AC00003F007038B4201D0012070BD0D4623682F
:103AD00013F0010F39D06368032B09D0022B26D0D5
:103AE00063BB404A126812F0020F06D10120ECE7D6
:103AF0003C4A126812F0007F70D03A498A6822F07E
:103B0000030213438B60FEF7BBFD0646354B9B68F3
:103B100003F00C036268B3EB820F16D0FEF7B0FD22
:103B2000801B41F288339842F0D90320CDE72D4A1B
:103B3000126812F4003FE0D10120C6E7294A12685A
:103B400012F4806FD9D10120BFE7236813F0020F70
:103B500006D0244A936823F0F003A1680B439360D6
:103B60001F4B1B6803F00703AB420CD91C4A1368B8
:103B700023F007032B431360136803F00703AB42E2
:103B800001D00120A1E7236813F0040F06D0154AE5
:103B9000936823F4E063E1680B439360236813F0B8
:103BA000080F07D00F4A936823F46053216943EA52
:103BB000C1039360FFF7FCFB0A4B9B68C3F303133D
:103BC000094AD35C03F01F03D840084B1860084B28
:103BD0001868FEF713FD78E701207047012074E7AD
:103BE000002002400010024090B300082C0000208A
:103BF00034000020014B1868704700BF2C000020E3
:103C000008B5FFF7F7FF054B9B68C3F30223044A8F
:103C1000D35C03F01F03D84008BD00BF0010024072
:103C2000A0B3000808B5FFF7E5FF054B9B68C3F399
:103C3000C223044AD35C03F01F03D84008BD00BF71
:103C400000100240A0B30008F8B55A4BDB6813F02F
:103C5000030F18D0574BDB6803F00303026893424D
:103C600002D001252846F8BD002A00F0A080514B63
:103C7000DB68C3F3021301334268934201D001258C
:103C8000F0E700251AE00368022B59D0032B5ED021
:103C9000012B01D001250FE0464A126812F0020FF5
:103CA00061D0444DEA6822F073024468013C43EA63
:103CB00004131343EB600025002DD3D10F460446B7
:103CC0003C4A136823F080631360FEF7D9FC064674
:103CD000384B1B6813F0006F05D0FEF7D1FC801B3A
:103CE0000228F5D90325002DBCD1002F3DD1314943
:103CF0000B6923F41F3323F44073A068E2681209B0
:103D0000520442EA002213430B612A4A136843F02B
:103D100080631360FEF7B4FC0646264B1B6813F065
:103D2000006F05D1FEF7ACFC801B0228F5D90325F6
:103D3000002D97D11F4A1369A1690B43136191E7C5
:103D40001C4A126812F4806FABD10125B4E7194AFE
:103D5000126812F4003FA4D1164A126812F4802FA0
:103D60009FD10125A8E70125A6E7012F0FD0114813
:103D7000026922F0C06222F4FE42A16863695B0816
:103D8000013B5B0643EA012313430361BDE7094896
:103D9000026922F4C00222F4FE42A16823695B0892
:103DA000013B5B0543EA012313430361ADE70125B2
:103DB00058E700BF00100240F8B5514BDB6813F024
:103DC000030F18D04E4BDB6803F0030302689342E5
:103DD00002D001252846F8BD002A00F08E80484B0D
:103DE000DB68C3F3021301334268934201D001251B
:103DF000F0E700251AE00368022B59D0032B5ED0B0
:103E0000012B01D001250FE03D4A126812F0020F8C
:103E100061D03B4DEA6822F073024468013C43EAFA
:103E200004131343EB600025002DD3D10F46044645
:103E3000334A136823F080531360FEF721FC0646D3
:103E40002F4B1B6813F0005F05D0FEF719FC801B99
:103E50000228F5D90325002DBCD1002F3DD12849DA
:103E60004B6923F41F3323F44073A068E2681209FE
:103E7000520442EA002213434B61214A136843F083
:103E800080531360FEF7FCFB06461D4B1B6813F0C6
:103E9000005F05D1FEF7F4FB801B0228F5D903254E
:103EA000002D97D1164A536961690B43536191E71D
:103EB000134A126812F4806FABD10125B4E7104A9F
:103EC000126812F4003FA4D10D4A126812F4802F38
:103ED0009FD10125A8E70125A6E70948426922F0FC
:103EE000C06222F4FE42A16823695B08013B5B06C5
:103EF00043EA012313434361BFE701256AE700BF9B
:103F0000001002402DE9F04182B00446036813F42A
:103F1000006F2FD0436EB3F5800F25D008D9B3F5CD
:103F2000000F10D0B3F5400F40F09980002610E04C
:103F3000002B40F0948000210430FFF785FE0646F8
:103F40003EB1374618E05E4AD36843F48033D3600D
:103F500000265B4AD2F8883023F44003616E0B439D
:103F6000C2F88830002707E000212030FFF724FF47
:103F70000646E5E700273E46236813F4805F15D028
:103F8000A36EB3F1807F7AD06CD9B3F1007F70D08B
:103F9000B3F1407F7AD1002E7BD1494AD2F88830E4
:103FA00023F04073A16E0B43C2F88830236813F4EA
:103FB000003F00F08E80424B9B6D13F0805F6AD112
:103FC0003F4B9A6D42F080529A659B6D03F080538F
:103FD0000193019B4FF001083A4A136843F4807340
:103FE0001360FEF74DFB0546364B1B6813F4807FCC
:103FF00005D1FEF745FB401B0228F5D90326002E0C
:1040000062D12F4BD3F8903013F4407316D0D4F80C
:1040100084209A4212D02A4AD2F8903023F4407376
:10402000D2F8901041F48031C2F89010D2F890107C
:1040300021F48031C2F89010C2F8903013F0010FD3
:104040002CD1002E40F043811D4AD2F8903023F449
:104050004073D4F884100B43C2F8903035E0012748
:104060003E4689E793B90021201DFFF7EDFD064686
:1040700091E7134AD36843F48033D3608BE7002180
:1040800004F12000FFF798FE064684E701273E462C
:104090008CE737468AE74FF000089DE7FEF7F0FA15
:1040A0000546074BD3F8903013F0020FC9D1FEF745
:1040B000E7FA401B41F288339842F2D90326C0E761
:1040C00000100240007000403746B8F1000F40F089
:1040D0000081236813F0010F08D09D4AD2F8883080
:1040E00023F00303A16B0B43C2F88830236813F05D
:1040F000020F08D0964AD2F8883023F00C03E16B07
:104100000B43C2F88830236813F0040F08D0904A9C
:10411000D2F8883023F03003216C0B43C2F888308A
:10412000236813F0080F08D0894AD2F8883023F0AA
:10413000C003616C0B43C2F88830236813F0100F82
:1041400008D0834AD2F8883023F44073A16C0B4323
:10415000C2F88830236813F0200F08D07C4AD2F8C8
:10416000883023F44063E16C0B43C2F88830236845
:1041700013F4007F08D0764AD2F8883023F4402325
:10418000E16D0B43C2F88830236813F4806F08D0C8
:104190006F4AD2F8883023F44013216E0B43C2F8E3
:1041A0008830236813F0400F08D0694AD2F888306D
:1041B00023F44053216D0B43C2F88830236813F079
:1041C000800F08D0624AD2F8883023F44043616DF2
:1041D0000B43C2F88830236813F4807F08D05C4A10
:1041E000D2F8883023F44033A16D0B43C2F88830F5
:1041F000236813F4005F0FD0554AD2F8883023F0BB
:104200004063E16E0B43C2F88830E36EB3F1006F98
:1042100065D0B3F1806F67D0236813F4002F0FD0FF
:104220004B4AD2F8883023F04063216F0B43C2F829
:104230008830236FB3F1006F5ED0B3F1806F60D030
:10424000236813F4802F0FD0414AD2F8883023F02E
:104250004063616F0B43C2F88830636FB3F1006F46
:1042600057D0B3F1806F59D0236813F4804F0FD02B
:10427000374AD2F8883023F04053A16F0B43C2F87D
:104280008830A36FB3F1805F50D0B3F1005F55D099
:10429000236813F4004F08D02D4AD2F8883023F059
:1042A0008043E16F0B43C2F88830236813F4803FEA
:1042B00009D0274AD2F8883023F00043D4F8801080
:1042C0000B43C2F88830384602B0BDE8F08137466B
:1042D000FBE61F4A936D23F080539365F9E6D3689C
:1042E00043F48013D36097E70121201DFFF7ACFC56
:1042F000002891D007468FE7D36843F48013D3603A
:104300009EE70121201DFFF79FFC002898D007465B
:1043100096E7D36843F48013D360A5E70121201DFD
:10432000FFF792FC00289FD007469DE70221201D41
:10433000FFF78AFC0028ABD00746A9E7022104F169
:104340002000FFF739FD0028A2D00746A0E700BFF4
:10435000001002402DE9D8480446016883680269CC
:10436000134342691343C269134308689B4A0240DE
:1043700013430B602268536823F44053E1680B43F6
:104380005360A1692268964B9A4201D0236A19436F
:10439000936823F430630B4393602368914A9342FC
:1043A00027D0914A934238D0904A93424ED0904AB7
:1043B000934261D08F4A934274D0894A934200F06D
:1043C0008A80102286498B4200F0AA80E369B3F507
:1043D000004F00F0D880082A00F24581DFE812F093
:1043E00015012C01130143012F0143014301430136
:1043F000320102F55842D2F8882002F00302032A63
:1044000009D8DFE802F0020481060122DAE704227B
:10441000D8E70822D6E71022D4E702F5E632D2F830
:10442000882002F00C020C2A0ED8DFE802F0070DFB
:104430000D0D090D0D0D6F0D0D0D0B000022C1E7C7
:104440000422BFE70822BDE71022BBE702F5E432F1
:10445000D2F8882002F03002102A09D005D9202A8B
:1044600056D0302A06D10822ACE71AB90022A9E7B3
:104470000422A7E71022A5E702F5E232D2F888204D
:1044800002F0C002402A09D005D9802A42D0C02AB1
:1044900006D1082296E71AB9002293E7042291E791
:1044A00010228FE702F5E032D2F8882002F4407241
:1044B000B2F5807F0BD007D9B2F5007F2CD0B2F5D2
:1044C000407F06D108227DE71AB900227AE704224C
:1044D00078E7102276E702F5C832D2F8882002F495
:1044E0004062B2F5806F0BD007D9B2F5006F15D0DE
:1044F000B2F5406F06D1082264E71AB9002261E7DD
:1045000004225FE710225DE702225BE7022259E7FF
:10451000022257E7022255E7022253E7022251E71F
:10452000082A00F29280DFE802F0089010900D90C7
:10453000909005004FF4004008E0FFF761FB28B9B8
:10454000002074E0FEF734FFF9E72B48626802EBC5
:10455000420383427BD8B0EB023F7AD80023070E98
:104560000602500816EB000B47F1000C5846614656
:10457000FCF78AFBA0F54072204B9A426BD8236867
:10458000D860002053E0082A67D8DFE802F007214E
:104590000566246666663900174803E0FFF730FBBE
:1045A00000285CD06268530803EB4003B3FBF2F3CE
:1045B0009BB2A3F110014FF6EF72914251D823F054
:1045C0000F02C3F3420313432268D36000202EE09E
:1045D000FFF728FBE4E7FEF7EBFEE1E7F369FFEF07
:1045E0000080004000380140004400400048004086
:1045F000004C0040005000400024F400FFFC0F007D
:104600004FF40040CEE71B4802E0FFF7F9FA60B331
:10461000636800EB5300B0FBF3F080B2A0F110022E
:104620004FF6EF739A4222D82368D8600020002307
:1046300023666366BDE8D888FFF7F4FAE7E7FEF77C
:10464000B7FEE4E74FF40040E2E70120EFE7012086
:10465000EDE70120EBE70120E9E70120E7E7002093
:10466000E5E70120E3E70120E1E70020DFE70120A3
:10467000DDE700BF0024F400436A13F0010F06D009
:104680000268536823F40033816A0B435360436A22
:1046900013F0020F06D00268536823F48033C16A16
:1046A0000B435360436A13F0040F06D0026853684B
:1046B00023F48023016B0B435360436A13F0080F0C
:1046C00006D00268536823F40043416B0B435360E8
:1046D000436A13F0100F06D00268936823F48053E6
:1046E000816B0B439360436A13F0200F06D002687E
:1046F000936823F40053C16B0B439360436A13F038
:10470000400F0AD00268536823F48013016C0B43F6
:104710005360036CB3F5801F0BD0436A13F0800F16
:1047200006D00268536823F40023816C0B43536066
:1047300070470268536823F4C003416C0B43536015
:10474000EBE72DE9F04104460F4616469846069DD4
:104750002368DB6937EA03030CBF01230023B3425C
:104760003AD1B5F1FF3FF3D0FDF78AFFA0EB080087
:10477000A8421FD8F5B123681A6812F0040FE7D0D9
:10478000DA6912F4006FE3D04FF400621A62226813
:10479000136823F4D07313602268936823F0010335
:1047A000936020236367A367E367002384F8703076
:1047B000032012E02268136823F4D0731360226888
:1047C000936823F00103936020236367A3670023AA
:1047D00084F87030032000E00020BDE8F08130B59F
:1047E00083B004460023C367FDF74AFF05462368EC
:1047F0001B6813F0080F0CD123681B6813F0040F1B
:1048000015D120236367A367002084F8700003B0EC
:1048100030BD6FF07E430093034600224FF4001139
:104820002046FFF78EFF0028E6D00320EFE76FF069
:104830007E4300932B4600224FF480012046FFF771
:1048400080FF0028DDD00320E1E768B310B50446FF
:10485000436F03B3242363672268136823F00103C3
:1048600013602046FFF776FD012813D0636ABBB9B9
:104870002268536823F4904353602268936823F0BE
:104880002A0393602268136843F0010313602046F3
:10489000FFF7A5FF10BD80F87030FDF769FED9E77E
:1048A0002046FFF7E9FEE3E701207047DFF834D048
:1048B000FDF7ECFD002103E00B4B5B584350043146
:1048C0000A480B4B42189A42F6D30A4A02E00023E8
:1048D00042F8043B084B9A42F9D300F017F8FDF771
:1048E000CBFCFEE700800120E8B8000800000020B3
:1048F0001002002010020020940D0020FEE70000AE
:10490000014B1868704700BF3800002070B50D4E8D
:104910000D4CA41BA4100025A54209D10B4E0C4C34
:1049200003F004FEA41BA4100025A54205D170BD10
:1049300056F8253098470135EEE756F82530984768
:104940000135F2E7D8B80008D8B80008D8B8000890
:10495000DCB8000810B5431E0A44914200D110BDD6
:1049600011F8014B03F8014FF7E7884210B501EB4E
:10497000020307D8421E99420AD011F8014B02F8EF
:10498000014FF8E78342F5D98118D21AD34200D1FA
:1049900010BD13F8014D01F8014DF7E7024403463D
:1049A000934200D1704703F8011BF9E72DE9F04F5E
:1049B0009A468B6816465A1EB2F5AE7F87B083BF03
:1049C0006FF4AE729B180193002386BF40F25D1313
:1049D0008B6001930B6888464FF0000B43F4F06343
:1049E00048F81C3BCDE903BB07460C4645465A46F2
:1049F000D946CDF808B0A16881B133681B78492B3E
:104A000071D04DD8392B40D8312B80F088802D2B98
:104A100000F0908015D82B2B00F08C80B9F1000F9E
:104A200003D0236823F480732360013A012A00F243
:104A3000EA80454500F2DC800126304607B0BDE83B
:104A4000F08F2E2B00F09F80302BE7D1206810F4E0
:104A5000807F64D0019B20F08000206009F1010973
:104A60001BB1013B01310193A160A368013BA3602D
:104A70002369013323617368013B002B736040F3AA
:104A8000AC80336801333360B5E7452B00F0858097
:104A9000462B6AD0412BC1D1012ABFD1022246E068
:104AA000652B7AD018D8542B66D011D84E2BB5D19F
:104AB000002A46D1B9F1000F45D1216801F4E06028
:104AC000B0F5E06F3FD121F4F061216001222EE0CA
:104AD000592B1ED0612BDEE76E2BE9D015D8662B43
:104AE00043D0692B9AD1BBF1000F38D1B9F1000F37
:104AF00097D1216801F4E060B0F5E06F95D121F421
:104B0000F06121604FF0010B11E0742B34D0792B50
:104B100084D1BBF1070F81D14FF0080B07E012EBF6
:104B20000B0F7FF47BAF216821F4C07121602B70E3
:104B300001359AE7216808067FF570AF21F0800102
:104B4000F4E7022A47D0BBF1010F03D0BBF1040FF9
:104B50007FF464AF0BF1010B5FFA8BFBE7E7BBF16E
:104B6000030FF7D0BBF1050FF2E7BBF1020F7FF4A3
:104B700055AF4FF0030BDAE7BBF1060F7FF44EAFF2
:104B80004FF0070BD3E7216888057FF547AF21F485
:104B900020712160CDF80890C9E7216801F4A06078
:104BA000B0F5806F06D048057FF538AFB9F1000F3A
:104BB0003FF43BAF880558BF029821F4F06158BF1D
:104BC000A9EB000041F4C07158BFCDE90305216095
:104BD0004FF00009ABE70322A9E7D4F88031059232
:104BE000314638469847059A00283FF404AF15E748
:104BF000D4F87C3115F8011D3246384698472369B0
:104C0000013B236115E70BF1FF33062B0AD8BBF1FB
:104C1000020F68D9ABF1030B5FFA8BFBA5EB0B0B13
:104C20005D454BD12368DA051FD55B0568D415F8BF
:104C3000011C2369652903F1FF3305F1FF3B236163
:104C40000DD045290BD0D4F87C31324638469847F0
:104C5000236915F8021C013BA5F1020B2361D4F86E
:104C60007C313246384698475D46266816F0100675
:104C70007AD12E70236803F4C063B3F5806F42D1FC
:104C8000029BA9EB03035A42002B49D10022414663
:104C9000384600F0A5FE2568DAF8003015F0020F5E
:104CA00003F1040259EC108BCAF8002043D01B68B2
:104CB000C3E90089E3680133E360BEE6D4F87C31E0
:104CC00015F8011D3246384698472369013B236198
:104CD000A6E7D4F87C3115F8011D324638469847CE
:104CE0002369013B23614545F3D8A5E6D4F87C311F
:104CF00015F8011D3246384698472369013B236168
:104D00004545F3D898E6039B002BBFD004990A23AE
:104D100032460131384600F0EFFE039B049DC21A73
:104D200004F26F139D4228BF04F5B7750F4928465A
:104D300000F024F8AAE715F00405B8D11F6810EEBA
:104D4000102A4B4610EE100A4946FBF7EFFE28B139
:104D5000284600F00DF887ED000AABE740464946CB
:104D6000FBF742FF3860A5E7002666E63CB4000882
:104D70009FED010A704700BF0000C07F0EB400B570
:104D80009CB01DAB029006906FF00041094807915E
:104D90000491094953F8042B05910068019302A975
:104DA00001F0BAFE029B00221A701CB05DF804EB01
:104DB00003B07047380000200802FFFF70B50446BA
:104DC0000D4645EC104B164601F0B0FC51EC100BB3
:104DD0007EB1C5F30A53C3F16B03002B09DD1B053C
:104DE00003F17F55002405F5401522462B46FBF7BD
:104DF00003FC70BD000000002DE9F04F1F46A1B07C
:104E00000023814638460E4617921C9301F0AFF9F5
:104E100080460068FBF7DCF94FF0000A04464FF0CB
:104E2000000B1B961B9B1A780D2A32D8092A36D202
:104E3000002A3ED000230D931B9D2B78302B40F091
:104E4000AC806B78582B01D0782B67D10D9B0193E8
:104E50001CAB009302971DAB884A1BA9484600F083
:104E6000ACFE10F00704064605D0062C2BD1013508
:104E700000231B950D93179B002B40F09A850D9BEB
:104E8000E3B152460BF1004343EC102B21B0BDE8D7
:104E9000F08F2B2A15D02D2A04D0202ACAD1013315
:104EA0001B93BFE701220D925A1C1B925B78002BCB
:104EB000C2D1179B1B96002B40F0798552465B466A
:104EC000E2E70022EFE71C9A3AB135211EA801F073
:104ED00025FD1C99484601F092F9013C042C06D8A6
:104EE000DFE804F00A0314170A00DDE91EAB3007FF
:104EF000C1D54BF0004BBEE7DDE91EA31D9A23F49C
:104F0000801302F2334243EA025BF0E7DFF870B14C
:104F1000EDE76FF0004B4FF0FF3AE8E71B9B5A1CA0
:104F20001B925B78302BF9D0002BA4D001230025F5
:104F300006931B9B0893079505950A221B980778F3
:104F4000A7F13003D9B2092929D92246D8F800108F
:104F500002F072F8002831D00020059C04903B46F6
:104F60000246652B01D0452B14D124B910B9069BFC
:104F7000002B9ED000241B9E731C1B9373782B2B3D
:104F800078D02D2B70D04FF0000CA3F13007092FF3
:104F90007CD91B964FF0000E9AE00023C7E70599D5
:104FA0000829DDBF079902FB0133079302FB053592
:104FB000059B0130013305931B90BFE71B9B1A191A
:104FC0001B92059A1B5D002A37D0059C0246A3F16F
:104FD0003001092913D901210491C2E71B9B5A1CF6
:104FE0001B925B780130302BF8D0A3F13102082AF4
:104FF00000F2E4841B9A0892024600200446B3F1B2
:10500000300E00F1010112D00A4400EB040C2146DD
:105010000A278C4513D12118082904F101040444FE
:1050200019DC079B0A2101FB03E3079300211B9B6B
:10503000581C1B905B780846C9E70598D3E70829F8
:1050400001F1010103DC079B7B430793E1E7102992
:10505000D8BF7D43DDE7102CDCBF0A2101FB05E54D
:10506000E4E70123049381E74FF0010CB31C1B9389
:10507000B3788AE74FF0000CF8E700BF50B400089F
:105080000000F07F1B9B5F1C1B975B78302BF9D0D7
:10509000A3F13107082F3FF67DAFA3F1300E1B9B24
:1050A0000A931B9B5F1C1B975B78A3F13008B8F138
:1050B000090F37D90A997F1A082F44F61F6737DC82
:1050C000BE45A8BFBE46BCF1000F01D0CEF1000E18
:1050D000002C51D100287FF4CEAE069A002A7FF42E
:1050E000CAAE049A002A7FF4E4AE4E2B27D021DC0E
:1050F000492B7FF4DEAEA0491BA800F091FF0028E9
:105100003FF4D7AE1B9B9D49013B1BA81B9300F0AE
:1051100087FF10B91B9B01331B93DFF874B24FF06C
:10512000000AA8E60A2101FB0E3EAEF1300EB8E7F8
:10513000BE46C8E7692BDED06E2B7FF4BAAE90492D
:105140001BA800F06DFF00283FF4B3AE1B9B1B783B
:10515000282B0ED11EAA8B491BA800F075FF05282D
:1051600007D11F9BDDF878A043F0FF4B4BF4E00B19
:1051700081E6DFF824B2D2E7AEEB02030693059B8B
:105180000798002B08BF2346102C0593A046A8BF04
:105190004FF01008FBF7B6F9092C82468B4613DC5A
:1051A000069B002B3FF467AE069B7ADD162B61DC75
:1051B000754A02EBC30EDEE9000152465B46FBF77F
:1051C0001BFA82468B4656E66F4B03EBC80353E946
:1051D0001223FBF711FA064628460F46FBF792F911
:1051E00002460B4630463946FBF750F80F2C8246F4
:1051F0008B46D5DD069BA4EB08089844B8F1000F58
:1052000040F3968018F00F030AD05F4901EBC30109
:1052100052465B46D1E90001FBF7EEF982468B4628
:1052200038F00F0873D0B8F59A7F47DD0024A04608
:10523000079405942223DFF858B1C9F800304FF0E5
:10524000000A079B002B3FF416AE1C99484600F05D
:10525000D6FF0599484600F0D2FF4146484600F087
:10526000CEFF0799484600F0CAFF2146484600F0A5
:10527000C6FF00E6069AC4F125039342BADB424D0D
:10528000C4F10F0405EBC40152465B46D1E90001AD
:10529000FBF7B2F9069B1C1B05EBC405D5E90023FF
:1052A0008DE713F1160FA5DB374AA2EBC302D2E953
:1052B000002350465946FBF7C9FA82E70023334ED4
:1052C0004FEA2818504659461D46B8F1010F21DC17
:1052D0000BB182468B462D4BABF1547B03EBC505DE
:1052E00052465B46D5E90001FBF786F9284B0A4692
:1052F0000B4028498B42824698D8A1F580118B42F9
:1053000086BFDFF898B04FF0FF3A02F1547B0023DC
:10531000049377E018F0010F06D006EBC503D3E93C
:105320000023FBF769F9012301354FEA6808CCE750
:10533000EDD0C8F1000818F00F020AD0124B03EBB1
:10534000C20350465946D3E90023FBF77FFA824651
:105350008B465FEA2818DAD0B8F11F0F20DD002451
:10536000A0460794059422234FF0000A4FF0000B4B
:10537000C9F8003065E700BF41B4000844B4000834
:105380004AB4000864B40008D8B40008B0B40008F7
:105390000000F07F0000A07C0000F8FFFFFFEF7F1F
:1053A00018F0100318BF6A23A04D049350465946C5
:1053B0000023B8F1000F00F30A810BB182468B463F
:1053C000049BBBB1CBF30A53C3F16B03002B5946CB
:1053D00010DD1F2B40F30781342BDEBF203B4FF045
:1053E000FF3202FA03F34FF0000ACCBF4FF05C7BB0
:1053F00003EA010B0022002350465946FBF764FBE9
:105400000028ACD1079B0093059A0899234648468B
:1054100000F047FF079000283FF408AF069A069B6C
:10542000002AC3F10003A8BF00230E93002422EA40
:10543000E2731693A046079B4846596800F0ABFEFE
:10544000059000283FF4F6AE079B1A69023203F17B
:105450000C0192000C30FFF77DFA1EAA1DA94BEC3F
:1054600010AB4846CDE908AB01F0D6F91C900028F6
:105470003FF4E0AE0121484600F09FFF804600283F
:105480003FF4D8AE1D9E1E9A002EABBF0E9B169BFE
:10549000169D0E9FACBFF7189D1B049BF61A164471
:1054A000634B013E9E42C2F1360280F2AF809B1BED
:1054B0001F2BA2EB03024FF0010100F39B8001FAC6
:1054C00003F30F9300230A93BE18049BB7421544BD
:1054D0001D443B46A8BF3346AB42A8BF2B46002B1A
:1054E000C2BFF61AED1AFF1A0E9BBBB141461A460F
:1054F000484601F001F8804600283FF49BAE014683
:105500001C9A484600F062FF0C9000283FF492AECF
:105510001C99484600F073FE0C9B1C93002E7ADC0D
:10552000069B002B08DD169A0599484600F0E4FF1B
:10553000059000283FF47EAE002D08DD2A4605992F
:10554000484601F027F8059000283FF473AE002F7D
:1055500008DD41463A46484601F01CF880460028DE
:105560003FF468AE059A1C99484601F081F804465C
:1055700000283FF45FAEC3680C930023C36041462C
:1055800001F05CF8002855DA0C9BE3B9BAF1000F82
:1055900019D1CBF31303B3B92BF000431B0D1B053B
:1055A000B3F1D66F0FD9636913B92369012B0ADDF3
:1055B00021460122484600F0EDFF4146044601F035
:1055C0003DF8002867DC049B002B71D13DE618F004
:1055D000010F04D0D5E90023FBF70EF801234FEAB1
:1055E00068080835E5E64FF0FF3202FA03F303EAF4
:1055F0000A0AFFE6C6F17F4606F57F0606F57B46FA
:10560000E23601FA06F30A930F915DE700230A934D
:1056100001230F9358E732461C99484600F0BAFF21
:105620001C9000287FF47CAF04E600BF78B400082B
:1056300002FCFFFF5D4640F086800C9ACBF313031B
:105640002AB3AF4A934253D1049B5046D3B1AD4ADB
:105650002A40B2F1D46F4FF0FF3116D8120DC2F1CB
:105660006B0301FA03F3984242D1A74B9D4202D14A
:1056700001303FF4DFADA34B2B4003F5801B4FF00F
:10568000000AA0E74FF0FF33EDE70B46EBE77BBBEB
:10569000BAF1000F2CD104999A4A5B46F1B102EAA3
:1056A0000B01B1F1D66F19DCB1F15C7F7FF75BAE16
:1056B000964A0023CDE9143250465946DDE91423B9
:1056C000FAF79AFF82468B4600297FF4BEAD002888
:1056D0007FF4BBAD2223C9F80030B6E51340A3F533
:1056E00080136FEA135B6FEA0B5B4FF0FF3A6AE7D8
:1056F0000A9B93B12B423FF466AF0C9B049A504631
:10570000594673B1FFF75AFB02460B46DDE9080123
:10571000FAF7BCFD82468B4655E70F9B13EA0A0F4A
:10572000E9E7FFF74BFB02460B46DDE90801FAF714
:10573000ABFD0022002382468B46FBF7C5F900280B
:105740007FF411AE3FE74146204601F0B4F857EC34
:10575000106B00224FF0804310EE100A3946FBF721
:10576000C7F9002877D00C9B002B4AD0684B002249
:10577000CDE90A23664F0026624B2B400F930F9A08
:10578000644B9A4240F0CE80DDE90823DDE90A014E
:10579000A5F1547B4BEC10ABCDE91423CDE90A0104
:1057A00000F0C4FFDDE90A0153EC102BFAF724FFE7
:1057B00052465B46FAF76AFD0B465249564A194073
:1057C000914282465BD9099B02F15472934203D104
:1057D000089B01333FF42EADDFF82CB14FF0FF3AB8
:1057E0001C99484600F00BFD0599484600F007FD5E
:1057F0004146484600F003FD2146484600F0FFFCC4
:1058000019E6BAF1000F1AD1CBF31303EBB900225A
:105810003F4B30463946FBF761F9C8B93046394647
:1058200000223E4BFAF7E8FE06460F4607F100431A
:1058300018961993DDE91823CDE90A239CE7BAF1FC
:10584000010F02D1002D3FF48EAD0022344B8FE7C3
:105850000026324FEAE7314B304639460022FAF74C
:10586000CBFE0C9B06460F4633B901F10043109066
:105870001193DDE91023DFE7CDE91067F9E703F1C4
:10588000547B049B002BABD12BF000431B0D0F9AD4
:105890001B059A425D46A3D139463046FBF75CF9B9
:1058A000FAF740FE0B46024639463046FAF7ECFC62
:1058B0000C9B06460F4633B9BAF1000F03D1CBF368
:1058C0001305002D6DD00AA3D3E9002330463946D5
:1058D000FBF704F900287FF4B8AC07A3D3E9002351
:1058E00030463946FBF718F900283FF479AFACE4AD
:1058F0009535A094FFFFDF3F35E5AF350000E03F71
:10590000FFFF0F000000F07FFFFFEF7F0000503926
:105910000000F03F0000E07FFFFF9F7C0000E03FC1
:105920000000F0BF049B33B30F9BB3F1D46F22D8B8
:1059300027A3D3E9002330463946FBF7D9F8A0B1B5
:1059400039463046FBF730F9002808BF0120FAF746
:10595000D9FD0C9B06460F4603BB01F10043129094
:105960001393DDE91223CDE90A230B9B0F9A03F170
:10597000D6639B1A0B939DED080BDDE90AAB00F093
:10598000D5FE504653EC102B5946FAF735FEDDE9AB
:105990000823FAF77BFC82468B4672E7CDE9126753
:1059A000DFE70DA3D3E90023FBF798F89CE700237A
:1059B0000D93179A1B9B1360FFF761BA652B4FF08D
:1059C00000023FF44EAB012114460491FFF7CBBA1D
:1059D0000000C0FFFFFFDF419535A094FFFFCF3FE0
:1059E000054B1B6810B41B6A044C002B08BF2346F0
:1059F0005DF8044BFFF700BA380000209C0000203F
:105A00002DE9F0478046894692461E460F463D46A0
:105A1000089815F8014B00F0A7FB2044437813F0D9
:105A2000080332D12D2C32D17C78BD1C0122002EEE
:105A30005DD0102E09D1302C07D12B7803F0DF0375
:105A4000582B4FD16C7810260235002A14BF4FF026
:105A500000416FF000410027B1FBF6FC384606FB21
:105A60001C1EA4F13003092B17D81C46A64223DDC7
:105A70007B1C07D084451CD301D1A64519DB00FB54
:105A80000640012715F8014BEBE72F46BFE72B2C0B
:105A900004BFBD1C7C781A46C9E7A4F14103192B49
:105AA00001D8373CE2E7A4F16103192B04D8573C35
:105AB000DCE74FF0FF37E5E77B1C08D12223C8F86D
:105AC00000300846BAF1000F07D1BDE8F08702B1F7
:105AD0004042BAF1000FF8D00FB105F1FF39CAF812
