:020000040800F2
:100000000080012011440008292000082B2000084E
:100010002D2000082F2000083120000800000000DB
:100020000000000000000000000000003320000875
:1000300035200008000000003720000839200008A3
:1000400061440008614400086144000861440008FC
:1000500061440008614400086144000861440008EC
:1000600061440008614400086144000861440008DC
:1000700061440008614400086144000861440008CC
:1000800061440008614400086144000861440008BC
:1000900061440008614400086144000861440008AC
:1000A000614400086144000861440008614400089C
:1000B000614400086144000861440008614400088C
:1000C000614400086144000861440008614400087C
:1000D000614400086144000861440008614400086C
:1000E000614400086144000861440008614400085C
:1000F000614400086144000861440008614400084C
:10010000614400086144000861440008614400083B
:10011000614400086144000861440008614400082B
:10012000614400086144000861440008614400081B
:10013000614400086144000861440008614400080B
:1001400061440008614400086144000861440008FB
:1001500061440008614400086144000861440008EB
:1001600061440008614400086144000861440008DB
:100170006144000861440008614400080000000078
:0801800061440008614400081D
:1001900010B5054C237833B9044B13B10448AFF3C1
:1001A00000800123237010BDB0000020000000007B
:1001B000905F000808B5034B1BB103490348AFF338
:1001C000008008BD00000000B4000020905F00081F
:1001D00081F0004102E000BF83F0004330B54FEAF8
:1001E00041044FEA430594EA050F08BF90EA020F65
:1001F0001FBF54EA000C55EA020C7FEA645C7FEAF8
:10020000655C00F0E2804FEA5454D4EB5555B8BF1A
:100210006D420CDD2C4480EA020281EA030382EA8B
:10022000000083EA010180EA020281EA0303362D1D
:1002300088BF30BD11F0004F4FEA01314FF4801CF0
:100240004CEA113102D0404261EB410113F0004F02
:100250004FEA03334CEA133302D0524263EB4303B9
:1002600094EA050F00F0A780A4F10104D5F1200E57
:100270000DDB02FA0EFC22FA05F2801841F10001B2
:1002800003FA0EF2801843FA05F359410EE0A5F186
:1002900020050EF1200E012A03FA0EFC28BF4CF0B7
:1002A000020C43FA05F3C01851EBE37101F000456D
:1002B00007D54FF0000EDCF1000C7EEB00006EEB7A
:1002C0000101B1F5801F1BD3B1F5001F0CD3490804
:1002D0005FEA30004FEA3C0C04F101044FEA44525B
:1002E00012F5800F80F09A80BCF1004F08BF5FEAE2
:1002F000500C50F1000041EB045141EA050130BDC2
:100300005FEA4C0C404141EB010111F4801FA4F164
:100310000104E9D191F0000F04BF01460020B1FAB9
:1003200081F308BF2033A3F10B03B3F120020CDAF1
:100330000C3208DD02F1140CC2F10C0201FA0CF0CF
:1003400021FA02F10CE002F11402D8BFC2F1200C34
:1003500001FA02F120FA0CFCDCBF41EA0C019040EA
:10036000E41AA2BF01EB0451294330BD6FEA040433
:100370001F3C1CDA0C340EDC04F11404C4F120021E
:1003800020FA04F001FA02F340EA030021FA04F330
:1003900045EA030130BDC4F10C04C4F1200220FA87
:1003A00002F001FA04F340EA0300294630BD21FAC5
:1003B00004F0294630BD94F0000F83F4801306BF8B
:1003C00081F480110134013D4EE77FEA645C18BF7F
:1003D0007FEA655C29D094EA050F08BF90EA020F16
:1003E00005D054EA000C04BF1946104630BD91EA0E
:1003F000030F1EBF0021002030BD5FEA545C05D111
:100400004000494128BF41F0004130BD14F580044F
:100410003CBF01F5801130BD01F0004545F0FE41C3
:1004200041F470014FF0000030BD7FEA645C1ABFF8
:10043000194610467FEA655C1CBF0B46024650EA2F
:10044000013406BF52EA033591EA030F41F400215B
:1004500030BD00BF90F0000F04BF0021704730B5E1
:100460004FF4806404F132044FF000054FF00001B6
:1004700050E700BF90F0000F04BF0021704730B577
:100480004FF4806404F1320410F0004548BF40424C
:100490004FF000013EE700BF42004FEAE2014FEAA1
:1004A00031014FEA02701FBF12F07F4393F07F4F7C
:1004B00081F06051704732F07F4208BF704793F07F
:1004C0007F4F04BF41F40021704730B54FF4607492
:1004D00001F0004521F000411CE700BF50EA010295
:1004E00008BF704730B54FF000050AE050EA01023E
:1004F00008BF704730B511F0004502D5404261EBAE
:1005000041014FF4806404F132045FEA915C3FF4EE
:10051000D8AE4FF003025FEADC0C18BF03325FEA8B
:10052000DC0C18BF033202EBDC02C2F1200300FA3C
:1005300003FC20FA02F001FA03FE40EA0E0021FA61
:1005400002F11444BDE600BF70B54FF0FF0C4CF44F
:10055000E06C1CEA11541DBF1CEA135594EA0C0F01
:1005600095EA0C0F00F0DEF82C4481EA030621EA3C
:100570004C5123EA4C5350EA013518BF52EA033577
:1005800041F4801143F4801338D0A0FB02CE4FF029
:100590000005E1FB02E506F00042E0FB03E54FF059
:1005A0000006E1FB03569CF0000F18BF4EF0010E51
:1005B000A4F1FF04B6F5007F64F5407404D25FEA4D
:1005C0004E0E6D4146EB060642EAC62141EA555100
:1005D0004FEAC52040EA5E504FEACE2EB4F1FD0C42
:1005E00088BFBCF5E06F1ED8BEF1004F08BF5FEAC0
:1005F000500E50F1000041EB045170BD06F0004672
:1006000046EA010140EA020081EA0301B4EB5C041E
:10061000C2BFD4EB0C0541EA045170BD41F4801116
:100620004FF0000E013C00F3AB8014F1360FDEBF3B
:10063000002001F0004170BDC4F10004203C35DA17
:100640000C341BDC04F11404C4F1200500FA05F39A
:1006500020FA04F001FA05F240EA020001F000423B
:1006600021F0004110EBD37021FA04F642EB0601B1
:100670005EEA430E08BF20EAD37070BDC4F10C04DB
:10068000C4F1200500FA04F320FA05F001FA04F29F
:1006900040EA020001F0004110EBD37041F100018B
:1006A0005EEA430E08BF20EAD37070BDC4F1200596
:1006B00000FA05F24EEA020E20FA04F301FA05F2FE
:1006C00043EA020321FA04F001F0004121FA04F2A6
:1006D00020EA020000EBD3705EEA430E08BF20EA76
:1006E000D37070BD94F0000F0FD101F000464000B0
:1006F00041EB010111F4801F08BF013CF7D041EA32
:10070000060195F0000F18BF704703F00046520035
:1007100043EB030313F4801F08BF013DF7D043EA06
:100720000603704794EA0C0F0CEA135518BF95EABC
:100730000C0F0CD050EA410618BF52EA4306D1D143
:1007400081EA030101F000414FF0000070BD50EA62
:10075000410606BF1046194652EA430619D094EAEC
:100760000C0F02D150EA013613D195EA0C0F05D1D6
:1007700052EA03361CBF104619460AD181EA03012A
:1007800001F0004141F0FE4141F470014FF00000E2
:1007900070BD41F0FE4141F4780170BD70B54FF07D
:1007A000FF0C4CF4E06C1CEA11541DBF1CEA1355FD
:1007B00094EA0C0F95EA0C0F00F0A7F8A4EB0504DF
:1007C00081EA030E52EA03354FEA013100F08880D6
:1007D0004FEA03334FF0805545EA131343EA12639F
:1007E0004FEA022245EA111545EA10654FEA002654
:1007F0000EF000419D4208BF964244F1FD0404F50D
:10080000407402D25B084FEA3202B61A65EB030568
:100810005B084FEA32024FF480104FF4002CB6EB25
:10082000020E75EB030E22BFB61A754640EA0C00A5
:100830005B084FEA3202B6EB020E75EB030E22BFE5
:10084000B61A754640EA5C005B084FEA3202B6EB26
:10085000020E75EB030E22BFB61A754640EA9C00E5
:100860005B084FEA3202B6EB020E75EB030E22BFB5
:10087000B61A754640EADC0055EA060E18D04FEA73
:10088000051545EA16754FEA06164FEAC30343EA13
:1008900052734FEAC2025FEA1C1CC0D111F4801FE0
:1008A0000BD141EA00014FF000004FF0004CB6E7D9
:1008B00011F4801F04BF01430020B4F1FD0C88BF78
:1008C000BCF5E06F3FF6AFAEB5EB030C04BFB6EB83
:1008D000020C5FEA500C50F1000041EB045170BD76
:1008E0000EF0004E4EEA113114EB5C04C2BFD4EBA3
:1008F0000C0541EA045170BD41F480114FF0000E27
:10090000013C90E645EA060E8DE60CEA135594EAA2
:100910000C0F08BF95EA0C0F3FF43BAF94EA0C0FA5
:100920000AD150EA01347FF434AF95EA0C0F7FF41A
:1009300025AF104619462CE795EA0C0F06D152EA6E
:1009400003353FF4FDAE1046194622E750EA410652
:1009500018BF52EA43067FF4C5AE50EA41047FF463
:100960000DAF52EA43057FF4EBAE12E74FF0FF3CC8
:1009700006E000BF4FF0010C02E000BF4FF0010C99
:100980004DF804CD4FEA410C7FEA6C5C4FEA430C12
:1009900018BF7FEA6C5C1BD001B050EA410C0CBF61
:1009A00052EA430C91EA030F02BF90EA020F0020C3
:1009B000704710F1000F91EA030F58BF994208BF2A
:1009C00090422CBFD8176FEAE37040F001007047E7
:1009D0004FEA410C7FEA6C5C02D150EA013C07D13E
:1009E0004FEA430C7FEA6C5CD6D152EA033CD3D089
:1009F0005DF8040B704700BF8446104662468C4683
:100A00001946634600E000BF01B5FFF7B7FF0028B5
:100A100048BF10F1000F01BD4DF808EDFFF7F4FFDE
:100A20000CBF012000205DF808FB00BF4DF808ED69
:100A3000FFF7EAFF34BF012000205DF808FB00BF8C
:100A40004DF808EDFFF7E0FF94BF012000205DF8AE
:100A500008FB00BF4DF808EDFFF7CEFF94BF012063
:100A600000205DF808FB00BF4DF808EDFFF7C4FF5C
:100A700034BF012000205DF808FB00BF4FEA410CA5
:100A80007FEA6C5C02D150EA013C0AD14FEA430C88
:100A90007FEA6C5C02D152EA033C02D14FF00000C5
:100AA00070474FF0010070474FEA410212F5001203
:100AB00015D211D56FF47873B3EB625212D94FEAA5
:100AC000C12343F0004343EA505311F0004F23FA8F
:100AD00002F018BF404270474FF00000704750EAE4
:100AE000013005D111F0004008BF6FF000407047A1
:100AF0004FF00000704700BF53B94AB9002908BF42
:100B000000281CBF4FF0FF314FF0FF3000F072B9EA
:100B1000ADF1080C6DE904CE00F006F8DDF804E054
:100B2000DDE9022304B070472DE9F047089E044632
:100B30008846002B4BD18A42154667D9B2FA82F219
:100B40004AB1C2F1200701FA02F320FA07F79540F3
:100B500047EA030894404FEA154E230CB8FBFEF712
:100B60001FFA85FC0EFB178843EA084307FB0CF1CC
:100B7000994209D9EB1807F1FF3080F01B819942A7
:100B800040F21881023F2B445B1AA4B2B3FBFEF083
:100B90000EFB103344EA034400FB0CFCA44509D9C6
:100BA0002C1900F1FF3380F00781A44540F2048145
:100BB00002382C4440EA0740A4EB0C0400271EB185
:100BC000D4400023C6E900433946BDE8F0878B4294
:100BD00009D9002E00F0EB800027C6E90001384655
:100BE0003946BDE8F087B3FA83F7002F47D18B422F
:100BF00002D3824200F2FA80841A61EB03030120DF
:100C00009846002EE0D0C6E90048DDE702B9FFDED5
:100C1000B2FA82F2002A40F08F80491B4FEA154E4B
:100C20001FFA85F80127B1FBFEFC230C0EFB1C11FB
:100C300043EA014308FB0CF1994207D9EB180CF188
:100C4000FF3002D2994200F2CD808446591AA3B2F5
:100C5000B1FBFEF00EFB101443EA044408FB00F85D
:100C6000A04507D92C1900F1FF3302D2A04500F2AC
:100C7000B6801846A4EB080440EA0C409FE7C7F191
:100C8000200CBB4022FA0CFE4EEA030E01FA07F4D8
:100C900020FA0CF521FA0CF34FEA1E482543B3FB6A
:100CA000F8F92C0C08FB19331FFA8EFA44EA0343B7
:100CB00009FB0AF49C4202FA07F200FA07F10BD989
:100CC0001EEB030309F1FF3080F087809C4240F265
:100CD0008480A9F1020973441B1BADB2B3FBF8F089
:100CE00008FB103345EA034400FB0AFAA24508D981
:100CF0001EEB040400F1FF336BD2A24569D9023820
:100D0000744440EA0940A0FB0289A4EB0A044C4564
:100D1000C2464B4654D351D0002E69D0B1EB0A05E0
:100D200064EB030404FA0CFCFD40FC404CEA0505AE
:100D3000C6E90054002747E7C2F1200320FA03F771
:100D4000954001FA02F021FA03F34FEA154E3843B9
:100D5000010CB3FBFEF71FFA85F80EFB173341EACF
:100D6000034107FB08F38B4204FA02F407D9691820
:100D700007F1FF3C2FD28B422DD9023F2944CB1AD9
:100D800081B2B3FBFEF00EFB103341EA034100FBDE
:100D900008F38B4207D9691800F1FF3C17D28B4248
:100DA00015D902382944C91A40EA07473BE73746B4
:100DB000304609E70746E7E61846FBE64145ABD271
:100DC000B8EB020A69EB0E0201381346A4E760464D
:100DD000E9E7184695E76746D1E781467CE70238A0
:100DE0002C4447E7ACF1020C2B442FE7384608E7C8
:100DF0003746E9E6704700BF034613F8012B002A87
:100E0000FBD1181A013870470000000000000000F4
:100E100001F0FF01102A2BDB10F0070F08D010F8AB
:100E2000013B013A8B422DD010F0070F42B3F6D1AF
:100E3000F0B441EA012141EA014122F007047FF0C8
:100E400000070023F0E80256083C85EA010586EA1F
:100E5000010685FA47F5A3FA87F586FA47F6A5FA5B
:100E600087F68EB9EED1F0BC01F0FF0102F0070267
:100E700032B110F8013B013A83EA010313B1F8D112
:100E80000020704701387047002D06BF35460338F3
:100E9000073815F0010F07D1013015F4807F02BF2C
:100EA000013015F4C03F0130F0BC0138704700BF7D
:100EB00000B587B006AA02F8010D4FF0FF33029388
:100EC00001230193009200227821034801F018FDCC
:100ED00007B05DF804FB00BF6405002000B585B0D5
:100EE0004FF0FF33029389B2019100900123402219
:100EF0007821034801F004FD05B05DF804FB00BF54
:100F000064050020002303E0FF21054AD15401338A
:100F1000B3F5806F03D20028F6D10021F5E77047C2
:100F2000CC00002010B5002412E0A4F15000C0B2A3
:100F3000FFF7BEFF0020FFF7BBFF1020FFF7B8FF51
:100F40008021054800EBC410FFF7C8FF0134E4B26C
:100F5000072CEAD910BD00BFCC00002010F0800F94
:100F600016D13F2914D8114B93F8043413B1B2FAB7
:100F700082F25209012A0CD0CB0800EBC31001F019
:100F8000070101238B40094A115C21EA0301115436
:100F90007047CB0800EBC31001F0070101238B4021
:100FA000024A115C19431154704700BFCC00002065
:100FB0002DE9F04F83B002AC04E90600A0F1200255
:100FC000D2B25E2A4BD82A4AB2F800249DF80060BB
:100FD0003244802A47DC264AB2F802249DF801A058
:100FE000D3465244402A40DC1F468146002523E078
:100FF0001F4BB3F80004B3F8021429442044B7FA95
:1010000087F25209C9B2C0B2FFF7A8FF0134A64265
:1010100011D908FA04F313F4004FE9D0144BB3F8D4
:101020000004B3F80214294420443A46C9B2C0B2BD
:10103000FFF794FFEAE70135AA4508D9A9F1200393
:1010400003FB0B53019A32F813800024DFE7084BAF
:10105000B3F800241644A3F80064484600E00020DA
:1010600003B0BDE8F08F0020FAE70020F8E700BFEA
:10107000CC00002070B582B0054602A800E9060049
:101080001E462C785CB1334602AA12E906002046BF
:10109000FFF78EFF2C78A04201D10135F1E7204601
:1010A00002B070BD024BA3F80004A3F8021470470D
:1010B000CC00002010B504468120FFF7F9FE204641
:1010C000FFF7F6FE10BD000008B538B9064B002248
:1010D00083F80624AE20FFF7EBFE08BD024B012289
:1010E00083F80624AF20F6E7CC00002008B5642082
:1010F00001F030F80020FFF7E7FF2020FFF7D8FECF
:101100000020FFF7D5FEB020FFF7D2FEC020FFF78A
:10111000CFFE0020FFF7CCFE1020FFF7C9FE4020D5
:10112000FFF7C6FEFF20FFF7C5FFA120FFF7C0FEB7
:10113000A620FFF7BDFEA820FFF7BAFE3F20FFF76D
:10114000B7FEA420FFF7B4FED320FFF7B1FE0020C6
:10115000FFF7AEFED520FFF7ABFEF020FFF7A8FEAD
:10116000D920FFF7A5FE2220FFF7A2FEDA20FFF725
:101170009FFE1220FFF79CFEDB20FFF799FE202048
:10118000FFF796FE8D20FFF793FE1420FFF790FEE9
:101190000120FFF799FF0020FFF7B4FEFFF7C2FE22
:1011A000044B0022A3F80024A3F80224012283F8B0
:1011B000052408BDCC000020024B00221A705A7092
:1011C000704700BFD404002010B586B00C46030A57
:1011D0008DF814008DF8153000228DF810208DF850
:1011E00011204FF0FF3302930223019305AB0093CC
:1011F0000123AA21204601F083FBA0B94FF0FF3361
:1012000002930223019304AB009301230022AA213D
:10121000204601F047FC48B99DF811309DF81000B8
:1012200040EA032000E0642006B010BD6420FBE724
:1012300008B501460120FFF7C7FF08BD08B5FFF755
:10124000F7FF40F22143984201D0002008BD012061
:10125000FCE700002DE9F0438DB005464FF03D0955
:101260008DF82C904FF000088DF82D800A24009402
:1012700002230BAA502101F085FA204600F06AFFF4
:101280004A4B1B880CAA22F8083D009402235021E7
:10129000284601F077FA204600F05CFF08238DF81D
:1012A0002430434F3A78434E33789B0043EA42134D
:1012B0005BB2727813438DF825300094022309AA9B
:1012C0005021284601F05EFA204600F043FF8DF8D9
:1012D0002040B2787B7843EAC2038DF82130009435
:1012E000022308AA5021284601F04CFA204600F0BB
:1012F00031FF0B238DF81C30BB788DF81D30009426
:10130000022307AA5021284601F03CFA204600F0AB
:1013100021FF8DF8188009238DF8193001238DF8ED
:101320001A30FA78F378DB0043EA42135BB2327981
:1013300013438DF81B300094042306AA502128463D
:1013400001F020FA204600F005FF07238DF8143045
:101350008DF815800094022305AA5021284601F03B
:1013600011FA204600F0F6FE3E238DF810303B794E
:101370008DF811300094022304AA5021284601F070
:1013800001FA204600F0E6FE8DF80C9073798DF896
:101390000D300094022303AA5021284601F0F2F9EF
:1013A000322000F0D7FE0DB0BDE8F083AC8D000810
:1013B000D8040020200000200048704728000020AA
:1013C00000B585B064230293122301930091012399
:1013D0000822502101F066FB05B05DF804FB000017
:1013E00000B587B001A93348FFF7EAFF9DF8052053
:1013F0009DF8043043EA02231BB207EE103A9DF831
:1014000007209DF8063043EA02231BB206EE103A8D
:101410009DF809209DF8083043EA02231BB2B8EE7C
:10142000C77ADFED255AC7EE256AB8EEC66A86EEA2
:10143000257A07EE903AB8EEE76AC6EE257ABDEE59
:10144000E66A1E4880ED026AB8EEC66A76EEC66AA3
:1014500066EEA56AFDEEE66A16EE903A002BB8BF7E
:101460005B42C360FDEEC76AC0ED046AF8EEE66A4F
:1014700037EE667A27EE257ABDEEC77A17EE103A78
:10148000002BB8BF5B424361BDEEE77A80ED067A80
:10149000B8EEC77A77EEC77A67EEA57AFDEEE77AFF
:1014A00017EE903A002BB8BF5B42C361083007B01B
:1014B0005DF804FB640500200000C842D804002049
:1014C000F8B52DED028BFFF78BFF0446006800286E
:1014D00010DD002840F38D80012803DDA368002B78
:1014E00040F308812068002840F38A81C248BDEC9F
:1014F000028BF8BDA368002BEBDC2369012BE8DD30
:101500009FEDBB8BFEF7B6FFB0EE481AF0EE681AFF
:1015100041EC100B02F0A8FF57EC106BA068FEF72F
:10152000A9FFB0EE481AF0EE681A41EC100B02F079
:101530009BFF53EC102B30463946FEF74FFE064614
:101540000F4620690938FEF795FFB0EE481AF0EE15
:10155000681A41EC100B02F087FF53EC102B304659
:101560003946FEF73BFE41EC100B03F019F951EC44
:10157000100BFFF799FAA14D28626068FEF77AFF19
:10158000B0EE481AF0EE681A41EC100B02F06CFF56
:1015900057EC106BE068FEF76DFFB0EE481AF0EE06
:1015A000681A41EC100B02F05FFF53EC102B304631
:1015B0003946FEF713FE06460F4660690838FEF707
:1015C00059FFB0EE481AF0EE681A41EC100B02F029
:1015D0004BFF53EC102B30463946FEF7FFFD41EC34
:1015E000100B03F0DDF851EC100BFFF75DFA6862A9
:1015F00078E7A368012B7FF76FAF2369002B3FF7D4
:101600006BAF9FED7B8BFEF735FFB0EE481AF0EE27
:10161000681A41EC100B02F027FF57EC106BA06822
:101620000938FEF727FFB0EE481AF0EE681A41ECD1
:10163000100B02F019FF53EC102B30463946FEF721
:10164000CDFD06460F462069FEF714FFB0EE481A9E
:10165000F0EE681A41EC100B02F006FF53EC102B71
:1016600030463946FEF7BAFD41EC100B03F098F80E
:1016700051EC100BFFF718FA604D28626068FEF716
:10168000F9FEB0EE481AF0EE681A41EC100B02F0C9
:10169000EBFE57EC106BE0680838FEF7EBFEB0EE9F
:1016A000481AF0EE681A41EC100B02F0DDFE53EC24
:1016B000102B30463946FEF791FD06460F4660690D
:1016C000FEF7D8FEB0EE481AF0EE681A41EC100BA7
:1016D00002F0CAFE53EC102B30463946FEF77EFD71
:1016E00041EC100B03F05CF851EC100BFFF7DCF948
:1016F0006862F7E62369002B3FF7F4AE9FED3C8B61
:101700000938FEF7B7FEB0EE481AF0EE681A41EC61
:10171000100B02F0A9FE57EC106BA068FEF7AAFEB2
:10172000B0EE481AF0EE681A41EC100B02F09CFE85
:1017300053EC102B30463946FEF750FD06460F4657
:101740002069FEF797FEB0EE481AF0EE681A41ECF9
:10175000100B02F089FE53EC102B30463946FEF791
:101760003DFD41EC100B03F01BF851EC100BFFF7A3
:101770009BF9224D286260680838FEF77BFEB0EEC8
:10178000481AF0EE681A41EC100B02F06DFE57ECAF
:10179000106BE068FEF76EFEB0EE481AF0EE681AC5
:1017A00041EC100B02F060FE53EC102B3046394632
:1017B000FEF714FD06460F466069FEF75BFEB0EECD
:1017C000481AF0EE681A41EC100B02F04DFE53EC93
:1017D000102B30463946FEF701FD41EC100B02F0AC
:1017E000DFFF51EC100BFFF75FF968627AE600BF8C
:1017F0000000000000000040F8040020D804002091
:10180000A368002B3FF772AE2369002B3FF76EAE43
:101810009FED3B8BFEF72EFEB0EE481AF0EE681AF5
:1018200041EC100B02F020FE57EC106BA068FEF7A5
:1018300021FEB0EE481AF0EE681A41EC100B02F0EF
:1018400013FE53EC102B30463946FEF7C7FC064614
:101850000F462069FEF70EFEB0EE481AF0EE681A49
:1018600041EC100B02F000FE53EC102B30463946D1
:10187000FEF7B4FC41EC100B02F092FF51EC100BA0
:10188000FFF712F9204D28626068FEF7F3FDB0EE15
:10189000481AF0EE681A41EC100B02F0E5FD57EC27
:1018A000106BE068FEF7E6FDB0EE481AF0EE681A3D
:1018B00041EC100B02F0D8FD53EC102B30463946AA
:1018C000FEF78CFC06460F466069FEF7D3FDB0EECE
:1018D000481AF0EE681A41EC100B02F0C5FD53EC0B
:1018E000102B30463946FEF779FC41EC100B02F024
:1018F00057FF51EC100BFFF7D7F86862F6E500BF11
:101900000000000000000040D80400202DE9F04154
:101910008AB0002405940694079408940994424BD5
:10192000DA6C42F08002DA64DA6C02F08002009233
:10193000009ADA6C42F00402DA64DA6C02F0040213
:101940000192019ADA6C42F00102DA64DA6C02F078
:1019500001020292029ADA6C42F01002DA64DA6C46
:1019600002F010020392039ADA6C42F00202DA6487
:10197000DB6C03F002030493049BDFF8B88022467B
:101980000321404600F03AFD224619214FF09040D5
:1019900000F034FD254F22464FF47041384600F0E8
:1019A0002DFD234E22464FF48071304600F026FD77
:1019B00003230593012506950794089405A940463D
:1019C00000F038FC1923059306950794089405A99F
:1019D0004FF0904000F02EFC0623059306940794E8
:1019E00005A94FF0904000F025FC4FF4704305939B
:1019F00006950794089405A9384600F01BFC80233F
:101A000005930694079405A9304600F013FC4FF4A3
:101A10008073059306950794089405A9304600F055
:101A200009FC0AB0BDE8F081001002400010004837
:101A300000080048001C004838B50D4C0D4B2360D1
:101A40000D4B63600025A5600123E360256165619E
:101A5000A561E5612562204600F036FE2946204654
:101A600001F0F6F82946204601F020F938BD00BF04
:101A70006405002000540040D38D801038B50D4C13
:101A80000D4B23600D4B63600025A5600123E360CF
:101A900025616561A561E5612562204600F014FEBF
:101AA0002946204601F0D4F82946204601F0FEF8E8
:101AB00038BD00BFB005002000580040D38D801015
:101AC00038B50D4C0D4B23600D4B63600025A560B0
:101AD0000123E36025616561A561E561256220461A
:101AE00000F0F2FD2946204601F0B2F829462046D2
:101AF00001F0DCF838BD00BF18050020005C004094
:101B0000D38D801008B50E480E4B03604FF48273DE
:101B10004360002383604FF44072C26003614361FD
:101B20004FF400728261C3610362436283620722E1
:101B3000C26203630823436302F04EF908BD00BF8D
:101B40007C0600200030014008B50948094B0360BD
:101B50004FF4E133436000238360C36003610C22D0
:101B600042618361C3610362436202F020FC08BDED
:101B7000FC0500200038014030B5B9B024252A46C4
:101B8000002128A803F01AFE002422942394249410
:101B90002594269488222146684603F00FFE1023E0
:101BA000279301222D9260232F93022331933292A7
:101BB00033923495072235923693379327A801F054
:101BC00093F90F232293032323932494259426949B
:101BD000042122A801F0A4FC40F2C11300930E944A
:101BE000149415941694684601F0CEFE4FF40070DC
:101BF00001F090F839B030BD30B5ADF5B95D85B0C4
:101C000041F218721E4906A803F0B4FD0020FFF748
:101C100079F900240BE006AB03EBC40250682830CE
:101C2000012213F83410C0B2FFF798F9013440F2E2
:101C3000E2239C42EFDDFFF775F901AC114D0FCDAA
:101C40000FC42B6823702D210420FFF72BFA0024EA
:101C50000CE00D4A012306CA01A8005DFFF7A8F9B0
:101C6000642000F077FAFFF75DF9013401A8FFF76F
:101C7000C3F8A042EDD80DF5B95D05B030BD00BF89
:101C8000D48D0008C08D00081000002010B5A6B04B
:101C900000242494259400F03BFAFFF76DFFFFF732
:101CA00035FEFFF7C9FEFFF7E9FEFFF709FFFFF773
:101CB00029FFFFF749FFFFF719FAFFF79DFF2046BD
:101CC000FFF720F9FFF72EF9FFF776FA4948FFF7FB
:101CD000B5FA044605210420FFF7E4F99CB11CABDA
:101CE000454A07CA03C31A70444A012306CA1CA8FE
:101CF000FFF7C0F9FFF716F93E48FFF7ABFA0020EF
:101D0000FFF700F920E01CAC3D4B0FCB07C423804C
:101D10003A4A012306CA1CA8FFF7ACF9FFF702F9FB
:101D2000EAE738491CA803F051FD32210420FFF7EF
:101D3000B9F9354A012306CA1CA8FFF79BF9FFF73A
:101D4000F1F8642000F006FAFFF74AFB43680268E6
:101D50004169039101690291C16801918168009113
:101D60002A4904A803F032FD05210420FFF79AF95F
:101D7000254C012394E8060004A8FFF77BF9FFF740
:101D80001BFB436802688168009121490CA803F09D
:101D90001DFD14210420FFF785F9012394E80600B6
:101DA0000CA8FFF767F9FFF78BFB43680268194936
:101DB00014A803F00BFD23210420FFF773F901237E
:101DC00094E8060014A8FFF755F9FFF779FB0268BD
:101DD000249B1344104981FB0321DA17C2EBA102B3
:101DE0004168259B0B4424922593002A99DC00210D
:101DF000249196E764050020ECA400081000002060
:101E0000F8A4000898A500081800002058A50008AC
:101E100070A5000884A500086766666682B00A4B54
:101E20001A6E42F001021A661A6E02F00102009266
:101E3000009A9A6D42F080529A659B6D03F0805330
:101E40000193019B02B070470010024010B58CB0A6
:101E500000230793089309930A930B930368384A66
:101E6000934207D0374A934226D0374A934246D00E
:101E70000CB010BD354CE36C43F00203E364E36C3B
:101E800003F002030193019BC023079312230893DD
:101E90000123099303230A9304230B9307A92C48D6
:101EA00000F0C8F9A36D43F40013A365A36D03F418
:101EB00000130293029BDBE7244CE36C43F0020324
:101EC000E364E36C03F002030393039B4FF440636A
:101ED0000793122308930123099303230A930423EE
:101EE0000B9307A91A4800F0A5F9A36D43F48003EA
:101EF000A365A36D03F480030493049BB8E7134C1C
:101F0000E36C43F00403E364E36C03F00403059320
:101F1000059B0323079312220892012209920A9338
:101F200004230B9307A90B4800F084F9A36D43F435
:101F30000003A365A36D03F400030693069B97E7D4
:101F40000054004000580040005C00400010024077
:101F5000000400480008004800B589B0002303933E
:101F600004930593069307930268144B9A4202D098
:101F700009B05DF804FB03F560431A6E42F4805229
:101F80001A661A6E02F480520192019ADA6C42F0DB
:101F90000102DA64DB6C03F001030293029BE0238D
:101FA000039302230493032306930523079303A9B2
:101FB0004FF0904000F03EF9DAE700BF00300140FA
:101FC00000B589B000230393049305930693079308
:101FD0000268144B9A4202D009B05DF804FB03F585
:101FE00058431A6E42F480421A661A6E02F4804216
:101FF0000192019ADA6C42F00102DA64DB6C03F0C0
:1020000001030293029B4FF4C063039302230493E2
:10201000032306930723079303A94FF0904000F092
:1020200009F9D9E7003801407047FEE7FEE7FEE70F
:10203000FEE770477047704708B500F079F808BDB3
:1020400008B503460B4A126842B10A4A10680344B5
:102050006A46934206D8074A136008BD054A0649F6
:102060001160F2E703F05CFB0C2303604FF0FF30DC
:10207000F3E700BF08050020E80600200F49D1F86B
:10208000883043F47003C1F888300D4B1A6842F071
:1020900001021A60002098601A6822F0A85222F407
:1020A00010221A604FF48052DA601A6822F48022FB
:1020B0001A6098614FF000638B60704700ED00E09C
:1020C00000100240104B1B780BB90120704710B56F
:1020D00004464FF47A70B0FBF3F30C4A1068B0FB7F
:1020E000F3F000F091F868B90F2C01D901200AE053
:1020F000002221464FF0FF3000F052F8024B5C60A6
:10210000002000E0012010BD3C000020380000202D
:1021100010B5032000F032F80020FFF7D3FF10B114
:102120000124204610BD0446FFF778FEF9E70000C1
:10213000034B1B78034A11680B441360704700BFC0
:102140003C000020E0060020014B1868704700BFEB
:10215000E006002038B50446FFF7F6FF0546B4F167
:10216000FF3F02D0044B1B781C44FFF7EDFF401BE0
:10217000A042FAD338BD00BF3C000020074AD36814
:1021800023F4E0631B041B0C000200F4E06018431E
:1021900040F0BF6040F40030D060704700ED00E0D8
:1021A00030B4174BDB68C3F30223C3F10704042CDC
:1021B00028BF04241D1D062D18D9033B4FF0FF3501
:1021C00005FA04F421EA0401994005FA03F322EA2E
:1021D0000303194300280BDB0901C9B200F1604079
:1021E00000F5614080F8001330BC70470023E5E73C
:1021F00000F00F000901C9B2024B1954F4E700BF07
:1022000000ED00E014ED00E00138B0F1807F0AD26B
:10221000064B5860064AF02182F82310002098608F
:1022200007221A6070470120704700BF10E000E0ED
:1022300000ED00E0F0B583B000233FE0C66A26EA77
:102240000406C5F3C0049C403443C4625FE0062426
:1022500000E00024B4403C430235644E46F825407B
:10226000634C2568D44304EA05064F6817F4803FA1
:1022700001D042EA05065E4D2E606D6804EA05064F
:102280004F6817F4003F01D042EA0506584D6E60D2
:10229000AD6804EA05064F6817F4801F01D042EAD2
:1022A0000506534DAE60ED682C404E6816F4001FD5
:1022B00001D042EA05044E4AD46001330A6832FA7A
:1022C00003F400F0918001249C402240F5D04D6839
:1022D0006E1E012E03D9112D01D0122D12D1866848
:1022E0005F000325BD4026EA0506CD68BD403543A5
:1022F0008560466826EA04064D68C5F300159D40D2
:10230000354345604D6805F00306032E96D0C56839
:102310005F000324BC40E44325408E68BE402E434A
:10232000C6604D68022D01D0122D13D1DE0808368B
:1023300050F826E003F007054FEA850C0F2505FA53
:102340000CF52EEA050E0D6905FA0CF545EA0E05A9
:1023500040F8265005682C404D6805F00305BD4047
:102360002C4304604C6814F0805FA6D0214C256E8D
:1023700045F001052566246E04F001040194019CDA
:102380009D08AE1C194C54F8267003F00304A600F7
:102390000F24B44027EA0407B0F1904F3FF459AF3F
:1023A000154CA04216D004F58064A04214D004F568
:1023B0008064A04212D004F58064A04210D004F5DD
:1023C0008064A0420ED004F58064A0423FF43FAF89
:1023D00007243FE701243DE702243BE7032439E7D4
:1023E000042437E7052435E703B0F0BD00000140C1
:1023F0000004014000100240000400480AB9816254
:1024000070478161704703689A6912F0020F01D02A
:1024100000229A6203689A6912F0010F03D19A6947
:1024200042F001029A61704770B4039E05686868C3
:10243000740D04F4806444F07F7444F4583444F41C
:102440007F7444F0030420EA0400C1F3090141EA67
:102450000241194331430143696070BC704770B554
:1024600004460D46164603689B6913F0100F1CD0F6
:1024700023689A6912F0200F19D1B5F1FF3FF7D008
:10248000FFF762FE801BA84201D8002DF0D1636CDB
:1024900043F020036364202384F84130002384F850
:1024A000423084F84030012020E000201EE010225D
:1024B000DA6123682025DD612046FFF7A4FF22684A
:1024C000536823F0FF7323F48B3323F4FF7323F05B
:1024D00001035360636C43F00403636484F8415068
:1024E000002384F8423084F84030012070BD70B57C
:1024F00004460D46164623689B6913F0020F1DD152
:10250000324629462046FFF7AAFFC8B9B5F1FF3F7A
:10251000F1D0FFF719FE801BA84201D8002DEAD1A7
:10252000636C43F020036364202384F8413000236C
:1025300084F8423084F84030012000E0002070BD73
:102540000120FCE7F8B505460F4616461C462B68E9
:102550009B6937EA03030CBF01230023B34218D160
:10256000B4F1FF3FF3D0FFF7EFFD069BC01AA04286
:1025700001D8002CEBD16B6C43F020036B6420235B
:1025800085F84130002385F8423085F8403001203D
:1025900000E00020F8BD000070B582B00446164689
:1025A0001D46184B00934FF08073EAB2FFF73CFFD3
:1025B000079A06992046FFF79AFFE8B9012D0ED138
:1025C0002368F6B29E62079B0093069B002280213F
:1025D0002046FFF7B7FF034678B101230DE02368DB
:1025E000320A9A62079A06992046FFF780FF38B9A7
:1025F0002368F6B29E62E6E70123184602B070BD7A
:102600000123FAE70020008070B582B00446164628
:102610001D46184B00930023EAB2FFF705FF079A07
:1026200006992046FFF763FFE8B9012D0ED1236814
:10263000F6B29E62079B0093069B00224021204633
:10264000FFF780FF034678B101230DE02368320ACB
:102650009A62079A06992046FFF749FF38B923681E
:10266000F6B29E62E6E70123184602B070BD012370
:10267000FAE700BF0020008070B505460C461646FC
:102680002B689B6913F0200F1AD132462146284649
:10269000FFF7E5FEB0B9FFF757FD801BA04201D858
:1026A000002CEDD16B6C43F020036B64202385F884
:1026B0004130002385F8423085F84030012070BD5C
:1026C0000020FCE70120FAE7002859D010B50446A5
:1026D00090F84130002B43D0242384F84130226805
:1026E000136823F0010313606368226823F07063AA
:1026F00013612268936823F400439360E368012B1D
:1027000033D0A368226843F404439360E368022B48
:1027100031D02268536843F0007343F400435360A0
:102720002268D36823F40043D360236962691343AA
:10273000A169226843EA0123D360E369216A226820
:102740000B4313602268136843F0010313600020F9
:102750006064202384F84130206384F8420010BD77
:1027600080F84030FFF772FBB6E7A368226843F4B5
:1027700000439360CAE723684FF400625A60C8E7D9
:10278000012070472DE9F04383B090F84150EDB23D
:10279000202D40F0A48090F84040012C00F0A4804F
:1027A000984617460E4604464FF0010980F84090BF
:1027B000FFF7CAFC0546009019234A464FF4004132
:1027C0002046FFF7BFFE002840F09080212384F8C8
:1027D0004130102384F84230002363646762A4F818
:1027E0002A806363638D9BB2FF2B0AD9FF22228567
:1027F000424B00934FF0807331462046FFF714FEA2
:1028000018E0628D92B222853C4B00934FF000732A
:10281000D2B231462046FFF707FE0BE0628D92B23E
:102820002285002300934FF00073D2B23146204638
:10283000FFF7FAFD638D9BB2002B33D02A460A992D
:102840002046FFF754FE002852D1626A23681278AE
:102850009A62636A01336362638D013B9BB2638555
:10286000238D013B9BB22385628D92B2002AE1D079
:10287000002BDFD100950A9B002280212046FFF724
:1028800061FE002836D1638D9BB2FF2BC6D9FF2293
:102890002285002300934FF0807331462046FFF7D6
:1028A000C3FDC7E72A460A992046FFF7E5FE03461F
:1028B00010BB22682021D1612068426822F0FF729B
:1028C00022F48B3222F4FF7222F00102426084F87B
:1028D0004110002284F8422084F8402000E00223C6
:1028E000184603B0BDE8F0830223F9E70123F7E7B8
:1028F0000123F5E70123F3E70123F1E7002000803E
:102900002DE9F04782B0BDF82C7090F84150EDB23F
:10291000202D40F0BA800A9CDCB1D7B190F840403D
:10292000012C00F0B780984691460D4604464FF0C2
:10293000010A80F840A0FFF707FC06460090192323
:1029400052464FF400412046FFF7FCFD30B1012311
:102950009CE04FF400734364012397E0212384F843
:102960004130402384F84230002363640A9A626253
:102970006785636301960C9B009343464A4629464C
:102980002046FFF709FE70B9638D9BB2FF2B0FD96C
:10299000FF222285002300934FF0807329462046B2
:1029A000FFF742FD21E0002384F8403053466DE0FC
:1029B000628D92B22285002300934FF00073D2B251
:1029C00029462046FFF730FD0FE0628D92B2228546
:1029D000002300934FF00073D2B229462046FFF740
:1029E00023FD638D9BB2002B32D032460C992046DA
:1029F000FFF77DFD00284FD1626A236812789A6242
:102A0000636A01336362638D013B9BB26385238DEF
:102A1000013B9BB22385628D92B2002AE1D0002B4C
:102A2000DFD100960C9B002280212046FFF78AFD13
:102A3000A0BB638D9BB2FF2BC7D9FF222285002349
:102A400000934FF0807329462046FFF7EDFCC8E75E
:102A500032460C992046FFF70FFE034600BB226862
:102A60002021D1612068426822F0FF7222F48B326B
:102A700022F4FF7222F00102426084F84110002229
:102A800084F8422084F8402000E00223184602B077
:102A9000BDE8F0870223F9E70123F7E70123F5E713
:102AA0000123F3E72DE9F04782B0BDF82C7090F8D0
:102AB0004150EDB2202D40F0BC800A9CDCB1D7B172
:102AC00090F84040012C00F0B980984691460D46A0
:102AD00004464FF0010A80F840A0FFF735FB064698
:102AE0000090192352464FF400412046FFF72AFD7B
:102AF00030B101239EE04FF400734364012399E059
:102B0000222384F84130402384F842300023636458
:102B10000A9A62626785636301960C9B0093434641
:102B20004A4629462046FFF76FFD70B9638D9BB278
:102B3000FF2B0FD9FF222285444B00934FF0807367
:102B400029462046FFF770FC21E0002384F840303E
:102B500053466FE0628D92B222853C4B00934FF05A
:102B60000073D2B229462046FFF75EFC0FE0628D6B
:102B700092B22285002300934FF00073D2B229460F
:102B80002046FFF751FC638D9BB2002B34D000969A
:102B90000C9B002204212046FFF7D4FC00284FD1D3
:102BA00023685A6A636A1A70636A01336362238D09
:102BB000013B9BB22385628D013A92B26285628DA0
:102BC00092B2002ADFD0002BDDD100960C9B0022B0
:102BD00080212046FFF7B6FCA0BB638D9BB2FF2B84
:102BE000C5D9FF222285002300934FF08073294628
:102BF0002046FFF719FCC6E732460C992046FFF73E
:102C00003BFD034600BB22682021D1612068426859
:102C100022F0FF7222F48B3222F4FF7222F00102C2
:102C2000426084F84110002284F8422084F8402059
:102C300000E00223184602B0BDE8F0870223F9E75E
:102C40000123F7E70123F5E70123F3E700240080E0
:102C500090F84130DBB2202B24D190F84030012B8A
:102C600022D0012380F84030242380F841300268CC
:102C7000136823F0010313600268136823F4805380
:102C8000136002681368194311600268136843F007
:102C900001031360202380F84130002380F8403086
:102CA00018467047022070470220704790F8413064
:102CB000DBB2202B22D190F84030012B20D0012311
:102CC00080F84030242380F841300268136823F0F4
:102CD000010313600268136823F4706343EA01215F
:102CE00011600268136843F001031360202380F829
:102CF0004130002380F8403018467047022070476A
:102D000002207047024B186800F4C060704700BF93
:102D100000700040B0F5007F0FD01F4B1B6803F41C
:102D2000C063B3F5806F34D01B4A136823F4C063CB
:102D300043F48063136000207047174B1B6803F453
:102D4000C063B3F5007F22D0134A136823F4C06335
:102D500043F400731360114B1A68322303FB02F330
:102D60000F4AA2FB03239B0C013300E0013B0A4AFC
:102D7000526912F4806F01D0002BF7D1064B5B69CA
:102D800013F4806F01D100207047032070470020AA
:102D900070470020704700BF0070004038000020DE
:102DA00083DE1B4330B583B00546204B9B6D13F08B
:102DB000805F0BD0FFF7A6FFB0F5007F17D0802D06
:102DC0001FD82DD0702D2DD000211BE0174CA36DE6
:102DD00043F08053A365A36D03F080530193019BDF
:102DE000FFF790FFA36D23F08053A365E4E7802DE8
:102DF00003D9A02D03D9022104E0002102E0012122
:102E000000E003210A4A136823F007030B43136011
:102E1000136803F007038B4206D0012003B030BDD6
:102E20000221EFE70121EDE70020F7E70010024063
:102E300000200240284A9368D26802F0030213F08F
:102E40000C030AD00C2B06D0042B1FD0082B20D04B
:102E50000020024610E0012AF6D11F4A126812F043
:102E6000080F0CD11C4AD2F89420C2F303221B494C
:102E700051F8222043B100200C2B0DD07047164A88
:102E80001268C2F30312F2E71046F5E71448002275
:102E9000F2E714480022EFE70F4BDB6803F003036F
:102EA000022B15D0032B15D00B4BD868C0F30210A2
:102EB0000130D968C1F3062102FB01F2B2FBF0F246
:102EC000D868C0F3416001304000B2FBF0F0D5E7B4
:102ED000034AE9E7034AE7E70010024010A50008AB
:102EE0000024F40000127A00002800F00083F0B5FE
:102EF00083B00446AF4B9D6805F00C05DE6806F014
:102F00000306036813F0100F5BD0E5B10C2D18D049
:102F1000A369002B00F0BC80A64A136843F00103AC
:102F20001360FFF711F90746A24B1B6813F0020F5D
:102F300040F09B80FFF708F9C01B0228F4D9032357
:102F4000E1E2012EE4D19B4B1B6813F0020F03D08A
:102F5000A369002B00F0CE82206A964B1B6813F009
:102F6000080F5CD0934B1B6803F0F00398425DD8C8
:102F7000904B1A6842F008021A601A6822F0F002B8
:102F8000216A0A431A605A6822F47F42E16942EAE0
:102F900001225A60002D61D0FFF74CFF854B9B68E2
:102FA000C3F30313844AD35C03F01F03D840834B5D
:102FB0001860834B1868FFF785F80346002840F037
:102FC000A282236813F0010F00F08180082D75D0D4
:102FD0000C2D71D06368B3F5803F00F09780B3F596
:102FE000A02F00F09980734B1A6822F480321A6087
:102FF0001A6822F480221A606368002B00F099801E
:10300000FFF7A2F807466B4B1B6813F4003F5ED135
:10301000FFF79AF8C01B6428F5D9032373E2654BC8
:10302000D3F894301B0903F0F0039FE7FFF7BAFED3
:10303000002840F061825F4B1A6842F008021A6073
:103040001A6822F0F002216A0A431A605A6822F4D0
:103050007F42E16942EA01225A609DE7206AFFF758
:10306000A1FE002898D001234DE2524B1A6842F08D
:1030700008021A601A6822F0F002216A0A431A60F4
:103080005A6822F47F42E16942EA01225A6098E7D5
:10309000484A136823F001031360FFF755F8074609
:1030A000444B1B6813F0020F8BD0FFF74DF8C01B89
:1030B0000228F5D9032326E2032E8BD13D4B1B6852
:1030C00013F4003F03D06368002B00F017822368DD
:1030D00013F0020F4FD0042D3CD00C2D38D0E368F4
:1030E000002B78D0334A136843F480731360FFF7E2
:1030F0002BF806462F4B1B6813F4806F62D1FFF745
:1031000023F8801B0228F5D90323FCE1294A136820
:1031100043F4803313606FE703F18043A3F53C333E
:103120001A6842F480221A601A6842F480321A60E7
:1031300062E7FFF709F807461E4B1B6813F4003FD0
:10314000C5D0FFF701F8C01B6428F5D90323DAE1E5
:10315000022EC4D1174B1B6813F4806F03D0E368B1
:10316000002B00F0CD81134A536823F0F8532169F6
:1031700043EA01635360236813F0080F56D0636974
:10318000002B3CD00B4AD2F8943043F00103C2F834
:103190009430FEF7D9FF0646064BD3F8943013F06F
:1031A000020F43D1FEF7D0FF801B0228F4D903237E
:1031B000A9E100BF0010024040A50008380000202F
:1031C00040000020B84A536823F0F853216943EACD
:1031D00001635360CFE7B44A136823F4807313602C
:1031E000FEF7B2FF0646B04B1B6813F4806FC2D0E7
:1031F000FEF7AAFF801B0228F5D9032383E1AA4A20
:10320000D2F8943023F00103C2F89430FEF79CFF0B
:103210000646A54BD3F8943013F0020F06D0FEF704
:1032200093FF801B0228F4D903236CE1236813F079
:10323000040F7AD09C4B9B6D13F0805F0BD19A4B9F
:103240009A6D42F080529A659B6D03F08053019312
:10325000019B012600E00026944B1B6813F4807F3D
:1032600026D0A368012B37D0052B3DD08E4BD3F849
:10327000902022F00102C3F89020D3F8902022F091
:103280000402C3F89020A368002B3BD0FEF75CFF3C
:103290000746854BD3F8903013F0020F44D1FEF768
:1032A00053FFC01B41F288339842F2D903232AE12D
:1032B0007E4A136843F480731360FEF745FF0746A8
:1032C0007A4B1B6813F4807FCBD1FEF73DFFC01B08
:1032D0000228F5D9032316E1734AD2F8903043F05F
:1032E0000103C2F89030CEE76F4BD3F8902042F044
:1032F0000402C3F89020D3F8902042F00102C3F8F2
:103300009020C0E7FEF720FF0746674BD3F89030C8
:1033100013F0020F08D0FEF717FFC01B41F28833ED
:103320009842F2D90323EEE06EBBA36A002B00F0B3
:10333000E980022B2DD00C2D00F0EE805A4B1A683C
:1033400022F080721A601B6813F0205F04D1564A85
:10335000D36823F00303D360534AD36823F0887300
:1033600023F48033D360FEF7EFFE04464E4B1B6818
:1033700013F0007F00F0B980FEF7E6FE001B022884
:10338000F4D90323BFE0484A936D23F0805393653B
:10339000CBE7454BDB6803F00301E26A91420FD0B3
:1033A0000C2D00F0B380404B1B6813F0806F40F091
:1033B000AF803D4B1B6813F0805F2DD00123A2E04E
:1033C00003F07002216B0139B2EB011FE8D103F465
:1033D000FE42616BB2EB012FE2D103F40031A26B2C
:1033E000073A18BF01229142DAD103F4C001E26B1F
:1033F0005208013AB1EB425FD2D103F0C063226CB4
:103400005208013AB3EB426FCAD1274B1B6813F045
:10341000007F51D0002376E0234A136823F08073A5
:103420001360FEF791FE05461F4B1B6813F0007FEB
:1034300006D0FEF789FE401B0228F5D9032362E07F
:10344000194AD3681A491940E36A206B013843EAE4
:103450000013606B43EA0023E06B4008013843EA45
:103460004053206C4008013843EA4063A06B0009D8
:1034700043EA40430B43D360136843F08073136007
:10348000D36843F08073D360FEF75EFE0446064BBC
:103490001B6813F0007F0DD1FEF756FE001B0228BB
:1034A000F5D903232FE000BF001002400070004058
:1034B0008C809DF9002326E0184B1A6842F0807238
:1034C0001A60DA6842F08072DA60FEF73DFE044668
:1034D00004E0FEF739FE001B02281BD80F4B1B68C7
:1034E00013F0007FF5D000230DE000230BE0012353
:1034F00018467047012306E0012304E0012302E09F
:10350000012300E00023184603B0F0BD0123FAE7D1
:103510000123F8E70323F6E70123F4E70010024054
:10352000002800F09B8070B504464E4B1B6803F0EA
:1035300007038B420CD24B4A136823F007030B435B
:103540001360136803F007038B4201D0012070BDA4
:103550000D46236813F0010F39D06368032B09D09F
:10356000022B26D063BB404A126812F0020F06D12C
:103570000120ECE73C4A126812F0007F70D03A4913
:103580008A6822F0030213438B60FEF7DDFD0646D6
:10359000354B9B6803F00C036268B3EB820F16D0C7
:1035A000FEF7D2FD801B41F288339842F0D9032008
:1035B000CDE72D4A126812F4003FE0D10120C6E7A2
:1035C000294A126812F4806FD9D10120BFE723681D
:1035D00013F0020F06D0244A936823F0F003A16889
:1035E0000B4393601F4B1B6803F00703AB420CD9DE
:1035F0001C4A136823F007032B431360136803F07E
:103600000703AB4201D00120A1E7236813F0040FA8
:1036100006D0154A936823F4E063E1680B43936096
:10362000236813F0080F07D00F4A936823F4605300
:10363000216943EAC1039360FFF7FCFB0A4B9B68D7
:10364000C3F30313094AD35C03F01F03D840084BAC
:103650001860084B1868FEF735FD78E701207047C1
:10366000012074E7002002400010024040A500083D
:103670003800002040000020014B1868704700BF50
:103680003800002008B5FFF7F7FF054B9B68C3F330
:103690000223044AD35C03F01F03D84008BD00BFD7
:1036A0000010024050A5000808B5FFF7E5FF054BE4
:1036B0009B68C3F3C223044AD35C03F01F03D840C2
:1036C00008BD00BF0010024050A50008F8B55A4BD5
:1036D000DB6813F0030F18D0574BDB6803F00303CC
:1036E0000268934202D001252846F8BD002A00F066
:1036F000A080514BDB68C3F302130133426893424D
:1037000001D00125F0E700251AE00368022B59D00B
:10371000032B5ED0012B01D001250FE0464A126831
:1037200012F0020F61D0444DEA6822F0730244683F
:10373000013C43EA04131343EB600025002DD3D171
:103740000F4604463C4A136823F080631360FEF77B
:10375000FBFC0646384B1B6813F0006F05D0FEF7E4
:10376000F3FC801B0228F5D90325002DBCD1002FC6
:103770003DD131490B6923F41F3323F44073A06812
:10378000E2681209520442EA002213430B612A4AFA
:10379000136843F080631360FEF7D6FC0646264BA1
:1037A0001B6813F0006F05D1FEF7CEFC801B0228CA
:1037B000F5D90325002D97D11F4A1369A1690B4341
:1037C000136191E71C4A126812F4806FABD1012596
:1037D000B4E7194A126812F4003FA4D1164A1268DD
:1037E00012F4802F9FD10125A8E70125A6E7012F1C
:1037F0000FD01148026922F0C06222F4FE42A16893
:1038000063695B08013B5B0643EA012313430361E1
:10381000BDE70948026922F4C00222F4FE42A16811
:1038200023695B08013B5B0543EA01231343036102
:10383000ADE7012558E700BF00100240F8B5514B35
:10384000DB6813F0030F18D04E4BDB6803F0030363
:103850000268934202D001252846F8BD002A00F0F4
:103860008E80484BDB68C3F30213013342689342F6
:1038700001D00125F0E700251AE00368022B59D09A
:10388000032B5ED0012B01D001250FE03D4A1268C9
:1038900012F0020F61D03B4DEA6822F073024468D7
:1038A000013C43EA04131343EB600025002DD3D100
:1038B0000F460446334A136823F080531360FEF723
:1038C00043FC06462F4B1B6813F0005F05D0FEF744
:1038D0003BFC801B0228F5D90325002DBCD1002F0D
:1038E0003DD128494B6923F41F3323F44073A0686A
:1038F000E2681209520442EA002213434B61214A52
:10390000136843F080531360FEF71EFC06461D4B00
:103910001B6813F0005F05D1FEF716FC801B022820
:10392000F5D90325002D97D1164A536961690B43D8
:10393000536191E7134A126812F4806FABD10125ED
:10394000B4E7104A126812F4003FA4D10D4A12687D
:1039500012F4802F9FD10125A8E70125A6E7094889
:10396000426922F0C06222F4FE42A16823695B082A
:10397000013B5B0643EA012313434361BFE7012593
:103980006AE700BF001002402DE9F04182B0044612
:10399000036813F4006F2FD0436EB3F5800F25D06A
:1039A00008D9B3F5000F10D0B3F5400F40F099805F
:1039B000002610E0002B40F0948000210430FFF737
:1039C00085FE06463EB1374618E05E4AD36843F4AA
:1039D0008033D36000265B4AD2F8883023F440035A
:1039E000616E0B43C2F88830002707E000212030C9
:1039F000FFF724FF0646E5E700273E46236813F459
:103A0000805F15D0A36EB3F1807F7AD06CD9B3F10B
:103A1000007F70D0B3F1407F7AD1002E7BD1494A2C
:103A2000D2F8883023F04073A16E0B43C2F888307F
:103A3000236813F4003F00F08E80424B9B6D13F01F
:103A4000805F6AD13F4B9A6D42F080529A659B6DC0
:103A500003F080530193019B4FF001083A4A136829
:103A600043F480731360FEF76FFB0546364B1B680B
:103A700013F4807F05D1FEF767FB401B0228F5D9C0
:103A80000326002E62D12F4BD3F8903013F44073ED
:103A900016D0D4F884209A4212D02A4AD2F8903014
:103AA00023F44073D2F8901041F48031C2F89010A2
:103AB000D2F8901021F48031C2F89010C2F8903002
:103AC00013F0010F2CD1002E40F043811D4AD2F893
:103AD000903023F44073D4F884100B43C2F8903034
:103AE00035E001273E4689E793B90021201DFFF705
:103AF000EDFD064691E7134AD36843F48033D36063
:103B00008BE7002104F12000FFF798FE064684E7CA
:103B100001273E468CE737468AE74FF000089DE7CD
:103B2000FEF712FB0546074BD3F8903013F0020F57
:103B3000C9D1FEF709FB401B41F288339842F2D904
:103B40000326C0E700100240007000403746B8F17D
:103B5000000F40F00081236813F0010F08D09D4A48
:103B6000D2F8883023F00303A16B0B43C2F88830EE
:103B7000236813F0020F08D0964AD2F8883023F059
:103B80000C03E16B0B43C2F88830236813F0040F79
:103B900008D0904AD2F8883023F03003216C0B43D0
:103BA000C2F88830236813F0080F08D0894AD2F889
:103BB000883023F0C003616C0B43C2F8883023685F
:103BC00013F0100F08D0834AD2F8883023F44073E2
:103BD000A16C0B43C2F88830236813F0200F08D083
:103BE0007C4AD2F8883023F44063E16C0B43C2F87E
:103BF0008830236813F4007F08D0764AD2F88830E2
:103C000023F44023E16D0B43C2F88830236813F49A
:103C1000806F08D06F4AD2F8883023F44013216EA9
:103C20000B43C2F88830236813F0400F08D0694A6C
:103C3000D2F8883023F44053216D0B43C2F888300A
:103C4000236813F0800F08D0624AD2F8883023F43A
:103C50004043616D0B43C2F88830236813F4807FC2
:103C600008D05C4AD2F8883023F44033A16D0B436E
:103C7000C2F88830236813F4005F0FD0554AD2F899
:103C8000883023F04063E16E0B43C2F88830E36E66
:103C9000B3F1006F65D0B3F1806F67D0236813F480
:103CA000002F0FD04B4AD2F8883023F04063216FA9
:103CB0000B43C2F88830236FB3F1006F5ED0B3F1CD
:103CC000806F60D0236813F4802F0FD0414AD2F860
:103CD000883023F04063616F0B43C2F88830636F14
:103CE000B3F1006F57D0B3F1806F59D0236813F44C
:103CF000804F0FD0374AD2F8883023F04053A16F5D
:103D00000B43C2F88830A36FB3F1805F50D0B3F19A
:103D1000005F55D0236813F4004F08D02D4AD2F825
:103D2000883023F08043E16F0B43C2F8883023686A
:103D300013F4803F09D0274AD2F8883023F000439B
:103D4000D4F880100B43C2F88830384602B0BDE882
:103D5000F0813746FBE61F4A936D23F0805393654D
:103D6000F9E6D36843F48013D36097E70121201D5F
:103D7000FFF7ACFC002891D007468FE7D36843F4E7
:103D80008013D3609EE70121201DFFF79FFC0028D0
:103D900098D0074696E7D36843F48013D360A5E72D
:103DA0000121201DFFF792FC00289FD007469DE7C8
:103DB0000221201DFFF78AFC0028ABD00746A9E7A7
:103DC000022104F12000FFF739FD0028A2D00746A8
:103DD000A0E700BF0010024000286AD010B50446DA
:103DE000436A33B94368B3F5827F05D00023C361CA
:103DF00002E00023036143610023A36294F85D3075
:103E0000002B4DD0022384F85D302268136823F024
:103E100040031360E368B3F5E06F47D90022B3F5C0
:103E2000706F04D0B3F5E06F01D00023A362636824
:103E300003F48273A16801F404410B43216901F08A
:103E400002010B43616901F001010B43A16901F417
:103E500000710B43E16901F038010B43216A01F065
:103E600080010B43A16A01F4005120680B430360F9
:103E7000638B03F00403616A01F010010B43616B73
:103E800001F008010B43E16801F470610B43216804
:103E900013434B6000202066012384F85D3010BD81
:103EA00084F85C302046FEF757F8ABE74FF48052B9
:103EB000B5E70120704700002DE9D84804460168A5
:103EC00083680269134342691343C2691343086854
:103ED0009B4A024013430B602268536823F440530B
:103EE000E1680B435360A1692268964B9A4201D066
:103EF000236A1943936823F430630B439360236868
:103F0000914A934227D0914A934238D0904A9342A3
:103F10004ED0904A934261D08F4A934274D0894ADE
:103F2000934200F08A80102286498B4200F0AA80DA
:103F3000E369B3F5004F00F0D880082A00F245810C
:103F4000DFE812F015012C01130143012F01430199
:103F500043014301320102F55842D2F8882002F0B1
:103F60000302032A09D8DFE802F0020481060122D5
:103F7000DAE70422D8E70822D6E71022D4E702F5D0
:103F8000E632D2F8882002F00C020C2A0ED8DFE8C4
:103F900002F0070D0D0D090D0D0D6F0D0D0D0B0030
:103FA0000022C1E70422BFE70822BDE71022BBE7D9
:103FB00002F5E432D2F8882002F03002102A09D04B
:103FC00005D9202A56D0302A06D10822ACE71AB9E2
:103FD0000022A9E70422A7E71022A5E702F5E232B2
:103FE000D2F8882002F0C002402A09D005D9802AE0
:103FF00042D0C02A06D1082296E71AB9002293E7D8
:10400000042291E710228FE702F5E032D2F88820EF
:1040100002F44072B2F5807F0BD007D9B2F5007F71
:104020002CD0B2F5407F06D108227DE71AB90022D4
:104030007AE7042278E7102276E702F5C832D2F850
:10404000882002F44062B2F5806F0BD007D9B2F538
:10405000006F15D0B2F5406F06D1082264E71AB997
:10406000002261E704225FE710225DE702225BE79E
:10407000022259E7022257E7022255E7022253E7BC
:10408000022251E7082A00F29280DFE802F008904D
:1040900010900D90909005004FF4004008E0FFF75D
:1040A000F1FA28B9002074E0FEF7C4FEF9E72B48C6
:1040B000626802EB420383427BD8B0EB023F7AD8BE
:1040C0000023070E0602500816EB000B47F1000C08
:1040D00058466146FCF710FDA0F54072204B9A420D
:1040E0006BD82368D860002053E0082A67D8DFE83F
:1040F00002F007210566246666663900174803E06A
:10410000FFF7C0FA00285CD06268530803EB400355
:10411000B3FBF2F39BB2A3F110014FF6EF729142A1
:1041200051D823F00F02C3F3420313432268D36034
:1041300000202EE0FFF7B8FAE4E7FEF77BFEE1E7A8
:10414000F369FFEF00800040003801400044004068
:1041500000480040004C0040005000400024F400A3
:10416000FFFC0F004FF40040CEE71B4802E0FFF7D2
:1041700089FA60B3636800EB5300B0FBF3F080B2E0
:10418000A0F110024FF6EF739A4222D82368D8604C
:104190000020002323666366BDE8D888FFF784FA11
:1041A000E7E7FEF747FEE4E74FF40040E2E70120CF
:1041B000EFE70120EDE70120EBE70120E9E701202F
:1041C000E7E70020E5E70120E3E70120E1E7002041
:1041D000DFE70120DDE700BF0024F400436A13F0AD
:1041E000010F06D00268536823F40033816A0B4341
:1041F0005360436A13F0020F06D00268536823F439
:104200008033C16A0B435360436A13F0040F06D036
:104210000268536823F48023016B0B435360436AA5
:1042200013F0080F06D00268536823F40043416B73
:104230000B435360436A13F0100F06D00268936873
:1042400023F48053816B0B439360436A13F0200F78
:1042500006D00268936823F40053C16B0B4393604C
:10426000436A13F0400F0AD00268536823F48013A6
:10427000016C0B435360036CB3F5801F0BD0436A92
:1042800013F0800F06D00268536823F40023816C7A
:104290000B43536070470268536823F4C003416CBA
:1042A0000B435360EBE72DE9F04104460F461646F9
:1042B0009846069D2368DB6937EA03030CBF012398
:1042C0000023B3423AD1B5F1FF3FF3D0FDF73CFFF5
:1042D000A0EB0800A8421FD8F5B123681A6812F0B5
:1042E000040FE7D0DA6912F4006FE3D04FF40062F4
:1042F0001A622268136823F4D073136022689368EB
:1043000023F00103936020236367A367E36700231F
:1043100084F87030032012E02268136823F4D0730D
:1043200013602268936823F001039360202363677E
:10433000A367002384F87030032000E00020BDE86C
:10434000F08130B583B004460023C367FDF7FCFE5F
:10435000054623681B6813F0080F0CD123681B68FF
:1043600013F0040F15D120236367A367002084F89E
:10437000700003B030BD6FF07E430093034600220F
:104380004FF400112046FFF78EFF0028E6D00320EF
:10439000EFE76FF07E4300932B4600224FF480013D
:1043A0002046FFF780FF0028DDD00320E1E768B357
:1043B00010B50446436F03B3242363672268136870
:1043C00023F0010313602046FFF776FD012813D088
:1043D000636ABBB92268536823F490435360226830
:1043E000936823F02A0393602268136843F0010363
:1043F00013602046FFF7A5FF10BD80F87030FDF771
:10440000DFFDD9E72046FFF7E9FEE3E7012070472B
:10441000DFF834D0FDF732FE002103E00B4B5B5890
:10442000435004310A480B4B42189A42F6D30A4AC9
:1044300002E0002342F8043B084B9A42F9D301F012
:1044400075F9FDF723FCFEE70080012018A600089F
:1044500000000020B0000020B0000020E80600208E
:10446000FEE70000000000002DE9F04F2DED028B6B
:10447000DFF824A38BB057EC106B55EC114B00F018
:10448000EBF99AF90080B0EE408AF0EE608AB8F15C
:10449000FF3F33D022462B4620462946FCF7EEFA52
:1044A000834658BB32463B4630463946FCF7E6FA6F
:1044B0008146002866D13046394600220023FCF7A9
:1044C000ABFA20B30022002320462946FCF7A4FAC9
:1044D000834600287DD09FEDA67B0122AA4BCDF814
:1044E00020900092CDE90267CDE904458DED067B71
:1044F0000193B8F1000F5ED09FED9F8BB0EE480A9C
:10450000F0EE680A0BB0BDEC028BBDE8F08FB0EEA8
:10451000480AF0EE680A00F0CFFF8046002800F05D
:1045200082804FF000084FF0000951EC180B424612
:104530004B46FCF771FA0028E0D047EC106B00F016
:10454000BBFF0028DAD045EC104B00F0B5FF002887
:10455000D4D09AF900308C4A019204210022022B17
:10456000CDE90267CDE90445CDE9068900910892BD
:1045700003D0684600F0A8FF10BB01F0D1F8222359
:1045800003601DE00022002320462946FCF744FA80
:104590000028B3D09FED788B01227B4BCDF820B063
:1045A000B8F1020F0092CDE90267CDE904458DED27
:1045B000068B0193A2D0684600F086FF002878D0D1
:1045C000089B1BB101F0ACF8089B03609DED068BC6
:1045D00094E745EC104B00F06FFF00288ED00022CE
:1045E000002320462946FCF721FA002886D0664A97
:1045F0009AF90030CDF820B00121CDE90267CDE96C
:104600000445CDE90012002B58D060490020022B50
:10461000CDE9060156D101F083F821230360089B00
:10462000002BD3D0CEE747EC106B00F045FF0028FD
:104630003FF477AF45EC104B00F03EFF00283FF40D
:1046400070AF53EC182B18EE100A1946FCF716FA47
:104650009AF9009000286FD10323DFF82CC108904D
:104660002946204600930022494BCDF804C0CDE9ED
:104670000445CDE90267FBF767FF04460D46B9F133
:10468000000F25D1DFF814914FF06048002200237D
:1046900030463946CDE90689FCF7C8F938BB68468B
:1046A00000F012FF0028BAD101F03AF8222303608B
:1046B000B5E701F035F82123036081E79FED2C7BFE
:1046C0008DED067B684600F0FFFE0028A7D1A2E72B
:1046D0009FED2B7B00220023304639468DED067B73
:1046E000FCF7A4F9B0B9B9F1020FDDD0D7E745EC7A
:1046F000104B00F0F5FE22462B4651EC100BFCF758
:104700008BF9B0B9234B9AF900904FF06042CDE994
:104710000623E8E745EC104B00F0E2FE22462B466C
:1047200051EC100BFCF778F918B9184B0022CDE9C1
:1047300006239AF90090D6E70122134BCDF820808A
:104740000092CDE90267CDE904450193B9F1000F6C
:10475000B4D00022002310461946FCF71FF8B9F127
:10476000020FCDE906013FF456AFABE7AFF300808F
:104770000000000000000000000000000000F03F0A
:10478000000000000000F07FA8A500080000F0FF76
:104790000000E03FFFFFEFC744000020FFFFEF47AE
:1047A0002DE9F0432DED028B8BB055EC104B00F052
:1047B000AFFD274BB0EE408AF0EE608A93F90060BF
:1047C000731C12D022462B4620462946FCF756F988
:1047D000074650B94FF000084FF00009204629461F
:1047E00042464B46FCF722F940B9B0EE480AF0EEDB
:1047F000680A0BB0BDEC028BBDE8F0830122154BBB
:1048000008970092CDE90445CDE90245019396B1A0
:1048100042464B4640464946FBF7C0FF022ECDE9D3
:1048200006010AD100F07CFF21230360089B53B9E5
:104830009DED068BD9E7CDE90689684600F044FE78
:104840000028F3D1EEE700F06BFF089B0360EFE771
:1048500044000020ACA500082DE9F04F51EC110BED
:1048600021F0004555EA000393B010D059EC108BAD
:104870006D4B29F000449C424E4610EE10AA0DDD0F
:1048800004F1404404F5801454EA0A0356D1674900
:10489000002041EC100B13B0BDE8F08F0F4611EE75
:1048A00010CA48D09D42EBDC5F4B9D425FD0002E8A
:1048B000CDE900015FDB4FF0000BBCF1000F0ED122
:1048C000594B9D4243D0594B9D4200F08C80B7F12B
:1048D000804F00F09E80564B9F4200F0B88349EC19
:1048E000108B00F0DFFD51EC100BBAF1000F06D178
:1048F000002C5AD04D4B26F040429A4255D0F60F2C
:1049000006F1FF3A5BEA0A0373D04A4B9D4240F33B
:10491000998003F104739D4240F33884464B9C42D6
:1049200072DD002F72DD3EA3D3E900231046194645
:10493000FBF70AFEADE7B8F1000F05D03F4813B012
:10494000BDE8F04F00F0C4BDA542F7DCACE704F1D0
:10495000404303F5801353EA0A0398D0364B9C4238
:1049600040F37F83002F51DBDDE9000191E7BCF1CB
:10497000000F9CD084E7324B9D4231DCA3F154738D
:104980009D4298DD2B15A3F2FF33142B40F3A18336
:10499000C3F134032CFA03F202FA03F363458AD11C
:1049A00002F00102C2F1020B87E7002F05DA02468E
:1049B0000B4600201D49FBF7F1FE002EBFF669AF44
:1049C00004F1404404F5801454EA0B0300F03A84E7
:1049D000BBF1010F7FF45DAF01F10043194658E7C9
:1049E0004FF0020B69E7002FC0F24483404649466E
:1049F0004FE742464B4610461946FBF7EDFB024691
:104A00000B46FBF7CBFE44E7002F8CDB0020002198
:104A10003FE742464B4640464946FBF795FD38E79F
:104A20009C7500883CE4377E0000F07F0000F03F7A
:104A30000000E03F0000E041FFFFEF3F94A50008C9
:104A4000FFFF3F43B4F5801F80F260830022D04B0C
:104A5000FBF77AFD6FF034060C462315CD4AC4F3FC
:104A60001304A3F2FF3344F07F559E1994420D9630
:104A700045F4401540F33D83C74B9C4240F301840D
:104A80009FEDAD7B8DED087B8DED107B9FEDAC7BBD
:104A90008DED067B01360D96A5F580154FF00008CB
:104AA000DDE9062329460646FBF796FBDDE90623EA
:104AB000CDE90A0130462946FBF790FB02460B463A
:104AC0000020B649FBF76AFE03460C46CDE90E34DA
:104AD00002460B46DDE90A01FBF736FD6B1043F099
:104AE000005303F500230A462F46014603EB080551
:104AF0000023CDE902120293DDE902890024CDE909
:104B000004122B46224640464946FBF71DFD02464D
:104B10000B46DDE90A01FBF75FFBDDE90623CDE982
:104B20000A0120462946FBF757FB02460B46304652
:104B30003946FBF751FB42464B46FBF705FD024663
:104B40000B46DDE90A01FBF747FBDDE90E23FBF726
:104B5000FBFCDDE90445CDE9060122462B46204653
:104B60002946FBF7F1FC78A3D3E9002304460D4660
:104B7000FBF7EAFC76A3D3E90023FBF72FFB2246E1
:104B80002B46FBF7E1FC74A3D3E90023FBF726FBDC
:104B900022462B46FBF7D8FC71A3D3E90023FBF791
:104BA0001DFB22462B46FBF7CFFC6FA3D3E9002366
:104BB000FBF714FB22462B46FBF7C6FC6CA3D3E99C
:104BC0000023FBF70BFB224606460F462B462046EA
:104BD0002946FBF7B9FC02460B4630463946FBF73F
:104BE000B3FC424604460D464B46DDE90401FBF7A3
:104BF000F5FADDE90623FBF7A7FC22462B46FBF777
:104C0000EDFA424606460F464B4640464946FBF7FC
:104C10009BFC0022624BCDE90A01FBF7DFFA32462A
:104C20003B46FBF7DBFA02980D46044622462B462C
:104C300040464946FBF788FC002280468946584B8F
:104C400020462946FBF7C8FADDE90A23FBF7C4FA38
:104C500002460B4630463946FBF7BEFADDE904232F
:104C6000FBF772FC224606460F462B46DDE906019D
:104C7000FBF76AFC02460B4630463946FBF7AEFAB4
:104C800006460F4602460B4640464946FBF7A6FA43
:104C9000029839A3D3E9002304460D46FBF754FCE0
:104CA0004246CDE904014B4620462946FBF794FADB
:104CB00002460B4630463946FBF78EFA30A3D3E95D
:104CC0000023FBF741FC30A3D3E9002306460F463F
:104CD00020462946FBF738FC02460B46304639464B
:104CE000FBF77CFADDE91023FBF778FA06460D980E
:104CF0000F46FBF7BFFB3246804689463B46DDE95F
:104D00000401FBF76BFADDE90823FBF767FA42467B
:104D10004B46FBF763FA029842464B4604460D4663
:104D2000FBF75AFADDE90823FBF756FADDE904231D
:104D300038E000BFAFF3008000000000000000007A
:104D4000000000000000F03FEF4E454A287ECA3FB9
:104D500065DBC9934A86CD3F01411DA96074D13FEF
:104D60004D268F515555D53FFFAB6FDBB66DDB3F01
:104D7000033333333333E33F000000E009C7EE3F32
:104D8000FD033ADC09C7EE3FF5015B14E02F3EBEA0
:104D9000000040438E98030079B60B000000F03FFE
:104DA00000000840FBF718FA0B4602463946304629
:104DB000FBF712FA0BF1FF3353EA0A03CDE90401C2
:104DC00000F05F819FEDD27B8DED027BDDE900ABD2
:104DD000002356465F46CDE900670093DDE9006792
:104DE000504632463B465946FBF7F6F922462B46DB
:104DF000FBF7AAFB5246804689465B46DDE9040183
:104E0000FBF7A2FB02460B4640464946FBF7E6F994
:104E10003246804689463B4620462946CDE90489EC
:104E2000FBF792FB0B46024606460F4640464946B4
:104E3000FBF7D4F9D04B994204460D468A4640F31D
:104E4000258101F13F4303F5E003034340F0FE8178
:104E5000B1A3D3E90023DDE90401FBF7BFF9324632
:104E6000804689463B4620462946FBF7B5F902466F
:104E70000B4640464946FBF7F7FD002840F0E68127
:104E8000A8464FEA2853A3F2FE324FF48013134191
:104E90005344C3F30A52B94DA2F2FF321541C3F392
:104EA000130423EA05010020C2F1140B44F480141A
:104EB000BAF1000F02460B4644FA0BFB3046394666
:104EC000B8BFCBF1000BFBF787F906460F46324619
:104ED000DDE904013B46FBF781F94FEA0B5A0D4629
:104EE00000248FA3D3E9002320462946FBF72CFB9F
:104EF0003246804689463B4620462946FBF76CF9F8
:104F000002460B46DDE90401FBF766F986A3D3E907
:104F10000023FBF719FB86A3D3E9002306460F46BF
:104F200020462946FBF710FB02460B463046394621
:104F3000FBF754F906460F4602460B4640464946E3
:104F4000FBF74CF942464B4604460D46FBF744F945
:104F500002460B4630463946FBF73EF9224680466C
:104F600089462B4620462946FBF7EEFA72A3D3E981
:104F7000002306460F46FBF7E7FA71A3D3E90023A7
:104F8000FBF72AF932463B46FBF7DEFA6EA3D3E97C
:104F90000023FBF723F932463B46FBF7D5FA6CA317
:104FA000D3E90023FBF718F932463B46FBF7CCFA6E
:104FB00069A3D3E90023FBF711F932463B46FBF71F
:104FC000C3FA02460B4620462946FBF705F906467A
:104FD0000F4602460B4620462946FBF7B5FA00224B
:104FE000CDE900014FF0804330463946FBF7F4F835
:104FF00002460B46DDE90001FBF7D0FB42460646C0
:105000000F464B4620462946FBF79EFA42464B4642
:10501000FBF7E4F802460B4630463946FBF7DCF86E
:1050200022462B46FBF7D8F802460B46002054498F
:10503000FBF7D2F88A44BAF5801F02460B46C0F24D
:1050400030815146DDE90223FBF77EFA21E4002E90
:10505000FFF645AC49EC108B13B0BDE8F04F00F003
:1050600057B9002FBFF6D2ACDDE90034184604F181
:1050700000410EE442464B4600204149FBF78EFBBF
:1050800007E49FED377B8DED027B9FE63D4B21F0E2
:105090000048984540F3E8803B4B0B4403430AD15A
:1050A00032463B46FBF798F8DDE90423FBF7D2FCD8
:1050B00000283FF4E6AEDDE902012BA3D3E900238B
:1050C000FBF742FA28A3D3E90023FBF73DFAFFF7E9
:1050D000E0BBBCF1000F40F0D080C3F1140345FAEF
:1050E00003F202FA03F3AB4200F0E380E346FFF77A
:1050F000EABB9FED1F7B8DED087B8DED107B9FED57
:10510000047B4FF000088DED067BC9E40026A4E483
:10511000000000000000F03FFE822B654715973C21
:1051200000000000432EE63FEF39FAFE422EE63F34
:10513000396CA80C615C20BED0A4BE726937663E93
:10514000F16BD2C541BDBB3E2CDE25AF6A56113F87
:1051500093BDBE166CC1663F3E5555555555C53F6E
:10516000000000000000F0BF59F3F8C21F6EA50157
:105170000000000000000000FFFF8F40FFFF0F0055
:105180000000F03FFFCB904000346F3F5C4B9C42EF
:105190007FF73AAC5B4B9C423FF7C3AB0022594BC5
:1051A000FBF71AF846A3D3E9002304460D46FBF7A4
:1051B000CBF945A3D3E900238046894620462946FA
:1051C000FBF7C2F90022CDE902014F4B20462946E8
:1051D000FBF7BAF902460B463DA1D1E90001FAF707
:1051E000FBFF22462B46FBF7AFF902460B46002099
:1051F0004649FAF7F1FF224606460F462B4620465F
:105200002946FBF7A1F902460B4630463946FBF723
:105210009BF931A3D3E90023FBF796F902460B462D
:10522000DDE90201FAF7D8FF02460B4606460F46B3
:1052300040464946FAF7D2FF002004460D46424652
:105240004B46AFE502460B46FFF7D5BBDDE9020151
:1052500023A3D3E90023FBF777F921A3D3E90023A4
:10526000FBF772F9FFF715BB284B98453FF709AEDE
:10527000DDE900239246934632E64FF0000BFFF73C
:105280002EBB9FED197B8DED087B9FED197B8DED7E
:10529000107B9FED197B4FF480288DED067BFFF787
:1052A000FFBB584643EC102B00F0A2F951EC100B59
:1052B000C8E602F00102C2F1020BFFF704BB00BF17
:1052C000000000604715F73F44DF5DF80BAE543E29
:1052D000555555555555D53FFE822B654715F73F1A
:1052E0009C7500883CE4377E0000004003B8E23F34
:1052F00006D0CF43EBFD4C3E000000000000F83F1D
:10530000FEFFEF3F0000F03F0000D03F0000E03F15
:105310002DE9F041624A57EC106BBA4300F09580DA
:10532000002F3B4610EE101A344654DD3F1500F0B6
:10533000AF80C3F31303A7F2FF3743F48013E20FE8
:10534000F90702EB43034FEA440503D5ED0F05EBE4
:105350004303A50000267F10B44616224FF4001127
:105360000CEB010098424FEAD5744FEA450503DC87
:105370001B1A00EB010C0E44013A04EB43034FEA05
:105380005101EDD11046964620244FF0004209E02D
:1053900052D05B00013C03EBD5734FEA52024FEA57
:1053A000450536D0634502EB0E01F1DD002901EB26
:1053B000020E0ADBE046A3EB0C03A94288BF03F10F
:1053C000FF336D1A1044C446E3E7BEF1000FF1DB72
:1053D0000CF10108EFE727F0004232432AD0002FFA
:1053E00049D1CA0A153B4905002AFAD012F48010A7
:1053F00001D050E020465200D50200F10104F9D559
:10540000C4F1200501FA04F4E9401F1A41EA02033D
:105410008FE72B4329D144087110F30701F17F5125
:1054200001F5001148BF44F0004401EB0753224648
:1054300043EC102BBDE8F081A942AAD8002901EB6A
:10544000020EC2DB98460023BBE710EE102A3B4653
:1054500010EE100A3946FBF777F832463B46FAF76A
:10546000BDFE41EC100BBDE8F081421C16BF421C92
:1054700001365408D0E710EE102A30463946FAF7C4
:10548000ABFE02460B46FBF789F941EC100BD1E766
:105490001A463B46AAE70C4620254FF0FF30B3E7FB
:1054A0000000F07F51EC100B10EE102A21F00043A9
:1054B00043EC102B704700BF10EE903A43F00040D1
:1054C00000F58010C00F70470020704700000000FA
:1054D0009FED010B704700BF000000000000F87F47
:1054E000F0B551EC100BC1F30A55A5F2FF32132AA7
:1054F00083B00B464FEAD17610EE104A2FDC002A1B
:105500004ADB394D154101EA0507074323D06D08F1
:1055100029400C430CD04FF48021132A23EA0505BF
:1055200041FA02F343EA05030CBF4FF000440024A4
:105530002E4A02EBC6062046D6E900450246294619
:105540002046FAF74BFECDE9000122462B46DDE965
:105550000001FAF741FE41EC100B03B0F0BD332A15
:1055600007DDB2F5806FF6D110EE102AFAF736FE9D
:10557000F1E7A5F213454FF0FF32EA401042EAD0BE
:1055800052081042D4D04FF0804124EA020241FA7E
:1055900005F542EA0504CBE721F000420243DAD0E8
:1055A000C1F3130202435442104D1443240B05EB84
:1055B000C6004F0C04F40021D0E900457F0410EE32
:1055C000102A41EA070320462946FAF707FECDE9EB
:1055D00000012B462246DDE90001FAF7FDFD21F02E
:1055E000004343EAC671B6E7FFFF0F00B8A5000805
:1055F00038B553EC102BC3F30A511C46054629BBA2
:1056000010EE101A23F0004421431ED01946002248
:10561000394B3A4C10EE100AFAF796FFA5420246B3
:105620000B4636DB0C46C1F30A513639294440F2A9
:10563000FE70814235DC002914DD24F0FF4424F49F
:10564000E00444EA015343EC102B38BD40F2FF70F4
:105650008142EBD110EE100A1946FAF7BFFD41EC7A
:10566000100B38BD11F1350F1EDA4CF250318D425E
:1056700043EC112B28DD9FED1C0B00F043F81AA31F
:10568000D3E9002351EC100BFAF75EFF41EC100B4D
:1056900038BD17A3D3E90023FAF756FF41EC100BEE
:1056A00038BD43EC112BE6E724F0FF4424F4E0047A
:1056B000363144EA0153104619460022104BFAF7DE
:1056C00043FF41EC100B38BD9FED090B00F01AF8B9
:1056D00007A3D3E9002351EC100BFAF735FF41EC97
:1056E000100B38BDAFF300809C7500883CE4377E1A
:1056F00059F3F8C21F6EA50100005043B03CFFFFF4
:105700000000903C53EC102B11EE900A23F0004166
:1057100000F0004041EA000343EC102B704700BF4B
:10572000014B1868704700BF4800002070B50D4E4F
:105730000D4CA41BA4100025A54209D10B4E0C4C06
:1057400000F026FCA41BA4100025A54205D170BDC5
:1057500056F8253098470135EEE756F8253098473A
:105760000135F2E708A6000808A6000808A6000808
:105770000CA6000810B5431E0A44914200D110BD8A
:1057800011F8014B03F8014FF7E7884210B501EB20
:10579000020307D8421E99420AD011F8014B02F8C1
:1057A000014FF8E78342F5D98118D21AD34200D1CC
:1057B00010BD13F8014D01F8014DF7E7024403460F
:1057C000934200D1704703F8011BF9E70EB400B50E
:1057D0009CB01DAB029006906FF000410948079104
:1057E0000491094953F8042B05910068019302A91B
:1057F00000F066F8029B00221A701CB05DF804EB02
:1058000003B07047480000200802FFFF2DE9F04771
:105810008E689E4282460C469046994637D88A89C1
:1058200012F4906F31D0256809696F1A65690223F7
:1058300005EB450595FBF3F509F101033B449D425A
:1058400038BF1D46530530D5294600F007FB0646F4
:1058500050B90C23CAF80030A38943F04003A38158
:105860004FF0FF30BDE8F0873A462169FFF782FF2D
:10587000A38923F4906343F08003A38126616561CB
:105880003E44ED1B2660A5604E464E4500D94E466F
:10589000324641462068FFF778FFA3689B1BA36050
:1058A00023681E4426600020DCE72A4600F030FB17
:1058B00006460028E2D12169504600F081FAC8E787
:1058C0002DE9F04F1D468B891F069DB080460C4682
:1058D00016460FD50B696BB9402100F0BFFA206066
:1058E000206128B90C23C8F800304FF0FF30C8E021
:1058F000402363610023099320238DF8293030234E
:105900008DF82A3003954FF0010B37463D4615F8C8
:10591000013B0BB1252B3ED1B7EB060A0BD053460A
:10592000324621464046FFF771FF013000F0A48067
:10593000099B534409933B78002B00F09D80002382
:105940004FF0FF32CDE90523049307938DF85330D0
:105950001A932F46052217F8011B5048FBF758FAF7
:10596000049BD0B9D90644BF20228DF853201A07D2
:1059700044BF2B228DF853202A782A2A15D0079A63
:105980002F4600200A25394611F8013B303B092BF0
:105990004DD9B8B10FE02F46B8E7404A801A0BFA4C
:1059A00000F0184304903D46D3E7039A111D126896
:1059B0000391002A01DB079204E0524243F0020304
:1059C000079204933B782E2B0CD17B782A2B33D172
:1059D000039B1A1D1B680392002BB8BF4FF0FF33C7
:1059E000023705932E4D397803222846FBF710FA2B
:1059F00038B14023401B03FA00F0049B03430137F6
:105A00000493397827488DF8281006227E1CFBF76E
:105A1000FFF9002838D0244B13BB039B073323F036
:105A2000070308330393099B4B4409936DE705FB78
:105A3000023201200F46A6E70023013705931946DD
:105A40000A25384610F8012B303A092A03D9002BD1
:105A5000C8D00591C6E705FB012101230746F0E701
:105A600003AB00932246114B04A94046AFF30080DC
:105A7000B0F1FF3F8146D6D1A3895B063FF535AF34
:105A800009981DB0BDE8F08F03AB00932246074B89
:105A900004A9404600F082F8EAE700BFC8A5000864
:105AA000CEA50008D2A50008000000000D5800088F
:105AB0002DE9F04791461F468A680B69DDF8208082
:105AC0009342B8BF1346C9F8003091F84320064608
:105AD0000C4612B10133C9F800302368990642BF61
