:020000040800F2
:10000000008001200D2D0008F90C0008FB0C0008F1
:10001000FD0C0008FF0C0008010D000800000000A6
:10002000000000000000000000000000030D0008B8
:10003000050D000800000000070D0008090D00086C
:100040005D2D00085D2D00085D2D00085D2D000868
:100050005D2D00085D2D00085D2D00085D2D000858
:100060005D2D00085D2D00085D2D00085D2D000848
:100070005D2D00085D2D00085D2D00085D2D000838
:100080005D2D00085D2D00085D2D00085D2D000828
:100090005D2D00085D2D00085D2D00085D2D000818
:1000A0005D2D00085D2D00085D2D00085D2D000808
:1000B0005D2D00085D2D00085D2D00085D2D0008F8
:1000C0005D2D00085D2D00085D2D00085D2D0008E8
:1000D0005D2D00085D2D00085D2D00085D2D0008D8
:1000E0005D2D00085D2D00085D2D00085D2D0008C8
:1000F0005D2D00085D2D00085D2D00085D2D0008B8
:100100005D2D00085D2D00085D2D00085D2D0008A7
:100110005D2D00085D2D00085D2D00085D2D000897
:100120005D2D00085D2D00085D2D00085D2D000887
:100130005D2D00085D2D00085D2D00085D2D000877
:100140005D2D00085D2D00085D2D00085D2D000867
:100150005D2D00085D2D00085D2D00085D2D000857
:100160005D2D00085D2D00085D2D00085D2D000847
:100170005D2D00085D2D00085D2D000800000000C9
:080180005D2D00085D2D000853
:1001880010B5054C237833B9044B13B10448AFF3C9
:1001980000800123237010BD300000200000000003
:1001A800B82D000808B5034B1BB103490348AFF34A
:1001B800008008BD0000000034000020B82D0008B1
:1001C80053B94AB9002908BF00281CBF4FF0FF31B6
:1001D8004FF0FF3000F072B9ADF1080C6DE904CEB4
:1001E80000F006F8DDF804E0DDE9022304B070470A
:1001F8002DE9F047089E04468846002B4BD18A42D9
:10020800154667D9B2FA82F24AB1C2F1200701FA5B
:1002180002F320FA07F7954047EA030894404FEAAB
:10022800154E230CB8FBFEF71FFA85FC0EFB17884A
:1002380043EA084307FB0CF1994209D9EB1807F187
:10024800FF3080F01B81994240F21881023F2B4415
:100258005B1AA4B2B3FBFEF00EFB103344EA03446E
:1002680000FB0CFCA44509D92C1900F1FF3380F0E0
:100278000781A44540F2048102382C4440EA074033
:10028800A4EB0C0400271EB1D4400023C6E90043A8
:100298003946BDE8F0878B4209D9002E00F0EB8083
:1002A8000027C6E9000138463946BDE8F087B3FAA9
:1002B80083F7002F47D18B4202D3824200F2FA80A3
:1002C800841A61EB030301209846002EE0D0C6E9AA
:1002D8000048DDE702B9FFDEB2FA82F2002A40F0F8
:1002E8008F80491B4FEA154E1FFA85F80127B1FB8D
:1002F800FEFC230C0EFB1C1143EA014308FB0CF126
:10030800994207D9EB180CF1FF3002D2994200F25A
:10031800CD808446591AA3B2B1FBFEF00EFB10142F
:1003280043EA044408FB00F8A04507D92C1900F15A
:10033800FF3302D2A04500F2B6801846A4EB0804A9
:1003480040EA0C409FE7C7F1200CBB4022FA0CFEA4
:100358004EEA030E01FA07F420FA0CF521FA0CF321
:100368004FEA1E482543B3FBF8F92C0C08FB193358
:100378001FFA8EFA44EA034309FB0AF49C4202FA84
:1003880007F200FA07F10BD91EEB030309F1FF305E
:1003980080F087809C4240F28480A9F1020973446E
:1003A8001B1BADB2B3FBF8F008FB103345EA03445E
:1003B80000FB0AFAA24508D91EEB040400F1FF333A
:1003C8006BD2A24569D90238744440EA0940A0FBBF
:1003D8000289A4EB0A044C45C2464B4654D351D07B
:1003E800002E69D0B1EB0A0564EB030404FA0CFC97
:1003F800FD40FC404CEA0505C6E90054002747E7E4
:10040800C2F1200320FA03F7954001FA02F021FA1D
:1004180003F34FEA154E3843010CB3FBFEF71FFAFE
:1004280085F80EFB173341EA034107FB08F38B42BB
:1004380004FA02F407D9691807F1FF3C2FD28B425E
:100448002DD9023F2944CB1A81B2B3FBFEF00EFB33
:10045800103341EA034100FB08F38B4207D96918BE
:1004680000F1FF3C17D28B4215D902382944C91A2A
:1004780040EA07473BE73746304609E70746E7E6DD
:100488001846FBE64145ABD2B8EB020A69EB0E020F
:1004980001381346A4E76046E9E7184695E767463A
:1004A800D1E781467CE702382C4447E7ACF1020CDF
:1004B8002B442FE7384608E73746E9E6704700BF80
:1004C80000B587B006AA02F8010D4FF0FF3302937A
:1004D80001230193009200227821034800F060FF75
:1004E80007B05DF804FB00BFA004002000B585B08C
:1004F8004FF0FF33029389B201910090012340220B
:100508007821034800F04CFF05B05DF804FB00BFFC
:10051800A0040020002303E0FF21054AD154013341
:10052800B3F5806F03D20028F6D10021F5E77047B4
:100538004C00002010B5002412E0A4F15000C0B215
:10054800FFF7BEFF0020FFF7BBFF1020FFF7B8FF43
:100558008021054800EBC410FFF7C8FF0134E4B25E
:10056800072CEAD910BD00BF4C00002010F0800F06
:1005780016D13F2914D8114B93F8043413B1B2FAA9
:1005880082F25209012A0CD0CB0800EBC31001F00B
:10059800070101238B40094A115C21EA0301115428
:1005A8007047CB0800EBC31001F0070101238B4013
:1005B800024A115C19431154704700BF4C000020D7
:1005C8002DE9F04F83B002AC04E90600A0F1200247
:1005D800D2B25E2A4BD82A4AB2F800249DF80060AD
:1005E8003244802A47DC264AB2F802249DF801A04A
:1005F800D3465244402A40DC1F468146002523E06A
:100608001F4BB3F80004B3F8021429442044B7FA86
:1006180087F25209C9B2C0B2FFF7A8FF0134A64257
:1006280011D908FA04F313F4004FE9D0144BB3F8C6
:100638000004B3F80214294420443A46C9B2C0B2AF
:10064800FFF794FFEAE70135AA4508D9A9F1200385
:1006580003FB0B53019A32F813800024DFE7084BA1
:10066800B3F800241644A3F80064484600E00020CC
:1006780003B0BDE8F08F0020FAE70020F8E700BFDC
:100688004C000020024BA3F80004A3F802147047A2
:100698004C00002010B504468120FFF711FF2046CA
:1006A800FFF70EFF10BD000008B538B9064B002251
:1006B80083F80624AE20FFF703FF08BD024B012292
:1006C80083F80624AF20F6E74C00002008B5642024
:1006D80000F086FB0020FFF7E7FF2020FFF7F0FE81
:1006E8000020FFF7EDFEB020FFF7EAFEC820FFF775
:1006F800E7FE0020FFF7E4FE1020FFF7E1FE4020B0
:10070800FFF7DEFEFF20FFF7C5FFA120FFF7D8FEA9
:10071800A620FFF7D5FEA820FFF7D2FE3F20FFF75F
:10072800CFFEA420FFF7CCFED320FFF7C9FE0020A0
:10073800FFF7C6FED520FFF7C3FEF020FFF7C0FE87
:10074800D920FFF7BDFE2220FFF7BAFEDA20FFF717
:10075800B7FE1220FFF7B4FEDB20FFF7B1FE202022
:10076800FFF7AEFE8D20FFF7ABFE1420FFF7A8FEC3
:100778000120FFF799FF0020FFF7CCFEFFF7DAFE14
:10078800044B0022A3F80024A3F80224012283F8D2
:10079800052408BD4C0000202DE9F0418AB0002452
:1007A80005940694079408940994424BDA6C42F035
:1007B8008002DA64DA6C02F080020092009ADA6C45
:1007C80042F00402DA64DA6C02F004020192019A3F
:1007D800DA6C42F00102DA64DA6C02F00102029289
:1007E800029ADA6C42F01002DA64DA6C02F0100253
:1007F8000392039ADA6C42F00202DA64DB6C03F0CB
:1008080002030493049BDFF8B88022460321404684
:1008180000F03AFC224619214FF0904000F034FCD9
:10082800254F22464FF47041384600F02DFC234EE8
:1008380022464FF48071304600F026FC03230593CE
:10084800012506950794089405A9404600F038FB51
:100858001923059306950794089405A94FF090402D
:1008680000F02EFB062305930694079405A94FF084
:10087800904000F025FB4FF47043059306950794CC
:10088800089405A9384600F01BFB802305930694BD
:10089800079405A9304600F013FB4FF480730593C5
:1008A80006950794089405A9304600F009FB0AB09C
:1008B800BDE8F08100100240001000480008004820
:1008C800001C004838B50D4C0D4B23600D4B636080
:1008D8000025A5600123E36025616561A561E561E7
:1008E8002562204600F0FEFC2946204600F02AFE3C
:1008F8002946204600F054FE38BD00BFA004002061
:1009080000540040D38D801038B50D4C0D4B23603A
:100918000D4B63600025A5600123E36025616561D7
:10092800A561E5612562204600F0DCFC29462046E9
:1009380000F008FE2946204600F032FE38BD00BF10
:10094800EC04002000580040D38D801038B50D4CC1
:100958000D4B23600D4B63600025A5600123E36008
:1009680025616561A561E5612562204600F0BAFC54
:100978002946204600F0E6FD2946204600F010FEF4
:1009880038BD00BF54040020005C0040D38D8010A7
:1009980008B50E480E4B03604FF482734360002382
:1009A80083604FF44072C260036143614FF4007288
:1009B8008261C3610362436283620722C262036386
:1009C8000823436301F082FE08BD00BFB80500207C
:1009D8000030014008B50948094B03604FF4E13382
:1009E800436000238360C36003610C22426183611A
:1009F800C3610362436202F054F908BD3805002060
:100A08000038014030B5B9B024252A46002128A86D
:100A180002F0C6F900242294239424942594269461
:100A280088222146684602F0BBF910232793012249
:100A38002D9260232F93022331933292339234956F
:100A4800072235923693379327A800F0C7FE0F2365
:100A5800229303232393249425942694042122A8E3
:100A680001F0D8F940F2C11300930E941494159430
:100A78001694684601F002FC4FF4007000F0C4FDC3
:100A880039B030BD10B500F089F9FFF7BBFFFFF7AB
:100A980083FEFFF717FFFFF737FFFFF757FFFFF753
:100AA80077FFFFF797FFFFF711FE0020FFF732FDF2
:100AB80000210220FFF7E6FD00240CE0074A01238D
:100AC80006CA0748005DFFF77BFD642000F088F93F
:100AD800FFF730FD0134102CF0D9FEE7100000209C
:100AE8001C5C000882B00A4B1A6E42F001021A66BA
:100AF8001A6E02F001020092009A9A6D42F080523A
:100B08009A659B6D03F080530193019B02B0704777
:100B18000010024010B58CB0002307930893099386
:100B28000A930B930368384A934207D0374A934293
:100B380026D0374A934246D00CB010BD354CE36CF2
:100B480043F00203E364E36C03F002030193019BA7
:100B5800C0230793122308930123099303230A93BD
:100B680004230B9307A92C4800F0AAF9A36D43F4BA
:100B78000013A365A36D03F400130293029BDBE744
:100B8800244CE36C43F00203E364E36C03F00203D8
:100B98000393039B4FF440630793122308930123A5
:100BA800099303230A9304230B9307A91A4800F017
:100BB80087F9A36D43F48003A365A36D03F4800351
:100BC8000493049BB8E7134CE36C43F00403E36419
:100BD800E36C03F004030593059B03230793122298
:100BE8000892012209920A9304230B9307A90B4840
:100BF80000F066F9A36D43F40003A365A36D03F445
:100C080000030693069B97E70054004000580040F5
:100C1800005C004000100240000400480008004842
:100C280000B589B0002303930493059306930793B3
:100C38000268144B9A4202D009B05DF804FB03F530
:100C480060431A6E42F480521A661A6E02F4805299
:100C58000192019ADA6C42F00102DA64DB6C03F06B
:100C680001030293029BE0230393022304930323CB
:100C780006930523079303A94FF0904000F020F94D
:100C8800DAE700BF0030014000B589B000230393C4
:100C980004930593069307930268144B9A4202D073
:100CA80009B05DF804FB03F558431A6E42F480421C
:100CB8001A661A6E02F480420192019ADA6C42F0C6
:100CC8000102DA64DB6C03F001030293029B4FF428
:100CD800C063039302230493032306930723079314
:100CE80003A94FF0904000F0EBF8D9E70038014035
:100CF8007047FEE7FEE7FEE7FEE77047704770477C
:100D080008B500F05BF808BD0F49D1F8883043F406
:100D18007003C1F888300D4B1A6842F001021A605E
:100D2800002098601A6822F0A85222F410221A6053
:100D38004FF48052DA601A6822F480221A609861AF
:100D48004FF000638B60704700ED00E00010024038
:100D5800104B1B780BB90120704710B504464FF4AF
:100D68007A70B0FBF3F30C4A1068B0FBF3F000F0B4
:100D780091F868B90F2C01D901200AE00022214618
:100D88004FF0FF3000F052F8024B5C60002000E0AA
:100D9800012010BD240000202000002010B50320F1
:100DA80000F032F80020FFF7D3FF10B101242046ED
:100DB80010BD0446FFF796FEF9E70000034B1B78C9
:100DC800034A11680B441360704700BF24000020D9
:100DD8001C060020014B1868704700BF1C06002045
:100DE80038B50446FFF7F6FF0546B4F1FF3F02D0D9
:100DF800044B1B781C44FFF7EDFF401BA042FAD3BD
:100E080038BD00BF24000020074AD36823F4E063FC
:100E18001B041B0C000200F4E060184340F0BF60A4
:100E280040F40030D060704700ED00E030B4174B5C
:100E3800DB68C3F30223C3F10704042C28BF04248E
:100E48001D1D062D18D9033B4FF0FF3505FA04F494
:100E580021EA0401994005FA03F322EA030319433E
:100E680000280BDB0901C9B200F1604000F56140C0
:100E780080F8001330BC70470023E5E700F00F004E
:100E88000901C9B2024B1954F4E700BF00ED00E0B4
:100E980014ED00E00138B0F1807F0AD2064B5860AB
:100EA800064AF02182F823100020986007221A6071
:100EB80070470120704700BF10E000E000ED00E03F
:100EC800F0B583B000233FE0C66A26EA0406C5F3FE
:100ED800C0049C403443C4625FE0062400E0002460
:100EE800B4403C430235644E46F82540634C2568BF
:100EF800D44304EA05064F6817F4803F01D042EA5C
:100F080005065E4D2E606D6804EA05064F6817F405
:100F1800003F01D042EA0506584D6E60AD6804EA0C
:100F280005064F6817F4801F01D042EA0506534DA5
:100F3800AE60ED682C404E6816F4001F01D042EAFE
:100F480005044E4AD46001330A6832FA03F400F00B
:100F5800918001249C402240F5D04D686E1E012EE0
:100F680003D9112D01D0122D12D186685F000325F7
:100F7800BD4026EA0506CD68BD4035438560466814
:100F880026EA04064D68C5F300159D4035434560C3
:100F98004D6805F00306032E96D0C5685F0003244C
:100FA800BC40E44325408E68BE402E43C6604D6871
:100FB800022D01D0122D13D1DE08083650F826E094
:100FC80003F007054FEA850C0F2505FA0CF52EEA04
:100FD800050E0D6905FA0CF545EA0E0540F8265090
:100FE80005682C404D6805F00305BD402C4304609E
:100FF8004C6814F0805FA6D0214C256E45F00105A1
:101008002566246E04F001040194019C9D08AE1C21
:10101800194C54F8267003F00304A6000F24B440BA
:1010280027EA0407B0F1904F3FF459AF154CA0429E
:1010380016D004F58064A04214D004F58064A04260
:1010480012D004F58064A04210D004F58064A04258
:101058000ED004F58064A0423FF43FAF07243FE779
:1010680001243DE702243BE7032439E7042437E75A
:10107800052435E703B0F0BD00000140000401403D
:1010880000100240000400480AB98162704781617B
:10109800704703689A6912F0020F01D000229A6221
:1010A80003689A6912F0010F03D19A6942F00102AC
:1010B8009A61704770B4039E05686868740D04F4FB
:1010C800806444F07F7444F4583444F47F7444F0EA
:1010D800030420EA0400C1F3090141EA024119436B
:1010E80031430143696070BC704770B504460D46D2
:1010F800164603689B6913F0100F1CD023689A6981
:1011080012F0200F19D1B5F1FF3FF7D0FFF762FEBB
:10111800801BA84201D8002DF0D1636C43F0200356
:101128006364202384F84130002384F8423084F833
:101138004030012020E000201EE01022DA61236800
:101148002025DD612046FFF7A4FF2268536823F0BD
:10115800FF7323F48B3323F4FF7323F001035360ED
:10116800636C43F00403636484F84150002384F8FB
:10117800423084F84030012070BD70B504460D46F9
:10118800164623689B6913F0020F1DD13246294683
:101198002046FFF7AAFFC8B9B5F1FF3FF1D0FFF726
:1011A80019FE801BA84201D8002DEAD1636C43F0D8
:1011B80020036364202384F84130002384F84230FC
:1011C80084F84030012000E0002070BD0120FCE7D9
:1011D800F8B505460F4616461C462B689B6937EA44
:1011E80003030CBF01230023B34218D1B4F1FF3F1E
:1011F800F3D0FFF7EFFD069BC01AA04201D8002CE0
:10120800EBD16B6C43F020036B64202385F84130ED
:10121800002385F8423085F84030012000E00020A6
:10122800F8BD000070B582B0044616461D46184B3E
:1012380000934FF08073EAB2FFF73CFF079A0699D4
:101248002046FFF79AFFE8B9012D0ED12368F6B2C0
:101258009E62079B0093069B002280212046FFF791
:10126800B7FF034678B101230DE02368320A9A627A
:10127800079A06992046FFF780FF38B92368F6B227
:101288009E62E6E70123184602B070BD0123FAE723
:101298000020008070B505460C4616462B689B69F1
:1012A80013F0200F1AD1324621462846FFF71DFFBA
:1012B800B0B9FFF78FFD801BA04201D8002CEDD1FB
:1012C8006B6C43F020036B64202385F841300023C6
:1012D80085F8423085F84030012070BD0020FCE7D9
:1012E8000120FAE7002859D010B5044690F841309B
:1012F800002B43D0242384F841302268136823F05C
:10130800010313606368226823F070631361226825
:10131800936823F400439360E368012B33D0A368F8
:10132800226843F404439360E368022B31D02268B7
:10133800536843F0007343F4004353602268D36852
:1013480023F40043D360236962691343A1692268C7
:1013580043EA0123D360E369216A22680B431360DF
:101368002268136843F0010313600020606420239F
:1013780084F84130206384F8420010BD80F8403082
:10138800FFF7C8FBB6E7A368226843F400439360FD
:10139800CAE723684FF400625A60C8E70120704723
:1013A8002DE9F04782B0BDF82C7090F84150EDB2AD
:1013B800202D40F0BA800A9CDCB1D7B190F84040AB
:1013C800012C00F0B780984691460D4604464FF030
:1013D800010A80F840A0FFF7FDFC0646009019239B
:1013E80052464FF400412046FFF7F2FE30B1012388
:1013F8009CE04FF400734364012397E0212384F8B1
:101408004130402384F84230002363640A9A6262C0
:101418006785636301960C9B009343464A462946B9
:101428002046FFF7FFFE70B9638D9BB2FF2B0FD9E3
:10143800FF222285002300934FF08073294620461F
:10144800FFF738FE21E0002384F8403053466DE072
:10145800628D92B22285002300934FF00073D2B2BE
:1014680029462046FFF726FE0FE0628D92B22285BC
:10147800002300934FF00073D2B229462046FFF7AD
:1014880019FE638D9BB2002B32D032460C99204650
:10149800FFF773FE00284FD1626A236812789A62B8
:1014A800636A01336362638D013B9BB26385238D5D
:1014B800013B9BB22385628D92B2002AE1D0002BBA
:1014C800DFD100960C9B002280212046FFF780FE8A
:1014D800A0BB638D9BB2FF2BC7D9FF2222850023B7
:1014E80000934FF0807329462046FFF7E3FDC8E7D5
:1014F80032460C992046FFF7CDFE034600BB226812
:101508002021D1612068426822F0FF7222F48B32D8
:1015180022F4FF7222F00102426084F84110002296
:1015280084F8422084F8402000E00223184602B0E4
:10153800BDE8F0870223F9E70123F7E70123F5E780
:101548000123F3E790F84130DBB2202B24D190F847
:101558004030012B22D0012380F84030242380F82A
:1015680041300268136823F00103136002681368AE
:1015780023F48053136002681368194311600268EA
:10158800136843F001031360202380F841300023DF
:1015980080F8403018467047022070470220704794
:1015A80090F84130DBB2202B22D190F84030012B4B
:1015B80020D0012380F84030242380F8413002688D
:1015C800136823F0010313600268136823F470633F
:1015D80043EA012111600268136843F001031360B4
:1015E800202380F84130002380F8403018467047A7
:1015F8000220704702207047024B186800F4C06050
:10160800704700BF00700040B0F5007F0FD01F4B3F
:101618001B6803F4C063B3F5806F34D01B4A1368AA
:1016280023F4C06343F48063136000207047174BB2
:101638001B6803F4C063B3F5007F22D0134A136814
:1016480023F4C06343F400731360114B1A68322308
:1016580003FB02F30F4AA2FB03239B0C013300E0B8
:10166800013B0A4A526912F4806F01D0002BF7D16E
:10167800064B5B6913F4806F01D10020704703208B
:101688007047002070470020704700BF007000407E
:101698002000002083DE1B4330B583B00546204B75
:1016A8009B6D13F0805F0BD0FFF7A6FFB0F5007FAE
:1016B80017D0802D1FD82DD0702D2DD000211BE0E4
:1016C800174CA36D43F08053A365A36D03F08053BB
:1016D8000193019BFFF790FFA36D23F08053A3654F
:1016E800E4E7802D03D9A02D03D9022104E00021CD
:1016F80002E0012100E003210A4A136823F00703EE
:101708000B431360136803F007038B4206D00120D4
:1017180003B030BD0221EFE70121EDE70020F7E734
:101728000010024000200240284A9368D26802F064
:10173800030213F00C030AD00C2B06D0042B1FD085
:10174800082B20D00020024610E0012AF6D11F4ABB
:10175800126812F0080F0CD11C4AD2F89420C2F378
:1017680003221B4951F8222043B100200C2B0DD035
:101778007047164A1268C2F30312F2E71046F5E7FB
:1017880014480022F2E714480022EFE70F4BDB6809
:1017980003F00303022B15D0032B15D00B4BD8688D
:1017A800C0F302100130D968C1F3062102FB01F22F
:1017B800B2FBF0F2D868C0F3416001304000B2FBE0
:1017C800F0F0D5E7034AE9E7034AE7E700100240EB
:1017D800D45B00080024F40000127A00002800F00E
:1017E8000083F0B583B00446AF4B9D6805F00C0547
:1017F800DE6806F00306036813F0100F5BD0E5B14E
:101808000C2D18D0A369002B00F0BC80A64A1368E1
:1018180043F001031360FFF7DDFA0746A24B1B688C
:1018280013F0020F40F09B80FFF7D4FAC01B022888
:10183800F4D90323E1E2012EE4D19B4B1B6813F09A
:10184800020F03D0A369002B00F0CE82206A964BCA
:101858001B6813F0080F5CD0934B1B6803F0F00370
:1018680098425DD8904B1A6842F008021A601A68CC
:1018780022F0F002216A0A431A605A6822F47F4271
:10188800E16942EA01225A60002D61D0FFF74CFF5E
:10189800854B9B68C3F30313844AD35C03F01F038F
:1018A800D840834B1860834B1868FFF751FA0346FA
:1018B800002840F0A282236813F0010F00F0818015
:1018C800082D75D00C2D71D06368B3F5803F00F0FA
:1018D8009780B3F5A02F00F09980734B1A6822F413
:1018E80080321A601A6822F480221A606368002B1A
:1018F80000F09980FFF76EFA07466B4B1B6813F4EC
:10190800003F5ED1FFF766FAC01B6428F5D90323B0
:1019180073E2654BD3F894301B0903F0F0039FE79B
:10192800FFF7BAFE002840F061825F4B1A6842F068
:1019380008021A601A6822F0F002216A0A431A6043
:101948005A6822F47F42E16942EA01225A609DE71F
:10195800206AFFF7A1FE002898D001234DE2524BE0
:101968001A6842F008021A601A6822F0F002216A26
:101978000A431A605A6822F47F42E16942EA012266
:101988005A6098E7484A136823F001031360FFF789
:1019980021FA0746444B1B6813F0020F8BD0FFF760
:1019A80019FAC01B0228F5D9032326E2032E8BD18E
:1019B8003D4B1B6813F4003F03D06368002B00F015
:1019C8001782236813F0020F4FD0042D3CD00C2D42
:1019D80038D0E368002B78D0334A136843F4807317
:1019E8001360FFF7F7F906462F4B1B6813F4806F57
:1019F80062D1FFF7EFF9801B0228F5D90323FCE138
:101A0800294A136843F4803313606FE703F1804376
:101A1800A3F53C331A6842F480221A601A6842F42B
:101A280080321A6062E7FFF7D5F907461E4B1B683C
:101A380013F4003FC5D0FFF7CDF9C01B6428F5D9D2
:101A48000323DAE1022EC4D1174B1B6813F4806F0D
:101A580003D0E368002B00F0CD81134A536823F0CC
:101A6800F853216943EA01635360236813F0080FB0
:101A780056D06369002B3CD00B4AD2F8943043F01F
:101A88000103C2F89430FFF7A5F90646064BD3F8D0
:101A9800943013F0020F43D1FFF79CF9801B022802
:101AA800F4D90323A9E100BF00100240045C000838
:101AB8002000002028000020B84A536823F0F8537B
:101AC800216943EA01635360CFE7B44A136823F4FA
:101AD80080731360FFF77EF90646B04B1B6813F45A
:101AE800806FC2D0FFF776F9801B0228F5D903234F
:101AF80083E1AA4AD2F8943023F00103C2F8943063
:101B0800FFF768F90646A54BD3F8943013F0020F97
:101B180006D0FFF75FF9801B0228F4D903236CE194
:101B2800236813F0040F7AD09C4B9B6D13F0805FF1
:101B38000BD19A4B9A6D42F080529A659B6D03F0D7
:101B480080530193019B012600E00026944B1B68FB
:101B580013F4807F26D0A368012B37D0052B3DD006
:101B68008E4BD3F8902022F00102C3F89020D3F8CE
:101B7800902022F00402C3F89020A368002B3BD0E9
:101B8800FFF728F90746854BD3F8903013F0020F7A
:101B980044D1FFF71FF9C01B41F288339842F2D9AC
:101BA80003232AE17E4A136843F480731360FFF726
:101BB80011F907467A4B1B6813F4807FCBD1FFF7E6
:101BC80009F9C01B0228F5D9032316E1734AD2F894
:101BD800903043F00103C2F89030CEE76F4BD3F852
:101BE800902042F00402C3F89020D3F8902042F0ED
:101BF8000102C3F89020C0E7FFF7ECF80746674BEF
:101C0800D3F8903013F0020F08D0FFF7E3F8C01BA9
:101C180041F288339842F2D90323EEE06EBBA36AFF
:101C2800002B00F0E980022B2DD00C2D00F0EE8067
:101C38005A4B1A6822F080721A601B6813F0205FF2
:101C480004D1564AD36823F00303D360534AD368B8
:101C580023F0887323F48033D360FFF7BBF804467E
:101C68004E4B1B6813F0007F00F0B980FFF7B2F805
:101C7800001B0228F4D90323BFE0484A936D23F0E0
:101C880080539365CBE7454BDB6803F00301E26AB9
:101C980091420FD00C2D00F0B380404B1B6813F01D
:101CA800806F40F0AF803D4B1B6813F0805F2DD0F4
:101CB8000123A2E003F07002216B0139B2EB011F8E
:101CC800E8D103F4FE42616BB2EB012FE2D103F4D9
:101CD8000031A26B073A18BF01229142DAD103F40E
:101CE800C001E26B5208013AB1EB425FD2D103F076
:101CF800C063226C5208013AB3EB426FCAD1274B3A
:101D08001B6813F0007F51D0002376E0234A136844
:101D180023F080731360FFF75DF805461F4B1B68BF
:101D280013F0007F06D0FFF755F8401B0228F5D9BD
:101D3800032362E0194AD3681A491940E36A206B01
:101D4800013843EA0013606B43EA0023E06B400864
:101D5800013843EA4053206C4008013843EA4063A5
:101D6800A06B000943EA40430B43D360136843F078
:101D780080731360D36843F08073D360FFF72AF849
:101D88000446064B1B6813F0007F0DD1FFF722F8BD
:101D9800001B0228F5D903232FE000BF00100240E2
:101DA800007000408C809DF9002326E0184B1A68CB
:101DB80042F080721A60DA6842F08072DA60FFF7E7
:101DC80009F8044604E0FFF705F8001B02281BD8B1
:101DD8000F4B1B6813F0007FF5D000230DE00023A4
:101DE8000BE0012318467047012306E0012304E0B5
:101DF800012302E0012300E00023184603B0F0BDF0
:101E08000123FAE70123F8E70323F6E70123F4E7C0
:101E180000100240002800F09B8070B504464E4B2D
:101E28001B6803F007038B420CD24B4A136823F05C
:101E380007030B431360136803F007038B4201D0B9
:101E4800012070BD0D46236813F0010F39D0636877
:101E5800032B09D0022B26D063BB404A126812F02C
:101E6800020F06D10120ECE73C4A126812F0007F0D
:101E780070D03A498A6822F0030213438B60FEF758
:101E8800A9FF0646354B9B6803F00C036268B3EB69
:101E9800820F16D0FEF79EFF801B41F288339842CE
:101EA800F0D90320CDE72D4A126812F4003FE0D1A3
:101EB8000120C6E7294A126812F4806FD9D101209F
:101EC800BFE7236813F0020F06D0244A936823F073
:101ED800F003A1680B4393601F4B1B6803F00703D3
:101EE800AB420CD91C4A136823F007032B43136039
:101EF800136803F00703AB4201D00120A1E7236870
:101F080013F0040F06D0154A936823F4E063E168E0
:101F18000B439360236813F0080F07D00F4A9368A8
:101F280023F46053216943EAC1039360FFF7FCFB84
:101F38000A4B9B68C3F30313094AD35C03F01F03DE
:101F4800D840084B1860084B1868FEF701FF78E77F
:101F580001207047012074E7002002400010024071
:101F6800045C00082000002028000020014B1868AD
:101F7800704700BF2000002008B5FFF7F7FF054BAA
:101F88009B68C3F30223044AD35C03F01F03D840C1
:101F980008BD00BF00100240145C000808B5FFF738
:101FA800E5FF054B9B68C3F3C223044AD35C03F0E7
:101FB8001F03D84008BD00BF00100240145C000891
:101FC800F8B55A4BDB6813F0030F18D0574BDB6892
:101FD80003F003030268934202D001252846F8BDA6
:101FE800002A00F0A080514BDB68C3F302130133D1
:101FF8004268934201D00125F0E700251AE0036802
:10200800022B59D0032B5ED0012B01D001250FE004
:10201800464A126812F0020F61D0444DEA6822F075
:1020280073024468013C43EA04131343EB60002540
:10203800002DD3D10F4604463C4A136823F0806331
:102048001360FEF7C7FE0646384B1B6813F0006F97
:1020580005D0FEF7BFFE801B0228F5D90325002D09
:10206800BCD1002F3DD131490B6923F41F3323F430
:102078004073A068E2681209520442EA002213433E
:102088000B612A4A136843F080631360FEF7A2FECF
:102098000646264B1B6813F0006F05D1FEF79AFE23
:1020A800801B0228F5D90325002D97D11F4A1369F3
:1020B800A1690B43136191E71C4A126812F4806FFF
:1020C800ABD10125B4E7194A126812F4003FA4D134
:1020D800164A126812F4802F9FD10125A8E701251E
:1020E800A6E7012F0FD01148026922F0C06222F43E
:1020F800FE42A16863695B08013B5B0643EA012372
:1021080013430361BDE70948026922F4C00222F4BF
:10211800FE42A16823695B08013B5B0543EA012392
:1021280013430361ADE7012558E700BF00100240E3
:10213800F8B5514BDB6813F0030F18D04E4BDB6832
:1021480003F003030268934202D001252846F8BD34
:10215800002A00F08E80484BDB68C3F3021301337A
:102168004268934201D00125F0E700251AE0036890
:10217800022B59D0032B5ED0012B01D001250FE093
:102188003D4A126812F0020F61D03B4DEA6822F016
:1021980073024468013C43EA04131343EB600025CF
:1021A800002DD3D10F460446334A136823F08053D9
:1021B8001360FEF70FFE06462F4B1B6813F0005FF7
:1021C80005D0FEF707FE801B0228F5D90325002D50
:1021D800BCD1002F3DD128494B6923F41F3323F488
:1021E8004073A068E2681209520442EA00221343CD
:1021F8004B61214A136843F080531360FEF7EAFDF0
:1022080006461D4B1B6813F0005F05D1FEF7E2FD83
:10221800801B0228F5D90325002D97D1164A53694A
:1022280061690B43536191E7134A126812F4806F96
:10223800ABD10125B4E7104A126812F4003FA4D1CB
:102248000D4A126812F4802F9FD10125A8E70125B5
:10225800A6E70948426922F0C06222F4FE42A1685A
:1022680023695B08013B5B0643EA0123134343618F
:10227800BFE701256AE700BF001002402DE9F041E1
:1022880082B00446036813F4006F2FD0436EB3F591
:10229800800F25D008D9B3F5000F10D0B3F5400F43
:1022A80040F09980002610E0002B40F09480002137
:1022B8000430FFF785FE06463EB1374618E05E4A11
:1022C800D36843F48033D36000265B4AD2F8883061
:1022D80023F44003616E0B43C2F88830002707E0FF
:1022E80000212030FFF724FF0646E5E700273E4699
:1022F800236813F4805F15D0A36EB3F1807F7AD082
:102308006CD9B3F1007F70D0B3F1407F7AD1002E41
:102318007BD1494AD2F8883023F04073A16E0B4331
:10232800C2F88830236813F4003F00F08E80424BD7
:102338009B6D13F0805F6AD13F4B9A6D42F08052DB
:102348009A659B6D03F080530193019B4FF0010840
:102358003A4A136843F480731360FEF73BFD054661
:10236800364B1B6813F4807F05D1FEF733FD401B05
:102378000228F5D90326002E62D12F4BD3F89030CE
:1023880013F4407316D0D4F884209A4212D02A4A03
:10239800D2F8903023F44073D2F8901041F4803191
:1023A800C2F89010D2F8901021F48031C2F8901041
:1023B800C2F8903013F0010F2CD1002E40F0438169
:1023C8001D4AD2F8903023F44073D4F884100B439C
:1023D800C2F8903035E001273E4689E793B90021DD
:1023E800201DFFF7EDFD064691E7134AD36843F435
:1023F8008033D3608BE7002104F12000FFF798FEBB
:10240800064684E701273E468CE737468AE74FF0C1
:1024180000089DE7FEF7DEFC0546074BD3F8903031
:1024280013F0020FC9D1FEF7D5FC401B41F28833E7
:102438009842F2D90326C0E700100240007000401D
:102448003746B8F1000F40F00081236813F0010F00
:1024580008D09D4AD2F8883023F00303A16B0B43C0
:10246800C2F88830236813F0020F08D0964AD2F8D1
:10247800883023F00C03E16B0B43C2F888302368E3
:1024880013F0040F08D0904AD2F8883023F03003B4
:10249800216C0B43C2F88830236813F0080F08D06A
:1024A800894AD2F8883023F0C003616C0B43C2F824
:1024B8008830236813F0100F08D0834AD2F8883088
:1024C80023F44073A16C0B43C2F88830236813F0DF
:1024D800200F08D07C4AD2F8883023F44063E16C9E
:1024E8000B43C2F88830236813F4007F08D0764A7B
:1024F800D2F8883023F44023E16D0B43C2F88830CA
:10250800236813F4806F08D06F4AD2F8883023F418
:102518004013216E0B43C2F88830236813F0400F34
:1025280008D0694AD2F8883023F44053216D0B4310
:10253800C2F88830236813F0800F08D0624AD2F8B6
:10254800883023F44043616D0B43C2F88830236818
:1025580013F4807F08D05C4AD2F8883023F44033E3
:10256800A16D0B43C2F88830236813F4005F0FD0C5
:10257800554AD2F8883023F04063E16E0B43C2F825
:102588008830E36EB3F1006F65D0B3F1806F67D028
:10259800236813F4002F0FD04B4AD2F8883023F069
:1025A8004063216F0B43C2F88830236FB3F1006F8B
:1025B8005ED0B3F1806F60D0236813F4802F0FD002
:1025C800414AD2F8883023F04063616F0B43C2F868
:1025D8008830636FB3F1006F57D0B3F1806F59D073
:1025E800236813F4804F0FD0374AD2F8883023F08D
:1025F8004053A16F0B43C2F88830A36FB3F1805FDB
:1026080050D0B3F1005F55D0236813F4004F08D0C1
:102618002D4AD2F8883023F08043E16F0B43C2F88B
:102628008830236813F4803F09D0274AD2F88830CD
:1026380023F00043D4F880100B43C2F888303846A2
:1026480002B0BDE8F0813746FBE61F4A936D23F0E0
:1026580080539365F9E6D36843F48013D36097E712
:102668000121201DFFF7ACFC002891D007468FE719
:10267800D36843F48013D3609EE70121201DFFF740
:102688009FFC002898D0074696E7D36843F4801348
:10269800D360A5E70121201DFFF792FC00289FD0F9
:1026A80007469DE70221201DFFF78AFC0028ABD0D2
:1026B8000746A9E7022104F12000FFF739FD0028A9
:1026C800A2D00746A0E700BF0010024000286AD049
:1026D80010B50446436A33B94368B3F5827F05D021
:1026E8000023C36102E00023036143610023A36266
:1026F80094F85D30002B4DD0022384F85D302268B9
:10270800136823F040031360E368B3F5E06F47D91B
:102718000022B3F5706F04D0B3F5E06F01D0002349
:10272800A362636803F48273A16801F404410B4354
:10273800216901F002010B43616901F001010B43BA
:10274800A16901F400710B43E16901F038010B4301
:10275800216A01F080010B43A16A01F4005120684D
:102768000B430360638B03F00403616A01F01001FB
:102778000B43616B01F008010B43E16801F47061E0
:102788000B43216813434B6000202066012384F823
:102798005D3010BD84F85C302046FEF741FAABE7A7
:1027A8004FF48052B5E70120704700002DE9D84862
:1027B8000446016883680269134342691343C26986
:1027C800134308689B4A024013430B60226853680E
:1027D80023F44053E1680B435360A1692268964B88
:1027E8009A4201D0236A1943936823F430630B4358
:1027F80093602368914A934227D0914A934238D0F4
:10280800904A93424ED0904A934261D08F4A934265
:1028180074D0894A934200F08A80102286498B42FC
:1028280000F0AA80E369B3F5004F00F0D880082AC9
:1028380000F24581DFE812F015012C011301430174
:102848002F01430143014301320102F55842D2F8F6
:10285800882002F00302032A09D8DFE802F0020404
:1028680081060122DAE70422D8E70822D6E71022F7
:10287800D4E702F5E632D2F8882002F00C020C2ADE
:102888000ED8DFE802F0070D0D0D090D0D0D6F0DC7
:102898000D0D0B000022C1E70422BFE70822BDE7A7
:1028A8001022BBE702F5E432D2F8882002F03002A9
:1028B800102A09D005D9202A56D0302A06D1082254
:1028C800ACE71AB90022A9E70422A7E71022A5E776
:1028D80002F5E232D2F8882002F0C002402A09D07C
:1028E80005D9802A42D0C02A06D1082296E71AB90B
:1028F800002293E7042291E710228FE702F5E032E5
:10290800D2F8882002F44072B2F5807F0BD007D944
:10291800B2F5007F2CD0B2F5407F06D108227DE7C2
:102928001AB900227AE7042278E7102276E702F53E
:10293800C832D2F8882002F44062B2F5806F0BD01A
:1029480007D9B2F5006F15D0B2F5406F06D108224D
:1029580064E71AB9002261E704225FE710225DE705
:1029680002225BE7022259E7022257E7022255E7D3
:10297800022253E7022251E7082A00F29280DFE898
:1029880002F0089010900D90909005004FF40040D0
:1029980008E0FFF7F1FA28B9002074E0FEF7C4FE5A
:1029A800F9E72B48626802EB420383427BD8B0EB1D
:1029B800023F7AD80023070E0602500816EB000BD8
:1029C80047F1000C58466146FDF7FAFBA0F5407246
:1029D800204B9A426BD82368D860002053E0082A1D
:1029E80067D8DFE802F007210566246666663900C5
:1029F800174803E0FFF7C0FA00285CD06268530864
:102A080003EB4003B3FBF2F39BB2A3F110014FF6C3
:102A1800EF72914251D823F00F02C3F342031343DC
:102A28002268D36000202EE0FFF7B8FAE4E7FEF74B
:102A38007BFEE1E7F369FFEF0080004000380140CA
:102A48000044004000480040004C00400050004056
:102A58000024F400FFFC0F004FF40040CEE71B48B1
:102A680002E0FFF789FA60B3636800EB5300B0FB3C
:102A7800F3F080B2A0F110024FF6EF739A4222D819
:102A88002368D8600020002323666366BDE8D888E1
:102A9800FFF784FAE7E7FEF747FEE4E74FF4004064
:102AA800E2E70120EFE70120EDE70120EBE7012055
:102AB800E9E70120E7E70020E5E70120E3E7012057
:102AC800E1E70020DFE70120DDE700BF0024F40094
:102AD800436A13F0010F06D00268536823F40033E9
:102AE800816A0B435360436A13F0020F06D00268F1
:102AF800536823F48033C16A0B435360436A13F06D
:102B0800040F06D00268536823F48023016B0B433B
:102B18005360436A13F0080F06D00268536823F421
:102B28000043416B0B435360436A13F0100F06D008
:102B38000268936823F48053816B0B439360436A64
:102B480013F0200F06D00268936823F40053C16B7A
:102B58000B439360436A13F0400F0AD0026853682E
:102B680023F48013016C0B435360036CB3F5801F8F
:102B78000BD0436A13F0800F06D00268536823F421
:102B88000023816C0B43536070470268536823F439
:102B9800C003416C0B435360EBE72DE9F041044659
:102BA8000F4616469846069D2368DB6937EA0303F5
:102BB8000CBF01230023B3423AD1B5F1FF3FF3D054
:102BC800FEF708F9A0EB0800A8421FD8F5B1236862
:102BD8001A6812F0040FE7D0DA6912F4006FE3D034
:102BE8004FF400621A622268136823F4D0731360EA
:102BF8002268936823F00103936020236367A36727
:102C0800E367002384F87030032012E02268136819
:102C180023F4D07313602268936823F00103936050
:102C280020236367A367002384F87030032000E043
:102C38000020BDE8F08130B583B004460023C367A7
:102C4800FEF7C8F8054623681B6813F0080F0CD177
:102C580023681B6813F0040F15D120236367A3674B
:102C6800002084F8700003B030BD6FF07E430093FD
:102C7800034600224FF400112046FFF78EFF00287C
:102C8800E6D00320EFE76FF07E4300932B46002247
:102C98004FF480012046FFF780FF0028DDD0032095
:102CA800E1E768B310B50446436F03B324236367B1
:102CB8002268136823F0010313602046FFF776FDAE
:102CC800012813D0636ABBB92268536823F4904380
:102CD80053602268936823F02A039360226813687C
:102CE80043F0010313602046FFF7A5FF10BD80F8ED
:102CF8007030FDF7C9FFD9E72046FFF7E9FEE3E7A3
:102D080001207047DFF834D0FDF7FEFF002103E013
:102D18000B4B5B58435004310A480B4B42189A42FC
:102D2800F6D30A4A02E0002342F8043B084B9A42D1
:102D3800F9D300F011F8FDF7A5FEFEE700800120A9
:102D4800485C00080000002030000020300000200F
:102D580020060020FEE7000070B50D4E0D4CA41BA8
:102D6800A4100025A54209D10B4E0C4C00F020F808
:102D7800A41BA4100025A54205D170BD56F8253026
:102D880098470135EEE756F8253098470135F2E7C0
:102D9800385C0008385C0008385C00083C5C0008B7
:102DA80002440346934200D1704703F8011BF9E738
:102DB800F8B500BFF8BC08BC9E467047F8B500BF20
:082DC800F8BC08BC9E467047F0
:102DD00000000000000000000000000000000000F3
:102DE0000020002000200020002000000020000023
:102DF00000500050005000000000000000000000E3
:102E00000050005000F8005000F800500050000042
:102E10000020007800A00070002800F000200000D2
:102E200000C000C8001000200040009800180000FA
:102E3000004000A000A0004000A800900068000032
:102E400000300030002000400000000000000000C2
:102E50000010002000400040004000200010000052
:102E60000040002000100010001000200040000072
:102E7000002000A8007000F8007000A800200000EA
:102E800000000020002000F80020002000000000CA
:102E900000000000000000000030003000200000B2
:102EA00000000000000000F800000000000000002A
:102EB00000000000000000000000003000300000B2
:102EC000000000080010002000400080000000000A
:102ED00000700088009800A800C8008800700000FA
:102EE0000020006000200020002000200070000072
:102EF00000700088000800700080008000F800006A
:102F000000F8000800100030000800880070000081
:102F1000001000300050009000F800100010000079
:102F200000F8008000F00008000800880070000031
:102F300000380040008000F0008800880070000029
:102F400000F8000800080010002000400080000089
:102F50000070008800880070008800880070000001
:102F600000700088008800780008001000E0000071
:102F70000000000000200000002000000000000011
:102F800000000000002000000020002000400000A1
:102F90000008001000200040002000100008000081
:102FA0000000000000F8000000F800000000000031
:102FB0000040002000100008001000200040000029
:102FC0000070008800080030002000000020000091
:102FD0000070008800A800B800B0008000780000F1
:102FE000002000500088008800F800880088000059
:102FF00000F00088008800F00088008800F00000E1
:103000000070008800800080008000880070000050
:1030100000F00088008800880088008800F0000028
:1030200000F80080008000F00080008000F80000C0
:1030300000F80080008000F0008000800080000028
:1030400000780088008000800098008800780000E8
:1030500000880088008800F8008800880088000048
:1030600000700020002000200020002000700000E0
:1030700000380010001000100010009000600000E8
:103080000088009000A000C000A000900088000010
:1030900000800080008000800080008000F8000038
:1030A000008800D800A800A800A8008800880000B8
:1030B0000088008800C800A80098008800880000E8
:1030C0000070008800880088008800880070000078
:1030D00000F00088008800F0008000800080000080
:1030E000007000880088008800A800900068000038
:1030F00000F00088008800F000A000900088000028
:1031000000700088008000700008008800700000D7
:1031100000F800A80020002000200020002000006F
:1031200000880088008800880088008800700000FF
:103130000088008800880088008800500020000077
:1031400000880088008800A800A800A8005000009F
:10315000008800880050002000500088008800008F
:10316000008800880050002000200020002000007F
:1031700000F80008001000700040008000F8000017
:10318000007800400040004000400040007800000F
:103190000000008000400020001000080000000037
:1031A0000078000800080008000800080078000007
:1031B0000020005000880000000000000000000017
:1031C00000000000000000000000000000F8000007
:1031D00000600060002000100000000000000000FF
:1031E00000000000006000100070009000780000F7
:1031F0000080008000B000C8008800C800B0000057
:10320000000000000070008800800088007000004E
:103210000008000800680098008800980068000016
:10322000000000000070008800F8008000700000BE
:103230000010002800200070002000200020000066
:10324000000000000070009800980068000800006E
:103250000080008000B000C800880088008800005E
:10326000002000000060002000200020007000000E
:10327000001000000010001000100090006000001E
:1032800000800080009000A000C000A0009000001E
:1032900000600020002000200020002000700000BE
:1032A0000000000000D000A800A800A800A80000AE
:1032B0000000000000B000C80088008800880000FE
:1032C0000000000000700088008800880070000086
:1032D0000000000000B000C800C800B0008000007E
:1032E00000000000006800980098006800080000D6
:1032F0000000000000B000C80080008000800000D6
:1033000000000000007800800070000800F000005D
:103310000020002000F800200020002800100000FD
:103320000000000000880088008800980068000005
:103330000000000000880088008800500020000085
:10334000000000000088008800A800A800500000CD
:10335000000000000088005000200050008800009D
:103360000000000000880088007800080088000045
:103370000000000000F800100020004000F80000ED
:10338000001000200020004000200020001000005D
:10339000002000200020000000200020002000006D
:1033A000004000200020001000200020004000000D
:1033B000004000A800100000000000000000000015
:1033C00000000000000000000000000000000000FD
:1033D00000000000000000000000000000000000ED
:1033E00000000000000000000000000000000000DD
:1033F00000000000E003E003E003E003E003E0037B
:10340000E003E003C003C003C001C001C001C0016C
:10341000C001000000000000E003E003E003000042
:1034200000000000000000003C1E3C1E3C1E3C1E34
:103430003C1E3C1E3C1E000000000000000000007E
:10344000000000000000000000000000000000007C
:10345000000000000000000000000000CE01CE03CC
:10346000DE039E039C039C07FF3FFF7F3807380F56
:10347000780F780F780EFFFFFFFFF01EF01CE01CA6
:10348000E03CE03DE03900000000000000000000EA
:10349000FC03FE0FEE1FE01EE01EE01EE01EE01F1C
:1034A000E00FE007F003FC01FE01FE01FE01FE015A
:1034B000FE01FE01FE3DFC3FF00FE001E0010000D7
:1034C00000000000033E07F78FE78EE79EE3BCE3B2
:1034D000B8E7F8E7F0F7E03FC001FF03FF07F307A5
:1034E000F30FF31EF33CF338F3787FF03FE0000076
:1034F0000000000000000000E007F80F780F781FC0
:10350000781F781F780FF00FE00F801FC37FC3FB79
:10351000E7F3F7F1F7F0FFF07FF03EF87F7CFF3F35
:10352000EF1F00000000000000000000E003E003C7
:10353000E003E003E003C003C0010000000000005E
:10354000000000000000000000000000000000007B
:10355000000000000000000000000000000000006B
:103560003F007C00F001E001C003C0078007800736
:10357000800F000F000F000F000F000F000F800FD3
:1035800080078007C007C003E001F0017C003F0016
:103590000F000000007E001FC007C003E001F00123
:1035A000F000F000F80078007800780078007800EB
:1035B0007800F800F000F000F001E001C003C0075F
:1035C000001F007E00780000E003C003C001CE3978
:1035D000FF3F7F3F20037003F807780F3C1F38063A
:1035E00000000000000000000000000000000000DB
:1035F00000000000000000000000000000000000CB
:103600000000000000000000C001C001C001C001B6
:10361000C001C001C001FFFFFFFFC001C001C00128
:10362000C001C001C0010000000000000000000057
:10363000000000000000000000000000000000008A
:10364000000000000000000000000000000000007A
:103650000000E003E003E003E003E001E001E0013B
:10366000C001800300000000000000000000000016
:1036700000000000000000000000FE3FFE3F0000D0
:10368000000000000000000000000000000000003A
:10369000000000000000000000000000000000002A
:1036A000000000000000000000000000000000001A
:1036B00000000000000000000000E003E003E00361
:1036C000E003000000000000000000000F000F00F9
:1036D0001E001E003C003C0078007800F000F00066
:1036E000E001E001C003C00380078007000F000F66
:1036F000001E001E003C003C0078007800F0000036
:10370000F007F80F7C1F3E3E1E3C1F7C1F7C0F788D
:103710000F780F780F780F780F780F781F7C1F7C49
:103720001E3C3E3E7C1FF80FF0070000000000002A
:1037300000000000F000F007F03FF03FF001F00162
:10374000F001F001F001F001F001F001F001F001F1
:10375000F001F001F001F001F001FF3FFF3F000038
:103760000000000000000000E00FF83F7C3C3C003F
:103770003E003E003E003C003C007C00F800F001B2
:10378000E003C0078007000F001E003E003CFE3F24
:10379000FE3F00000000000000000000F00FF81FD6
:1037A0007C1C3E003E003E003C003C00F800F00F58
:1037B000F80F7C003E001E001E001E001E003E0092
:1037C0007C1CF81FE01F000000000000000000004B
:1037D0007800F800F800F801F803F807F807780F08
:1037E000781E781E783C78787878FFFFFFFF7800A5
:1037F0007800780078007800780000000000000071
:1038000000000000FC1FFC1FFC1F001E001E001E0D
:10381000001E001EE01FF81FFC007C003E003E0062
:103820001E003E003E003C007C1CF81FE01F000014
:103830000000000000000000FC01FE078E0F001FCA
:10384000001E003E003C003CF83DFC3F3E7F1F7EDA
:103850000F3C0F3C0F3C0F3C0F3E1F1E3E1FFC0F4A
:10386000F00300000000000000000000FF3FFF3FE9
:10387000FF3F0F001E001E003C0038007800F000E3
:10388000F000E001E001C003C0038007800F800F5B
:10389000000F001F001F00000000000000000000DB
:1038A000F807FC0F3E1F1E1E1E3E1E3E1E1E3C1F26
:1038B000F80FF007F80FFC1E3E3E1F3C1F7C0F7CEC
:1038C0000F7C1F3C3E3FFC1FF00700000000000083
:1038D00000000000F007F80F7C1E3E3C1E3C1F7CE1
:1038E0001F7C1F7C1F7C1F3C3F3EFF1FEF071F00FC
:1038F0001E001E003E003C00F838F03FE01F0000B4
:1039000000000000000000000000000000000000B7
:1039100000000000E003E003E003E003000000001B
:1039200000000000000000000000E003E003E003EE
:10393000E0030000000000000000000000000000A4
:103940000000000000000000E003E003E003E003EB
:103950000000000000000000000000000000E00384
:10396000E003E003E003E001E001E001C0038003C5
:1039700000000000000000000000000003000F0035
:103980003F00FC00F003C00F003F00FE003FC00FEF
:10399000F003FC003F000F000300000000000000E7
:1039A0000000000000000000000000000000000017
:1039B0000000000000000000FFFFFFFF000000000B
:1039C0000000FFFFFFFF00000000000000000000FB
:1039D00000000000000000000000000000000000E7
:1039E0000000000000E000F8007E801FE007F80102
:1039F0007E001F007E00F801E007801F007E00F8B7
:103A000000E000000000000000000000F01FFC3F8C
:103A10003E381F381F381E001E003C007800F000A2
:103A2000E001C003C003C007C007000000000000A1
:103A3000C007C007C0070000000000000000000031
:103A4000F803FE0F1E1F0F3E7F3CFF78EF79C77310
:103A5000C7F38FF38FF38FF39FF39FF3FF73FF7B16
:103A6000F779003C1C1FFC0FF80300000000000069
:103A700000000000000000000000E003E003F00789
:103A8000F007F007780F780F7C0E3C1E3C1E3E3C82
:103A9000FE3FFF3F1F780F780FF007F007F00000A0
:103AA0000000000000000000000000000000F83FDF
:103AB000FC3F3E3C1E3C1E3C1E3C3E3C7C3CF03FE2
:103AC000F83F7E3C1F3C1F3C0F3C0F3C1F3CFE3F21
:103AD000F83F0000000000000000000000000000AF
:103AE0000000FF01FF07871F003E003C007C0078BC
:103AF0000078007800780078007C007C003E003F71
:103B0000831FFF07FF01000000000000000000000D
:103B1000000000000000F07FFC7F7E781F781F7897
:103B20000F780F780F780F780F780F780F780F785D
:103B30001F781E787E78F87FE07F0000000000008C
:103B400000000000000000000000FF3FFF3F003EBB
:103B5000003E003E003E003E003EFE3FFE3F003E77
:103B6000003E003E003E003E003EFF3FFF3F0000A3
:103B70000000000000000000000000000000FF1F27
:103B8000FF1F001E001E001E001E001E001EFF1F45
:103B9000FF1F001E001E001E001E001E001E001E35
:103BA000001E0000000000000000000000000000F7
:103BB0000000FE03FF0F871F003E007C007C0078A2
:103BC00000F800F87FF87FF80F780F7C0F7C0F3E2D
:103BD0008F1FFF0FFE030000000000000000000028
:103BE0000000000000001F7C1F7C1F7C1F7C1F7CCE
:103BF0001F7C1F7C1F7CFF7FFF7F1F7C1F7C1F7C27
:103C00001F7C1F7C1F7C1F7C1F7C000000000000AD
:103C100000000000000000000000FF3FFF3FE00345
:103C2000E003E003E003E003E003E003E003E0037C
:103C3000E003E003E003E003E003FF3FFF3F000099
:103C40000000000000000000000000000000FC1F59
:103C5000FC1F7C007C007C007C007C007C007C00E5
:103C60007C007C007C007C0078007800F838F03F15
:103C7000C03F000000000000000000000000000045
:103C800000001F3C1E3C3C3C783CF03CE03DE03FEB
:103C9000C03F803FC03FE03FF03DF03C783C7C3C83
:103CA0003E3C1F3C0F3C00000000000000000000F4
:103CB000000000000000003E003E003E003E003ECE
:103CC000003E003E003E003E003E003E003E003E04
:103CD000003E003E003EFF3FFF3F000000000000AE
:103CE000000000000000000000001FF81FFC1FFC87
:103CF0003FFE3FFE3FFE7FFF77FF77FFF7F7E7F7D7
:103D0000E7F3E7F3C7F307F007F007F007F0000069
:103D100000000000000000000000000000000F7C18
:103D20000F7C0F7E0F7F0F7F8F7F8F7FCF7FEF7B8B
:103D3000EF79FF79FF78FF787F783F783F781F78B9
:103D40001F780000000000000000000000000000DC
:103D50000000F007FC1F3E3E1F7C0F780F780FF825
:103D60000FF80FF80FF80FF80FF80F780F781F7C87
:103D70003E3EFC1FF00700000000000000000000B5
:103D8000000000000000FC3FFF3F1F3E0F3E0F3EC3
:103D90000F3E0F3E1F3E3F3EFC3FF03F003E003EC9
:103DA000003E003E003E003E003E000000000000DD
:103DB00000000000000000000000F007FC1F3E3E75
:103DC0001F7C0F780F780FF80FF80FF80FF80FF827
:103DD0000FF80F780F781F7C3E3EFC1FF8077C0021
:103DE0003F000F0003000000000000000000F03F53
:103DF000FC3F7E3C3E3C1E3C1E3C3E3C3C3CFC3C76
:103E0000F03FE03FF03DF83C7C3C3E3C1E3C1F3C1C
:103E10000F3C000000000000000000000000000057
:103E20000000FC07FE1F0E3E003C003C003C003E34
:103E3000C01FF80FFE037F001F000F000F001F20A0
:103E40003E3CFC3FF01F00000000000000000000AE
:103E5000000000000000FFFFFFFFE003E003E003BD
:103E6000E003E003E003E003E003E003E003E0033A
:103E7000E003E003E003E003E003000000000000D3
:103E8000000000000000000000000F7C0F7C0F7C91
:103E90000F7C0F7C0F7C0F7C0F7C0F7C0F7C0F7CCA
:103EA0000F7C0F7C1E3C1E3C3E3EFC1FF0070000BA
:103EB000000000000000000000000000000007F00B
:103EC00007F007F80F780F7C1E3C1E3C1E3E3C1E80
:103ED0003C1F781F780FF80FF007F007F007E0039A
:103EE000E0030000000000000000000000000000EF
:103EF000000003E003F003F007F0E7F3E7F3E7F374
:103F0000E773F77BF77FFF7F7F7F7F7F7E7F7E3F3B
:103F10003E3E3E3E3E3E000000000000000000002D
:103F200000000000000007F80F7C1E3E3E3E3C1FD4
:103F3000F80FF007E007E003E003F007F80F7C0F4D
:103F40007C1E3E3C1F780F780FF000000000000040
:103F50000000000000000000000007F807780F7C58
:103F60001E3C1E3E3C1F780FF80FF007E003E003F5
:103F7000E003E003E003E003E003E003E00300000C
:103F80000000000000000000000000000000FF7FB3
:103F9000FF7F0F001F003E007C00F800F000E001F2
:103FA000E003C007800F000F001E003E007CFF7F73
:103FB000FF7F00000000000000000000FF078007F6
:103FC00080078007800780078007800780078007B9
:103FD00080078007800780078007800780078007A9
:103FE00080078007800780078007FF07FF07000022
:103FF00000780078003C003C001E001E000F000FFF
:1040000080078007C003C003E001E001F000F0007A
:10401000780078003C003C001E001E000F000F00DE
:1040200007000000F07FF000F000F000F000F0006A
:10403000F000F000F000F000F000F000F000F00000
:10404000F000F000F000F000F000F000F000F000F0
:10405000F000F07FF07F0000C000C001C001E0036D
:10406000E003F007F0077807780F380F3C1E3C1E7E
:104070001E3C1E3C0F380F7807780000000000003F
:104080000000000000000000000000000000000030
:104090000000000000000000000000000000000020
:1040A0000000000000000000000000000000000010
:1040B000000000000000FFFFFFFF00000000000004
:1040C000F000000000000000000000000000000000
:1040D00000000000000000000000000000000000E0
:1040E00000000000000000000000000000000000D0
:1040F00000000000000000000000000000000000C0
:10410000F80FFC3F7C3C3E003E003E00FE07FE1FD9
:104110003E3E3E7C3E783E7C7E7CFF3FCF1F0000D3
:104120000000000000000000003C003C003C003C9F
:10413000003C003CF83DFE3F3E3F1F3E0F3C0F3C25
:104140000F3C0F3C0F3C0F3C1F3C1E3C3E3FFC3FD6
:10415000F03B000000000000000000000000000034
:104160000000000000000000FE03FF0F871F003E5C
:10417000003E003C007C007C007C003C003E003E99
:10418000871FFF0FFE03000000000000000000007A
:104190001F001F001F001F001F001F00FF07FF1F41
:1041A0003F3E1F3C1F7C1F7C1F7C1F781F781F7C9D
:1041B0001F7C3F3C7F3EFF1FDF0F00000000000020
:1041C00000000000000000000000000000000000EF
:1041D000F803FC0F3E1F1E3E1F3C1F7CFF7FFF7F2E
:1041E000007C007C003C003E071FFF0FFE03000028
:1041F0000000000000000000FF01E103C003C00751
:10420000C007C007FF7FFF7FC007C007C007C00708
:10421000C007C007C007C007C007C007C007C00766
:10422000C0070000000000000000000000000000C7
:104230000000000000000000EF07FF1F7F3E1F3C52
:104240001F7C1F7C1F781F781F781F7C1F7C3F3CC2
:104250007F3EFF1FDF0F1E001E001E007C38F83F50
:10426000003C003C003C003C003C003CFC3DFE3F70
:104270009E3F1F3F1F3E1F3C1F3C1F3C1F3C1F3CDF
:104280001F3C1F3C1F3C1F3C1F3C00000000000067
:1042900000000000F001F00100000000000000003C
:1042A000E07FE07FE001E001E001E001E001E0010A
:1042B000E001E001E001E001E001E001E0010000D7
:1042C0000000000000000000F800F80000000000FE
:1042D00000000000F83FF83FF800F800F800F80090
:1042E000F800F800F800F800F800F800F800F8000E
:1042F000F800F800F800F000F071E07F003C003CAE
:10430000003C003C003C003C1F3C3E3C7C3CF83CFC
:10431000F03DE03DC03FC03FE03FF03DF83C7C3C1D
:104320003E3C1F3C1F3C000000000000000000005D
:10433000F07FF001F001F001F001F001F001F00177
:10434000F001F001F001F001F001F001F001F001E5
:10435000F001F001F001F001F001000000000000A8
:10436000000000000000000000000000000000004D
:104370009EF7FFFFFFFFFFFFE7FBE7F9C7F1C7F17C
:10438000C7F1C7F1C7F1C7F1C7F1C7F1C7F1000025
:10439000000000000000000000000000000000001D
:1043A00000000000FC3DFE3F9E3F1F3F1F3E1F3CA4
:1043B0001F3C1F3C1F3C1F3C1F3C1F3C1F3C1F3C25
:1043C0001F3C000000000000000000000000000092
:1043D0000000000000000000F007FC1F3E3E1F3CF4
:1043E0001F7C0F780F780F780F780F781F7C1F3C99
:1043F0003E3EFC1FF007000000000000000000002F
:10440000000000000000000000000000F83DFE3F3A
:104410003E3F1F3E0F3C0F3C0F3C0F3C0F3C0F3C00
:104420001F3C1E3E3E3FFC3FF83F003C003C003C32
:10443000003C003C00000000000000000000000004
:10444000EE07FE1F7E3E1E3C1E7C1E781E781E78E8
:104450001E781E781E7C3E7C7E3EFE1FDE0F1E00F8
:104460001E001E001E001E000000000000000000D4
:10447000000000007F1FFF1FE71FC71F871F001FCF
:10448000001F001F001F001F001F001F001F001F34
:10449000001F0000000000000000000000000000FD
:1044A0000000000000000000FC07FE1F0E1E003E82
:1044B000003E003FE01FFC07FE003E001E001E0005
:1044C0003E3CFC3FF01F0000000000000000000028
:1044D000000000000000800780078007FF7FFF7F4B
:1044E0008007800780078007800780078007800794
:1044F00080078007C007FF03FF01000000000000E5
:1045000000000000000000000000000000000000AB
:104510001E3C1E3C1E3C1E3C1E3C1E3C1E3C1E3CCB
:104520001E3C1E3C3E3C7E3CFE3EFE1FDE0F00005D
:10453000000000000000000000000000000000007B
:104540000000000007F00F780F781E3C1E3C1E3E56
:104550003C1E3C1E780F780FF00FF007F007E003C9
:10456000E003000000000000000000000000000068
:10457000000000000000000003F0E3F1E3F3E7F3C4
:10458000F7F3F7F3F77F777F7F7F7F7F7F7F3E3E75
:104590003E3E3E3E3E3E00000000000000000000A7
:1045A0000000000000000000000000000F7C1E3E24
:1045B0003C3E3C1FF80FF007F007E003F007F80758
:1045C000F80F7C1E3E3E1F3C1F78000000000000DC
:1045D00000000000000000000000000000000000DB
:1045E00007F80F780F7C1E3C1E3C3C1E3C1E3C1FF7
:1045F000780FF80FF007F007E003E003C003C003F3
:10460000C0038007800F007F000000000000000052
:1046100000000000FF3FFF3F1F003E007C00F8004D
:10462000F001E003C007800F001F001E003CFF7F69
:10463000FF7F00000000000000000000FE01E0031A
:10464000C003C003C003C003E001E001E001C001FA
:10465000C003803F803FC003C001E001E001E001F2
:10466000C003C003C003C003E003FE017E000000DE
:10467000C001C001C001C001C001C001C001C00132
:10468000C001C001C001C001C001C001C001C00122
:10469000C001C001C001C001C001C001C001C00112
:1046A000C0010000C03FE003E001E001E001E001E3
:1046B000C001C003C003C001E001FE00FE00E00134
:1046C000C001C003C003C001E001E001E001E0015E
:1046D000E003C03F003F00000000000000000000B9
:1046E0000000000000000000000000000000073F84
:1046F000C77FE773FFF17EF00000000000000000BC
:1047000000000000000000000000000000000000A9
:104710000000000000000000000000000000000099
:104720000000000000000000000000000000000089
:104730000000000C000C000C000C000C000C000C25
:10474000000C000C000C000C0000000C000C000021
:10475000000000000000001B001B001B001B001BD2
:104760000000000000000000000000000000000049
:10477000000000000000000000008019801980196E
:104780008019C07FC07F80190033C07FC07F003395
:104790000033003300330000000000000000001E62
:1047A000003F807580650074003C001E0007800596
:1047B000806580658075003F001E000400040000D5
:1047C0000000007000D840D8C0D880D9007300061F
:1047D000000C801BC036C066C046C00680030000C7
:1047E000000000000000001E003F003300330033D3
:1047F000001E000CC03CC066806380618063C03EC8
:10480000801C0000000000000000000C000C000CE8
:10481000000C000C00000000000000000000000080
:104820000000000000000000000000008000000107
:104830000003000600060004000C000C000C000C35
:10484000000C000C000400060006000300018000BC
:10485000002000100018000C000C000400060006E8
:1048600000060006000600060004000C000C0018FC
:10487000001000200000000C002D003F001E00333F
:104880000000000000000000000000000000000028
:104890000000000000000000000000000000000C0C
:1048A000000C000C000CC0FFC0FF000C000C000C42
:1048B000000C0000000000000000000000000000EC
:1048C00000000000000000000000000000000000E8
:1048D000000000000000000C000C000400040008B0
:1048E00000000000000000000000000000000000C8
:1048F0000000001E001E000000000000000000007C
:1049000000000000000000000000000000000000A7
:104910000000000000000000000000000000000C8B
:10492000000C000000000000000000030003000372
:104930000006000600060006000C000C000C000C2F
:104940000018001800180000000000000000001E01
:10495000003F0033806180618061806D806D806187
:10496000806180610033003F001E000000000000F5
:1049700000000006000E001E00360026000600069D
:1049800000060006000600060006000600060000FD
:10499000000000000000001E003F80738061806105
:1049A000800100030006000C001800300060807FCA
:1049B000807F0000000000000000001C003E00633B
:1049C00000630003000E000E00038001800180617F
:1049D0008073003F001E0000000000000000000681
:1049E000000E000E001E001E001600360036006687
:1049F000807F807F000600060006000000000000A7
:104A00000000007F007F006000600060006E007F9B
:104A100080638001800180618073003F001E000080
:104A2000000000000000001E003F80338061006035
:104A3000006E007F80738061806180618033003F01
:104A4000001E0000000000000000807F807F8001C9
:104A50000003000300060006000C000C000C000818
:104A60000018001800180000000000000000001EE0
:104A7000003F8063806180610021001E003F8061F3
:104A8000806180618061003F001E00000000000026
:104A90000000001E003F00738061806180618073B0
:104AA000803F801D800180610073003F001E000078
:104AB0000000000000000000000000000000000CEA
:104AC000000C000000000000000000000000000CCE
:104AD000000C0000000000000000000000000000CA
:104AE00000000000000C000C0000000000000000AE
:104AF0000000000C000C000400040008000000008E
:104B00000000000080008003000E003800600038C4
:104B1000000E800380000000000000000000000084
:104B200000000000000000000000807F807F000087
:104B30000000807F807F0000000000000000000077
:104B400000000000000000000000000000400070B5
:104B5000001C000780010007001C007000400000DE
:104B600000000000000000000000001F803FC07136
:104B7000C060C000C00180030007000E000C000CE4
:104B80000000000C000C0000000000000000001EEF
:104B9000003F803180718063806F806D806D806F99
:104BA000806700600032003E001C00000000000032
:104BB0000000000E000E001B001B001B001B8031BC
:104BC0008031803F803F8031C060C060C0600000A5
:104BD000000000000000007C007E006300630063B2
:104BE0000063007E007E0063806180618063007FDF
:104BF000007E0000000000000000001E003F803129
:104C000080610060006000600060006000608061A2
:104C10008031003F001E0000000000000000007C0A
:104C2000007F00638063806180618061806180615A
:104C3000806100630063007E007C000000000000D3
:104C40000000807F807F0060006000600060007F67
:104C5000007F0060006000600060807F807F000057
:104C6000000000000000807F807F00600060006026
:104C70000060007F007F00600060006000600060F6
:104C800000600000000000000000001E003F8031B6
:104C9000806100600060006080638063806180618B
:104CA0008031803F001E0000000000000000806195
:104CB00080618061806180618061807F807F8061B0
:104CC000806180618061806180610000000000007F
:104CD0000000003F003F000C000C000C000C000C1A
:104CE000000C000C000C000C000C003F003F00000A
:104CF000000000000000800180018001800180012F
:104D00008001800180018001806180618073003FAB
:104D1000001E0000000000000000C0608061006311
:104D200000660066006C0078007C00660066006328
:104D300080618061C0600000000000000000006031
:104D40000060006000600060006000600060006063
:104D5000006000600060807F807F00000000000035
:104D60000000C071C071C07BC07AC06AC06AC06EEA
:104D7000C064C060C060C060C060C060C06000004F
:104D80000000000000008071807180798079807956
:104D9000806D806D806D80658067806780678063CF
:104DA00080630000000000000000001E003F003390
:104DB00080618061806180618061806180618061EB
:104DC0000033003F001E0000000000000000007ED5
:104DD000007F80638061806180618063007F007EEE
:104DE00000600060006000600060000000000000E3
:104DF0000000001E003F003380618061806180619F
:104E000080618061806580670033803F401E0000C4
:104E1000000000000000007E007F806380618061F0
:104E20008063007F007E00660063006380618061B4
:104E3000C0600000000000000000000E001F803174
:104E4000803100300038001E0007800380618061DF
:104E50008031003F001E0000000000000000C0FF85
:104E6000C0FF000C000C000C000C000C000C000C2F
:104E7000000C000C000C000C000C000000000000F6
:104E800000008061806180618061806180618061FB
:104E900080618061806180618073003F001E00003E
:104EA000000000000000C060C060C0608031803140
:104EB0008031001B001B001B001B000E000E000EAB
:104EC00000040000000000000000C0C0C0C0C0C05E
:104ED000C0C0C0C0C0CC804C804C805E805280522C
:104EE0008073806180610000000000000000C0C08D
:104EF000806080610033003B001E000C000C001E2F
:104F0000001F003B80718061C0C0000000000000F5
:104F10000000C0C08061806100330033001E001EAD
:104F2000000C000C000C000C000C000C000C00002D
:104F3000000000000000803F803F8001000300036C
:104F40000006000C000C0018001800300060807F84
:104F5000807F000000000000000F000F000C000C1C
:104F6000000C000C000C000C000C000C000C000CE1
:104F7000000C000C000C000C000F000F00000018CB
:104F800000180018000C000C000C000C00060006B5
:104F900000060006000300030003000000000000FC
:104FA000001E001E000600060006000600060006A1
:104FB00000060006000600060006000600060006C1
:104FC000001E001E0000000C000C001E001200332A
:104FD00000338061806100000000000000000000DC
:104FE00000000000000000000000000000000000C1
:104FF00000000000000000000000000000000000B1
:105000000000000000000000E0FF00000000003889
:105010000018000C0000000000000000000000006C
:105020000000000000000000000000000000000080
:1050300000000000000000000000001F803F8061B1
:105040008001801F803F80618063807FC0380000C6
:105050000000000000000060006000600060006E62
:10506000007F807380618061806180618073007FD8
:10507000006E0000000000000000000000000000C2
:105080000000001E003F807380610060006080614E
:105090008073003F001E000000000000000080013F
:1050A000800180018001801D803F8073806180616C
:1050B000806180618073803F801D000000000000DF
:1050C00000000000000000000000001E003F007310
:1050D0008061807F807F00608071003F001E000043
:1050E000000000000000C007C00F000C000C807F13
:1050F000807F000C000C000C000C000C000C000C5D
:10510000000C000000000000000000000000000093
:10511000801D803F807380618061806180618073C9
:10512000803F801D80018063007F003E00000060A2
:10513000006000600060006F807F8071806180612E
:1051400080618061806180618061000000000000FA
:1051500000000006000600000000003E003E0006C1
:105160000006000600060006000600060006000015
:10517000000000000006000600000000003E003EA7
:1051800000060006000600060006000600060006EF
:1051900000060046007E003C0000006000600060E9
:1051A0000060806100630066006C007C0076006334
:1051B00000638061C0600000000000000000003E4D
:1051C000003E000600060006000600060006000677
:1051D00000060006000600060006000000000000B1
:1051E0000000000000000000000080DDC0FFC0CE15
:1051F000C0CCC0CCC0CCC0CCC0CCC0CCC0CC0000DB
:105200000000000000000000000000000000006F2F
:10521000807F807180618061806180618061806158
:10522000806100000000000000000000000000009D
:105230000000001E003F807380618061806180619A
:105240008073003F001E000000000000000000000E
:1052500000000000006E007F8073806180618061CB
:1052600080618073007F006E0060006000600060FD
:105270000000000000000000801D803F80738061FE
:105280008061806180618073803F801D800180012A
:1052900080018001000000000000000000000067A5
:1052A000803F0039003000300030003000300030E6
:1052B00000300000000000000000000000000000BE
:1052C0000000001E803F80610060007F803F800101
:1052D0008061007F001E0000000000000000000050
:1052E000000800180018007F007F00180018001840
:1052F000001800180018801F800F00000000000038
:1053000000000000000000000000806180618061FA
:1053100080618061806180618063807F803D00006A
:105320000000000000000000000000000000C0605D
:10533000803180318031001B001B001B000E000EED
:105340000006000000000000000000000000000057
:10535000000080DD80DD80DD0055005500550077C0
:105360000077002200220000000000000000000082
:10537000000000000000806100330033001E000CBC
:10538000000C001E003300338061000000000000AC
:105390000000000000000000806180618031003367
:1053A0000033001B001B001B000E000E000E001C33
:1053B000007C007000000000000000000000C07FC2
:1053C000C07F800100030006000C00180030C07F81
:1053D000C07F000000000000800380070006000678
:1053E000000600060006000E001C001C000E000651
:1053F000000600060006000680078003000600067F
:10540000000600060006000600060006000600066C
:10541000000600060006000600060006000600065C
:105420000038003C000C000C000C000C000C000EBE
:1054300000070007000E000C000C000C000C000C14
:10544000003C0038000000000000000000000000E8
:1054500000008038807F004700000000000000004E
:10546000000000000000000000000000000000003C
:10547000000000000000000000000000001000100C
:1054800000100010001000100000001000000000CC
:105490000028002800280000000000000000000094
:1054A0000000000000240024007C00240048007C50
:1054B0000048004800000000003800540050003848
:1054C0000014005400540038001000000020005464
:1054D00000580030002800540014000800000000AC
:1054E0000010002800280010003400480048003454
:1054F000000000000010001000100000000000007C
:105500000000000000000000000800100020002043
:1055100000200020002000200010000800200010C3
:10552000000800080008000800080008001000201B
:1055300000100038001000280000000000000000EB
:10554000000000000000000000100010007C0010AF
:10555000001000000000000000000000000000003B
:10556000000000000000001000100010000000000B
:1055700000000000000000380000000000000000F3
:10558000000000000000000000000000000000100B
:1055900000000000000800080010001000100010BB
:1055A00000200020000000000038004400440054A7
:1055B00000440044004400380000000000100030A7
:1055C000005000100010001000100010000000003B
:1055D0000038004400440004000800100020007C53
:1055E000000000000038004400040018000400041B
:1055F00000440038000000000008001800280028BF
:105600000048007C0008000800000000007C00400A
:10561000004000780004000400440038000000004E
:105620000038004400400078004400440044003842
:1056300000000000007C00040008001000100020A2
:105640000020002000000000003800440044003822
:1056500000440044004400380000000000380044CA
:1056600000440044003C00040044003800000000F6
:10567000000000000010000000000000000000100A
:10568000000000000000000000000010000000000A
:10569000000000100010001000000000000C00309E
:1056A00000400030000C000000000000000000007E
:1056B0000000007C0000007C0000000000000000F2
:1056C00000000000006000180004001800600000E6
:1056D0000000000000380044000400080010001022
:1056E000000000100000000000380044004C00548E
:1056F000005C00400040003800000000001000285E
:10570000002800280028007C00440044000000001D
:1057100000780044004400780044004400440078CD
:1057200000000000003800440040004000400040FD
:1057300000440038000000000070004800440044AD
:10574000004400440048007000000000007C00405D
:105750000040007C004000400040007C0000000051
:10576000007C0040004000780040004000400040C5
:10577000000000000038004400400040005C00448D
:105780000044003800000000004400440044007C55
:1057900000440044004400440000000000380010B1
:1057A0000010001000100010001000380000000071
:1057B0000004000400040004000400040044003855
:1057C0000000000000440048005000600050004805
:1057D000004800440000000000400040004000403D
:1057E000004000400040007C000000000044006CCD
:1057F000006C0054004400440044004400000000D9
:1058000000440064006400540054004C004C004408
:1058100000000000003800440044004400440044FC
:1058200000440038000000000078004400440044B8
:1058300000780040004000400000000000380044B4
:1058400000440044004400440054003800040000B8
:1058500000780044004400440078004800480044B8
:105860000000000000380044004000300008000440
:105870000044003800000000007C00100010001000
:105880000010001000100010000000000044004450
:10589000004400440044004400440038000000007C
:1058A0000044004400440028002800280010001094
:1058B0000000000000440044005400540054006CF8
:1058C00000280028000000000044002800280010E4
:1058D000001000280028004400000000004400449C
:1058E0000028002800100010001000100000000028
:1058F000007C000400080010001000200040007C24
:10590000000000000018001000100010001000102F
:1059100000100010001000180020002000100010DF
:105920000010001000080008000000000030001007
:1059300000100010001000100010001000100030C7
:1059400000100028002800440000000000000000B3
:105950000000000000000000000000000000000047
:1059600000000000000000FE002000100000000009
:105970000000000000000000000000000000000027
:1059800000380044003C0044004C0034000000009B
:105990000040004000580064004400440064005887
:1059A00000000000000000000038004400400040FB
:1059B0000044003800000000000400040034004CE3
:1059C00000440044004C00340000000000000000CF
:1059D00000380044007C0040004400380000000013
:1059E000000C0010007C00100010001000100010CF
:1059F00000000000000000000034004C004400449F
:105A0000004C00340004007800400040005800645E
:105A10000044004400440044000000000010000066
:105A200000700010001000100010001000000000B6
:105A30000010000000700010001000100010001096
:105A4000001000E00040004000480050006000509E
:105A5000004800440000000000700010001000101A
:105A600000100010001000100000000000000000F6
:105A7000007800540054005400540054000000000A
:105A8000000000000058006400440044004400444A
:105A90000000000000000000003800440044004402
:105AA00000440038000000000000000000580064BE
:105AB0000044004400640058004000400000000022
:105AC0000034004C00440044004C00340004000446
